{
  "transactions": [
    {
      "hash": "0x89f02412b8062bd1ce7f46086c12d9c72f4938e52ac3fa456d532fd078bd0f55",
      "transactionType": "CALL",
      "contractName": null,
      "contractAddress": "0x40a388752f12765a94ff5763467958104ec22d20",
      "function": "addToken(address)",
      "arguments": [
        "0x79DE49EbD73b749Ec19790132C3F8Cc2E6E90f1b"
      ],
      "transaction": {
        "from": "0xc4fe13e473e6ad2bb0ba8a365bf581080d92db18",
        "to": "0x40a388752f12765a94ff5763467958104ec22d20",
        "gas": "0x1cb46",
        "value": "0x0",
        "input": "0xd48bfca700000000000000000000000079de49ebd73b749ec19790132c3f8cc2e6e90f1b",
        "nonce": "0xbc",
        "chainId": "0x515"
      },
      "additionalContracts": [],
      "isFixedGasLimit": false
    },
    {
      "hash": "0x0360e526efcffc50a1b3b30b3f73861c3dbdc33e6164645255718a0d5d750e92",
      "transactionType": "CALL",
      "contractName": null,
      "contractAddress": "0x79de49ebd73b749ec19790132c3f8cc2e6e90f1b",
      "function": "approve(address,uint256)",
      "arguments": [
        "0x40A388752F12765A94Ff5763467958104eC22d20",
        "20000000000000000000"
      ],
      "transaction": {
        "from": "0xc4fe13e473e6ad2bb0ba8a365bf581080d92db18",
        "to": "0x79de49ebd73b749ec19790132c3f8cc2e6e90f1b",
        "gas": "0x10184",
        "value": "0x0",
        "input": "0x095ea7b300000000000000000000000040a388752f12765a94ff5763467958104ec22d20000000000000000000000000000000000000000000000001158e460913d00000",
        "nonce": "0xbd",
        "chainId": "0x515"
      },
      "additionalContracts": [],
      "isFixedGasLimit": false
    },
    {
      "hash": "0xb73da7a456d2ef37399ce5ba0d592487faafab7e478a3da8e39d796d181476c3",
      "transactionType": "CALL",
      "contractName": null,
      "contractAddress": "0x40a388752f12765a94ff5763467958104ec22d20",
      "function": "depositFunds(address,uint256)",
      "arguments": [
        "0x79DE49EbD73b749Ec19790132C3F8Cc2E6E90f1b",
        "20000000000000000000"
      ],
      "transaction": {
        "from": "0xc4fe13e473e6ad2bb0ba8a365bf581080d92db18",
        "to": "0x40a388752f12765a94ff5763467958104ec22d20",
        "gas": "0x24ad6",
        "value": "0x0",
        "input": "0x921b004b00000000000000000000000079de49ebd73b749ec19790132c3f8cc2e6e90f1b000000000000000000000000000000000000000000000001158e460913d00000",
        "nonce": "0xbe",
        "chainId": "0x515"
      },
      "additionalContracts": [],
      "isFixedGasLimit": false
    }
  ],
  "receipts": [
    {
      "status": "0x1",
      "cumulativeGasUsed": "0x2439d",
      "logs": [
        {
          "address": "0x40a388752f12765a94ff5763467958104ec22d20",
          "topics": [
            "0x784c8f4dbf0ffedd6e72c76501c545a70f8b203b30a26ce542bf92ba87c248a4",
            "0x00000000000000000000000079de49ebd73b749ec19790132c3f8cc2e6e90f1b"
          ],
          "data": "0x",
          "blockHash": "0xdef865ff016779112e84f54d6f0fa00a9bd0f2045fd87011c5f6a5aa14f82572",
          "blockNumber": "0x1ea966a",
          "blockTimestamp": "0x68d843b6",
          "transactionHash": "0x89f02412b8062bd1ce7f46086c12d9c72f4938e52ac3fa456d532fd078bd0f55",
          "transactionIndex": "0x2",
          "logIndex": "0x0",
          "removed": false
        }
      ],
      "logsBloom": "0x00000000000000000000000000000000000000000000000000000000000000000000000000000000000000000000000000000000000000000000000000000400000000000000000000000000000000000000000000000000000000000000000000000000800000000000000000000000000000000000200000000000000000000000040000000000000000000000000000000000000000400800000000000000000000000000000000200000000000000000000000000000000000000000000000000000000000000000000000000000000000000000000001000000000000000000000000000000000000000000000000000000000000001000000000000000",
      "type": "0x2",
      "transactionHash": "0x89f02412b8062bd1ce7f46086c12d9c72f4938e52ac3fa456d532fd078bd0f55",
      "transactionIndex": "0x2",
      "blockHash": "0xdef865ff016779112e84f54d6f0fa00a9bd0f2045fd87011c5f6a5aa14f82572",
      "blockNumber": "0x1ea966a",
      "gasUsed": "0x13a09",
      "effectiveGasPrice": "0xfe",
      "from": "0xc4fe13e473e6ad2bb0ba8a365bf581080d92db18",
      "to": "0x40a388752f12765a94ff5763467958104ec22d20",
      "contractAddress": null,
      "l1BaseFeeScalar": "0x7d0",
      "l1BlobBaseFee": "0x2",
      "l1BlobBaseFeeScalar": "0xdbba0",
      "l1Fee": "0xd4",
      "l1GasPrice": "0xa",
      "l1GasUsed": "0x640"
    },
    {
      "status": "0x1",
      "cumulativeGasUsed": "0x2fe0d",
      "logs": [
        {
          "address": "0x79de49ebd73b749ec19790132c3f8cc2e6e90f1b",
          "topics": [
            "0x8c5be1e5ebec7d5bd14f71427d1e84f3dd0314c0f7b2291e5b200ac8c7c3b925",
            "0x000000000000000000000000c4fe13e473e6ad2bb0ba8a365bf581080d92db18",
            "0x00000000000000000000000040a388752f12765a94ff5763467958104ec22d20"
          ],
          "data": "0x000000000000000000000000000000000000000000000001158e460913d00000",
          "blockHash": "0xdef865ff016779112e84f54d6f0fa00a9bd0f2045fd87011c5f6a5aa14f82572",
          "blockNumber": "0x1ea966a",
          "blockTimestamp": "0x68d843b6",
          "transactionHash": "0x0360e526efcffc50a1b3b30b3f73861c3dbdc33e6164645255718a0d5d750e92",
          "transactionIndex": "0x3",
          "logIndex": "0x1",
          "removed": false
        }
      ],
      "logsBloom": "0x00000400000000000000000000000000000000000000000000000010000000000000000000000000000000000000000000000000000000000000000000200000000400000000000000000000000000000000000000000000000000000000000040000000000000000000000000000000000000000000000000000000000000000000000000000000000000000000000000000000000000000000000000000000020000000000000000020000000000000000000000000000000000000000000000000080000000000000000000000000010000000000000000000000000000000010000000000800000000000040000000000000000000000000000000000000",
      "type": "0x2",
      "transactionHash": "0x0360e526efcffc50a1b3b30b3f73861c3dbdc33e6164645255718a0d5d750e92",
      "transactionIndex": "0x3",
      "blockHash": "0xdef865ff016779112e84f54d6f0fa00a9bd0f2045fd87011c5f6a5aa14f82572",
      "blockNumber": "0x1ea966a",
      "gasUsed": "0xba70",
      "effectiveGasPrice": "0xfe",
      "from": "0xc4fe13e473e6ad2bb0ba8a365bf581080d92db18",
      "to": "0x79de49ebd73b749ec19790132c3f8cc2e6e90f1b",
      "contractAddress": null,
      "l1BaseFeeScalar": "0x7d0",
      "l1BlobBaseFee": "0x2",
      "l1BlobBaseFeeScalar": "0xdbba0",
      "l1Fee": "0xd4",
      "l1GasPrice": "0xa",
      "l1GasUsed": "0x640"
    },
    {
      "status": "0x1",
      "cumulativeGasUsed": "0x4a6ea",
      "logs": [
        {
          "address": "0x79de49ebd73b749ec19790132c3f8cc2e6e90f1b",
          "topics": [
            "0xddf252ad1be2c89b69c2b068fc378daa952ba7f163c4a11628f55a4df523b3ef",
            "0x000000000000000000000000c4fe13e473e6ad2bb0ba8a365bf581080d92db18",
            "0x00000000000000000000000019661a88d3870b15ead59dd5c6a01781533ddb43"
          ],
          "data": "0x000000000000000000000000000000000000000000000001158e460913d00000",
          "blockHash": "0xdef865ff016779112e84f54d6f0fa00a9bd0f2045fd87011c5f6a5aa14f82572",
          "blockNumber": "0x1ea966a",
          "blockTimestamp": "0x68d843b6",
          "transactionHash": "0xb73da7a456d2ef37399ce5ba0d592487faafab7e478a3da8e39d796d181476c3",
          "transactionIndex": "0x4",
          "logIndex": "0x2",
          "removed": false
        },
        {
          "address": "0x40a388752f12765a94ff5763467958104ec22d20",
          "topics": [
            "0xf0d0e99cae184d0187b093b48894117462462379674a6e11d89c3fbb618e96b0",
            "0x000000000000000000000000c4fe13e473e6ad2bb0ba8a365bf581080d92db18",
            "0x00000000000000000000000079de49ebd73b749ec19790132c3f8cc2e6e90f1b"
          ],
          "data": "0x000000000000000000000000000000000000000000000001158e460913d00000",
          "blockHash": "0xdef865ff016779112e84f54d6f0fa00a9bd0f2045fd87011c5f6a5aa14f82572",
          "blockNumber": "0x1ea966a",
          "blockTimestamp": "0x68d843b6",
          "transactionHash": "0xb73da7a456d2ef37399ce5ba0d592487faafab7e478a3da8e39d796d181476c3",
          "transactionIndex": "0x4",
          "logIndex": "0x3",
          "removed": false
        }
      ],
      "logsBloom": "0x00000000000000000000000000000080000000000000000000000010000000000000000000000000000000000000000000000000000000000000000000000400000000000000000000000008000000000000000000000000000000000000000040000000800000000000400000000004000000000000000000000010000000000000040000000000000000000000000000000008000000400800000000000000000000000000000000020400000000000000000000000000000000000000000000000082000000000000000000000000010000000000000001000000000000000000000000000800000000000000000000000000000000000000000020000000",
      "type": "0x2",
      "transactionHash": "0xb73da7a456d2ef37399ce5ba0d592487faafab7e478a3da8e39d796d181476c3",
      "transactionIndex": "0x4",
      "blockHash": "0xdef865ff016779112e84f54d6f0fa00a9bd0f2045fd87011c5f6a5aa14f82572",
      "blockNumber": "0x1ea966a",
      "gasUsed": "0x1a8dd",
      "effectiveGasPrice": "0xfe",
      "from": "0xc4fe13e473e6ad2bb0ba8a365bf581080d92db18",
      "to": "0x40a388752f12765a94ff5763467958104ec22d20",
      "contractAddress": null,
      "l1BaseFeeScalar": "0x7d0",
      "l1BlobBaseFee": "0x2",
      "l1BlobBaseFeeScalar": "0xdbba0",
      "l1Fee": "0xd4",
      "l1GasPrice": "0xa",
      "l1GasUsed": "0x640"
    }
  ],
  "libraries": [],
  "pending": [],
  "returns": {},
  "timestamp": 1759003575,
  "chain": 1301,
  "commit": "c6ee337"
}