{
  "transactions": [
    {
      "hash": "0x790bd00009361473a9b57c0102756f7bdf4a8641ac4220d17b4cd39fb12a5e8c",
      "transactionType": "CALL",
      "contractName": null,
      "contractAddress": "0x96bea0e29d5a261464e8e7260c1f833aae39dbaf",
      "function": "approve(address,uint256)",
      "arguments": [
        "0x1779ea51D8E246Daa540663c0B0c61b8e588c053",
        "100000000000000000000"
      ],
      "transaction": {
        "from": "0xc4fe13e473e6ad2bb0ba8a365bf581080d92db18",
        "to": "0x96bea0e29d5a261464e8e7260c1f833aae39dbaf",
        "gas": "0x10184",
        "value": "0x0",
        "input": "0x095ea7b30000000000000000000000001779ea51d8e246daa540663c0b0c61b8e588c0530000000000000000000000000000000000000000000000056bc75e2d63100000",
        "nonce": "0xe7",
        "chainId": "0x515"
      },
      "additionalContracts": [],
      "isFixedGasLimit": false
    }
  ],
  "receipts": [
    {
      "status": "0x1",
      "cumulativeGasUsed": "0x1c404",
      "logs": [
        {
          "address": "0x96bea0e29d5a261464e8e7260c1f833aae39dbaf",
          "topics": [
            "0x8c5be1e5ebec7d5bd14f71427d1e84f3dd0314c0f7b2291e5b200ac8c7c3b925",
            "0x000000000000000000000000c4fe13e473e6ad2bb0ba8a365bf581080d92db18",
            "0x0000000000000000000000001779ea51d8e246daa540663c0b0c61b8e588c053"
          ],
          "data": "0x0000000000000000000000000000000000000000000000056bc75e2d63100000",
          "blockHash": "0xcd169ddf6a3160263c04cb81c89c51144893972705addba11b261ed885b048b5",
          "blockNumber": "0x1eac0ef",
          "blockTimestamp": "0x68d86e3b",
          "transactionHash": "0x790bd00009361473a9b57c0102756f7bdf4a8641ac4220d17b4cd39fb12a5e8c",
          "transactionIndex": "0x2",
          "logIndex": "0x0",
          "removed": false
        }
      ],
      "logsBloom": "0x00000000000000000000000000000000000000000000000000000010000000000000000000000000000000000000000000000000000000000020000000200000000000000000000000000000000000000000000000000000000000000000000040000000000000000000000000000000000000000000000000000000000000000000000000000000000000000000000000000100000000000000000000000000020000000000001000008000000000000000000000000000000000000000000000000000000000000000000000000000000000000000000000000000000000000010000000000800000000000000100000000000000000000100000000000000",
      "type": "0x2",
      "transactionHash": "0x790bd00009361473a9b57c0102756f7bdf4a8641ac4220d17b4cd39fb12a5e8c",
      "transactionIndex": "0x2",
      "blockHash": "0xcd169ddf6a3160263c04cb81c89c51144893972705addba11b261ed885b048b5",
      "blockNumber": "0x1eac0ef",
      "gasUsed": "0xba70",
      "effectiveGasPrice": "0xfe",
      "from": "0xc4fe13e473e6ad2bb0ba8a365bf581080d92db18",
      "to": "0x96bea0e29d5a261464e8e7260c1f833aae39dbaf",
      "contractAddress": null,
      "l1BaseFeeScalar": "0x7d0",
      "l1BlobBaseFee": "0x1",
      "l1BlobBaseFeeScalar": "0xdbba0",
      "l1Fee": "0x73",
      "l1GasPrice": "0x8",
      "l1GasUsed": "0x640"
    }
  ],
  "libraries": [],
  "pending": [],
  "returns": {},
  "timestamp": 1759014458,
  "chain": 1301,
  "commit": "c6ee337"
}