{
  "transactions": [
    {
      "hash": "0xabbe0c9fe4a3062aeb6cf290466474530e503bc1426393d48fe67a3a88d2f8ad",
      "transactionType": "CALL",
      "contractName": null,
      "contractAddress": "0x96bea0e29d5a261464e8e7260c1f833aae39dbaf",
      "function": "approve(address,uint256)",
      "arguments": [
        "0x43423a147E1CE9C03C2D8C0936Fc399Fc7220b3d",
        "100000000000000000000"
      ],
      "transaction": {
        "from": "0xc4fe13e473e6ad2bb0ba8a365bf581080d92db18",
        "to": "0x96bea0e29d5a261464e8e7260c1f833aae39dbaf",
        "gas": "0x10184",
        "value": "0x0",
        "input": "0x095ea7b300000000000000000000000043423a147e1ce9c03c2d8c0936fc399fc7220b3d0000000000000000000000000000000000000000000000056bc75e2d63100000",
        "nonce": "0xe4",
        "chainId": "0x515"
      },
      "additionalContracts": [],
      "isFixedGasLimit": false
    }
  ],
  "receipts": [
    {
      "status": "0x1",
      "cumulativeGasUsed": "0x35e51",
      "logs": [
        {
          "address": "0x96bea0e29d5a261464e8e7260c1f833aae39dbaf",
          "topics": [
            "0x8c5be1e5ebec7d5bd14f71427d1e84f3dd0314c0f7b2291e5b200ac8c7c3b925",
            "0x000000000000000000000000c4fe13e473e6ad2bb0ba8a365bf581080d92db18",
            "0x00000000000000000000000043423a147e1ce9c03c2d8c0936fc399fc7220b3d"
          ],
          "data": "0x0000000000000000000000000000000000000000000000056bc75e2d63100000",
          "blockHash": "0xca1b8dd907f695cb455c386bab32cb97c6132d44a7945d0fd0187c760f385fa2",
          "blockNumber": "0x1eabf81",
          "blockTimestamp": "0x68d86ccd",
          "transactionHash": "0xabbe0c9fe4a3062aeb6cf290466474530e503bc1426393d48fe67a3a88d2f8ad",
          "transactionIndex": "0x3",
          "logIndex": "0x1",
          "removed": false
        }
      ],
      "logsBloom": "0x00000000000000000000000000000000000000000000000000000010000000000000000000000004000000000000000000000000000000000000000000200000000000000000000000000000000000000000000000000000000000000000000040000000000000000000000000000000010000000000000000000000000000000000000000000000000000000000000000000000000000000000000000000000020000000000001000008000000000000000000000000000000000000000000000000000000000000000000000000000000000000000000000000100000000000010000000000800000000000000100000000000000000000000000000000000",
      "type": "0x2",
      "transactionHash": "0xabbe0c9fe4a3062aeb6cf290466474530e503bc1426393d48fe67a3a88d2f8ad",
      "transactionIndex": "0x3",
      "blockHash": "0xca1b8dd907f695cb455c386bab32cb97c6132d44a7945d0fd0187c760f385fa2",
      "blockNumber": "0x1eabf81",
      "gasUsed": "0xba70",
      "effectiveGasPrice": "0x30fbb",
      "from": "0xc4fe13e473e6ad2bb0ba8a365bf581080d92db18",
      "to": "0x96bea0e29d5a261464e8e7260c1f833aae39dbaf",
      "contractAddress": null,
      "l1BaseFeeScalar": "0x7d0",
      "l1BlobBaseFee": "0x1",
      "l1BlobBaseFeeScalar": "0xdbba0",
      "l1Fee": "0x73",
      "l1GasPrice": "0x8",
      "l1GasUsed": "0x640"
    }
  ],
  "libraries": [],
  "pending": [],
  "returns": {},
  "timestamp": 1759014093,
  "chain": 1301,
  "commit": "c6ee337"
}