{
  "transactions": [
    {
      "hash": "0x6d7ae1a5cd75362278e9ebf086682ad15b3b8c3f758367ce864147d3b652720c",
      "transactionType": "CALL",
      "contractName": null,
      "contractAddress": "0x5f8cfacda1f8a81f50200b80c2d63f61bc64630e",
      "function": "approve(address,uint256)",
      "arguments": [
        "0x7913E1ee9156068f43624557EE05ABB0053F880e",
        "10000000000000000000"
      ],
      "transaction": {
        "from": "0xc4fe13e473e6ad2bb0ba8a365bf581080d92db18",
        "to": "0x5f8cfacda1f8a81f50200b80c2d63f61bc64630e",
        "gas": "0x10173",
        "value": "0x0",
        "input": "0x095ea7b30000000000000000000000007913e1ee9156068f43624557ee05abb0053f880e0000000000000000000000000000000000000000000000008ac7230489e80000",
        "nonce": "0x218",
        "chainId": "0x515"
      },
      "additionalContracts": [],
      "isFixedGasLimit": false
    },
    {
      "hash": "0xac91cffeee800df52273bc86e6e2f6b8d24234e878f306c78e46a003d095f1d7",
      "transactionType": "CALL",
      "contractName": null,
      "contractAddress": "0x7913e1ee9156068f43624557ee05abb0053f880e",
      "function": "executeCrossPoolTrade((address,address,(address,address,uint24,int24,address),(address,address,uint24,int24,address),address,address,address,uint256,uint256,uint256))",
      "arguments": [
        "(0xC4Fe13e473E6aD2BB0Ba8a365Bf581080d92dB18, 0x0596c7a79F9b65E363308c98415b642Df5639639, (0x1f176479e5d3D62cf1245C7be36Ae2e634988705, 0x5F8CfACDA1f8A81f50200B80C2D63F61bC64630E, 3000, 60, 0x6De61420d77d47Bd038C90fEF421458e5DFEC3c0), (0x5F8CfACDA1f8A81f50200B80C2D63F61bC64630E, 0x7402b4542619128199383E64f0598028Ea9D50B7, 3000, 60, 0x6De61420d77d47Bd038C90fEF421458e5DFEC3c0), 0x5F8CfACDA1f8A81f50200B80C2D63F61bC64630E, 0x1f176479e5d3D62cf1245C7be36Ae2e634988705, 0x7402b4542619128199383E64f0598028Ea9D50B7, 10000000000000000000, 2, 9500000000000000000)"
      ],
      "transaction": {
        "from": "0xc4fe13e473e6ad2bb0ba8a365bf581080d92db18",
        "to": "0x7913e1ee9156068f43624557ee05abb0053f880e",
        "gas": "0xd1370",
        "value": "0x0",
        "input": "0x6b120e54000000000000000000000000c4fe13e473e6ad2bb0ba8a365bf581080d92db180000000000000000000000000596c7a79f9b65e363308c98415b642df56396390000000000000000000000001f176479e5d3d62cf1245c7be36ae2e6349887050000000000000000000000005f8cfacda1f8a81f50200b80c2d63f61bc64630e0000000000000000000000000000000000000000000000000000000000000bb8000000000000000000000000000000000000000000000000000000000000003c0000000000000000000000006de61420d77d47bd038c90fef421458e5dfec3c00000000000000000000000005f8cfacda1f8a81f50200b80c2d63f61bc64630e0000000000000000000000007402b4542619128199383e64f0598028ea9d50b70000000000000000000000000000000000000000000000000000000000000bb8000000000000000000000000000000000000000000000000000000000000003c0000000000000000000000006de61420d77d47bd038c90fef421458e5dfec3c00000000000000000000000005f8cfacda1f8a81f50200b80c2d63f61bc64630e0000000000000000000000001f176479e5d3d62cf1245c7be36ae2e6349887050000000000000000000000007402b4542619128199383e64f0598028ea9d50b70000000000000000000000000000000000000000000000008ac7230489e80000000000000000000000000000000000000000000000000000000000000000000200000000000000000000000000000000000000000000000083d6c7aab6360000",
        "nonce": "0x219",
        "chainId": "0x515"
      },
      "additionalContracts": [],
      "isFixedGasLimit": false
    }
  ],
  "receipts": [
    {
      "status": "0x1",
      "cumulativeGasUsed": "0x1c3f8",
      "logs": [
        {
          "address": "0x5f8cfacda1f8a81f50200b80c2d63f61bc64630e",
          "topics": [
            "0x8c5be1e5ebec7d5bd14f71427d1e84f3dd0314c0f7b2291e5b200ac8c7c3b925",
            "0x000000000000000000000000c4fe13e473e6ad2bb0ba8a365bf581080d92db18",
            "0x0000000000000000000000007913e1ee9156068f43624557ee05abb0053f880e"
          ],
          "data": "0x0000000000000000000000000000000000000000000000008ac7230489e80000",
          "blockHash": "0x4da492cda6cb0e1d8408eb772c6508bcbc1684eb344f798e5f20d6f88c9bfd34",
          "blockNumber": "0x1eb20c8",
          "blockTimestamp": "0x68d8ce14",
          "transactionHash": "0x6d7ae1a5cd75362278e9ebf086682ad15b3b8c3f758367ce864147d3b652720c",
          "transactionIndex": "0x2",
          "logIndex": "0x0",
          "removed": false
        }
      ],
      "logsBloom": "0x00000000000000000000000000000000000000000000000000000010000000000000000000000000000000000200000000000000000000400000000000200004000000000000000000000000000000000000000000000800000000000000000040000000000000000000000000000000000000000000000000000000000000000000000000000000000000000000000000000000000000000000000000080400020000000000000000000000000000000000000000000000000000000000000000000000000000000000000000000000000000000000000000000000000000000010000000000800000000000000000000000000000000000000000000000000",
      "type": "0x2",
      "transactionHash": "0x6d7ae1a5cd75362278e9ebf086682ad15b3b8c3f758367ce864147d3b652720c",
      "transactionIndex": "0x2",
      "blockHash": "0x4da492cda6cb0e1d8408eb772c6508bcbc1684eb344f798e5f20d6f88c9bfd34",
      "blockNumber": "0x1eb20c8",
      "gasUsed": "0xba64",
      "effectiveGasPrice": "0xfe",
      "from": "0xc4fe13e473e6ad2bb0ba8a365bf581080d92db18",
      "to": "0x5f8cfacda1f8a81f50200b80c2d63f61bc64630e",
      "contractAddress": null,
      "l1BaseFeeScalar": "0x7d0",
      "l1BlobBaseFee": "0x1",
      "l1BlobBaseFeeScalar": "0xdbba0",
      "l1Fee": "0x73",
      "l1GasPrice": "0x8",
      "l1GasUsed": "0x640"
    },
    {
      "status": "0x1",
      "cumulativeGasUsed": "0xb3b75",
      "logs": [
        {
          "address": "0x5f8cfacda1f8a81f50200b80c2d63f61bc64630e",
          "topics": [
            "0xddf252ad1be2c89b69c2b068fc378daa952ba7f163c4a11628f55a4df523b3ef",
            "0x000000000000000000000000c4fe13e473e6ad2bb0ba8a365bf581080d92db18",
            "0x0000000000000000000000007913e1ee9156068f43624557ee05abb0053f880e"
          ],
          "data": "0x0000000000000000000000000000000000000000000000008ac7230489e80000",
          "blockHash": "0x4da492cda6cb0e1d8408eb772c6508bcbc1684eb344f798e5f20d6f88c9bfd34",
          "blockNumber": "0x1eb20c8",
          "blockTimestamp": "0x68d8ce14",
          "transactionHash": "0xac91cffeee800df52273bc86e6e2f6b8d24234e878f306c78e46a003d095f1d7",
          "transactionIndex": "0x3",
          "logIndex": "0x1",
          "removed": false
        },
        {
          "address": "0x7913e1ee9156068f43624557ee05abb0053f880e",
          "topics": [
            "0x20918839a2e9e376ddba6db17602a1ed205952e3267532daba5d76426788ed81",
            "0x0000000000000000000000000000000000000000000000000000000000000000",
            "0xaa09d4c6b851230f2566ee725e377337c8a777f759f82e02e4fa1d7dbc570867"
          ],
          "data": "0x00000000000000000000000000000000000000000000000000000000000003e8",
          "blockHash": "0x4da492cda6cb0e1d8408eb772c6508bcbc1684eb344f798e5f20d6f88c9bfd34",
          "blockNumber": "0x1eb20c8",
          "blockTimestamp": "0x68d8ce14",
          "transactionHash": "0xac91cffeee800df52273bc86e6e2f6b8d24234e878f306c78e46a003d095f1d7",
          "transactionIndex": "0x3",
          "logIndex": "0x2",
          "removed": false
        },
        {
          "address": "0x7913e1ee9156068f43624557ee05abb0053f880e",
          "topics": [
            "0xcab6aa9bf6b409f52bb70d80ac48dbdb1067671246f44c52a09b43e9cd1b83ae",
            "0xa25843ac2acd9849ae94627b499e87a5ad1923cc075bfebb5f5471e3a9239037",
            "0x000000000000000000000000c4fe13e473e6ad2bb0ba8a365bf581080d92db18"
          ],
          "data": "0x00000000000000000000000000000000000000000000000000000000000000020000000000000000000000000000000000000000000000008ac7230489e803e8",
          "blockHash": "0x4da492cda6cb0e1d8408eb772c6508bcbc1684eb344f798e5f20d6f88c9bfd34",
          "blockNumber": "0x1eb20c8",
          "blockTimestamp": "0x68d8ce14",
          "transactionHash": "0xac91cffeee800df52273bc86e6e2f6b8d24234e878f306c78e46a003d095f1d7",
          "transactionIndex": "0x3",
          "logIndex": "0x3",
          "removed": false
        }
      ],
      "logsBloom": "0x00000000800000000000000000000000000000000000000000000010000000000000000000000000008000020200000000000000000000400000000000000086000200000000000000000808000000000000000000000800000000000000040040000000020000000010002000000800000000000000000000000010000000000000000000000000008000000000000000000000000000000000020000080410000000000000000000000000000000000000000200000000000000000800000000000002000000000000000000000000000000000000000000000000000020000000000000000800000000000000000000000000000000000000000000000000",
      "type": "0x2",
      "transactionHash": "0xac91cffeee800df52273bc86e6e2f6b8d24234e878f306c78e46a003d095f1d7",
      "transactionIndex": "0x3",
      "blockHash": "0x4da492cda6cb0e1d8408eb772c6508bcbc1684eb344f798e5f20d6f88c9bfd34",
      "blockNumber": "0x1eb20c8",
      "gasUsed": "0x9777d",
      "effectiveGasPrice": "0xfe",
      "from": "0xc4fe13e473e6ad2bb0ba8a365bf581080d92db18",
      "to": "0x7913e1ee9156068f43624557ee05abb0053f880e",
      "contractAddress": null,
      "l1BaseFeeScalar": "0x7d0",
      "l1BlobBaseFee": "0x1",
      "l1BlobBaseFeeScalar": "0xdbba0",
      "l1Fee": "0x10e",
      "l1GasPrice": "0x8",
      "l1GasUsed": "0xea4"
    }
  ],
  "libraries": [],
  "pending": [],
  "returns": {
    "positionId": {
      "internal_type": "bytes32",
      "value": "0x43616a41000a5d7676bf0753ad5d57e6babc020df01882b02f70811f1ef35a56"
    }
  },
  "timestamp": 1759038999,
  "chain": 1301,
  "commit": "3ad2050"
}