{
  "transactions": [
    {
      "hash": "0xe8211d8609c5a0604c03a1fdb1d826aee2eada16ddb1d6508f171598c3540cec",
      "transactionType": "CALL",
      "contractName": null,
      "contractAddress": "0x4ef15b6187dceea1fa8798408279b38c97340557",
      "function": "createUserAccount()",
      "arguments": [],
      "transaction": {
        "from": "0xc4fe13e473e6ad2bb0ba8a365bf581080d92db18",
        "to": "0x4ef15b6187dceea1fa8798408279b38c97340557",
        "gas": "0x36fbe",
        "value": "0x0",
        "input": "0x8b81d982",
        "nonce": "0x249",
        "chainId": "0x515"
      },
      "additionalContracts": [
        {
          "transactionType": "CREATE",
          "address": "0x9dc39425496a5d9a01479a8b2d71abece6bc6c7d",
          "initCode": "0x3d602d80600a3d3981f3363d3d373d3d3d363d73186c51503cb767dc8129aa64dff8adc2ea5fde725af43d82803e903d91602b57fd5bf3"
        }
      ],
      "isFixedGasLimit": false
    },
    {
      "hash": "0xa21573c7d04924f93de62ac41b74735331d62fb4e84f7a77949bbbc9fc3c6bb4",
      "transactionType": "CALL",
      "contractName": null,
      "contractAddress": "0x4afd548ccb8f5e9df4c05faa437add0c6e315196",
      "function": "approve(address,uint256)",
      "arguments": [
        "0x5F30b1fEdc1284CfC05Ea4b441ce828a3d64B013",
        "1000000000000000000"
      ],
      "transaction": {
        "from": "0xc4fe13e473e6ad2bb0ba8a365bf581080d92db18",
        "to": "0x4afd548ccb8f5e9df4c05faa437add0c6e315196",
        "gas": "0x10173",
        "value": "0x0",
        "input": "0x095ea7b30000000000000000000000005f30b1fedc1284cfc05ea4b441ce828a3d64b0130000000000000000000000000000000000000000000000000de0b6b3a7640000",
        "nonce": "0x24a",
        "chainId": "0x515"
      },
      "additionalContracts": [],
      "isFixedGasLimit": false
    },
    {
      "hash": "0xb95c93be0c5c9796b715b769e6681115ca5bb5487bf67109938c1c795c34d517",
      "transactionType": "CALL",
      "contractName": null,
      "contractAddress": "0x5f30b1fedc1284cfc05ea4b441ce828a3d64b013",
      "function": "executeCrossPoolTrade((address,address,(address,address,uint24,int24,address),(address,address,uint24,int24,address),address,address,address,uint256,uint256,uint256))",
      "arguments": [
        "(0xC4Fe13e473E6aD2BB0Ba8a365Bf581080d92dB18, 0x9dc39425496a5D9A01479a8b2d71AbecE6bC6C7D, (0x4aFd548ccb8F5E9dF4c05FAA437ADd0C6E315196, 0xb1144bA09b8Af62e2BdEBe5Db4cE98C58d287130, 3000, 60, 0x8dB0Bdb0B4bb528059d72e51E76e335cCB0843c0), (0x4aFd548ccb8F5E9dF4c05FAA437ADd0C6E315196, 0xE7f015876dB6cDBE250a14a90a3f42C391fBB918, 3000, 60, 0x8dB0Bdb0B4bb528059d72e51E76e335cCB0843c0), 0x4aFd548ccb8F5E9dF4c05FAA437ADd0C6E315196, 0xb1144bA09b8Af62e2BdEBe5Db4cE98C58d287130, 0xE7f015876dB6cDBE250a14a90a3f42C391fBB918, 1000000000000000000, 2, 950000000000000000)"
      ],
      "transaction": {
        "from": "0xc4fe13e473e6ad2bb0ba8a365bf581080d92db18",
        "to": "0x5f30b1fedc1284cfc05ea4b441ce828a3d64b013",
        "gas": "0xddbac",
        "value": "0x0",
        "input": "0x6b120e54000000000000000000000000c4fe13e473e6ad2bb0ba8a365bf581080d92db180000000000000000000000009dc39425496a5d9a01479a8b2d71abece6bc6c7d0000000000000000000000004afd548ccb8f5e9df4c05faa437add0c6e315196000000000000000000000000b1144ba09b8af62e2bdebe5db4ce98c58d2871300000000000000000000000000000000000000000000000000000000000000bb8000000000000000000000000000000000000000000000000000000000000003c0000000000000000000000008db0bdb0b4bb528059d72e51e76e335ccb0843c00000000000000000000000004afd548ccb8f5e9df4c05faa437add0c6e315196000000000000000000000000e7f015876db6cdbe250a14a90a3f42c391fbb9180000000000000000000000000000000000000000000000000000000000000bb8000000000000000000000000000000000000000000000000000000000000003c0000000000000000000000008db0bdb0b4bb528059d72e51e76e335ccb0843c00000000000000000000000004afd548ccb8f5e9df4c05faa437add0c6e315196000000000000000000000000b1144ba09b8af62e2bdebe5db4ce98c58d287130000000000000000000000000e7f015876db6cdbe250a14a90a3f42c391fbb9180000000000000000000000000000000000000000000000000de0b6b3a764000000000000000000000000000000000000000000000000000000000000000000020000000000000000000000000000000000000000000000000d2f13f7789f0000",
        "nonce": "0x24b",
        "chainId": "0x515"
      },
      "additionalContracts": [],
      "isFixedGasLimit": false
    }
  ],
  "receipts": [
    {
      "status": "0x1",
      "cumulativeGasUsed": "0x39c54",
      "logs": [
        {
          "address": "0x4ef15b6187dceea1fa8798408279b38c97340557",
          "topics": [
            "0xac631f3001b55ea1509cf3d7e74898f85392a61a76e8149181ae1259622dabc8",
            "0x000000000000000000000000c4fe13e473e6ad2bb0ba8a365bf581080d92db18"
          ],
          "data": "0x0000000000000000000000009dc39425496a5d9a01479a8b2d71abece6bc6c7d",
          "blockHash": "0xf065679e67c338ca862cbcbeeec6c1dd086b797742fbc7cdf5aa6a45073ca936",
          "blockNumber": "0x1eb2d90",
          "blockTimestamp": "0x68d8dadc",
          "transactionHash": "0xe8211d8609c5a0604c03a1fdb1d826aee2eada16ddb1d6508f171598c3540cec",
          "transactionIndex": "0x2",
          "logIndex": "0x0",
          "removed": false
        }
      ],
      "logsBloom": "0x00000000000000000000000000000000000000000000000000200010000000000000000000000000000000000000000000000000000000000000000000000000000000000000100000000000000000000000000000000000000000000000002040000008000000000000000000000000000000000000000000000000000000000000000000000000000000000000000001000000000000000000000000000000000000000000000000000000000000000000000000000000000000000000000000000000000000000000000000000000000000000000000000000000000000000000000000000800000000040000000000000000000000000000000000000000",
      "type": "0x2",
      "transactionHash": "0xe8211d8609c5a0604c03a1fdb1d826aee2eada16ddb1d6508f171598c3540cec",
      "transactionIndex": "0x2",
      "blockHash": "0xf065679e67c338ca862cbcbeeec6c1dd086b797742fbc7cdf5aa6a45073ca936",
      "blockNumber": "0x1eb2d90",
      "gasUsed": "0x27cec",
      "effectiveGasPrice": "0xfe",
      "from": "0xc4fe13e473e6ad2bb0ba8a365bf581080d92db18",
      "to": "0x4ef15b6187dceea1fa8798408279b38c97340557",
      "contractAddress": null,
      "l1BaseFeeScalar": "0x7d0",
      "l1BlobBaseFee": "0x1",
      "l1BlobBaseFeeScalar": "0xdbba0",
      "l1Fee": "0x80",
      "l1GasPrice": "0xc",
      "l1GasUsed": "0x640"
    },
    {
      "status": "0x1",
      "cumulativeGasUsed": "0x456b8",
      "logs": [
        {
          "address": "0x4afd548ccb8f5e9df4c05faa437add0c6e315196",
          "topics": [
            "0x8c5be1e5ebec7d5bd14f71427d1e84f3dd0314c0f7b2291e5b200ac8c7c3b925",
            "0x000000000000000000000000c4fe13e473e6ad2bb0ba8a365bf581080d92db18",
            "0x0000000000000000000000005f30b1fedc1284cfc05ea4b441ce828a3d64b013"
          ],
          "data": "0x0000000000000000000000000000000000000000000000000de0b6b3a7640000",
          "blockHash": "0xf065679e67c338ca862cbcbeeec6c1dd086b797742fbc7cdf5aa6a45073ca936",
          "blockNumber": "0x1eb2d90",
          "blockTimestamp": "0x68d8dadc",
          "transactionHash": "0xa21573c7d04924f93de62ac41b74735331d62fb4e84f7a77949bbbc9fc3c6bb4",
          "transactionIndex": "0x3",
          "logIndex": "0x1",
          "removed": false
        }
      ],
      "logsBloom": "0x00000000000000000000000000000000000000000000000000000010000000000000000000000000000000000000000000000000000000000000000000200000000000000000000000000000000000000000000000000000000000000000000040000000000000000000000008000000000000000000000000000000000000000000000000000000000008000000000000000000000000000000000000000000020000000200000000040000000000000000000000000000000000000000000000000000000000000000000000000000000000800000000000000000000000000010000000000800000000000000000000000200000000000000000000000000",
      "type": "0x2",
      "transactionHash": "0xa21573c7d04924f93de62ac41b74735331d62fb4e84f7a77949bbbc9fc3c6bb4",
      "transactionIndex": "0x3",
      "blockHash": "0xf065679e67c338ca862cbcbeeec6c1dd086b797742fbc7cdf5aa6a45073ca936",
      "blockNumber": "0x1eb2d90",
      "gasUsed": "0xba64",
      "effectiveGasPrice": "0xfe",
      "from": "0xc4fe13e473e6ad2bb0ba8a365bf581080d92db18",
      "to": "0x4afd548ccb8f5e9df4c05faa437add0c6e315196",
      "contractAddress": null,
      "l1BaseFeeScalar": "0x7d0",
      "l1BlobBaseFee": "0x1",
      "l1BlobBaseFeeScalar": "0xdbba0",
      "l1Fee": "0x80",
      "l1GasPrice": "0xc",
      "l1GasUsed": "0x640"
    },
    {
      "status": "0x1",
      "cumulativeGasUsed": "0xdd07b",
      "logs": [
        {
          "address": "0x4afd548ccb8f5e9df4c05faa437add0c6e315196",
          "topics": [
            "0xddf252ad1be2c89b69c2b068fc378daa952ba7f163c4a11628f55a4df523b3ef",
            "0x000000000000000000000000c4fe13e473e6ad2bb0ba8a365bf581080d92db18",
            "0x0000000000000000000000005f30b1fedc1284cfc05ea4b441ce828a3d64b013"
          ],
          "data": "0x0000000000000000000000000000000000000000000000000de0b6b3a7640000",
          "blockHash": "0xf065679e67c338ca862cbcbeeec6c1dd086b797742fbc7cdf5aa6a45073ca936",
          "blockNumber": "0x1eb2d90",
          "blockTimestamp": "0x68d8dadc",
          "transactionHash": "0xb95c93be0c5c9796b715b769e6681115ca5bb5487bf67109938c1c795c34d517",
          "transactionIndex": "0x4",
          "logIndex": "0x2",
          "removed": false
        },
        {
          "address": "0x5f30b1fedc1284cfc05ea4b441ce828a3d64b013",
          "topics": [
            "0x20918839a2e9e376ddba6db17602a1ed205952e3267532daba5d76426788ed81",
            "0x0000000000000000000000000000000000000000000000000000000000000000",
            "0x712198761b30fcadb2c01dcf968a1d56cd86f4cc7efb37ca2c2d9e074245f300"
          ],
          "data": "0x0000000000000000000000000000000000000000000000000de0b6b3a7640000",
          "blockHash": "0xf065679e67c338ca862cbcbeeec6c1dd086b797742fbc7cdf5aa6a45073ca936",
          "blockNumber": "0x1eb2d90",
          "blockTimestamp": "0x68d8dadc",
          "transactionHash": "0xb95c93be0c5c9796b715b769e6681115ca5bb5487bf67109938c1c795c34d517",
          "transactionIndex": "0x4",
          "logIndex": "0x3",
          "removed": false
        },
        {
          "address": "0x5f30b1fedc1284cfc05ea4b441ce828a3d64b013",
          "topics": [
            "0xcab6aa9bf6b409f52bb70d80ac48dbdb1067671246f44c52a09b43e9cd1b83ae",
            "0x6bbc6ed892a5d0a7812769369d5029025d5d93470774f61573e868c0632a2d14",
            "0x000000000000000000000000c4fe13e473e6ad2bb0ba8a365bf581080d92db18"
          ],
          "data": "0x00000000000000000000000000000000000000000000000000000000000000020000000000000000000000000000000000000000000000001bc16d674ec80000",
          "blockHash": "0xf065679e67c338ca862cbcbeeec6c1dd086b797742fbc7cdf5aa6a45073ca936",
          "blockNumber": "0x1eb2d90",
          "blockTimestamp": "0x68d8dadc",
          "transactionHash": "0xb95c93be0c5c9796b715b769e6681115ca5bb5487bf67109938c1c795c34d517",
          "transactionIndex": "0x4",
          "logIndex": "0x4",
          "removed": false
        }
      ],
      "logsBloom": "0x00000000000000000000000000000000000000000000000000000010000000000000000000000000008000020000000000000000000000000000000000000000000000000200000200000808000000000000000000000000080000000000000040000000020000000000002008000800000000100000000000000010000000000000000000000000008008020000000000000000000000000000000000000010000000000200000000040000000000000000000000000000000000000000000000000002000001000000000000100000002000800000000000000001000020000000000000000800000000000000000000000200000000000000000000000000",
      "type": "0x2",
      "transactionHash": "0xb95c93be0c5c9796b715b769e6681115ca5bb5487bf67109938c1c795c34d517",
      "transactionIndex": "0x4",
      "blockHash": "0xf065679e67c338ca862cbcbeeec6c1dd086b797742fbc7cdf5aa6a45073ca936",
      "blockNumber": "0x1eb2d90",
      "gasUsed": "0x979c3",
      "effectiveGasPrice": "0xfe",
      "from": "0xc4fe13e473e6ad2bb0ba8a365bf581080d92db18",
      "to": "0x5f30b1fedc1284cfc05ea4b441ce828a3d64b013",
      "contractAddress": null,
      "l1BaseFeeScalar": "0x7d0",
      "l1BlobBaseFee": "0x1",
      "l1BlobBaseFeeScalar": "0xdbba0",
      "l1Fee": "0x12e",
      "l1GasPrice": "0xc",
      "l1GasUsed": "0xebf"
    }
  ],
  "libraries": [],
  "pending": [],
  "returns": {
    "positionId": {
      "internal_type": "bytes32",
      "value": "0x65e2cfe2be2445362cfa1a6e286442dfbfeb795f637fa87c654781f8abd3564b"
    }
  },
  "timestamp": 1759042270,
  "chain": 1301,
  "commit": "caffa2d"
}