{
  "transactions": [
    {
      "hash": "0x8819582993f31f6fe83fe2e250f22d3f307203c5f9bf925fbfc70dee96ebc291",
      "transactionType": "CALL",
      "contractName": null,
      "contractAddress": "0x5f8cfacda1f8a81f50200b80c2d63f61bc64630e",
      "function": "approve(address,uint256)",
      "arguments": [
        "0x0732a35371B437ac30A00E0fA6C4149eB2498b35",
        "1000000000000000000"
      ],
      "transaction": {
        "from": "0xc4fe13e473e6ad2bb0ba8a365bf581080d92db18",
        "to": "0x5f8cfacda1f8a81f50200b80c2d63f61bc64630e",
        "gas": "0x10173",
        "value": "0x0",
        "input": "0x095ea7b30000000000000000000000000732a35371b437ac30a00e0fa6c4149eb2498b350000000000000000000000000000000000000000000000000de0b6b3a7640000",
        "nonce": "0x214",
        "chainId": "0x515"
      },
      "additionalContracts": [],
      "isFixedGasLimit": false
    },
    {
      "hash": "0xf76b8a372ce599fc8b4bcdd9c1d9cdd986bd009700e666e24c698404194e2797",
      "transactionType": "CALL",
      "contractName": null,
      "contractAddress": "0x0732a35371b437ac30a00e0fa6c4149eb2498b35",
      "function": "executeCrossPoolTrade((address,address,(address,address,uint24,int24,address),(address,address,uint24,int24,address),address,address,address,uint256,uint256,uint256))",
      "arguments": [
        "(0xC4Fe13e473E6aD2BB0Ba8a365Bf581080d92dB18, 0x0596c7a79F9b65E363308c98415b642Df5639639, (0x1f176479e5d3D62cf1245C7be36Ae2e634988705, 0x5F8CfACDA1f8A81f50200B80C2D63F61bC64630E, 3000, 60, 0x6De61420d77d47Bd038C90fEF421458e5DFEC3c0), (0x5F8CfACDA1f8A81f50200B80C2D63F61bC64630E, 0x7402b4542619128199383E64f0598028Ea9D50B7, 3000, 60, 0x6De61420d77d47Bd038C90fEF421458e5DFEC3c0), 0x5F8CfACDA1f8A81f50200B80C2D63F61bC64630E, 0x1f176479e5d3D62cf1245C7be36Ae2e634988705, 0x7402b4542619128199383E64f0598028Ea9D50B7, 1000000000000000000, 2, 950000000000000000)"
      ],
      "transaction": {
        "from": "0xc4fe13e473e6ad2bb0ba8a365bf581080d92db18",
        "to": "0x0732a35371b437ac30a00e0fa6c4149eb2498b35",
        "gas": "0xd1370",
        "value": "0x0",
        "input": "0x6b120e54000000000000000000000000c4fe13e473e6ad2bb0ba8a365bf581080d92db180000000000000000000000000596c7a79f9b65e363308c98415b642df56396390000000000000000000000001f176479e5d3d62cf1245c7be36ae2e6349887050000000000000000000000005f8cfacda1f8a81f50200b80c2d63f61bc64630e0000000000000000000000000000000000000000000000000000000000000bb8000000000000000000000000000000000000000000000000000000000000003c0000000000000000000000006de61420d77d47bd038c90fef421458e5dfec3c00000000000000000000000005f8cfacda1f8a81f50200b80c2d63f61bc64630e0000000000000000000000007402b4542619128199383e64f0598028ea9d50b70000000000000000000000000000000000000000000000000000000000000bb8000000000000000000000000000000000000000000000000000000000000003c0000000000000000000000006de61420d77d47bd038c90fef421458e5dfec3c00000000000000000000000005f8cfacda1f8a81f50200b80c2d63f61bc64630e0000000000000000000000001f176479e5d3d62cf1245c7be36ae2e6349887050000000000000000000000007402b4542619128199383e64f0598028ea9d50b70000000000000000000000000000000000000000000000000de0b6b3a764000000000000000000000000000000000000000000000000000000000000000000020000000000000000000000000000000000000000000000000d2f13f7789f0000",
        "nonce": "0x215",
        "chainId": "0x515"
      },
      "additionalContracts": [],
      "isFixedGasLimit": false
    }
  ],
  "receipts": [
    {
      "status": "0x1",
      "cumulativeGasUsed": "0x1c3f8",
      "logs": [
        {
          "address": "0x5f8cfacda1f8a81f50200b80c2d63f61bc64630e",
          "topics": [
            "0x8c5be1e5ebec7d5bd14f71427d1e84f3dd0314c0f7b2291e5b200ac8c7c3b925",
            "0x000000000000000000000000c4fe13e473e6ad2bb0ba8a365bf581080d92db18",
            "0x0000000000000000000000000732a35371b437ac30a00e0fa6c4149eb2498b35"
          ],
          "data": "0x0000000000000000000000000000000000000000000000000de0b6b3a7640000",
          "blockHash": "0xb40a835903a658aac1234b6927ffa511d06dda398bd660f81231a81d5b8f9888",
          "blockNumber": "0x1eb1fa7",
          "blockTimestamp": "0x68d8ccf3",
          "transactionHash": "0x8819582993f31f6fe83fe2e250f22d3f307203c5f9bf925fbfc70dee96ebc291",
          "transactionIndex": "0x2",
          "logIndex": "0x0",
          "removed": false
        }
      ],
      "logsBloom": "0x00000000000000000000000000000000000000000000000000000010000000000000000000000000000000000000000000000000000000000000000000200004000000000000000000000000000000000000000000000800000000000000000040000000000000000000000000000000000000000000000000000000000000000000000000000000000000000000000000000000000000000000000000000400020000001000000000000000000000000000000000000000000000000000000000000000000000000000000000000000000000000000000000000000000000000010000008000800000000010000000000000000000000000000000000000000",
      "type": "0x2",
      "transactionHash": "0x8819582993f31f6fe83fe2e250f22d3f307203c5f9bf925fbfc70dee96ebc291",
      "transactionIndex": "0x2",
      "blockHash": "0xb40a835903a658aac1234b6927ffa511d06dda398bd660f81231a81d5b8f9888",
      "blockNumber": "0x1eb1fa7",
      "gasUsed": "0xba64",
      "effectiveGasPrice": "0x61e78",
      "from": "0xc4fe13e473e6ad2bb0ba8a365bf581080d92db18",
      "to": "0x5f8cfacda1f8a81f50200b80c2d63f61bc64630e",
      "contractAddress": null,
      "l1BaseFeeScalar": "0x7d0",
      "l1BlobBaseFee": "0x1",
      "l1BlobBaseFeeScalar": "0xdbba0",
      "l1Fee": "0x7a",
      "l1GasPrice": "0xa",
      "l1GasUsed": "0x640"
    },
    {
      "status": "0x1",
      "cumulativeGasUsed": "0xb3b75",
      "logs": [
        {
          "address": "0x5f8cfacda1f8a81f50200b80c2d63f61bc64630e",
          "topics": [
            "0xddf252ad1be2c89b69c2b068fc378daa952ba7f163c4a11628f55a4df523b3ef",
            "0x000000000000000000000000c4fe13e473e6ad2bb0ba8a365bf581080d92db18",
            "0x0000000000000000000000000732a35371b437ac30a00e0fa6c4149eb2498b35"
          ],
          "data": "0x0000000000000000000000000000000000000000000000000de0b6b3a7640000",
          "blockHash": "0xb40a835903a658aac1234b6927ffa511d06dda398bd660f81231a81d5b8f9888",
          "blockNumber": "0x1eb1fa7",
          "blockTimestamp": "0x68d8ccf3",
          "transactionHash": "0xf76b8a372ce599fc8b4bcdd9c1d9cdd986bd009700e666e24c698404194e2797",
          "transactionIndex": "0x3",
          "logIndex": "0x1",
          "removed": false
        },
        {
          "address": "0x0732a35371b437ac30a00e0fa6c4149eb2498b35",
          "topics": [
            "0x20918839a2e9e376ddba6db17602a1ed205952e3267532daba5d76426788ed81",
            "0x0000000000000000000000000000000000000000000000000000000000000000",
            "0xaa09d4c6b851230f2566ee725e377337c8a777f759f82e02e4fa1d7dbc570867"
          ],
          "data": "0x00000000000000000000000000000000000000000000000000000000000003e8",
          "blockHash": "0xb40a835903a658aac1234b6927ffa511d06dda398bd660f81231a81d5b8f9888",
          "blockNumber": "0x1eb1fa7",
          "blockTimestamp": "0x68d8ccf3",
          "transactionHash": "0xf76b8a372ce599fc8b4bcdd9c1d9cdd986bd009700e666e24c698404194e2797",
          "transactionIndex": "0x3",
          "logIndex": "0x2",
          "removed": false
        },
        {
          "address": "0x0732a35371b437ac30a00e0fa6c4149eb2498b35",
          "topics": [
            "0xcab6aa9bf6b409f52bb70d80ac48dbdb1067671246f44c52a09b43e9cd1b83ae",
            "0xa5cfd99cc48a988aaf25d6da34a935817d9651d13dee7198f0ed9a8f5a525abb",
            "0x000000000000000000000000c4fe13e473e6ad2bb0ba8a365bf581080d92db18"
          ],
          "data": "0x00000000000000000000000000000000000000000000000000000000000000020000000000000000000000000000000000000000000000000de0b6b3a76403e8",
          "blockHash": "0xb40a835903a658aac1234b6927ffa511d06dda398bd660f81231a81d5b8f9888",
          "blockNumber": "0x1eb1fa7",
          "blockTimestamp": "0x68d8ccf3",
          "transactionHash": "0xf76b8a372ce599fc8b4bcdd9c1d9cdd986bd009700e666e24c698404194e2797",
          "transactionIndex": "0x3",
          "logIndex": "0x3",
          "removed": false
        }
      ],
      "logsBloom": "0x00000000800000000000000000000000000000000000000000000010000000000000000000000000008000020000000000000001000000000004000002000004000200000000000000000808000000000000000000000800000000000000044040000000020000000000002000000800000000000000000000000010000000000000000000000000008000000000000000000000000000000000000000000410000000001000000000000000000000000000000000000000000000000000000000000002000000000000000000000000000002000000000001000000000020000000000008000800000000010000000000000000000000000000000000000000",
      "type": "0x2",
      "transactionHash": "0xf76b8a372ce599fc8b4bcdd9c1d9cdd986bd009700e666e24c698404194e2797",
      "transactionIndex": "0x3",
      "blockHash": "0xb40a835903a658aac1234b6927ffa511d06dda398bd660f81231a81d5b8f9888",
      "blockNumber": "0x1eb1fa7",
      "gasUsed": "0x9777d",
      "effectiveGasPrice": "0x61e78",
      "from": "0xc4fe13e473e6ad2bb0ba8a365bf581080d92db18",
      "to": "0x0732a35371b437ac30a00e0fa6c4149eb2498b35",
      "contractAddress": null,
      "l1BaseFeeScalar": "0x7d0",
      "l1BlobBaseFee": "0x1",
      "l1BlobBaseFeeScalar": "0xdbba0",
      "l1Fee": "0x121",
      "l1GasPrice": "0xa",
      "l1GasUsed": "0xeda"
    }
  ],
  "libraries": [],
  "pending": [],
  "returns": {
    "positionId": {
      "internal_type": "bytes32",
      "value": "0x3435aee6f41046285786e0b9521989f5505de7e74dced90d827492bb82595a7e"
    }
  },
  "timestamp": 1759038710,
  "chain": 1301,
  "commit": "3ad2050"
}