{
  "transactions": [
    {
      "hash": "0xc10c6426ad353177f9fbd29b1bfc7a5fb828ee2b6868cb80f794cfa89ab8c5ff",
      "transactionType": "CALL",
      "contractName": null,
      "contractAddress": "0x5f8cfacda1f8a81f50200b80c2d63f61bc64630e",
      "function": "approve(address,uint256)",
      "arguments": [
        "0x520e84f0DaB4aF2A5A6704Ac2Bd632EF9CD5b871",
        "1000000000000000000"
      ],
      "transaction": {
        "from": "0xc4fe13e473e6ad2bb0ba8a365bf581080d92db18",
        "to": "0x5f8cfacda1f8a81f50200b80c2d63f61bc64630e",
        "gas": "0x10173",
        "value": "0x0",
        "input": "0x095ea7b3000000000000000000000000520e84f0dab4af2a5a6704ac2bd632ef9cd5b8710000000000000000000000000000000000000000000000000de0b6b3a7640000",
        "nonce": "0x206",
        "chainId": "0x515"
      },
      "additionalContracts": [],
      "isFixedGasLimit": false
    },
    {
      "hash": "0xcf1804f911cbad7f7014539e59b29c7bb4bd13742c810ee72b2326447e46637a",
      "transactionType": "CALL",
      "contractName": null,
      "contractAddress": "0x520e84f0dab4af2a5a6704ac2bd632ef9cd5b871",
      "function": "executeCrossPoolTrade((address,address,(address,address,uint24,int24,address),(address,address,uint24,int24,address),address,address,address,uint256,uint256,uint256))",
      "arguments": [
        "(0xC4Fe13e473E6aD2BB0Ba8a365Bf581080d92dB18, 0x0596c7a79F9b65E363308c98415b642Df5639639, (0x1f176479e5d3D62cf1245C7be36Ae2e634988705, 0x5F8CfACDA1f8A81f50200B80C2D63F61bC64630E, 3000, 60, 0x6De61420d77d47Bd038C90fEF421458e5DFEC3c0), (0x5F8CfACDA1f8A81f50200B80C2D63F61bC64630E, 0x7402b4542619128199383E64f0598028Ea9D50B7, 3000, 60, 0x6De61420d77d47Bd038C90fEF421458e5DFEC3c0), 0x5F8CfACDA1f8A81f50200B80C2D63F61bC64630E, 0x1f176479e5d3D62cf1245C7be36Ae2e634988705, 0x7402b4542619128199383E64f0598028Ea9D50B7, 1000000000000000000, 2, 950000000000000000)"
      ],
      "transaction": {
        "from": "0xc4fe13e473e6ad2bb0ba8a365bf581080d92db18",
        "to": "0x520e84f0dab4af2a5a6704ac2bd632ef9cd5b871",
        "gas": "0xe0750",
        "value": "0x0",
        "input": "0x6b120e54000000000000000000000000c4fe13e473e6ad2bb0ba8a365bf581080d92db180000000000000000000000000596c7a79f9b65e363308c98415b642df56396390000000000000000000000001f176479e5d3d62cf1245c7be36ae2e6349887050000000000000000000000005f8cfacda1f8a81f50200b80c2d63f61bc64630e0000000000000000000000000000000000000000000000000000000000000bb8000000000000000000000000000000000000000000000000000000000000003c0000000000000000000000006de61420d77d47bd038c90fef421458e5dfec3c00000000000000000000000005f8cfacda1f8a81f50200b80c2d63f61bc64630e0000000000000000000000007402b4542619128199383e64f0598028ea9d50b70000000000000000000000000000000000000000000000000000000000000bb8000000000000000000000000000000000000000000000000000000000000003c0000000000000000000000006de61420d77d47bd038c90fef421458e5dfec3c00000000000000000000000005f8cfacda1f8a81f50200b80c2d63f61bc64630e0000000000000000000000001f176479e5d3d62cf1245c7be36ae2e6349887050000000000000000000000007402b4542619128199383e64f0598028ea9d50b70000000000000000000000000000000000000000000000000de0b6b3a764000000000000000000000000000000000000000000000000000000000000000000020000000000000000000000000000000000000000000000000d2f13f7789f0000",
        "nonce": "0x207",
        "chainId": "0x515"
      },
      "additionalContracts": [],
      "isFixedGasLimit": false
    }
  ],
  "receipts": [
    {
      "status": "0x1",
      "cumulativeGasUsed": "0x3df9c",
      "logs": [
        {
          "address": "0x5f8cfacda1f8a81f50200b80c2d63f61bc64630e",
          "topics": [
            "0x8c5be1e5ebec7d5bd14f71427d1e84f3dd0314c0f7b2291e5b200ac8c7c3b925",
            "0x000000000000000000000000c4fe13e473e6ad2bb0ba8a365bf581080d92db18",
            "0x000000000000000000000000520e84f0dab4af2a5a6704ac2bd632ef9cd5b871"
          ],
          "data": "0x0000000000000000000000000000000000000000000000000de0b6b3a7640000",
          "blockHash": "0x898463e13d95a3968e34bc401ce507adde1b175dc935312ee5558c888d73652b",
          "blockNumber": "0x1eb1957",
          "blockTimestamp": "0x68d8c6a3",
          "transactionHash": "0xc10c6426ad353177f9fbd29b1bfc7a5fb828ee2b6868cb80f794cfa89ab8c5ff",
          "transactionIndex": "0x3",
          "logIndex": "0x2",
          "removed": false
        }
      ],
      "logsBloom": "0x00000000000000000000000000000000000000000000000000000010000000000000000000000000000000000000000000000000000000000000000000200004000000000000000000000000000000000000000000000800000000000000000040000000000000000000000000000000000000000000000000000000000000000000000000000000000000000000000000000000000000000000000000000400020000000000000000000000000000000000000000000000000000000000000000000004000000000000000000000000000000000000000000000000000000000010000000000800000000000000000001040000000000000000000000000000",
      "type": "0x2",
      "transactionHash": "0xc10c6426ad353177f9fbd29b1bfc7a5fb828ee2b6868cb80f794cfa89ab8c5ff",
      "transactionIndex": "0x3",
      "blockHash": "0x898463e13d95a3968e34bc401ce507adde1b175dc935312ee5558c888d73652b",
      "blockNumber": "0x1eb1957",
      "gasUsed": "0xba64",
      "effectiveGasPrice": "0xfe",
      "from": "0xc4fe13e473e6ad2bb0ba8a365bf581080d92db18",
      "to": "0x5f8cfacda1f8a81f50200b80c2d63f61bc64630e",
      "contractAddress": null,
      "l1BaseFeeScalar": "0x7d0",
      "l1BlobBaseFee": "0x1",
      "l1BlobBaseFeeScalar": "0xdbba0",
      "l1Fee": "0x7a",
      "l1GasPrice": "0xa",
      "l1GasUsed": "0x640"
    },
    {
      "status": "0x1",
      "cumulativeGasUsed": "0xaa12e",
      "logs": [
        {
          "address": "0x5f8cfacda1f8a81f50200b80c2d63f61bc64630e",
          "topics": [
            "0xddf252ad1be2c89b69c2b068fc378daa952ba7f163c4a11628f55a4df523b3ef",
            "0x000000000000000000000000c4fe13e473e6ad2bb0ba8a365bf581080d92db18",
            "0x000000000000000000000000520e84f0dab4af2a5a6704ac2bd632ef9cd5b871"
          ],
          "data": "0x0000000000000000000000000000000000000000000000000de0b6b3a7640000",
          "blockHash": "0x4ac9d5ba5d02a6a296b1f5ed9899856cc372d88860290e40779c9fec840d0042",
          "blockNumber": "0x1eb1958",
          "blockTimestamp": "0x68d8c6a4",
          "transactionHash": "0xcf1804f911cbad7f7014539e59b29c7bb4bd13742c810ee72b2326447e46637a",
          "transactionIndex": "0x2",
          "logIndex": "0x0",
          "removed": false
        },
        {
          "address": "0x520e84f0dab4af2a5a6704ac2bd632ef9cd5b871",
          "topics": [
            "0x20918839a2e9e376ddba6db17602a1ed205952e3267532daba5d76426788ed81",
            "0x0000000000000000000000000000000000000000000000000000000000000000",
            "0xaa09d4c6b851230f2566ee725e377337c8a777f759f82e02e4fa1d7dbc570867"
          ],
          "data": "0x00000000000000000000000000000000000000000000000000000000000003e8",
          "blockHash": "0x4ac9d5ba5d02a6a296b1f5ed9899856cc372d88860290e40779c9fec840d0042",
          "blockNumber": "0x1eb1958",
          "blockTimestamp": "0x68d8c6a4",
          "transactionHash": "0xcf1804f911cbad7f7014539e59b29c7bb4bd13742c810ee72b2326447e46637a",
          "transactionIndex": "0x2",
          "logIndex": "0x1",
          "removed": false
        },
        {
          "address": "0x520e84f0dab4af2a5a6704ac2bd632ef9cd5b871",
          "topics": [
            "0xcab6aa9bf6b409f52bb70d80ac48dbdb1067671246f44c52a09b43e9cd1b83ae",
            "0x3bba9e805c8eece468ade47e5645c93b1c937f3b9d82090948c1d99625528598",
            "0x000000000000000000000000c4fe13e473e6ad2bb0ba8a365bf581080d92db18"
          ],
          "data": "0x00000000000000000000000000000000000000000000000000000000000000020000000000000000000000000000000000000000000000000de0b6b3a76403e8",
          "blockHash": "0x4ac9d5ba5d02a6a296b1f5ed9899856cc372d88860290e40779c9fec840d0042",
          "blockNumber": "0x1eb1958",
          "blockTimestamp": "0x68d8c6a4",
          "transactionHash": "0xcf1804f911cbad7f7014539e59b29c7bb4bd13742c810ee72b2326447e46637a",
          "transactionIndex": "0x2",
          "logIndex": "0x2",
          "removed": false
        }
      ],
      "logsBloom": "0x00000000800000000080000000000000000000000000000000000010000000000000000000000000008000020000000000000000000000000000000000000004000200000000000000000808000000000000000000000800000000000000040040000000020000000000002000000800000000000000000000000010000000000000000000000000008000000000000000000000000000000000000000000410000000000000000000000800000000000000000000000000000000010000000000000006000000000000000000000000000000000000000000000000000020000000000000200800000000000000000001040200000008000000000000000000",
      "type": "0x2",
      "transactionHash": "0xcf1804f911cbad7f7014539e59b29c7bb4bd13742c810ee72b2326447e46637a",
      "transactionIndex": "0x2",
      "blockHash": "0x4ac9d5ba5d02a6a296b1f5ed9899856cc372d88860290e40779c9fec840d0042",
      "blockNumber": "0x1eb1958",
      "gasUsed": "0x9979a",
      "effectiveGasPrice": "0xfe",
      "from": "0xc4fe13e473e6ad2bb0ba8a365bf581080d92db18",
      "to": "0x520e84f0dab4af2a5a6704ac2bd632ef9cd5b871",
      "contractAddress": null,
      "l1BaseFeeScalar": "0x7d0",
      "l1BlobBaseFee": "0x1",
      "l1BlobBaseFeeScalar": "0xdbba0",
      "l1Fee": "0x11d",
      "l1GasPrice": "0xa",
      "l1GasUsed": "0xea4"
    }
  ],
  "libraries": [],
  "pending": [],
  "returns": {
    "positionId": {
      "internal_type": "bytes32",
      "value": "0x1b5c4fee90d6f3c05122789a2dfd0b77af2c825c3328dbfcf05c9f42ddd25f6b"
    }
  },
  "timestamp": 1759037094,
  "chain": 1301,
  "commit": "3ad2050"
}