{
  "transactions": [
    {
      "hash": "0x42f36b93e02156ac030dd9c38a547bd9b52694df30bffec87f1c1b5ef3defad5",
      "transactionType": "CALL",
      "contractName": null,
      "contractAddress": "0x5f8cfacda1f8a81f50200b80c2d63f61bc64630e",
      "function": "approve(address,uint256)",
      "arguments": [
        "0x520e84f0DaB4aF2A5A6704Ac2Bd632EF9CD5b871",
        "1000000000000000000"
      ],
      "transaction": {
        "from": "0xc4fe13e473e6ad2bb0ba8a365bf581080d92db18",
        "to": "0x5f8cfacda1f8a81f50200b80c2d63f61bc64630e",
        "gas": "0x10173",
        "value": "0x0",
        "input": "0x095ea7b3000000000000000000000000520e84f0dab4af2a5a6704ac2bd632ef9cd5b8710000000000000000000000000000000000000000000000000de0b6b3a7640000",
        "nonce": "0x208",
        "chainId": "0x515"
      },
      "additionalContracts": [],
      "isFixedGasLimit": false
    },
    {
      "hash": "0xa0c254bd957cda5486c26b9d6af5e8daf84e8e919c0a223589e298307a061340",
      "transactionType": "CALL",
      "contractName": null,
      "contractAddress": "0x520e84f0dab4af2a5a6704ac2bd632ef9cd5b871",
      "function": "executeCrossPoolTrade((address,address,(address,address,uint24,int24,address),(address,address,uint24,int24,address),address,address,address,uint256,uint256,uint256))",
      "arguments": [
        "(0xC4Fe13e473E6aD2BB0Ba8a365Bf581080d92dB18, 0x0596c7a79F9b65E363308c98415b642Df5639639, (0x1f176479e5d3D62cf1245C7be36Ae2e634988705, 0x5F8CfACDA1f8A81f50200B80C2D63F61bC64630E, 3000, 60, 0x6De61420d77d47Bd038C90fEF421458e5DFEC3c0), (0x5F8CfACDA1f8A81f50200B80C2D63F61bC64630E, 0x7402b4542619128199383E64f0598028Ea9D50B7, 3000, 60, 0x6De61420d77d47Bd038C90fEF421458e5DFEC3c0), 0x5F8CfACDA1f8A81f50200B80C2D63F61bC64630E, 0x1f176479e5d3D62cf1245C7be36Ae2e634988705, 0x7402b4542619128199383E64f0598028Ea9D50B7, 1000000000000000000, 2, 950000000000000000)"
      ],
      "transaction": {
        "from": "0xc4fe13e473e6ad2bb0ba8a365bf581080d92db18",
        "to": "0x520e84f0dab4af2a5a6704ac2bd632ef9cd5b871",
        "gas": "0xc2b02",
        "value": "0x0",
        "input": "0x6b120e54000000000000000000000000c4fe13e473e6ad2bb0ba8a365bf581080d92db180000000000000000000000000596c7a79f9b65e363308c98415b642df56396390000000000000000000000001f176479e5d3d62cf1245c7be36ae2e6349887050000000000000000000000005f8cfacda1f8a81f50200b80c2d63f61bc64630e0000000000000000000000000000000000000000000000000000000000000bb8000000000000000000000000000000000000000000000000000000000000003c0000000000000000000000006de61420d77d47bd038c90fef421458e5dfec3c00000000000000000000000005f8cfacda1f8a81f50200b80c2d63f61bc64630e0000000000000000000000007402b4542619128199383e64f0598028ea9d50b70000000000000000000000000000000000000000000000000000000000000bb8000000000000000000000000000000000000000000000000000000000000003c0000000000000000000000006de61420d77d47bd038c90fef421458e5dfec3c00000000000000000000000005f8cfacda1f8a81f50200b80c2d63f61bc64630e0000000000000000000000001f176479e5d3d62cf1245c7be36ae2e6349887050000000000000000000000007402b4542619128199383e64f0598028ea9d50b70000000000000000000000000000000000000000000000000de0b6b3a764000000000000000000000000000000000000000000000000000000000000000000020000000000000000000000000000000000000000000000000d2f13f7789f0000",
        "nonce": "0x209",
        "chainId": "0x515"
      },
      "additionalContracts": [],
      "isFixedGasLimit": false
    }
  ],
  "receipts": [
    {
      "status": "0x1",
      "cumulativeGasUsed": "0x1c3f8",
      "logs": [
        {
          "address": "0x5f8cfacda1f8a81f50200b80c2d63f61bc64630e",
          "topics": [
            "0x8c5be1e5ebec7d5bd14f71427d1e84f3dd0314c0f7b2291e5b200ac8c7c3b925",
            "0x000000000000000000000000c4fe13e473e6ad2bb0ba8a365bf581080d92db18",
            "0x000000000000000000000000520e84f0dab4af2a5a6704ac2bd632ef9cd5b871"
          ],
          "data": "0x0000000000000000000000000000000000000000000000000de0b6b3a7640000",
          "blockHash": "0xead2573d462aa8375e1d16b00699b5679819196d11dae50534d3807b04dbe965",
          "blockNumber": "0x1eb1a24",
          "blockTimestamp": "0x68d8c770",
          "transactionHash": "0x42f36b93e02156ac030dd9c38a547bd9b52694df30bffec87f1c1b5ef3defad5",
          "transactionIndex": "0x2",
          "logIndex": "0x0",
          "removed": false
        }
      ],
      "logsBloom": "0x00000000000000000000000000000000000000000000000000000010000000000000000000000000000000000000000000000000000000000000000000200004000000000000000000000000000000000000000000000800000000000000000040000000000000000000000000000000000000000000000000000000000000000000000000000000000000000000000000000000000000000000000000000400020000000000000000000000000000000000000000000000000000000000000000000004000000000000000000000000000000000000000000000000000000000010000000000800000000000000000001040000000000000000000000000000",
      "type": "0x2",
      "transactionHash": "0x42f36b93e02156ac030dd9c38a547bd9b52694df30bffec87f1c1b5ef3defad5",
      "transactionIndex": "0x2",
      "blockHash": "0xead2573d462aa8375e1d16b00699b5679819196d11dae50534d3807b04dbe965",
      "blockNumber": "0x1eb1a24",
      "gasUsed": "0xba64",
      "effectiveGasPrice": "0x1879d",
      "from": "0xc4fe13e473e6ad2bb0ba8a365bf581080d92db18",
      "to": "0x5f8cfacda1f8a81f50200b80c2d63f61bc64630e",
      "contractAddress": null,
      "l1BaseFeeScalar": "0x7d0",
      "l1BlobBaseFee": "0x1",
      "l1BlobBaseFeeScalar": "0xdbba0",
      "l1Fee": "0x73",
      "l1GasPrice": "0x8",
      "l1GasUsed": "0x640"
    },
    {
      "status": "0x1",
      "cumulativeGasUsed": "0xa932e",
      "logs": [
        {
          "address": "0x5f8cfacda1f8a81f50200b80c2d63f61bc64630e",
          "topics": [
            "0xddf252ad1be2c89b69c2b068fc378daa952ba7f163c4a11628f55a4df523b3ef",
            "0x000000000000000000000000c4fe13e473e6ad2bb0ba8a365bf581080d92db18",
            "0x000000000000000000000000520e84f0dab4af2a5a6704ac2bd632ef9cd5b871"
          ],
          "data": "0x0000000000000000000000000000000000000000000000000de0b6b3a7640000",
          "blockHash": "0xead2573d462aa8375e1d16b00699b5679819196d11dae50534d3807b04dbe965",
          "blockNumber": "0x1eb1a24",
          "blockTimestamp": "0x68d8c770",
          "transactionHash": "0xa0c254bd957cda5486c26b9d6af5e8daf84e8e919c0a223589e298307a061340",
          "transactionIndex": "0x3",
          "logIndex": "0x1",
          "removed": false
        },
        {
          "address": "0x520e84f0dab4af2a5a6704ac2bd632ef9cd5b871",
          "topics": [
            "0x20918839a2e9e376ddba6db17602a1ed205952e3267532daba5d76426788ed81",
            "0x0000000000000000000000000000000000000000000000000000000000000000",
            "0xaa09d4c6b851230f2566ee725e377337c8a777f759f82e02e4fa1d7dbc570867"
          ],
          "data": "0x00000000000000000000000000000000000000000000000000000000000003e8",
          "blockHash": "0xead2573d462aa8375e1d16b00699b5679819196d11dae50534d3807b04dbe965",
          "blockNumber": "0x1eb1a24",
          "blockTimestamp": "0x68d8c770",
          "transactionHash": "0xa0c254bd957cda5486c26b9d6af5e8daf84e8e919c0a223589e298307a061340",
          "transactionIndex": "0x3",
          "logIndex": "0x2",
          "removed": false
        },
        {
          "address": "0x520e84f0dab4af2a5a6704ac2bd632ef9cd5b871",
          "topics": [
            "0xcab6aa9bf6b409f52bb70d80ac48dbdb1067671246f44c52a09b43e9cd1b83ae",
            "0x7bfa5ea4c47d79a9c18cb251df8b6c714decc6ebd6f891faf10bbf7c48db434b",
            "0x000000000000000000000000c4fe13e473e6ad2bb0ba8a365bf581080d92db18"
          ],
          "data": "0x00000000000000000000000000000000000000000000000000000000000000020000000000000000000000000000000000000000000000000de0b6b3a76403e8",
          "blockHash": "0xead2573d462aa8375e1d16b00699b5679819196d11dae50534d3807b04dbe965",
          "blockNumber": "0x1eb1a24",
          "blockTimestamp": "0x68d8c770",
          "transactionHash": "0xa0c254bd957cda5486c26b9d6af5e8daf84e8e919c0a223589e298307a061340",
          "transactionIndex": "0x3",
          "logIndex": "0x3",
          "removed": false
        }
      ],
      "logsBloom": "0x02000000800000000080000000000000000000000000000000000010000000000000000000000000008000020000000000000000000000000000000000000004000200000000000000000808000000000000000000000800000000000000040040000000020000000000002000000800000000000000000000000010000000000000000000100000008000000000000000000000000000000000000000000410000000000000000000000800000000000000000000000000000000000000000000000006000000000000000000000000000000000000000000000000000020000000000000000800000000000000000001040000000008000020000000000000",
      "type": "0x2",
      "transactionHash": "0xa0c254bd957cda5486c26b9d6af5e8daf84e8e919c0a223589e298307a061340",
      "transactionIndex": "0x3",
      "blockHash": "0xead2573d462aa8375e1d16b00699b5679819196d11dae50534d3807b04dbe965",
      "blockNumber": "0x1eb1a24",
      "gasUsed": "0x8cf36",
      "effectiveGasPrice": "0x1879d",
      "from": "0xc4fe13e473e6ad2bb0ba8a365bf581080d92db18",
      "to": "0x520e84f0dab4af2a5a6704ac2bd632ef9cd5b871",
      "contractAddress": null,
      "l1BaseFeeScalar": "0x7d0",
      "l1BlobBaseFee": "0x1",
      "l1BlobBaseFeeScalar": "0xdbba0",
      "l1Fee": "0x112",
      "l1GasPrice": "0x8",
      "l1GasUsed": "0xeda"
    }
  ],
  "libraries": [],
  "pending": [],
  "returns": {
    "positionId": {
      "internal_type": "bytes32",
      "value": "0x9b91df790988ed930bd445b913bc98641f34a49ced11b7a76be1ab9c27e345b5"
    }
  },
  "timestamp": 1759037298,
  "chain": 1301,
  "commit": "3ad2050"
}