{
  "transactions": [
    {
      "hash": "0x7d92cbd6625d2a3d6e9883f99b4216baa7f884e337577dae201f08bdd4a6ecb9",
      "transactionType": "CALL",
      "contractName": null,
      "contractAddress": "0x5f8cfacda1f8a81f50200b80c2d63f61bc64630e",
      "function": "approve(address,uint256)",
      "arguments": [
        "0xb7d1b6d342A29af66C3cf1B7BD171F1CbD36775f",
        "1000000000000000000"
      ],
      "transaction": {
        "from": "0xc4fe13e473e6ad2bb0ba8a365bf581080d92db18",
        "to": "0x5f8cfacda1f8a81f50200b80c2d63f61bc64630e",
        "gas": "0x10173",
        "value": "0x0",
        "input": "0x095ea7b3000000000000000000000000b7d1b6d342a29af66c3cf1b7bd171f1cbd36775f0000000000000000000000000000000000000000000000000de0b6b3a7640000",
        "nonce": "0x226",
        "chainId": "0x515"
      },
      "additionalContracts": [],
      "isFixedGasLimit": false
    },
    {
      "hash": "0x573806d61839126e94aaee59f5318da8aa3993b9b8b1a91a0e9ac3c49cebbcd8",
      "transactionType": "CALL",
      "contractName": null,
      "contractAddress": "0xb7d1b6d342a29af66c3cf1b7bd171f1cbd36775f",
      "function": "executeCrossPoolTrade((address,address,(address,address,uint24,int24,address),(address,address,uint24,int24,address),address,address,address,uint256,uint256,uint256))",
      "arguments": [
        "(0xC4Fe13e473E6aD2BB0Ba8a365Bf581080d92dB18, 0x0596c7a79F9b65E363308c98415b642Df5639639, (0x1f176479e5d3D62cf1245C7be36Ae2e634988705, 0x5F8CfACDA1f8A81f50200B80C2D63F61bC64630E, 3000, 60, 0x6De61420d77d47Bd038C90fEF421458e5DFEC3c0), (0x5F8CfACDA1f8A81f50200B80C2D63F61bC64630E, 0x7402b4542619128199383E64f0598028Ea9D50B7, 3000, 60, 0x6De61420d77d47Bd038C90fEF421458e5DFEC3c0), 0x5F8CfACDA1f8A81f50200B80C2D63F61bC64630E, 0x1f176479e5d3D62cf1245C7be36Ae2e634988705, 0x7402b4542619128199383E64f0598028Ea9D50B7, 1000000000000000000, 2, 950000000000000000)"
      ],
      "transaction": {
        "from": "0xc4fe13e473e6ad2bb0ba8a365bf581080d92db18",
        "to": "0xb7d1b6d342a29af66c3cf1b7bd171f1cbd36775f",
        "gas": "0xddbac",
        "value": "0x0",
        "input": "0x6b120e54000000000000000000000000c4fe13e473e6ad2bb0ba8a365bf581080d92db180000000000000000000000000596c7a79f9b65e363308c98415b642df56396390000000000000000000000001f176479e5d3d62cf1245c7be36ae2e6349887050000000000000000000000005f8cfacda1f8a81f50200b80c2d63f61bc64630e0000000000000000000000000000000000000000000000000000000000000bb8000000000000000000000000000000000000000000000000000000000000003c0000000000000000000000006de61420d77d47bd038c90fef421458e5dfec3c00000000000000000000000005f8cfacda1f8a81f50200b80c2d63f61bc64630e0000000000000000000000007402b4542619128199383e64f0598028ea9d50b70000000000000000000000000000000000000000000000000000000000000bb8000000000000000000000000000000000000000000000000000000000000003c0000000000000000000000006de61420d77d47bd038c90fef421458e5dfec3c00000000000000000000000005f8cfacda1f8a81f50200b80c2d63f61bc64630e0000000000000000000000001f176479e5d3d62cf1245c7be36ae2e6349887050000000000000000000000007402b4542619128199383e64f0598028ea9d50b70000000000000000000000000000000000000000000000000de0b6b3a764000000000000000000000000000000000000000000000000000000000000000000020000000000000000000000000000000000000000000000000d2f13f7789f0000",
        "nonce": "0x227",
        "chainId": "0x515"
      },
      "additionalContracts": [],
      "isFixedGasLimit": false
    }
  ],
  "receipts": [
    {
      "status": "0x1",
      "cumulativeGasUsed": "0x1c3f8",
      "logs": [
        {
          "address": "0x5f8cfacda1f8a81f50200b80c2d63f61bc64630e",
          "topics": [
            "0x8c5be1e5ebec7d5bd14f71427d1e84f3dd0314c0f7b2291e5b200ac8c7c3b925",
            "0x000000000000000000000000c4fe13e473e6ad2bb0ba8a365bf581080d92db18",
            "0x000000000000000000000000b7d1b6d342a29af66c3cf1b7bd171f1cbd36775f"
          ],
          "data": "0x0000000000000000000000000000000000000000000000000de0b6b3a7640000",
          "blockHash": "0x0a0c530058d751463456f20a692de2210c14d74b6252024898807b41632e1271",
          "blockNumber": "0x1eb2864",
          "blockTimestamp": "0x68d8d5b0",
          "transactionHash": "0x7d92cbd6625d2a3d6e9883f99b4216baa7f884e337577dae201f08bdd4a6ecb9",
          "transactionIndex": "0x2",
          "logIndex": "0x0",
          "removed": false
        }
      ],
      "logsBloom": "0x00000000000000000000000000000000000000000000000000000010000000000000000000000000000000000000000000000000000000000000000000200004000000000000000000000000010000000000000000000800000000000000000040000000000000000000000000000000000000000000000000000000000000000000000000000000000000000000000000000000000000000000000000000480020000000000000000000000000000000000000000000000000000000000000000000000000000000000000000000000000000000000000000000000010000000010000000000800000000000000000000000000000000000000000000000000",
      "type": "0x2",
      "transactionHash": "0x7d92cbd6625d2a3d6e9883f99b4216baa7f884e337577dae201f08bdd4a6ecb9",
      "transactionIndex": "0x2",
      "blockHash": "0x0a0c530058d751463456f20a692de2210c14d74b6252024898807b41632e1271",
      "blockNumber": "0x1eb2864",
      "gasUsed": "0xba64",
      "effectiveGasPrice": "0xf433d",
      "from": "0xc4fe13e473e6ad2bb0ba8a365bf581080d92db18",
      "to": "0x5f8cfacda1f8a81f50200b80c2d63f61bc64630e",
      "contractAddress": null,
      "l1BaseFeeScalar": "0x7d0",
      "l1BlobBaseFee": "0x1",
      "l1BlobBaseFeeScalar": "0xdbba0",
      "l1Fee": "0x73",
      "l1GasPrice": "0x8",
      "l1GasUsed": "0x640"
    },
    {
      "status": "0x1",
      "cumulativeGasUsed": "0xa8357",
      "logs": [
        {
          "address": "0x5f8cfacda1f8a81f50200b80c2d63f61bc64630e",
          "topics": [
            "0xddf252ad1be2c89b69c2b068fc378daa952ba7f163c4a11628f55a4df523b3ef",
            "0x000000000000000000000000c4fe13e473e6ad2bb0ba8a365bf581080d92db18",
            "0x000000000000000000000000b7d1b6d342a29af66c3cf1b7bd171f1cbd36775f"
          ],
          "data": "0x0000000000000000000000000000000000000000000000000de0b6b3a7640000",
          "blockHash": "0x9955dcb1de75f6bc61ee28622bb03510889e5a60ccf5ac3cf85be7f8313d3cea",
          "blockNumber": "0x1eb2865",
          "blockTimestamp": "0x68d8d5b1",
          "transactionHash": "0x573806d61839126e94aaee59f5318da8aa3993b9b8b1a91a0e9ac3c49cebbcd8",
          "transactionIndex": "0x2",
          "logIndex": "0x0",
          "removed": false
        },
        {
          "address": "0xb7d1b6d342a29af66c3cf1b7bd171f1cbd36775f",
          "topics": [
            "0x20918839a2e9e376ddba6db17602a1ed205952e3267532daba5d76426788ed81",
            "0x0000000000000000000000000000000000000000000000000000000000000000",
            "0xaa09d4c6b851230f2566ee725e377337c8a777f759f82e02e4fa1d7dbc570867"
          ],
          "data": "0x0000000000000000000000000000000000000000000000000de0b6b3a7640000",
          "blockHash": "0x9955dcb1de75f6bc61ee28622bb03510889e5a60ccf5ac3cf85be7f8313d3cea",
          "blockNumber": "0x1eb2865",
          "blockTimestamp": "0x68d8d5b1",
          "transactionHash": "0x573806d61839126e94aaee59f5318da8aa3993b9b8b1a91a0e9ac3c49cebbcd8",
          "transactionIndex": "0x2",
          "logIndex": "0x1",
          "removed": false
        },
        {
          "address": "0xb7d1b6d342a29af66c3cf1b7bd171f1cbd36775f",
          "topics": [
            "0xcab6aa9bf6b409f52bb70d80ac48dbdb1067671246f44c52a09b43e9cd1b83ae",
            "0xc494003221cf5badacc59a08a75db10ad4ed3cc75c7f61cb84def9187ff1cfb5",
            "0x000000000000000000000000c4fe13e473e6ad2bb0ba8a365bf581080d92db18"
          ],
          "data": "0x00000000000000000000000000000000000000000000000000000000000000020000000000000000000000000000000000000000000000001bc16d674ec80000",
          "blockHash": "0x9955dcb1de75f6bc61ee28622bb03510889e5a60ccf5ac3cf85be7f8313d3cea",
          "blockNumber": "0x1eb2865",
          "blockTimestamp": "0x68d8d5b1",
          "transactionHash": "0x573806d61839126e94aaee59f5318da8aa3993b9b8b1a91a0e9ac3c49cebbcd8",
          "transactionIndex": "0x2",
          "logIndex": "0x2",
          "removed": false
        }
      ],
      "logsBloom": "0x00000800800000000000000000000000000000000000000000000010000000000000000000000000008000020000000000000000000000000000000000000004000200000000000000000808010000000000000000000800000000000000040040000000020000000800002001000800000800000000000000000010000000000000000000000000008000000000000000000000000000000000000000000490000000000000000000000000000000000000000000000000000000000000000000000002000000000040000000000000000000004000000000000000010020000000000000000800000000000000000000000000000000000000000000000000",
      "type": "0x2",
      "transactionHash": "0x573806d61839126e94aaee59f5318da8aa3993b9b8b1a91a0e9ac3c49cebbcd8",
      "transactionIndex": "0x2",
      "blockHash": "0x9955dcb1de75f6bc61ee28622bb03510889e5a60ccf5ac3cf85be7f8313d3cea",
      "blockNumber": "0x1eb2865",
      "gasUsed": "0x979c3",
      "effectiveGasPrice": "0xf433d",
      "from": "0xc4fe13e473e6ad2bb0ba8a365bf581080d92db18",
      "to": "0xb7d1b6d342a29af66c3cf1b7bd171f1cbd36775f",
      "contractAddress": null,
      "l1BaseFeeScalar": "0x7d0",
      "l1BlobBaseFee": "0x1",
      "l1BlobBaseFeeScalar": "0xdbba0",
      "l1Fee": "0x112",
      "l1GasPrice": "0x8",
      "l1GasUsed": "0xeda"
    }
  ],
  "libraries": [],
  "pending": [],
  "returns": {
    "positionId": {
      "internal_type": "bytes32",
      "value": "0x50eb587d4763866d882a742c096a7cbb2bbd7ce53e4c16abf5e5ce3de8423826"
    }
  },
  "timestamp": 1759040947,
  "chain": 1301,
  "commit": "caffa2d"
}