{
  "transactions": [
    {
      "hash": "0x976ae5e0c7cc266683c7e8a7eaa81b5b326962e68bd8b542b699fc4d7fdf383c",
      "transactionType": "CALL",
      "contractName": null,
      "contractAddress": "0x5f8cfacda1f8a81f50200b80c2d63f61bc64630e",
      "function": "approve(address,uint256)",
      "arguments": [
        "0x0C3734c5bAc54a271A449EDBf7bd19814B880cf3",
        "1000000000000000000"
      ],
      "transaction": {
        "from": "0xc4fe13e473e6ad2bb0ba8a365bf581080d92db18",
        "to": "0x5f8cfacda1f8a81f50200b80c2d63f61bc64630e",
        "gas": "0x10173",
        "value": "0x0",
        "input": "0x095ea7b30000000000000000000000000c3734c5bac54a271a449edbf7bd19814b880cf30000000000000000000000000000000000000000000000000de0b6b3a7640000",
        "nonce": "0x20c",
        "chainId": "0x515"
      },
      "additionalContracts": [],
      "isFixedGasLimit": false
    },
    {
      "hash": "0xb58da67feabbdd35899577dcfc8e45c8cdc11570efc5abd4fe7a1e861fc65e87",
      "transactionType": "CALL",
      "contractName": null,
      "contractAddress": "0x0c3734c5bac54a271a449edbf7bd19814b880cf3",
      "function": "executeCrossPoolTrade((address,address,(address,address,uint24,int24,address),(address,address,uint24,int24,address),address,address,address,uint256,uint256,uint256))",
      "arguments": [
        "(0xC4Fe13e473E6aD2BB0Ba8a365Bf581080d92dB18, 0x0596c7a79F9b65E363308c98415b642Df5639639, (0x1f176479e5d3D62cf1245C7be36Ae2e634988705, 0x5F8CfACDA1f8A81f50200B80C2D63F61bC64630E, 3000, 60, 0x6De61420d77d47Bd038C90fEF421458e5DFEC3c0), (0x5F8CfACDA1f8A81f50200B80C2D63F61bC64630E, 0x7402b4542619128199383E64f0598028Ea9D50B7, 3000, 60, 0x6De61420d77d47Bd038C90fEF421458e5DFEC3c0), 0x5F8CfACDA1f8A81f50200B80C2D63F61bC64630E, 0x1f176479e5d3D62cf1245C7be36Ae2e634988705, 0x7402b4542619128199383E64f0598028Ea9D50B7, 1000000000000000000, 2, 950000000000000000)"
      ],
      "transaction": {
        "from": "0xc4fe13e473e6ad2bb0ba8a365bf581080d92db18",
        "to": "0x0c3734c5bac54a271a449edbf7bd19814b880cf3",
        "gas": "0xd1352",
        "value": "0x0",
        "input": "0x6b120e54000000000000000000000000c4fe13e473e6ad2bb0ba8a365bf581080d92db180000000000000000000000000596c7a79f9b65e363308c98415b642df56396390000000000000000000000001f176479e5d3d62cf1245c7be36ae2e6349887050000000000000000000000005f8cfacda1f8a81f50200b80c2d63f61bc64630e0000000000000000000000000000000000000000000000000000000000000bb8000000000000000000000000000000000000000000000000000000000000003c0000000000000000000000006de61420d77d47bd038c90fef421458e5dfec3c00000000000000000000000005f8cfacda1f8a81f50200b80c2d63f61bc64630e0000000000000000000000007402b4542619128199383e64f0598028ea9d50b70000000000000000000000000000000000000000000000000000000000000bb8000000000000000000000000000000000000000000000000000000000000003c0000000000000000000000006de61420d77d47bd038c90fef421458e5dfec3c00000000000000000000000005f8cfacda1f8a81f50200b80c2d63f61bc64630e0000000000000000000000001f176479e5d3d62cf1245c7be36ae2e6349887050000000000000000000000007402b4542619128199383e64f0598028ea9d50b70000000000000000000000000000000000000000000000000de0b6b3a764000000000000000000000000000000000000000000000000000000000000000000020000000000000000000000000000000000000000000000000d2f13f7789f0000",
        "nonce": "0x20d",
        "chainId": "0x515"
      },
      "additionalContracts": [],
      "isFixedGasLimit": false
    }
  ],
  "receipts": [
    {
      "status": "0x1",
      "cumulativeGasUsed": "0x3ddd2",
      "logs": [
        {
          "address": "0x5f8cfacda1f8a81f50200b80c2d63f61bc64630e",
          "topics": [
            "0x8c5be1e5ebec7d5bd14f71427d1e84f3dd0314c0f7b2291e5b200ac8c7c3b925",
            "0x000000000000000000000000c4fe13e473e6ad2bb0ba8a365bf581080d92db18",
            "0x0000000000000000000000000c3734c5bac54a271a449edbf7bd19814b880cf3"
          ],
          "data": "0x0000000000000000000000000000000000000000000000000de0b6b3a7640000",
          "blockHash": "0xdead22a7089c5a36c7391e4f102680f526bf9faae2c71c2df1da46d296cc9c08",
          "blockNumber": "0x1eb1b87",
          "blockTimestamp": "0x68d8c8d3",
          "transactionHash": "0x976ae5e0c7cc266683c7e8a7eaa81b5b326962e68bd8b542b699fc4d7fdf383c",
          "transactionIndex": "0x3",
          "logIndex": "0x2",
          "removed": false
        }
      ],
      "logsBloom": "0x00000000000000000000000000000000000000000000000000000010000400000000000000000000000000000000000000000000000000000000000000200004000000000000000000000000000000000000000000000800000000000000000040000000000000000000000000000000000000000000000000000000000000000000000000000000000000000000000000000000000000000000000000000400020000000000080000000000000000000008000000000000000000000000000000000000000000000000000000000000000000000000000000000000000000000010000000000800000000000000000000000000000000000000000000000000",
      "type": "0x2",
      "transactionHash": "0x976ae5e0c7cc266683c7e8a7eaa81b5b326962e68bd8b542b699fc4d7fdf383c",
      "transactionIndex": "0x3",
      "blockHash": "0xdead22a7089c5a36c7391e4f102680f526bf9faae2c71c2df1da46d296cc9c08",
      "blockNumber": "0x1eb1b87",
      "gasUsed": "0xba64",
      "effectiveGasPrice": "0xfe",
      "from": "0xc4fe13e473e6ad2bb0ba8a365bf581080d92db18",
      "to": "0x5f8cfacda1f8a81f50200b80c2d63f61bc64630e",
      "contractAddress": null,
      "l1BaseFeeScalar": "0x7d0",
      "l1BlobBaseFee": "0x1",
      "l1BlobBaseFeeScalar": "0xdbba0",
      "l1Fee": "0x73",
      "l1GasPrice": "0x8",
      "l1GasUsed": "0x640"
    },
    {
      "status": "0x1",
      "cumulativeGasUsed": "0xa80fb",
      "logs": [
        {
          "address": "0x5f8cfacda1f8a81f50200b80c2d63f61bc64630e",
          "topics": [
            "0xddf252ad1be2c89b69c2b068fc378daa952ba7f163c4a11628f55a4df523b3ef",
            "0x000000000000000000000000c4fe13e473e6ad2bb0ba8a365bf581080d92db18",
            "0x0000000000000000000000000c3734c5bac54a271a449edbf7bd19814b880cf3"
          ],
          "data": "0x0000000000000000000000000000000000000000000000000de0b6b3a7640000",
          "blockHash": "0x24b6b775b28da01a9e2f7a41605e12cb4001d351f610644d063912602a7ede36",
          "blockNumber": "0x1eb1b88",
          "blockTimestamp": "0x68d8c8d4",
          "transactionHash": "0xb58da67feabbdd35899577dcfc8e45c8cdc11570efc5abd4fe7a1e861fc65e87",
          "transactionIndex": "0x2",
          "logIndex": "0x0",
          "removed": false
        },
        {
          "address": "0x0c3734c5bac54a271a449edbf7bd19814b880cf3",
          "topics": [
            "0x20918839a2e9e376ddba6db17602a1ed205952e3267532daba5d76426788ed81",
            "0x0000000000000000000000000000000000000000000000000000000000000000",
            "0xaa09d4c6b851230f2566ee725e377337c8a777f759f82e02e4fa1d7dbc570867"
          ],
          "data": "0x00000000000000000000000000000000000000000000000000000000000003e8",
          "blockHash": "0x24b6b775b28da01a9e2f7a41605e12cb4001d351f610644d063912602a7ede36",
          "blockNumber": "0x1eb1b88",
          "blockTimestamp": "0x68d8c8d4",
          "transactionHash": "0xb58da67feabbdd35899577dcfc8e45c8cdc11570efc5abd4fe7a1e861fc65e87",
          "transactionIndex": "0x2",
          "logIndex": "0x1",
          "removed": false
        },
        {
          "address": "0x0c3734c5bac54a271a449edbf7bd19814b880cf3",
          "topics": [
            "0xcab6aa9bf6b409f52bb70d80ac48dbdb1067671246f44c52a09b43e9cd1b83ae",
            "0x6a8b2be68f938e8790d97d44191e4f523b19689a71b83079df8494556f9b669c",
            "0x000000000000000000000000c4fe13e473e6ad2bb0ba8a365bf581080d92db18"
          ],
          "data": "0x00000000000000000000000000000000000000000000000000000000000000020000000000000000000000000000000000000000000000000de0b6b3a76403e8",
          "blockHash": "0x24b6b775b28da01a9e2f7a41605e12cb4001d351f610644d063912602a7ede36",
          "blockNumber": "0x1eb1b88",
          "blockTimestamp": "0x68d8c8d4",
          "transactionHash": "0xb58da67feabbdd35899577dcfc8e45c8cdc11570efc5abd4fe7a1e861fc65e87",
          "transactionIndex": "0x2",
          "logIndex": "0x2",
          "removed": false
        }
      ],
      "logsBloom": "0x00000000a00000000001000000000000000000000000000000000010000400000000000000000000008000020000000000000400000000000000000000000004000200000000000000000908000000000000000000000800000000000000040040000000020000000000002000000800000000000000000000000010000000000000000000000000008000000000000000000000000000000000000000000410000000000000080000000000000000000008000000000000000000000000000080000002000000000000000000000000000000000000000000000000000020000000000000000800000100000000000000000000000000000000000000000000",
      "type": "0x2",
      "transactionHash": "0xb58da67feabbdd35899577dcfc8e45c8cdc11570efc5abd4fe7a1e861fc65e87",
      "transactionIndex": "0x2",
      "blockHash": "0x24b6b775b28da01a9e2f7a41605e12cb4001d351f610644d063912602a7ede36",
      "blockNumber": "0x1eb1b88",
      "gasUsed": "0x97767",
      "effectiveGasPrice": "0xfe",
      "from": "0xc4fe13e473e6ad2bb0ba8a365bf581080d92db18",
      "to": "0x0c3734c5bac54a271a449edbf7bd19814b880cf3",
      "contractAddress": null,
      "l1BaseFeeScalar": "0x7d0",
      "l1BlobBaseFee": "0x1",
      "l1BlobBaseFeeScalar": "0xdbba0",
      "l1Fee": "0x10e",
      "l1GasPrice": "0x8",
      "l1GasUsed": "0xea4"
    }
  ],
  "libraries": [],
  "pending": [],
  "returns": {
    "positionId": {
      "internal_type": "bytes32",
      "value": "0xfd5d59f8795126b10bd7fc8b31b271d1e5c57f46c1ed7ab0fff432ec18ef821d"
    }
  },
  "timestamp": 1759037654,
  "chain": 1301,
  "commit": "3ad2050"
}