{
  "transactions": [
    {
      "hash": "0x57d7a09d014986c08b1399d7b23833d66f23e8a997b8477dd2517afbc554c715",
      "transactionType": "CALL",
      "contractName": null,
      "contractAddress": "0x5f8cfacda1f8a81f50200b80c2d63f61bc64630e",
      "function": "approve(address,uint256)",
      "arguments": [
        "0xE5222e6Ca7eb30b5Af6C1c558d79eeb62D86955F",
        "1000000000000000000"
      ],
      "transaction": {
        "from": "0xc4fe13e473e6ad2bb0ba8a365bf581080d92db18",
        "to": "0x5f8cfacda1f8a81f50200b80c2d63f61bc64630e",
        "gas": "0x10173",
        "value": "0x0",
        "input": "0x095ea7b3000000000000000000000000e5222e6ca7eb30b5af6c1c558d79eeb62d86955f0000000000000000000000000000000000000000000000000de0b6b3a7640000",
        "nonce": "0x21c",
        "chainId": "0x515"
      },
      "additionalContracts": [],
      "isFixedGasLimit": false
    },
    {
      "hash": "0x1152ce92bf5fe04651f0178dcc9276b000537bd002e6e1ae1d71aa37748cfa3c",
      "transactionType": "CALL",
      "contractName": null,
      "contractAddress": "0xe5222e6ca7eb30b5af6c1c558d79eeb62d86955f",
      "function": "executeCrossPoolTrade((address,address,(address,address,uint24,int24,address),(address,address,uint24,int24,address),address,address,address,uint256,uint256,uint256))",
      "arguments": [
        "(0xC4Fe13e473E6aD2BB0Ba8a365Bf581080d92dB18, 0x0596c7a79F9b65E363308c98415b642Df5639639, (0x1f176479e5d3D62cf1245C7be36Ae2e634988705, 0x5F8CfACDA1f8A81f50200B80C2D63F61bC64630E, 3000, 60, 0x6De61420d77d47Bd038C90fEF421458e5DFEC3c0), (0x5F8CfACDA1f8A81f50200B80C2D63F61bC64630E, 0x7402b4542619128199383E64f0598028Ea9D50B7, 3000, 60, 0x6De61420d77d47Bd038C90fEF421458e5DFEC3c0), 0x5F8CfACDA1f8A81f50200B80C2D63F61bC64630E, 0x1f176479e5d3D62cf1245C7be36Ae2e634988705, 0x7402b4542619128199383E64f0598028Ea9D50B7, 1000000000000000000, 2, 950000000000000000)"
      ],
      "transaction": {
        "from": "0xc4fe13e473e6ad2bb0ba8a365bf581080d92db18",
        "to": "0xe5222e6ca7eb30b5af6c1c558d79eeb62d86955f",
        "gas": "0xd1120",
        "value": "0x0",
        "input": "0x6b120e54000000000000000000000000c4fe13e473e6ad2bb0ba8a365bf581080d92db180000000000000000000000000596c7a79f9b65e363308c98415b642df56396390000000000000000000000001f176479e5d3d62cf1245c7be36ae2e6349887050000000000000000000000005f8cfacda1f8a81f50200b80c2d63f61bc64630e0000000000000000000000000000000000000000000000000000000000000bb8000000000000000000000000000000000000000000000000000000000000003c0000000000000000000000006de61420d77d47bd038c90fef421458e5dfec3c00000000000000000000000005f8cfacda1f8a81f50200b80c2d63f61bc64630e0000000000000000000000007402b4542619128199383e64f0598028ea9d50b70000000000000000000000000000000000000000000000000000000000000bb8000000000000000000000000000000000000000000000000000000000000003c0000000000000000000000006de61420d77d47bd038c90fef421458e5dfec3c00000000000000000000000005f8cfacda1f8a81f50200b80c2d63f61bc64630e0000000000000000000000001f176479e5d3d62cf1245c7be36ae2e6349887050000000000000000000000007402b4542619128199383e64f0598028ea9d50b70000000000000000000000000000000000000000000000000de0b6b3a764000000000000000000000000000000000000000000000000000000000000000000020000000000000000000000000000000000000000000000000d2f13f7789f0000",
        "nonce": "0x21d",
        "chainId": "0x515"
      },
      "additionalContracts": [],
      "isFixedGasLimit": false
    }
  ],
  "receipts": [
    {
      "status": "0x1",
      "cumulativeGasUsed": "0x3e070",
      "logs": [
        {
          "address": "0x5f8cfacda1f8a81f50200b80c2d63f61bc64630e",
          "topics": [
            "0x8c5be1e5ebec7d5bd14f71427d1e84f3dd0314c0f7b2291e5b200ac8c7c3b925",
            "0x000000000000000000000000c4fe13e473e6ad2bb0ba8a365bf581080d92db18",
            "0x000000000000000000000000e5222e6ca7eb30b5af6c1c558d79eeb62d86955f"
          ],
          "data": "0x0000000000000000000000000000000000000000000000000de0b6b3a7640000",
          "blockHash": "0x357aae981832d1fe06f27e1bb7f13958181544fa78d51f37242543e1b229e2cd",
          "blockNumber": "0x1eb231f",
          "blockTimestamp": "0x68d8d06b",
          "transactionHash": "0x57d7a09d014986c08b1399d7b23833d66f23e8a997b8477dd2517afbc554c715",
          "transactionIndex": "0x3",
          "logIndex": "0x2",
          "removed": false
        }
      ],
      "logsBloom": "0x00000000000000000000800000000000000000000000000000000010000000000000000000000000000000000000000000000000000000000000000000200004000000000000000000000000000000000000000000000800000000000000000040000000000000000000000000000000000000000000000000000000000000000000000000000000000000000000000000000000000000000000000000000400021000000000000000000000000000000000000000000000000000000000000000000000000000000000000000000000000000000000000000000000000000000010000100000800000000000000000000000000000000000000000000000000",
      "type": "0x2",
      "transactionHash": "0x57d7a09d014986c08b1399d7b23833d66f23e8a997b8477dd2517afbc554c715",
      "transactionIndex": "0x3",
      "blockHash": "0x357aae981832d1fe06f27e1bb7f13958181544fa78d51f37242543e1b229e2cd",
      "blockNumber": "0x1eb231f",
      "gasUsed": "0xba64",
      "effectiveGasPrice": "0x61e74",
      "from": "0xc4fe13e473e6ad2bb0ba8a365bf581080d92db18",
      "to": "0x5f8cfacda1f8a81f50200b80c2d63f61bc64630e",
      "contractAddress": null,
      "l1BaseFeeScalar": "0x7d0",
      "l1BlobBaseFee": "0x1",
      "l1BlobBaseFeeScalar": "0xdbba0",
      "l1Fee": "0x7d",
      "l1GasPrice": "0xb",
      "l1GasUsed": "0x640"
    },
    {
      "status": "0x1",
      "cumulativeGasUsed": "0xd5640",
      "logs": [
        {
          "address": "0x5f8cfacda1f8a81f50200b80c2d63f61bc64630e",
          "topics": [
            "0xddf252ad1be2c89b69c2b068fc378daa952ba7f163c4a11628f55a4df523b3ef",
            "0x000000000000000000000000c4fe13e473e6ad2bb0ba8a365bf581080d92db18",
            "0x000000000000000000000000e5222e6ca7eb30b5af6c1c558d79eeb62d86955f"
          ],
          "data": "0x0000000000000000000000000000000000000000000000000de0b6b3a7640000",
          "blockHash": "0x357aae981832d1fe06f27e1bb7f13958181544fa78d51f37242543e1b229e2cd",
          "blockNumber": "0x1eb231f",
          "blockTimestamp": "0x68d8d06b",
          "transactionHash": "0x1152ce92bf5fe04651f0178dcc9276b000537bd002e6e1ae1d71aa37748cfa3c",
          "transactionIndex": "0x4",
          "logIndex": "0x3",
          "removed": false
        },
        {
          "address": "0xe5222e6ca7eb30b5af6c1c558d79eeb62d86955f",
          "topics": [
            "0x20918839a2e9e376ddba6db17602a1ed205952e3267532daba5d76426788ed81",
            "0x0000000000000000000000000000000000000000000000000000000000000000",
            "0xaa09d4c6b851230f2566ee725e377337c8a777f759f82e02e4fa1d7dbc570867"
          ],
          "data": "0x0000000000000000000000000000000000000000000000000de0b6b3a7640000",
          "blockHash": "0x357aae981832d1fe06f27e1bb7f13958181544fa78d51f37242543e1b229e2cd",
          "blockNumber": "0x1eb231f",
          "blockTimestamp": "0x68d8d06b",
          "transactionHash": "0x1152ce92bf5fe04651f0178dcc9276b000537bd002e6e1ae1d71aa37748cfa3c",
          "transactionIndex": "0x4",
          "logIndex": "0x4",
          "removed": false
        },
        {
          "address": "0xe5222e6ca7eb30b5af6c1c558d79eeb62d86955f",
          "topics": [
            "0xcab6aa9bf6b409f52bb70d80ac48dbdb1067671246f44c52a09b43e9cd1b83ae",
            "0xcdd30899012718f06cbf63722fe9550a9d95f324ecedc0cc18f99c28d5731168",
            "0x000000000000000000000000c4fe13e473e6ad2bb0ba8a365bf581080d92db18"
          ],
          "data": "0x00000000000000000000000000000000000000000000000000000000000000020000000000000000000000000000000000000000000000001bc16d674ec80000",
          "blockHash": "0x357aae981832d1fe06f27e1bb7f13958181544fa78d51f37242543e1b229e2cd",
          "blockNumber": "0x1eb231f",
          "blockTimestamp": "0x68d8d06b",
          "transactionHash": "0x1152ce92bf5fe04651f0178dcc9276b000537bd002e6e1ae1d71aa37748cfa3c",
          "transactionIndex": "0x4",
          "logIndex": "0x5",
          "removed": false
        }
      ],
      "logsBloom": "0x00000000800000000000800000000000000000000000000000000010000000000000000000000000008000020000000000000000000000000000020000000004000200000000000000000808000000000000800000000800000000000000040040400000020000000000002000000800000000000000000000000010000000000000000000000000008000000000000000000000000000000000000000002410001000000000000000000000000000000000800000000000000000000000000000000002000000000000000000000000000000000000000000000000000020000000000100000800000000000000000000000000000000000000010000000000",
      "type": "0x2",
      "transactionHash": "0x1152ce92bf5fe04651f0178dcc9276b000537bd002e6e1ae1d71aa37748cfa3c",
      "transactionIndex": "0x4",
      "blockHash": "0x357aae981832d1fe06f27e1bb7f13958181544fa78d51f37242543e1b229e2cd",
      "blockNumber": "0x1eb231f",
      "gasUsed": "0x975d0",
      "effectiveGasPrice": "0x61e74",
      "from": "0xc4fe13e473e6ad2bb0ba8a365bf581080d92db18",
      "to": "0xe5222e6ca7eb30b5af6c1c558d79eeb62d86955f",
      "contractAddress": null,
      "l1BaseFeeScalar": "0x7d0",
      "l1BlobBaseFee": "0x1",
      "l1BlobBaseFeeScalar": "0xdbba0",
      "l1Fee": "0x129",
      "l1GasPrice": "0xb",
      "l1GasUsed": "0xeda"
    }
  ],
  "libraries": [],
  "pending": [],
  "returns": {
    "positionId": {
      "internal_type": "bytes32",
      "value": "0x3d63f7778b6d844e93e27bdd621cba658fe48ad669e6caad6c772cfdd2de1150"
    }
  },
  "timestamp": 1759039597,
  "chain": 1301,
  "commit": "caffa2d"
}