{
  "transactions": [
    {
      "hash": "0xa80d2b901a8c547c07120818b20739610adc3ead750475c31775d3b96f477de7",
      "transactionType": "CALL",
      "contractName": null,
      "contractAddress": "0x85dfb7177567ad66f5f95c1f989afaea109b85d9",
      "function": "createUserAccount()",
      "arguments": [],
      "transaction": {
        "from": "0xc4fe13e473e6ad2bb0ba8a365bf581080d92db18",
        "to": "0x85dfb7177567ad66f5f95c1f989afaea109b85d9",
        "gas": "0x36fbe",
        "value": "0x0",
        "input": "0x8b81d982",
        "nonce": "0x201",
        "chainId": "0x515"
      },
      "additionalContracts": [
        {
          "transactionType": "CREATE",
          "address": "0x0596c7a79f9b65e363308c98415b642df5639639",
          "initCode": "0x3d602d80600a3d3981f3363d3d373d3d3d363d73c23df95086c905ad1047edea05fec1f30cdd2cd35af43d82803e903d91602b57fd5bf3"
        }
      ],
      "isFixedGasLimit": false
    },
    {
      "hash": "0x9bdccc674e052e3cd89ff110a6d8f6bb4b7bdb68f48a5d5eb33042e878923c0c",
      "transactionType": "CALL",
      "contractName": null,
      "contractAddress": "0x5f8cfacda1f8a81f50200b80c2d63f61bc64630e",
      "function": "approve(address,uint256)",
      "arguments": [
        "0x3415E8A7303858f7815E1619008bbd6Df6c66388",
        "1000000000000000000"
      ],
      "transaction": {
        "from": "0xc4fe13e473e6ad2bb0ba8a365bf581080d92db18",
        "to": "0x5f8cfacda1f8a81f50200b80c2d63f61bc64630e",
        "gas": "0x10162",
        "value": "0x0",
        "input": "0x095ea7b30000000000000000000000003415e8a7303858f7815e1619008bbd6df6c663880000000000000000000000000000000000000000000000000de0b6b3a7640000",
        "nonce": "0x202",
        "chainId": "0x515"
      },
      "additionalContracts": [],
      "isFixedGasLimit": false
    },
    {
      "hash": "0x9f6f45907e378a3d666ec3c217eb2783fce27df8b3c9d811b8f4bde5233aad24",
      "transactionType": "CALL",
      "contractName": null,
      "contractAddress": "0x3415e8a7303858f7815e1619008bbd6df6c66388",
      "function": "executeCrossPoolTrade((address,address,(address,address,uint24,int24,address),(address,address,uint24,int24,address),address,address,address,uint256,uint256,uint256))",
      "arguments": [
        "(0xC4Fe13e473E6aD2BB0Ba8a365Bf581080d92dB18, 0x0596c7a79F9b65E363308c98415b642Df5639639, (0x1f176479e5d3D62cf1245C7be36Ae2e634988705, 0x5F8CfACDA1f8A81f50200B80C2D63F61bC64630E, 3000, 60, 0x6De61420d77d47Bd038C90fEF421458e5DFEC3c0), (0x5F8CfACDA1f8A81f50200B80C2D63F61bC64630E, 0x7402b4542619128199383E64f0598028Ea9D50B7, 3000, 60, 0x6De61420d77d47Bd038C90fEF421458e5DFEC3c0), 0x5F8CfACDA1f8A81f50200B80C2D63F61bC64630E, 0x1f176479e5d3D62cf1245C7be36Ae2e634988705, 0x7402b4542619128199383E64f0598028Ea9D50B7, 1000000000000000000, 2, 950000000000000000)"
      ],
      "transaction": {
        "from": "0xc4fe13e473e6ad2bb0ba8a365bf581080d92db18",
        "to": "0x3415e8a7303858f7815e1619008bbd6df6c66388",
        "gas": "0xe0750",
        "value": "0x0",
        "input": "0x6b120e54000000000000000000000000c4fe13e473e6ad2bb0ba8a365bf581080d92db180000000000000000000000000596c7a79f9b65e363308c98415b642df56396390000000000000000000000001f176479e5d3d62cf1245c7be36ae2e6349887050000000000000000000000005f8cfacda1f8a81f50200b80c2d63f61bc64630e0000000000000000000000000000000000000000000000000000000000000bb8000000000000000000000000000000000000000000000000000000000000003c0000000000000000000000006de61420d77d47bd038c90fef421458e5dfec3c00000000000000000000000005f8cfacda1f8a81f50200b80c2d63f61bc64630e0000000000000000000000007402b4542619128199383e64f0598028ea9d50b70000000000000000000000000000000000000000000000000000000000000bb8000000000000000000000000000000000000000000000000000000000000003c0000000000000000000000006de61420d77d47bd038c90fef421458e5dfec3c00000000000000000000000005f8cfacda1f8a81f50200b80c2d63f61bc64630e0000000000000000000000001f176479e5d3d62cf1245c7be36ae2e6349887050000000000000000000000007402b4542619128199383e64f0598028ea9d50b70000000000000000000000000000000000000000000000000de0b6b3a764000000000000000000000000000000000000000000000000000000000000000000020000000000000000000000000000000000000000000000000d2f13f7789f0000",
        "nonce": "0x203",
        "chainId": "0x515"
      },
      "additionalContracts": [],
      "isFixedGasLimit": false
    }
  ],
  "receipts": [
    {
      "status": "0x1",
      "cumulativeGasUsed": "0x38674",
      "logs": [
        {
          "address": "0x85dfb7177567ad66f5f95c1f989afaea109b85d9",
          "topics": [
            "0xac631f3001b55ea1509cf3d7e74898f85392a61a76e8149181ae1259622dabc8",
            "0x000000000000000000000000c4fe13e473e6ad2bb0ba8a365bf581080d92db18"
          ],
          "data": "0x0000000000000000000000000596c7a79f9b65e363308c98415b642df5639639",
          "blockHash": "0x21886ae0011416f5d3f648d4c9969dc1d413c1ac51b7f2a00cf93133d56eb5d4",
          "blockNumber": "0x1eb17bc",
          "blockTimestamp": "0x68d8c508",
          "transactionHash": "0xa80d2b901a8c547c07120818b20739610adc3ead750475c31775d3b96f477de7",
          "transactionIndex": "0x2",
          "logIndex": "0x0",
          "removed": false
        }
      ],
      "logsBloom": "0x00000000000000000000000000001000000000000000000000200010000000000000000000000000000000000000000000000000000000000000000000000000000000000000000000000000000000000000000000000000000000000000000040000000000000000400000000000000000000000000000000000000000200000000000000000000000000000000000001000000000000000000000000000000000000000000000000000000000000000000000000000000000000000000000000000000000000000000000000000000000000000000000000000000000000000000000000000800000000040000000000000000000000000000000000000000",
      "type": "0x2",
      "transactionHash": "0xa80d2b901a8c547c07120818b20739610adc3ead750475c31775d3b96f477de7",
      "transactionIndex": "0x2",
      "blockHash": "0x21886ae0011416f5d3f648d4c9969dc1d413c1ac51b7f2a00cf93133d56eb5d4",
      "blockNumber": "0x1eb17bc",
      "gasUsed": "0x27cec",
      "effectiveGasPrice": "0x1dd8d76d",
      "from": "0xc4fe13e473e6ad2bb0ba8a365bf581080d92db18",
      "to": "0x85dfb7177567ad66f5f95c1f989afaea109b85d9",
      "contractAddress": null,
      "l1BaseFeeScalar": "0x7d0",
      "l1BlobBaseFee": "0x1",
      "l1BlobBaseFeeScalar": "0xdbba0",
      "l1Fee": "0x73",
      "l1GasPrice": "0x8",
      "l1GasUsed": "0x640"
    },
    {
      "status": "0x1",
      "cumulativeGasUsed": "0x440cc",
      "logs": [
        {
          "address": "0x5f8cfacda1f8a81f50200b80c2d63f61bc64630e",
          "topics": [
            "0x8c5be1e5ebec7d5bd14f71427d1e84f3dd0314c0f7b2291e5b200ac8c7c3b925",
            "0x000000000000000000000000c4fe13e473e6ad2bb0ba8a365bf581080d92db18",
            "0x0000000000000000000000003415e8a7303858f7815e1619008bbd6df6c66388"
          ],
          "data": "0x0000000000000000000000000000000000000000000000000de0b6b3a7640000",
          "blockHash": "0x21886ae0011416f5d3f648d4c9969dc1d413c1ac51b7f2a00cf93133d56eb5d4",
          "blockNumber": "0x1eb17bc",
          "blockTimestamp": "0x68d8c508",
          "transactionHash": "0x9bdccc674e052e3cd89ff110a6d8f6bb4b7bdb68f48a5d5eb33042e878923c0c",
          "transactionIndex": "0x3",
          "logIndex": "0x1",
          "removed": false
        }
      ],
      "logsBloom": "0x00000000000000000000000000000000000000000000008000000010000000000000000000000000000000000000000000000000000000000000000000200004000000000000000000000000000000000000000000000800000000000000000040000000000000000000000000000000000000000000000000002000000000000000000000000000000000000000000000000000000000000000000000000400020000000000000000000000000000000000000000000000000000000000000000000000000000000000000000000000000000000001000000000000000000000010000000000800000000000000000000000000000000000000000000000000",
      "type": "0x2",
      "transactionHash": "0x9bdccc674e052e3cd89ff110a6d8f6bb4b7bdb68f48a5d5eb33042e878923c0c",
      "transactionIndex": "0x3",
      "blockHash": "0x21886ae0011416f5d3f648d4c9969dc1d413c1ac51b7f2a00cf93133d56eb5d4",
      "blockNumber": "0x1eb17bc",
      "gasUsed": "0xba58",
      "effectiveGasPrice": "0x1dd8d76d",
      "from": "0xc4fe13e473e6ad2bb0ba8a365bf581080d92db18",
      "to": "0x5f8cfacda1f8a81f50200b80c2d63f61bc64630e",
      "contractAddress": null,
      "l1BaseFeeScalar": "0x7d0",
      "l1BlobBaseFee": "0x1",
      "l1BlobBaseFeeScalar": "0xdbba0",
      "l1Fee": "0x73",
      "l1GasPrice": "0x8",
      "l1GasUsed": "0x640"
    },
    {
      "status": "0x1",
      "cumulativeGasUsed": "0xdd866",
      "logs": [
        {
          "address": "0x5f8cfacda1f8a81f50200b80c2d63f61bc64630e",
          "topics": [
            "0xddf252ad1be2c89b69c2b068fc378daa952ba7f163c4a11628f55a4df523b3ef",
            "0x000000000000000000000000c4fe13e473e6ad2bb0ba8a365bf581080d92db18",
            "0x0000000000000000000000003415e8a7303858f7815e1619008bbd6df6c66388"
          ],
          "data": "0x0000000000000000000000000000000000000000000000000de0b6b3a7640000",
          "blockHash": "0x21886ae0011416f5d3f648d4c9969dc1d413c1ac51b7f2a00cf93133d56eb5d4",
          "blockNumber": "0x1eb17bc",
          "blockTimestamp": "0x68d8c508",
          "transactionHash": "0x9f6f45907e378a3d666ec3c217eb2783fce27df8b3c9d811b8f4bde5233aad24",
          "transactionIndex": "0x4",
          "logIndex": "0x2",
          "removed": false
        },
        {
          "address": "0x3415e8a7303858f7815e1619008bbd6df6c66388",
          "topics": [
            "0x20918839a2e9e376ddba6db17602a1ed205952e3267532daba5d76426788ed81",
            "0x0000000000000000000000000000000000000000000000000000000000000000",
            "0xaa09d4c6b851230f2566ee725e377337c8a777f759f82e02e4fa1d7dbc570867"
          ],
          "data": "0x00000000000000000000000000000000000000000000000000000000000003e8",
          "blockHash": "0x21886ae0011416f5d3f648d4c9969dc1d413c1ac51b7f2a00cf93133d56eb5d4",
          "blockNumber": "0x1eb17bc",
          "blockTimestamp": "0x68d8c508",
          "transactionHash": "0x9f6f45907e378a3d666ec3c217eb2783fce27df8b3c9d811b8f4bde5233aad24",
          "transactionIndex": "0x4",
          "logIndex": "0x3",
          "removed": false
        },
        {
          "address": "0x3415e8a7303858f7815e1619008bbd6df6c66388",
          "topics": [
            "0xcab6aa9bf6b409f52bb70d80ac48dbdb1067671246f44c52a09b43e9cd1b83ae",
            "0x0d8b7ab3c1e9a3ef9769ffa1c5b94784338cb6a072d82d6c91687f5b48b93b7d",
            "0x000000000000000000000000c4fe13e473e6ad2bb0ba8a365bf581080d92db18"
          ],
          "data": "0x00000000000000000000000000000000000000000000000000000000000000020000000000000000000000000000000000000000000000000de0b6b3a76403e8",
          "blockHash": "0x21886ae0011416f5d3f648d4c9969dc1d413c1ac51b7f2a00cf93133d56eb5d4",
          "blockNumber": "0x1eb17bc",
          "blockTimestamp": "0x68d8c508",
          "transactionHash": "0x9f6f45907e378a3d666ec3c217eb2783fce27df8b3c9d811b8f4bde5233aad24",
          "transactionIndex": "0x4",
          "logIndex": "0x4",
          "removed": false
        }
      ],
      "logsBloom": "0x00000000800000000000000010000100080000000000008000000010000000000000000000000000008000020000000000000000000000000000000000000004000200000000000000000808000000000000000000000800000000000000040040000000020000000000002000000800000000000000000000002010000000000000000000080000008000000000000000000000000000000000000000000410000000000000400000000000000000000000000000000000000000000000000000000002000000000000000000000000000000000081000000000000000020000000000000000800000000000000000000000000000000000000000000000000",
      "type": "0x2",
      "transactionHash": "0x9f6f45907e378a3d666ec3c217eb2783fce27df8b3c9d811b8f4bde5233aad24",
      "transactionIndex": "0x4",
      "blockHash": "0x21886ae0011416f5d3f648d4c9969dc1d413c1ac51b7f2a00cf93133d56eb5d4",
      "blockNumber": "0x1eb17bc",
      "gasUsed": "0x9979a",
      "effectiveGasPrice": "0x1dd8d76d",
      "from": "0xc4fe13e473e6ad2bb0ba8a365bf581080d92db18",
      "to": "0x3415e8a7303858f7815e1619008bbd6df6c66388",
      "contractAddress": null,
      "l1BaseFeeScalar": "0x7d0",
      "l1BlobBaseFee": "0x1",
      "l1BlobBaseFeeScalar": "0xdbba0",
      "l1Fee": "0x114",
      "l1GasPrice": "0x8",
      "l1GasUsed": "0xef5"
    }
  ],
  "libraries": [],
  "pending": [],
  "returns": {
    "positionId": {
      "internal_type": "bytes32",
      "value": "0xaabf47eca938a6c925157af777673dd5685c19db09771607cf8eb3268b43f074"
    }
  },
  "timestamp": 1759036682,
  "chain": 1301,
  "commit": "3ad2050"
}