{
  "transactions": [
    {
      "hash": "0xd636e424b66dbfc0227d0da82826d7cd7cb4e9bea0deb3849fc05865ebb50ca8",
      "transactionType": "CALL",
      "contractName": null,
      "contractAddress": "0x663551545ed415e85645c49630bc81e10d3b9a54",
      "function": "approve(address,uint256)",
      "arguments": [
        "0x000000000022D473030F116dDEE9F6B43aC78BA3",
        "115792089237316195423570985008687907853269984665640564039457584007913129639935"
      ],
      "transaction": {
        "from": "0xc4fe13e473e6ad2bb0ba8a365bf581080d92db18",
        "to": "0x663551545ed415e85645c49630bc81e10d3b9a54",
        "gas": "0x102cf",
        "value": "0x0",
        "input": "0x095ea7b3000000000000000000000000000000000022d473030f116ddee9f6b43ac78ba3ffffffffffffffffffffffffffffffffffffffffffffffffffffffffffffffff",
        "nonce": "0xe8",
        "chainId": "0x515"
      },
      "additionalContracts": [],
      "isFixedGasLimit": false
    },
    {
      "hash": "0x741d161db919820ea950cb4e55a05c67e5abed4133ca7d63431233578ef20ab6",
      "transactionType": "CALL",
      "contractName": null,
      "contractAddress": "0x96bea0e29d5a261464e8e7260c1f833aae39dbaf",
      "function": "approve(address,uint256)",
      "arguments": [
        "0x000000000022D473030F116dDEE9F6B43aC78BA3",
        "115792089237316195423570985008687907853269984665640564039457584007913129639935"
      ],
      "transaction": {
        "from": "0xc4fe13e473e6ad2bb0ba8a365bf581080d92db18",
        "to": "0x96bea0e29d5a261464e8e7260c1f833aae39dbaf",
        "gas": "0x9770",
        "value": "0x0",
        "input": "0x095ea7b3000000000000000000000000000000000022d473030f116ddee9f6b43ac78ba3ffffffffffffffffffffffffffffffffffffffffffffffffffffffffffffffff",
        "nonce": "0xe9",
        "chainId": "0x515"
      },
      "additionalContracts": [],
      "isFixedGasLimit": false
    },
    {
      "hash": "0xb6e91064e03509f9d2b61b34bfb541b0e4680a902a6bece7f340e7fe40649ebd",
      "transactionType": "CALL",
      "contractName": null,
      "contractAddress": "0x000000000022d473030f116ddee9f6b43ac78ba3",
      "function": "approve(address,address,uint160,uint48)",
      "arguments": [
        "0x663551545Ed415e85645C49630bC81E10D3B9a54",
        "0xf969Aee60879C54bAAed9F3eD26147Db216Fd664",
        "1461501637330902918203684832716283019655932542975",
        "281474976710655"
      ],
      "transaction": {
        "from": "0xc4fe13e473e6ad2bb0ba8a365bf581080d92db18",
        "to": "0x000000000022d473030f116ddee9f6b43ac78ba3",
        "gas": "0x1112d",
        "value": "0x0",
        "input": "0x87517c45000000000000000000000000663551545ed415e85645c49630bc81e10d3b9a54000000000000000000000000f969aee60879c54baaed9f3ed26147db216fd664000000000000000000000000ffffffffffffffffffffffffffffffffffffffff0000000000000000000000000000000000000000000000000000ffffffffffff",
        "nonce": "0xea",
        "chainId": "0x515"
      },
      "additionalContracts": [],
      "isFixedGasLimit": false
    },
    {
      "hash": "0x1d9f821392b574fffa35f35adaba4e2dd7fff85cf663d4bc26b58bb5e26a3132",
      "transactionType": "CALL",
      "contractName": null,
      "contractAddress": "0x000000000022d473030f116ddee9f6b43ac78ba3",
      "function": "approve(address,address,uint160,uint48)",
      "arguments": [
        "0x96beA0E29D5a261464E8e7260c1F833aAe39dbaF",
        "0xf969Aee60879C54bAAed9F3eD26147Db216Fd664",
        "1461501637330902918203684832716283019655932542975",
        "281474976710655"
      ],
      "transaction": {
        "from": "0xc4fe13e473e6ad2bb0ba8a365bf581080d92db18",
        "to": "0x000000000022d473030f116ddee9f6b43ac78ba3",
        "gas": "0x96a0",
        "value": "0x0",
        "input": "0x87517c4500000000000000000000000096bea0e29d5a261464e8e7260c1f833aae39dbaf000000000000000000000000f969aee60879c54baaed9f3ed26147db216fd664000000000000000000000000ffffffffffffffffffffffffffffffffffffffff0000000000000000000000000000000000000000000000000000ffffffffffff",
        "nonce": "0xeb",
        "chainId": "0x515"
      },
      "additionalContracts": [],
      "isFixedGasLimit": false
    },
    {
      "hash": "0x89e9cb560db0eb83757b46d5e3931b55388dda9cf575bad27ad90e335814e17d",
      "transactionType": "CALL",
      "contractName": null,
      "contractAddress": "0xf969aee60879c54baaed9f3ed26147db216fd664",
      "function": "modifyLiquidities(bytes,uint256)",
      "arguments": [
        "0x0000000000000000000000000000000000000000000000000000000000000040000000000000000000000000000000000000000000000000000000000000008000000000000000000000000000000000000000000000000000000000000000030212120000000000000000000000000000000000000000000000000000000000000000000000000000000000000000000000000000000000000000000000000300000000000000000000000000000000000000000000000000000000000000600000000000000000000000000000000000000000000000000000000000000220000000000000000000000000000000000000000000000000000000000000026000000000000000000000000000000000000000000000000000000000000001a0000000000000000000000000663551545ed415e85645c49630bc81e10d3b9a5400000000000000000000000096bea0e29d5a261464e8e7260c1f833aae39dbaf0000000000000000000000000000000000000000000000000000000000000bb8000000000000000000000000000000000000000000000000000000000000003c0000000000000000000000007f27b06177c996a923b04428e07c5640f31b43c0fffffffffffffffffffffffffffffffffffffffffffffffffffffffffff2764c00000000000000000000000000000000000000000000000000000000000d89b4000000000000000000000000000000000000000000000002b5e3af16b188000000000000000000000000000000000000ffffffffffffffffffffffffffffffff00000000000000000000000000000000ffffffffffffffffffffffffffffffff000000000000000000000000c4fe13e473e6ad2bb0ba8a365bf581080d92db18000000000000000000000000000000000000000000000000000000000000018000000000000000000000000000000000000000000000000000000000000000000000000000000000000000000000000000000000000000000000000000000020000000000000000000000000663551545ed415e85645c49630bc81e10d3b9a54000000000000000000000000000000000000000000000000000000000000002000000000000000000000000096bea0e29d5a261464e8e7260c1f833aae39dbaf",
        "1759018236"
      ],
      "transaction": {
        "from": "0xc4fe13e473e6ad2bb0ba8a365bf581080d92db18",
        "to": "0xf969aee60879c54baaed9f3ed26147db216fd664",
        "gas": "0x8c8cd",
        "value": "0x0",
        "input": "0xdd46508f00000000000000000000000000000000000000000000000000000000000000400000000000000000000000000000000000000000000000000000000068d87cfc00000000000000000000000000000000000000000000000000000000000003400000000000000000000000000000000000000000000000000000000000000040000000000000000000000000000000000000000000000000000000000000008000000000000000000000000000000000000000000000000000000000000000030212120000000000000000000000000000000000000000000000000000000000000000000000000000000000000000000000000000000000000000000000000300000000000000000000000000000000000000000000000000000000000000600000000000000000000000000000000000000000000000000000000000000220000000000000000000000000000000000000000000000000000000000000026000000000000000000000000000000000000000000000000000000000000001a0000000000000000000000000663551545ed415e85645c49630bc81e10d3b9a5400000000000000000000000096bea0e29d5a261464e8e7260c1f833aae39dbaf0000000000000000000000000000000000000000000000000000000000000bb8000000000000000000000000000000000000000000000000000000000000003c0000000000000000000000007f27b06177c996a923b04428e07c5640f31b43c0fffffffffffffffffffffffffffffffffffffffffffffffffffffffffff2764c00000000000000000000000000000000000000000000000000000000000d89b4000000000000000000000000000000000000000000000002b5e3af16b188000000000000000000000000000000000000ffffffffffffffffffffffffffffffff00000000000000000000000000000000ffffffffffffffffffffffffffffffff000000000000000000000000c4fe13e473e6ad2bb0ba8a365bf581080d92db18000000000000000000000000000000000000000000000000000000000000018000000000000000000000000000000000000000000000000000000000000000000000000000000000000000000000000000000000000000000000000000000020000000000000000000000000663551545ed415e85645c49630bc81e10d3b9a54000000000000000000000000000000000000000000000000000000000000002000000000000000000000000096bea0e29d5a261464e8e7260c1f833aae39dbaf",
        "nonce": "0xec",
        "chainId": "0x515"
      },
      "additionalContracts": [],
      "isFixedGasLimit": false
    }
  ],
  "receipts": [
    {
      "status": "0x1",
      "cumulativeGasUsed": "0x3e098",
      "logs": [
        {
          "address": "0x663551545ed415e85645c49630bc81e10d3b9a54",
          "topics": [
            "0x8c5be1e5ebec7d5bd14f71427d1e84f3dd0314c0f7b2291e5b200ac8c7c3b925",
            "0x000000000000000000000000c4fe13e473e6ad2bb0ba8a365bf581080d92db18",
            "0x000000000000000000000000000000000022d473030f116ddee9f6b43ac78ba3"
          ],
          "data": "0xffffffffffffffffffffffffffffffffffffffffffffffffffffffffffffffff",
          "blockHash": "0x50e73c081987f0793ed273031e88cc6fb93fa5a1a2b788a24e521b30156b3104",
          "blockNumber": "0x1eac1b4",
          "blockTimestamp": "0x68d86f00",
          "transactionHash": "0xd636e424b66dbfc0227d0da82826d7cd7cb4e9bea0deb3849fc05865ebb50ca8",
          "transactionIndex": "0x3",
          "logIndex": "0x2",
          "removed": false
        }
      ],
      "logsBloom": "0x00000000000000000000000000000000000000000000000000000010000000000000000000000000000000000000000000000000800000000000000000200000000000000000000000004000000000000000000000000800000000000000000040000000000000000000000000000000000000010000000000000000000000000000000000000000000000000000000000000000000000000002000000000000020000000000000000000000000000000000000000000000000000000010000000000000000000000000000000000000000000000000000000000000000000000010000000000800000000000000000000000000000000000000000000000000",
      "type": "0x2",
      "transactionHash": "0xd636e424b66dbfc0227d0da82826d7cd7cb4e9bea0deb3849fc05865ebb50ca8",
      "transactionIndex": "0x3",
      "blockHash": "0x50e73c081987f0793ed273031e88cc6fb93fa5a1a2b788a24e521b30156b3104",
      "blockNumber": "0x1eac1b4",
      "gasUsed": "0xbb60",
      "effectiveGasPrice": "0xfe",
      "from": "0xc4fe13e473e6ad2bb0ba8a365bf581080d92db18",
      "to": "0x663551545ed415e85645c49630bc81e10d3b9a54",
      "contractAddress": null,
      "l1BaseFeeScalar": "0x7d0",
      "l1BlobBaseFee": "0x1",
      "l1BlobBaseFeeScalar": "0xdbba0",
      "l1Fee": "0x73",
      "l1GasPrice": "0x8",
      "l1GasUsed": "0x640"
    },
    {
      "status": "0x1",
      "cumulativeGasUsed": "0x44e3c",
      "logs": [
        {
          "address": "0x96bea0e29d5a261464e8e7260c1f833aae39dbaf",
          "topics": [
            "0x8c5be1e5ebec7d5bd14f71427d1e84f3dd0314c0f7b2291e5b200ac8c7c3b925",
            "0x000000000000000000000000c4fe13e473e6ad2bb0ba8a365bf581080d92db18",
            "0x000000000000000000000000000000000022d473030f116ddee9f6b43ac78ba3"
          ],
          "data": "0xffffffffffffffffffffffffffffffffffffffffffffffffffffffffffffffff",
          "blockHash": "0x50e73c081987f0793ed273031e88cc6fb93fa5a1a2b788a24e521b30156b3104",
          "blockNumber": "0x1eac1b4",
          "blockTimestamp": "0x68d86f00",
          "transactionHash": "0x741d161db919820ea950cb4e55a05c67e5abed4133ca7d63431233578ef20ab6",
          "transactionIndex": "0x4",
          "logIndex": "0x3",
          "removed": false
        }
      ],
      "logsBloom": "0x00000000000000000000000000000000000000000000000000000010000000000000000000000000000000000000000000000000800000000000000000200000000000000000000000004000000000000000000000000800000000000000000040000000000000000000000000000000000000000000000000000000000000000000000000000000000000000000000000000000000000000000000000000000020000000000001000008000000000000000000000000000000000000000000000000000000000000000000000000000000000000000000000000000000000000010000000000800000000000000100000000000000000000000000000000000",
      "type": "0x2",
      "transactionHash": "0x741d161db919820ea950cb4e55a05c67e5abed4133ca7d63431233578ef20ab6",
      "transactionIndex": "0x4",
      "blockHash": "0x50e73c081987f0793ed273031e88cc6fb93fa5a1a2b788a24e521b30156b3104",
      "blockNumber": "0x1eac1b4",
      "gasUsed": "0x6da4",
      "effectiveGasPrice": "0xfe",
      "from": "0xc4fe13e473e6ad2bb0ba8a365bf581080d92db18",
      "to": "0x96bea0e29d5a261464e8e7260c1f833aae39dbaf",
      "contractAddress": null,
      "l1BaseFeeScalar": "0x7d0",
      "l1BlobBaseFee": "0x1",
      "l1BlobBaseFeeScalar": "0xdbba0",
      "l1Fee": "0x73",
      "l1GasPrice": "0x8",
      "l1GasUsed": "0x640"
    },
    {
      "status": "0x1",
      "cumulativeGasUsed": "0x50906",
      "logs": [
        {
          "address": "0x000000000022d473030f116ddee9f6b43ac78ba3",
          "topics": [
            "0xda9fa7c1b00402c17d0161b249b1ab8bbec047c5a52207b9c112deffd817036b",
            "0x000000000000000000000000c4fe13e473e6ad2bb0ba8a365bf581080d92db18",
            "0x000000000000000000000000663551545ed415e85645c49630bc81e10d3b9a54",
            "0x000000000000000000000000f969aee60879c54baaed9f3ed26147db216fd664"
          ],
          "data": "0x000000000000000000000000ffffffffffffffffffffffffffffffffffffffff0000000000000000000000000000000000000000000000000000ffffffffffff",
          "blockHash": "0x50e73c081987f0793ed273031e88cc6fb93fa5a1a2b788a24e521b30156b3104",
          "blockNumber": "0x1eac1b4",
          "blockTimestamp": "0x68d86f00",
          "transactionHash": "0xb6e91064e03509f9d2b61b34bfb541b0e4680a902a6bece7f340e7fe40649ebd",
          "transactionIndex": "0x5",
          "logIndex": "0x4",
          "removed": false
        }
      ],
      "logsBloom": "0x00010000000000000000000000000000000010000000000000000010000000000000000000000000000000000000000000000000000000000000000000080000000000000000000000000000000000000000000000000000000000001000000040004000000000000000000004000000000000000040000000000000000000000020000000000000000000000000000000000000000000000000000000000000000000000000000000000000000000000000000000000000000000080000000000000000000000000000000000000000000000000000000040000000000000000000000000000800000000000000000000000000000000000000000000002400",
      "type": "0x2",
      "transactionHash": "0xb6e91064e03509f9d2b61b34bfb541b0e4680a902a6bece7f340e7fe40649ebd",
      "transactionIndex": "0x5",
      "blockHash": "0x50e73c081987f0793ed273031e88cc6fb93fa5a1a2b788a24e521b30156b3104",
      "blockNumber": "0x1eac1b4",
      "gasUsed": "0xbaca",
      "effectiveGasPrice": "0xfe",
      "from": "0xc4fe13e473e6ad2bb0ba8a365bf581080d92db18",
      "to": "0x000000000022d473030f116ddee9f6b43ac78ba3",
      "contractAddress": null,
      "l1BaseFeeScalar": "0x7d0",
      "l1BlobBaseFee": "0x1",
      "l1BlobBaseFeeScalar": "0xdbba0",
      "l1Fee": "0x7d",
      "l1GasPrice": "0x8",
      "l1GasUsed": "0x6cd"
    },
    {
      "status": "0x1",
      "cumulativeGasUsed": "0x57614",
      "logs": [
        {
          "address": "0x000000000022d473030f116ddee9f6b43ac78ba3",
          "topics": [
            "0xda9fa7c1b00402c17d0161b249b1ab8bbec047c5a52207b9c112deffd817036b",
            "0x000000000000000000000000c4fe13e473e6ad2bb0ba8a365bf581080d92db18",
            "0x00000000000000000000000096bea0e29d5a261464e8e7260c1f833aae39dbaf",
            "0x000000000000000000000000f969aee60879c54baaed9f3ed26147db216fd664"
          ],
          "data": "0x000000000000000000000000ffffffffffffffffffffffffffffffffffffffff0000000000000000000000000000000000000000000000000000ffffffffffff",
          "blockHash": "0x50e73c081987f0793ed273031e88cc6fb93fa5a1a2b788a24e521b30156b3104",
          "blockNumber": "0x1eac1b4",
          "blockTimestamp": "0x68d86f00",
          "transactionHash": "0x1d9f821392b574fffa35f35adaba4e2dd7fff85cf663d4bc26b58bb5e26a3132",
          "transactionIndex": "0x6",
          "logIndex": "0x5",
          "removed": false
        }
      ],
      "logsBloom": "0x00010000000000000000000000000000000000000000000000000010000000000000000000000000000000000000000000000000000000000000000000080000000000000000000000000000000000000000000000000000000000001000000040000000000000000000000000000000000000000040000000000000000000000021000000000000000000000000000000000000000000000020000000000000000000000000000000000000001000000000000000000000000000080000000000000000000000000000000000000000000000000000000040000000000000000000000000000800000000000000000000000000000000000000000000002400",
      "type": "0x2",
      "transactionHash": "0x1d9f821392b574fffa35f35adaba4e2dd7fff85cf663d4bc26b58bb5e26a3132",
      "transactionIndex": "0x6",
      "blockHash": "0x50e73c081987f0793ed273031e88cc6fb93fa5a1a2b788a24e521b30156b3104",
      "blockNumber": "0x1eac1b4",
      "gasUsed": "0x6d0e",
      "effectiveGasPrice": "0xfe",
      "from": "0xc4fe13e473e6ad2bb0ba8a365bf581080d92db18",
      "to": "0x000000000022d473030f116ddee9f6b43ac78ba3",
      "contractAddress": null,
      "l1BaseFeeScalar": "0x7d0",
      "l1BlobBaseFee": "0x1",
      "l1BlobBaseFeeScalar": "0xdbba0",
      "l1Fee": "0x7c",
      "l1GasPrice": "0x8",
      "l1GasUsed": "0x6bf"
    },
    {
      "status": "0x1",
      "cumulativeGasUsed": "0xbd22c",
      "logs": [
        {
          "address": "0xf969aee60879c54baaed9f3ed26147db216fd664",
          "topics": [
            "0xddf252ad1be2c89b69c2b068fc378daa952ba7f163c4a11628f55a4df523b3ef",
            "0x0000000000000000000000000000000000000000000000000000000000000000",
            "0x000000000000000000000000c4fe13e473e6ad2bb0ba8a365bf581080d92db18",
            "0x00000000000000000000000000000000000000000000000000000000000015e1"
          ],
          "data": "0x",
          "blockHash": "0x50e73c081987f0793ed273031e88cc6fb93fa5a1a2b788a24e521b30156b3104",
          "blockNumber": "0x1eac1b4",
          "blockTimestamp": "0x68d86f00",
          "transactionHash": "0x89e9cb560db0eb83757b46d5e3931b55388dda9cf575bad27ad90e335814e17d",
          "transactionIndex": "0x7",
          "logIndex": "0x6",
          "removed": false
        },
        {
          "address": "0x00b036b58a818b1bc34d502d3fe730db729e62ac",
          "topics": [
            "0xf208f4912782fd25c7f114ca3723a2d5dd6f3bcc3ac8db5af63baa85f711d5ec",
            "0x1cc588f92e439e88ef8710b36d81d287cd539fd0903947eb7c8103d8fc9c9542",
            "0x000000000000000000000000f969aee60879c54baaed9f3ed26147db216fd664"
          ],
          "data": "0xfffffffffffffffffffffffffffffffffffffffffffffffffffffffffff2764c00000000000000000000000000000000000000000000000000000000000d89b4000000000000000000000000000000000000000000000002b5e3af16b188000000000000000000000000000000000000000000000000000000000000000015e1",
          "blockHash": "0x50e73c081987f0793ed273031e88cc6fb93fa5a1a2b788a24e521b30156b3104",
          "blockNumber": "0x1eac1b4",
          "blockTimestamp": "0x68d86f00",
          "transactionHash": "0x89e9cb560db0eb83757b46d5e3931b55388dda9cf575bad27ad90e335814e17d",
          "transactionIndex": "0x7",
          "logIndex": "0x7",
          "removed": false
        },
        {
          "address": "0x663551545ed415e85645c49630bc81e10d3b9a54",
          "topics": [
            "0xddf252ad1be2c89b69c2b068fc378daa952ba7f163c4a11628f55a4df523b3ef",
            "0x000000000000000000000000c4fe13e473e6ad2bb0ba8a365bf581080d92db18",
            "0x00000000000000000000000000b036b58a818b1bc34d502d3fe730db729e62ac"
          ],
          "data": "0x000000000000000000000000000000000000000000000002b5e3af16b187fffe",
          "blockHash": "0x50e73c081987f0793ed273031e88cc6fb93fa5a1a2b788a24e521b30156b3104",
          "blockNumber": "0x1eac1b4",
          "blockTimestamp": "0x68d86f00",
          "transactionHash": "0x89e9cb560db0eb83757b46d5e3931b55388dda9cf575bad27ad90e335814e17d",
          "transactionIndex": "0x7",
          "logIndex": "0x8",
          "removed": false
        },
        {
          "address": "0x96bea0e29d5a261464e8e7260c1f833aae39dbaf",
          "topics": [
            "0xddf252ad1be2c89b69c2b068fc378daa952ba7f163c4a11628f55a4df523b3ef",
            "0x000000000000000000000000c4fe13e473e6ad2bb0ba8a365bf581080d92db18",
            "0x00000000000000000000000000b036b58a818b1bc34d502d3fe730db729e62ac"
          ],
          "data": "0x000000000000000000000000000000000000000000000002b5e3af16b187fffe",
          "blockHash": "0x50e73c081987f0793ed273031e88cc6fb93fa5a1a2b788a24e521b30156b3104",
          "blockNumber": "0x1eac1b4",
          "blockTimestamp": "0x68d86f00",
          "transactionHash": "0x89e9cb560db0eb83757b46d5e3931b55388dda9cf575bad27ad90e335814e17d",
          "transactionIndex": "0x7",
          "logIndex": "0x9",
          "removed": false
        }
      ],
      "logsBloom": "0x00080000000000000100000000000000000000000000000000000010000000000001000000000000000000000000000000000000001000000000000000000000000000000000000000000008000000000000000000000000000000001000000040000000020000000000000000004800000000010040000000000010000000000400000001000000000000000008000000000000000000000002000000000000000004000000001000008000000000400800000000000020000004000010000000000002080000000000000000000000000000000000000000000000000020004000000000000800000000000000100004000000000002000000000000002010",
      "type": "0x2",
      "transactionHash": "0x89e9cb560db0eb83757b46d5e3931b55388dda9cf575bad27ad90e335814e17d",
      "transactionIndex": "0x7",
      "blockHash": "0x50e73c081987f0793ed273031e88cc6fb93fa5a1a2b788a24e521b30156b3104",
      "blockNumber": "0x1eac1b4",
      "gasUsed": "0x65c18",
      "effectiveGasPrice": "0xfe",
      "from": "0xc4fe13e473e6ad2bb0ba8a365bf581080d92db18",
      "to": "0xf969aee60879c54baaed9f3ed26147db216fd664",
      "contractAddress": null,
      "l1BaseFeeScalar": "0x7d0",
      "l1BlobBaseFee": "0x1",
      "l1BlobBaseFeeScalar": "0xdbba0",
      "l1Fee": "0x137",
      "l1GasPrice": "0x8",
      "l1GasUsed": "0x10d6"
    }
  ],
  "libraries": [],
  "pending": [],
  "returns": {},
  "timestamp": 1759014658,
  "chain": 1301,
  "commit": "c6ee337"
}