{
  "transactions": [
    {
      "hash": "0x7cfe8bddd0bb05cbbf6004e94e3e9a6a391170d036d7b93ff83e30e48302ac6a",
      "transactionType": "CALL",
      "contractName": null,
      "contractAddress": "0x1f176479e5d3d62cf1245c7be36ae2e634988705",
      "function": "approve(address,uint256)",
      "arguments": [
        "0x000000000022D473030F116dDEE9F6B43aC78BA3",
        "115792089237316195423570985008687907853269984665640564039457584007913129639935"
      ],
      "transaction": {
        "from": "0xc4fe13e473e6ad2bb0ba8a365bf581080d92db18",
        "to": "0x1f176479e5d3d62cf1245c7be36ae2e634988705",
        "gas": "0x102cf",
        "value": "0x0",
        "input": "0x095ea7b3000000000000000000000000000000000022d473030f116ddee9f6b43ac78ba3ffffffffffffffffffffffffffffffffffffffffffffffffffffffffffffffff",
        "nonce": "0x1b3",
        "chainId": "0x515"
      },
      "additionalContracts": [],
      "isFixedGasLimit": false
    },
    {
      "hash": "0xd26026ef738e1f17dc3d9df12b4edc1018f0bfecdd2e0e62906d1d773933f2d3",
      "transactionType": "CALL",
      "contractName": null,
      "contractAddress": "0x5f8cfacda1f8a81f50200b80c2d63f61bc64630e",
      "function": "approve(address,uint256)",
      "arguments": [
        "0x000000000022D473030F116dDEE9F6B43aC78BA3",
        "115792089237316195423570985008687907853269984665640564039457584007913129639935"
      ],
      "transaction": {
        "from": "0xc4fe13e473e6ad2bb0ba8a365bf581080d92db18",
        "to": "0x5f8cfacda1f8a81f50200b80c2d63f61bc64630e",
        "gas": "0x102cf",
        "value": "0x0",
        "input": "0x095ea7b3000000000000000000000000000000000022d473030f116ddee9f6b43ac78ba3ffffffffffffffffffffffffffffffffffffffffffffffffffffffffffffffff",
        "nonce": "0x1b4",
        "chainId": "0x515"
      },
      "additionalContracts": [],
      "isFixedGasLimit": false
    },
    {
      "hash": "0x796681a6184f78086bd6a8eaae573c57eed02f698272b35875aa0ab8ca3f87bf",
      "transactionType": "CALL",
      "contractName": null,
      "contractAddress": "0x000000000022d473030f116ddee9f6b43ac78ba3",
      "function": "approve(address,address,uint160,uint48)",
      "arguments": [
        "0x1f176479e5d3D62cf1245C7be36Ae2e634988705",
        "0xf969Aee60879C54bAAed9F3eD26147Db216Fd664",
        "1461501637330902918203684832716283019655932542975",
        "281474976710655"
      ],
      "transaction": {
        "from": "0xc4fe13e473e6ad2bb0ba8a365bf581080d92db18",
        "to": "0x000000000022d473030f116ddee9f6b43ac78ba3",
        "gas": "0x1112d",
        "value": "0x0",
        "input": "0x87517c450000000000000000000000001f176479e5d3d62cf1245c7be36ae2e634988705000000000000000000000000f969aee60879c54baaed9f3ed26147db216fd664000000000000000000000000ffffffffffffffffffffffffffffffffffffffff0000000000000000000000000000000000000000000000000000ffffffffffff",
        "nonce": "0x1b5",
        "chainId": "0x515"
      },
      "additionalContracts": [],
      "isFixedGasLimit": false
    },
    {
      "hash": "0xa805944f1ed26e2a3789b447d3f5eeb316f474192546e50d578dc79940e0b198",
      "transactionType": "CALL",
      "contractName": null,
      "contractAddress": "0x000000000022d473030f116ddee9f6b43ac78ba3",
      "function": "approve(address,address,uint160,uint48)",
      "arguments": [
        "0x5F8CfACDA1f8A81f50200B80C2D63F61bC64630E",
        "0xf969Aee60879C54bAAed9F3eD26147Db216Fd664",
        "1461501637330902918203684832716283019655932542975",
        "281474976710655"
      ],
      "transaction": {
        "from": "0xc4fe13e473e6ad2bb0ba8a365bf581080d92db18",
        "to": "0x000000000022d473030f116ddee9f6b43ac78ba3",
        "gas": "0x1112d",
        "value": "0x0",
        "input": "0x87517c450000000000000000000000005f8cfacda1f8a81f50200b80c2d63f61bc64630e000000000000000000000000f969aee60879c54baaed9f3ed26147db216fd664000000000000000000000000ffffffffffffffffffffffffffffffffffffffff0000000000000000000000000000000000000000000000000000ffffffffffff",
        "nonce": "0x1b6",
        "chainId": "0x515"
      },
      "additionalContracts": [],
      "isFixedGasLimit": false
    },
    {
      "hash": "0x57a814b809904e5efe2b963dff240492495cd224d541539c4b6254a8df15192d",
      "transactionType": "CALL",
      "contractName": null,
      "contractAddress": "0xf969aee60879c54baaed9f3ed26147db216fd664",
      "function": "modifyLiquidities(bytes,uint256)",
      "arguments": [
        "0x0000000000000000000000000000000000000000000000000000000000000040000000000000000000000000000000000000000000000000000000000000008000000000000000000000000000000000000000000000000000000000000000030212120000000000000000000000000000000000000000000000000000000000000000000000000000000000000000000000000000000000000000000000000300000000000000000000000000000000000000000000000000000000000000600000000000000000000000000000000000000000000000000000000000000220000000000000000000000000000000000000000000000000000000000000026000000000000000000000000000000000000000000000000000000000000001a00000000000000000000000001f176479e5d3d62cf1245c7be36ae2e6349887050000000000000000000000005f8cfacda1f8a81f50200b80c2d63f61bc64630e0000000000000000000000000000000000000000000000000000000000000bb8000000000000000000000000000000000000000000000000000000000000003c0000000000000000000000006de61420d77d47bd038c90fef421458e5dfec3c0fffffffffffffffffffffffffffffffffffffffffffffffffffffffffff2764c00000000000000000000000000000000000000000000000000000000000d89b4000000000000000000000000000000000000000000000002b5e3af16b188000000000000000000000000000000000000ffffffffffffffffffffffffffffffff00000000000000000000000000000000ffffffffffffffffffffffffffffffff000000000000000000000000c4fe13e473e6ad2bb0ba8a365bf581080d92db180000000000000000000000000000000000000000000000000000000000000180000000000000000000000000000000000000000000000000000000000000000000000000000000000000000000000000000000000000000000000000000000200000000000000000000000001f176479e5d3d62cf1245c7be36ae2e63498870500000000000000000000000000000000000000000000000000000000000000200000000000000000000000005f8cfacda1f8a81f50200b80c2d63f61bc64630e",
        "1759030956"
      ],
      "transaction": {
        "from": "0xc4fe13e473e6ad2bb0ba8a365bf581080d92db18",
        "to": "0xf969aee60879c54baaed9f3ed26147db216fd664",
        "gas": "0x92511",
        "value": "0x0",
        "input": "0xdd46508f00000000000000000000000000000000000000000000000000000000000000400000000000000000000000000000000000000000000000000000000068d8aeac00000000000000000000000000000000000000000000000000000000000003400000000000000000000000000000000000000000000000000000000000000040000000000000000000000000000000000000000000000000000000000000008000000000000000000000000000000000000000000000000000000000000000030212120000000000000000000000000000000000000000000000000000000000000000000000000000000000000000000000000000000000000000000000000300000000000000000000000000000000000000000000000000000000000000600000000000000000000000000000000000000000000000000000000000000220000000000000000000000000000000000000000000000000000000000000026000000000000000000000000000000000000000000000000000000000000001a00000000000000000000000001f176479e5d3d62cf1245c7be36ae2e6349887050000000000000000000000005f8cfacda1f8a81f50200b80c2d63f61bc64630e0000000000000000000000000000000000000000000000000000000000000bb8000000000000000000000000000000000000000000000000000000000000003c0000000000000000000000006de61420d77d47bd038c90fef421458e5dfec3c0fffffffffffffffffffffffffffffffffffffffffffffffffffffffffff2764c00000000000000000000000000000000000000000000000000000000000d89b4000000000000000000000000000000000000000000000002b5e3af16b188000000000000000000000000000000000000ffffffffffffffffffffffffffffffff00000000000000000000000000000000ffffffffffffffffffffffffffffffff000000000000000000000000c4fe13e473e6ad2bb0ba8a365bf581080d92db180000000000000000000000000000000000000000000000000000000000000180000000000000000000000000000000000000000000000000000000000000000000000000000000000000000000000000000000000000000000000000000000200000000000000000000000001f176479e5d3d62cf1245c7be36ae2e63498870500000000000000000000000000000000000000000000000000000000000000200000000000000000000000005f8cfacda1f8a81f50200b80c2d63f61bc64630e",
        "nonce": "0x1b7",
        "chainId": "0x515"
      },
      "additionalContracts": [],
      "isFixedGasLimit": false
    }
  ],
  "receipts": [
    {
      "status": "0x1",
      "cumulativeGasUsed": "0x6197a",
      "logs": [
        {
          "address": "0x1f176479e5d3d62cf1245c7be36ae2e634988705",
          "topics": [
            "0x8c5be1e5ebec7d5bd14f71427d1e84f3dd0314c0f7b2291e5b200ac8c7c3b925",
            "0x000000000000000000000000c4fe13e473e6ad2bb0ba8a365bf581080d92db18",
            "0x000000000000000000000000000000000022d473030f116ddee9f6b43ac78ba3"
          ],
          "data": "0xffffffffffffffffffffffffffffffffffffffffffffffffffffffffffffffff",
          "blockHash": "0x647aab4692943562e2ddc0710cd3322e3dd3c18777e484781cc4d4ccb3159ef3",
          "blockNumber": "0x1eaf369",
          "blockTimestamp": "0x68d8a0b5",
          "transactionHash": "0x7cfe8bddd0bb05cbbf6004e94e3e9a6a391170d036d7b93ff83e30e48302ac6a",
          "transactionIndex": "0x3",
          "logIndex": "0x8",
          "removed": false
        }
      ],
      "logsBloom": "0x00000000000000000000000000000000010000000000000000000010000000000000000000000000000000000000000000000000800000000000000000200000000000000000000000004000000000000000000000000800000000000000000040000000000000000000000000000000000000000000000002000000000000000000000000000004000000000000000000000000000000000000000000000000020000000000000000000000000000000000000000000000000000000000000000000000000000000000000000000000000000000000000000000000000000000010000000000800000000000000000000000000000000000000000000000000",
      "type": "0x2",
      "transactionHash": "0x7cfe8bddd0bb05cbbf6004e94e3e9a6a391170d036d7b93ff83e30e48302ac6a",
      "transactionIndex": "0x3",
      "blockHash": "0x647aab4692943562e2ddc0710cd3322e3dd3c18777e484781cc4d4ccb3159ef3",
      "blockNumber": "0x1eaf369",
      "gasUsed": "0xbb60",
      "effectiveGasPrice": "0xab0d8",
      "from": "0xc4fe13e473e6ad2bb0ba8a365bf581080d92db18",
      "to": "0x1f176479e5d3d62cf1245c7be36ae2e634988705",
      "contractAddress": null,
      "l1BaseFeeScalar": "0x7d0",
      "l1BlobBaseFee": "0x1",
      "l1BlobBaseFeeScalar": "0xdbba0",
      "l1Fee": "0x7a",
      "l1GasPrice": "0xa",
      "l1GasUsed": "0x640"
    },
    {
      "status": "0x1",
      "cumulativeGasUsed": "0x6d4da",
      "logs": [
        {
          "address": "0x5f8cfacda1f8a81f50200b80c2d63f61bc64630e",
          "topics": [
            "0x8c5be1e5ebec7d5bd14f71427d1e84f3dd0314c0f7b2291e5b200ac8c7c3b925",
            "0x000000000000000000000000c4fe13e473e6ad2bb0ba8a365bf581080d92db18",
            "0x000000000000000000000000000000000022d473030f116ddee9f6b43ac78ba3"
          ],
          "data": "0xffffffffffffffffffffffffffffffffffffffffffffffffffffffffffffffff",
          "blockHash": "0x647aab4692943562e2ddc0710cd3322e3dd3c18777e484781cc4d4ccb3159ef3",
          "blockNumber": "0x1eaf369",
          "blockTimestamp": "0x68d8a0b5",
          "transactionHash": "0xd26026ef738e1f17dc3d9df12b4edc1018f0bfecdd2e0e62906d1d773933f2d3",
          "transactionIndex": "0x4",
          "logIndex": "0x9",
          "removed": false
        }
      ],
      "logsBloom": "0x00000000000000000000000000000000000000000000000000000010000000000000000000000000000000000000000000000000800000000000000000200004000000000000000000004000000000000000000000000800000000000000000040000000000000000000000000000000000000000000000000000000000000000000000000000000000000000000000000000000000000000000000000000400020000000000000000000000000000000000000000000000000000000000000000000000000000000000000000000000000000000000000000000000000000000010000000000800000000000000000000000000000000000000000000000000",
      "type": "0x2",
      "transactionHash": "0xd26026ef738e1f17dc3d9df12b4edc1018f0bfecdd2e0e62906d1d773933f2d3",
      "transactionIndex": "0x4",
      "blockHash": "0x647aab4692943562e2ddc0710cd3322e3dd3c18777e484781cc4d4ccb3159ef3",
      "blockNumber": "0x1eaf369",
      "gasUsed": "0xbb60",
      "effectiveGasPrice": "0xab0d8",
      "from": "0xc4fe13e473e6ad2bb0ba8a365bf581080d92db18",
      "to": "0x5f8cfacda1f8a81f50200b80c2d63f61bc64630e",
      "contractAddress": null,
      "l1BaseFeeScalar": "0x7d0",
      "l1BlobBaseFee": "0x1",
      "l1BlobBaseFeeScalar": "0xdbba0",
      "l1Fee": "0x7a",
      "l1GasPrice": "0xa",
      "l1GasUsed": "0x640"
    },
    {
      "status": "0x1",
      "cumulativeGasUsed": "0x78fa4",
      "logs": [
        {
          "address": "0x000000000022d473030f116ddee9f6b43ac78ba3",
          "topics": [
            "0xda9fa7c1b00402c17d0161b249b1ab8bbec047c5a52207b9c112deffd817036b",
            "0x000000000000000000000000c4fe13e473e6ad2bb0ba8a365bf581080d92db18",
            "0x0000000000000000000000001f176479e5d3d62cf1245c7be36ae2e634988705",
            "0x000000000000000000000000f969aee60879c54baaed9f3ed26147db216fd664"
          ],
          "data": "0x000000000000000000000000ffffffffffffffffffffffffffffffffffffffff0000000000000000000000000000000000000000000000000000ffffffffffff",
          "blockHash": "0x647aab4692943562e2ddc0710cd3322e3dd3c18777e484781cc4d4ccb3159ef3",
          "blockNumber": "0x1eaf369",
          "blockTimestamp": "0x68d8a0b5",
          "transactionHash": "0x796681a6184f78086bd6a8eaae573c57eed02f698272b35875aa0ab8ca3f87bf",
          "transactionIndex": "0x5",
          "logIndex": "0xa",
          "removed": false
        }
      ],
      "logsBloom": "0x00010000000000000000000000000000000400000000000080000010000000000000000000000000000000000000000000000000000004000000000000080000000000000000000000000000000000000000000000000000000000001000000040000000000000000000000000000000000000000040000000000000000000000020000000000000000000000000000000000000000000000000000000000000000000000000000000000000000000000000000000000000000000080000000000000000000000000000000000000000000000000000000040000000000000000000000000000800000000000000000000000000000000000000000000002400",
      "type": "0x2",
      "transactionHash": "0x796681a6184f78086bd6a8eaae573c57eed02f698272b35875aa0ab8ca3f87bf",
      "transactionIndex": "0x5",
      "blockHash": "0x647aab4692943562e2ddc0710cd3322e3dd3c18777e484781cc4d4ccb3159ef3",
      "blockNumber": "0x1eaf369",
      "gasUsed": "0xbaca",
      "effectiveGasPrice": "0xab0d8",
      "from": "0xc4fe13e473e6ad2bb0ba8a365bf581080d92db18",
      "to": "0x000000000022d473030f116ddee9f6b43ac78ba3",
      "contractAddress": null,
      "l1BaseFeeScalar": "0x7d0",
      "l1BlobBaseFee": "0x1",
      "l1BlobBaseFeeScalar": "0xdbba0",
      "l1Fee": "0x89",
      "l1GasPrice": "0xa",
      "l1GasUsed": "0x710"
    },
    {
      "status": "0x1",
      "cumulativeGasUsed": "0x84a6e",
      "logs": [
        {
          "address": "0x000000000022d473030f116ddee9f6b43ac78ba3",
          "topics": [
            "0xda9fa7c1b00402c17d0161b249b1ab8bbec047c5a52207b9c112deffd817036b",
            "0x000000000000000000000000c4fe13e473e6ad2bb0ba8a365bf581080d92db18",
            "0x0000000000000000000000005f8cfacda1f8a81f50200b80c2d63f61bc64630e",
            "0x000000000000000000000000f969aee60879c54baaed9f3ed26147db216fd664"
          ],
          "data": "0x000000000000000000000000ffffffffffffffffffffffffffffffffffffffff0000000000000000000000000000000000000000000000000000ffffffffffff",
          "blockHash": "0x647aab4692943562e2ddc0710cd3322e3dd3c18777e484781cc4d4ccb3159ef3",
          "blockNumber": "0x1eaf369",
          "blockTimestamp": "0x68d8a0b5",
          "transactionHash": "0xa805944f1ed26e2a3789b447d3f5eeb316f474192546e50d578dc79940e0b198",
          "transactionIndex": "0x6",
          "logIndex": "0xb",
          "removed": false
        }
      ],
      "logsBloom": "0x00010000000000000000000000000000000000000000000000000010000000000000000000000000000000000000000000000000000000000000000000080000000000000000000000000000000000000000000000000000000000001000000040000000000000000000000000000000000000000040000000000000000000000020000000000000000000000000000000000000000000000000000000000000000000000000000400000001000000000000000000000000000000080000000000000000000000000000000000000000000000000000000040000000000000000000000000000800000000000000400000000000000000000000000000002400",
      "type": "0x2",
      "transactionHash": "0xa805944f1ed26e2a3789b447d3f5eeb316f474192546e50d578dc79940e0b198",
      "transactionIndex": "0x6",
      "blockHash": "0x647aab4692943562e2ddc0710cd3322e3dd3c18777e484781cc4d4ccb3159ef3",
      "blockNumber": "0x1eaf369",
      "gasUsed": "0xbaca",
      "effectiveGasPrice": "0xab0d8",
      "from": "0xc4fe13e473e6ad2bb0ba8a365bf581080d92db18",
      "to": "0x000000000022d473030f116ddee9f6b43ac78ba3",
      "contractAddress": null,
      "l1BaseFeeScalar": "0x7d0",
      "l1BlobBaseFee": "0x1",
      "l1BlobBaseFeeScalar": "0xdbba0",
      "l1Fee": "0x89",
      "l1GasPrice": "0xa",
      "l1GasUsed": "0x710"
    },
    {
      "status": "0x1",
      "cumulativeGasUsed": "0xee952",
      "logs": [
        {
          "address": "0xf969aee60879c54baaed9f3ed26147db216fd664",
          "topics": [
            "0xddf252ad1be2c89b69c2b068fc378daa952ba7f163c4a11628f55a4df523b3ef",
            "0x0000000000000000000000000000000000000000000000000000000000000000",
            "0x000000000000000000000000c4fe13e473e6ad2bb0ba8a365bf581080d92db18",
            "0x00000000000000000000000000000000000000000000000000000000000015f1"
          ],
          "data": "0x",
          "blockHash": "0x647aab4692943562e2ddc0710cd3322e3dd3c18777e484781cc4d4ccb3159ef3",
          "blockNumber": "0x1eaf369",
          "blockTimestamp": "0x68d8a0b5",
          "transactionHash": "0x57a814b809904e5efe2b963dff240492495cd224d541539c4b6254a8df15192d",
          "transactionIndex": "0x7",
          "logIndex": "0xc",
          "removed": false
        },
        {
          "address": "0x00b036b58a818b1bc34d502d3fe730db729e62ac",
          "topics": [
            "0xf208f4912782fd25c7f114ca3723a2d5dd6f3bcc3ac8db5af63baa85f711d5ec",
            "0xaa09d4c6b851230f2566ee725e377337c8a777f759f82e02e4fa1d7dbc570867",
            "0x000000000000000000000000f969aee60879c54baaed9f3ed26147db216fd664"
          ],
          "data": "0xfffffffffffffffffffffffffffffffffffffffffffffffffffffffffff2764c00000000000000000000000000000000000000000000000000000000000d89b4000000000000000000000000000000000000000000000002b5e3af16b188000000000000000000000000000000000000000000000000000000000000000015f1",
          "blockHash": "0x647aab4692943562e2ddc0710cd3322e3dd3c18777e484781cc4d4ccb3159ef3",
          "blockNumber": "0x1eaf369",
          "blockTimestamp": "0x68d8a0b5",
          "transactionHash": "0x57a814b809904e5efe2b963dff240492495cd224d541539c4b6254a8df15192d",
          "transactionIndex": "0x7",
          "logIndex": "0xd",
          "removed": false
        },
        {
          "address": "0x1f176479e5d3d62cf1245c7be36ae2e634988705",
          "topics": [
            "0xddf252ad1be2c89b69c2b068fc378daa952ba7f163c4a11628f55a4df523b3ef",
            "0x000000000000000000000000c4fe13e473e6ad2bb0ba8a365bf581080d92db18",
            "0x00000000000000000000000000b036b58a818b1bc34d502d3fe730db729e62ac"
          ],
          "data": "0x000000000000000000000000000000000000000000000002b5e3af16b187fffe",
          "blockHash": "0x647aab4692943562e2ddc0710cd3322e3dd3c18777e484781cc4d4ccb3159ef3",
          "blockNumber": "0x1eaf369",
          "blockTimestamp": "0x68d8a0b5",
          "transactionHash": "0x57a814b809904e5efe2b963dff240492495cd224d541539c4b6254a8df15192d",
          "transactionIndex": "0x7",
          "logIndex": "0xe",
          "removed": false
        },
        {
          "address": "0x5f8cfacda1f8a81f50200b80c2d63f61bc64630e",
          "topics": [
            "0xddf252ad1be2c89b69c2b068fc378daa952ba7f163c4a11628f55a4df523b3ef",
            "0x000000000000000000000000c4fe13e473e6ad2bb0ba8a365bf581080d92db18",
            "0x00000000000000000000000000b036b58a818b1bc34d502d3fe730db729e62ac"
          ],
          "data": "0x000000000000000000000000000000000000000000000002b5e3af16b187fffe",
          "blockHash": "0x647aab4692943562e2ddc0710cd3322e3dd3c18777e484781cc4d4ccb3159ef3",
          "blockNumber": "0x1eaf369",
          "blockTimestamp": "0x68d8a0b5",
          "transactionHash": "0x57a814b809904e5efe2b963dff240492495cd224d541539c4b6254a8df15192d",
          "transactionIndex": "0x7",
          "logIndex": "0xf",
          "removed": false
        }
      ],
      "logsBloom": "0x00000000800000000000000000000000010000000000000000000010000000000000000000000000000000000000000000000000001000000000000000000004000200000000000000000008000000000000000000000800000000001000040040000020020000000000000000004800000000000040000002000010000000000000000001000004000000000008000000000000000000000000000000000400000004000000000000000000000000000800000000000020000000000000000000000002080000000000000000000000000000000000000000000000000020004000000000000800004000000000000004000000000002000080000000002010",
      "type": "0x2",
      "transactionHash": "0x57a814b809904e5efe2b963dff240492495cd224d541539c4b6254a8df15192d",
      "transactionIndex": "0x7",
      "blockHash": "0x647aab4692943562e2ddc0710cd3322e3dd3c18777e484781cc4d4ccb3159ef3",
      "blockNumber": "0x1eaf369",
      "gasUsed": "0x69ee4",
      "effectiveGasPrice": "0xab0d8",
      "from": "0xc4fe13e473e6ad2bb0ba8a365bf581080d92db18",
      "to": "0xf969aee60879c54baaed9f3ed26147db216fd664",
      "contractAddress": null,
      "l1BaseFeeScalar": "0x7d0",
      "l1BlobBaseFee": "0x1",
      "l1BlobBaseFeeScalar": "0xdbba0",
      "l1Fee": "0x14d",
      "l1GasPrice": "0xa",
      "l1GasUsed": "0x1119"
    }
  ],
  "libraries": [],
  "pending": [],
  "returns": {},
  "timestamp": 1759027382,
  "chain": 1301,
  "commit": "b7c866c"
}