{
  "transactions": [
    {
      "hash": "0x3abe107bf3c38508c46bec829e3037dcd7c1d0509cf9c6d8eefb4fc88c5c13e2",
      "transactionType": "CALL",
      "contractName": null,
      "contractAddress": "0x4afd548ccb8f5e9df4c05faa437add0c6e315196",
      "function": "approve(address,uint256)",
      "arguments": [
        "0x000000000022D473030F116dDEE9F6B43aC78BA3",
        "115792089237316195423570985008687907853269984665640564039457584007913129639935"
      ],
      "transaction": {
        "from": "0xc4fe13e473e6ad2bb0ba8a365bf581080d92db18",
        "to": "0x4afd548ccb8f5e9df4c05faa437add0c6e315196",
        "gas": "0x102cf",
        "value": "0x0",
        "input": "0x095ea7b3000000000000000000000000000000000022d473030f116ddee9f6b43ac78ba3ffffffffffffffffffffffffffffffffffffffffffffffffffffffffffffffff",
        "nonce": "0x23d",
        "chainId": "0x515"
      },
      "additionalContracts": [],
      "isFixedGasLimit": false
    },
    {
      "hash": "0x536128a0c9b5d5441e5d71230662c038f4e030e912f81eae01785f1a2b3de604",
      "transactionType": "CALL",
      "contractName": null,
      "contractAddress": "0xb1144ba09b8af62e2bdebe5db4ce98c58d287130",
      "function": "approve(address,uint256)",
      "arguments": [
        "0x000000000022D473030F116dDEE9F6B43aC78BA3",
        "115792089237316195423570985008687907853269984665640564039457584007913129639935"
      ],
      "transaction": {
        "from": "0xc4fe13e473e6ad2bb0ba8a365bf581080d92db18",
        "to": "0xb1144ba09b8af62e2bdebe5db4ce98c58d287130",
        "gas": "0x102cf",
        "value": "0x0",
        "input": "0x095ea7b3000000000000000000000000000000000022d473030f116ddee9f6b43ac78ba3ffffffffffffffffffffffffffffffffffffffffffffffffffffffffffffffff",
        "nonce": "0x23e",
        "chainId": "0x515"
      },
      "additionalContracts": [],
      "isFixedGasLimit": false
    },
    {
      "hash": "0x903c88a550a66a67b0b874091ff225eb34c7a15921f76b9c33238c56e2987d04",
      "transactionType": "CALL",
      "contractName": null,
      "contractAddress": "0x000000000022d473030f116ddee9f6b43ac78ba3",
      "function": "approve(address,address,uint160,uint48)",
      "arguments": [
        "0x4aFd548ccb8F5E9dF4c05FAA437ADd0C6E315196",
        "0xf969Aee60879C54bAAed9F3eD26147Db216Fd664",
        "1461501637330902918203684832716283019655932542975",
        "281474976710655"
      ],
      "transaction": {
        "from": "0xc4fe13e473e6ad2bb0ba8a365bf581080d92db18",
        "to": "0x000000000022d473030f116ddee9f6b43ac78ba3",
        "gas": "0x1112d",
        "value": "0x0",
        "input": "0x87517c450000000000000000000000004afd548ccb8f5e9df4c05faa437add0c6e315196000000000000000000000000f969aee60879c54baaed9f3ed26147db216fd664000000000000000000000000ffffffffffffffffffffffffffffffffffffffff0000000000000000000000000000000000000000000000000000ffffffffffff",
        "nonce": "0x23f",
        "chainId": "0x515"
      },
      "additionalContracts": [],
      "isFixedGasLimit": false
    },
    {
      "hash": "0x69ddc704916ddff004cc297d3c1962f51c69c222e8a6f245075bd46770192897",
      "transactionType": "CALL",
      "contractName": null,
      "contractAddress": "0x000000000022d473030f116ddee9f6b43ac78ba3",
      "function": "approve(address,address,uint160,uint48)",
      "arguments": [
        "0xb1144bA09b8Af62e2BdEBe5Db4cE98C58d287130",
        "0xf969Aee60879C54bAAed9F3eD26147Db216Fd664",
        "1461501637330902918203684832716283019655932542975",
        "281474976710655"
      ],
      "transaction": {
        "from": "0xc4fe13e473e6ad2bb0ba8a365bf581080d92db18",
        "to": "0x000000000022d473030f116ddee9f6b43ac78ba3",
        "gas": "0x1112d",
        "value": "0x0",
        "input": "0x87517c45000000000000000000000000b1144ba09b8af62e2bdebe5db4ce98c58d287130000000000000000000000000f969aee60879c54baaed9f3ed26147db216fd664000000000000000000000000ffffffffffffffffffffffffffffffffffffffff0000000000000000000000000000000000000000000000000000ffffffffffff",
        "nonce": "0x240",
        "chainId": "0x515"
      },
      "additionalContracts": [],
      "isFixedGasLimit": false
    },
    {
      "hash": "0x7c04e25018a5fd1de2b6242831a8d0bf7cc446fd8671233a9a56110f21746b16",
      "transactionType": "CALL",
      "contractName": null,
      "contractAddress": "0xf969aee60879c54baaed9f3ed26147db216fd664",
      "function": "modifyLiquidities(bytes,uint256)",
      "arguments": [
        "0x0000000000000000000000000000000000000000000000000000000000000040000000000000000000000000000000000000000000000000000000000000008000000000000000000000000000000000000000000000000000000000000000030212120000000000000000000000000000000000000000000000000000000000000000000000000000000000000000000000000000000000000000000000000300000000000000000000000000000000000000000000000000000000000000600000000000000000000000000000000000000000000000000000000000000220000000000000000000000000000000000000000000000000000000000000026000000000000000000000000000000000000000000000000000000000000001a00000000000000000000000004afd548ccb8f5e9df4c05faa437add0c6e315196000000000000000000000000b1144ba09b8af62e2bdebe5db4ce98c58d2871300000000000000000000000000000000000000000000000000000000000000bb8000000000000000000000000000000000000000000000000000000000000003c0000000000000000000000008db0bdb0b4bb528059d72e51e76e335ccb0843c0fffffffffffffffffffffffffffffffffffffffffffffffffffffffffff2764c00000000000000000000000000000000000000000000000000000000000d89b4000000000000000000000000000000000000000000000002b5e3af16b188000000000000000000000000000000000000ffffffffffffffffffffffffffffffff00000000000000000000000000000000ffffffffffffffffffffffffffffffff000000000000000000000000c4fe13e473e6ad2bb0ba8a365bf581080d92db180000000000000000000000000000000000000000000000000000000000000180000000000000000000000000000000000000000000000000000000000000000000000000000000000000000000000000000000000000000000000000000000200000000000000000000000004afd548ccb8f5e9df4c05faa437add0c6e3151960000000000000000000000000000000000000000000000000000000000000020000000000000000000000000b1144ba09b8af62e2bdebe5db4ce98c58d287130",
        "1759044812"
      ],
      "transaction": {
        "from": "0xc4fe13e473e6ad2bb0ba8a365bf581080d92db18",
        "to": "0xf969aee60879c54baaed9f3ed26147db216fd664",
        "gas": "0x92511",
        "value": "0x0",
        "input": "0xdd46508f00000000000000000000000000000000000000000000000000000000000000400000000000000000000000000000000000000000000000000000000068d8e4cc00000000000000000000000000000000000000000000000000000000000003400000000000000000000000000000000000000000000000000000000000000040000000000000000000000000000000000000000000000000000000000000008000000000000000000000000000000000000000000000000000000000000000030212120000000000000000000000000000000000000000000000000000000000000000000000000000000000000000000000000000000000000000000000000300000000000000000000000000000000000000000000000000000000000000600000000000000000000000000000000000000000000000000000000000000220000000000000000000000000000000000000000000000000000000000000026000000000000000000000000000000000000000000000000000000000000001a00000000000000000000000004afd548ccb8f5e9df4c05faa437add0c6e315196000000000000000000000000b1144ba09b8af62e2bdebe5db4ce98c58d2871300000000000000000000000000000000000000000000000000000000000000bb8000000000000000000000000000000000000000000000000000000000000003c0000000000000000000000008db0bdb0b4bb528059d72e51e76e335ccb0843c0fffffffffffffffffffffffffffffffffffffffffffffffffffffffffff2764c00000000000000000000000000000000000000000000000000000000000d89b4000000000000000000000000000000000000000000000002b5e3af16b188000000000000000000000000000000000000ffffffffffffffffffffffffffffffff00000000000000000000000000000000ffffffffffffffffffffffffffffffff000000000000000000000000c4fe13e473e6ad2bb0ba8a365bf581080d92db180000000000000000000000000000000000000000000000000000000000000180000000000000000000000000000000000000000000000000000000000000000000000000000000000000000000000000000000000000000000000000000000200000000000000000000000004afd548ccb8f5e9df4c05faa437add0c6e3151960000000000000000000000000000000000000000000000000000000000000020000000000000000000000000b1144ba09b8af62e2bdebe5db4ce98c58d287130",
        "nonce": "0x241",
        "chainId": "0x515"
      },
      "additionalContracts": [],
      "isFixedGasLimit": false
    }
  ],
  "receipts": [
    {
      "status": "0x1",
      "cumulativeGasUsed": "0x1c4f4",
      "logs": [
        {
          "address": "0x4afd548ccb8f5e9df4c05faa437add0c6e315196",
          "topics": [
            "0x8c5be1e5ebec7d5bd14f71427d1e84f3dd0314c0f7b2291e5b200ac8c7c3b925",
            "0x000000000000000000000000c4fe13e473e6ad2bb0ba8a365bf581080d92db18",
            "0x000000000000000000000000000000000022d473030f116ddee9f6b43ac78ba3"
          ],
          "data": "0xffffffffffffffffffffffffffffffffffffffffffffffffffffffffffffffff",
          "blockHash": "0xf7cb019582f2affaa9a8098b20ad9f0404bc46f9693b80c290a9999ba3c2d489",
          "blockNumber": "0x1eb2985",
          "blockTimestamp": "0x68d8d6d1",
          "transactionHash": "0x3abe107bf3c38508c46bec829e3037dcd7c1d0509cf9c6d8eefb4fc88c5c13e2",
          "transactionIndex": "0x2",
          "logIndex": "0x0",
          "removed": false
        }
      ],
      "logsBloom": "0x00000000000000000000000000000000000000000000000000000010000000000000000000000000000000000000000000000000800000000000000000200000000000000000000000004000000000000000000000000800000000000000000040000000000000000000000000000000000000000000000000000000000000000000000000000000000000000000000000000000000000000000000000000000020000000200000000000000000000000000000000000000000000000000000000000000000000000000000000000000000000800000000000000000000000000010000000000800000000000000000000000200000000000000000000000000",
      "type": "0x2",
      "transactionHash": "0x3abe107bf3c38508c46bec829e3037dcd7c1d0509cf9c6d8eefb4fc88c5c13e2",
      "transactionIndex": "0x2",
      "blockHash": "0xf7cb019582f2affaa9a8098b20ad9f0404bc46f9693b80c290a9999ba3c2d489",
      "blockNumber": "0x1eb2985",
      "gasUsed": "0xbb60",
      "effectiveGasPrice": "0xfe",
      "from": "0xc4fe13e473e6ad2bb0ba8a365bf581080d92db18",
      "to": "0x4afd548ccb8f5e9df4c05faa437add0c6e315196",
      "contractAddress": null,
      "l1BaseFeeScalar": "0x7d0",
      "l1BlobBaseFee": "0x1",
      "l1BlobBaseFeeScalar": "0xdbba0",
      "l1Fee": "0x73",
      "l1GasPrice": "0x8",
      "l1GasUsed": "0x640"
    },
    {
      "status": "0x1",
      "cumulativeGasUsed": "0x3dec2",
      "logs": [
        {
          "address": "0xb1144ba09b8af62e2bdebe5db4ce98c58d287130",
          "topics": [
            "0x8c5be1e5ebec7d5bd14f71427d1e84f3dd0314c0f7b2291e5b200ac8c7c3b925",
            "0x000000000000000000000000c4fe13e473e6ad2bb0ba8a365bf581080d92db18",
            "0x000000000000000000000000000000000022d473030f116ddee9f6b43ac78ba3"
          ],
          "data": "0xffffffffffffffffffffffffffffffffffffffffffffffffffffffffffffffff",
          "blockHash": "0x785581a0f236fc3c7795913abc95b3ae8df322421171d862873b9fd67efece65",
          "blockNumber": "0x1eb2986",
          "blockTimestamp": "0x68d8d6d2",
          "transactionHash": "0x536128a0c9b5d5441e5d71230662c038f4e030e912f81eae01785f1a2b3de604",
          "transactionIndex": "0x3",
          "logIndex": "0x2",
          "removed": false
        }
      ],
      "logsBloom": "0x00000000000000000000000000000000000000000000000000000010000000000000000000000000000000000000000000000000800000000040000000200000000000000000000000004000000000000000000000000800000000000000000040000000000000000000000000000000000000000000000000000000000000000000000000000000000000000000000000000000000000000000000000000000020000100000000000000000000000000000000000000000000000000000000000000400000000000000000000000000000000000000000000000000000000000010000000000800000000000000000000000000000000000000000000000000",
      "type": "0x2",
      "transactionHash": "0x536128a0c9b5d5441e5d71230662c038f4e030e912f81eae01785f1a2b3de604",
      "transactionIndex": "0x3",
      "blockHash": "0x785581a0f236fc3c7795913abc95b3ae8df322421171d862873b9fd67efece65",
      "blockNumber": "0x1eb2986",
      "gasUsed": "0xbb60",
      "effectiveGasPrice": "0xfe",
      "from": "0xc4fe13e473e6ad2bb0ba8a365bf581080d92db18",
      "to": "0xb1144ba09b8af62e2bdebe5db4ce98c58d287130",
      "contractAddress": null,
      "l1BaseFeeScalar": "0x7d0",
      "l1BlobBaseFee": "0x1",
      "l1BlobBaseFeeScalar": "0xdbba0",
      "l1Fee": "0x73",
      "l1GasPrice": "0x8",
      "l1GasUsed": "0x640"
    },
    {
      "status": "0x1",
      "cumulativeGasUsed": "0x4998c",
      "logs": [
        {
          "address": "0x000000000022d473030f116ddee9f6b43ac78ba3",
          "topics": [
            "0xda9fa7c1b00402c17d0161b249b1ab8bbec047c5a52207b9c112deffd817036b",
            "0x000000000000000000000000c4fe13e473e6ad2bb0ba8a365bf581080d92db18",
            "0x0000000000000000000000004afd548ccb8f5e9df4c05faa437add0c6e315196",
            "0x000000000000000000000000f969aee60879c54baaed9f3ed26147db216fd664"
          ],
          "data": "0x000000000000000000000000ffffffffffffffffffffffffffffffffffffffff0000000000000000000000000000000000000000000000000000ffffffffffff",
          "blockHash": "0x785581a0f236fc3c7795913abc95b3ae8df322421171d862873b9fd67efece65",
          "blockNumber": "0x1eb2986",
          "blockTimestamp": "0x68d8d6d2",
          "transactionHash": "0x903c88a550a66a67b0b874091ff225eb34c7a15921f76b9c33238c56e2987d04",
          "transactionIndex": "0x4",
          "logIndex": "0x3",
          "removed": false
        }
      ],
      "logsBloom": "0x00010000000000000000000000000000000000000000000000000010000000000000000000000000000000000000000000000000000000010000000000080000000000000000000000000000000000000000000000000000000000001000000040000000000000000000000000000000000000000040000000000000000000004020000000000000000000000000000000000000000000000000000000000000000000000000000000000000000000000000000000000000000000080000200000000000000000000000000000000000000000000000000040000000000000000000000000000800000000000000000000000000000000000000000000002400",
      "type": "0x2",
      "transactionHash": "0x903c88a550a66a67b0b874091ff225eb34c7a15921f76b9c33238c56e2987d04",
      "transactionIndex": "0x4",
      "blockHash": "0x785581a0f236fc3c7795913abc95b3ae8df322421171d862873b9fd67efece65",
      "blockNumber": "0x1eb2986",
      "gasUsed": "0xbaca",
      "effectiveGasPrice": "0xfe",
      "from": "0xc4fe13e473e6ad2bb0ba8a365bf581080d92db18",
      "to": "0x000000000022d473030f116ddee9f6b43ac78ba3",
      "contractAddress": null,
      "l1BaseFeeScalar": "0x7d0",
      "l1BlobBaseFee": "0x1",
      "l1BlobBaseFeeScalar": "0xdbba0",
      "l1Fee": "0x7e",
      "l1GasPrice": "0x8",
      "l1GasUsed": "0x6da"
    },
    {
      "status": "0x1",
      "cumulativeGasUsed": "0x55456",
      "logs": [
        {
          "address": "0x000000000022d473030f116ddee9f6b43ac78ba3",
          "topics": [
            "0xda9fa7c1b00402c17d0161b249b1ab8bbec047c5a52207b9c112deffd817036b",
            "0x000000000000000000000000c4fe13e473e6ad2bb0ba8a365bf581080d92db18",
            "0x000000000000000000000000b1144ba09b8af62e2bdebe5db4ce98c58d287130",
            "0x000000000000000000000000f969aee60879c54baaed9f3ed26147db216fd664"
          ],
          "data": "0x000000000000000000000000ffffffffffffffffffffffffffffffffffffffff0000000000000000000000000000000000000000000000000000ffffffffffff",
          "blockHash": "0x785581a0f236fc3c7795913abc95b3ae8df322421171d862873b9fd67efece65",
          "blockNumber": "0x1eb2986",
          "blockTimestamp": "0x68d8d6d2",
          "transactionHash": "0x69ddc704916ddff004cc297d3c1962f51c69c222e8a6f245075bd46770192897",
          "transactionIndex": "0x5",
          "logIndex": "0x4",
          "removed": false
        }
      ],
      "logsBloom": "0x00010000000000000000000000000000000000000000000000000010000000000000000000004000000000000800000000000000000000000000000000180000000000000000000000000000000000000000000000000000000000001000000040000000000000000000000000000000000000000040000000000000000000000020000000000000000000000000000000000000000000000000000000000000000000000000000000000000000000000000000000000000000000080000000000000000000000000000000000000000000000000000000040000000000000000000000000000800000000000000000000000000000000000000000000002400",
      "type": "0x2",
      "transactionHash": "0x69ddc704916ddff004cc297d3c1962f51c69c222e8a6f245075bd46770192897",
      "transactionIndex": "0x5",
      "blockHash": "0x785581a0f236fc3c7795913abc95b3ae8df322421171d862873b9fd67efece65",
      "blockNumber": "0x1eb2986",
      "gasUsed": "0xbaca",
      "effectiveGasPrice": "0xfe",
      "from": "0xc4fe13e473e6ad2bb0ba8a365bf581080d92db18",
      "to": "0x000000000022d473030f116ddee9f6b43ac78ba3",
      "contractAddress": null,
      "l1BaseFeeScalar": "0x7d0",
      "l1BlobBaseFee": "0x1",
      "l1BlobBaseFeeScalar": "0xdbba0",
      "l1Fee": "0x7e",
      "l1GasPrice": "0x8",
      "l1GasUsed": "0x6da"
    },
    {
      "status": "0x1",
      "cumulativeGasUsed": "0xbf33a",
      "logs": [
        {
          "address": "0xf969aee60879c54baaed9f3ed26147db216fd664",
          "topics": [
            "0xddf252ad1be2c89b69c2b068fc378daa952ba7f163c4a11628f55a4df523b3ef",
            "0x0000000000000000000000000000000000000000000000000000000000000000",
            "0x000000000000000000000000c4fe13e473e6ad2bb0ba8a365bf581080d92db18",
            "0x00000000000000000000000000000000000000000000000000000000000015f5"
          ],
          "data": "0x",
          "blockHash": "0x785581a0f236fc3c7795913abc95b3ae8df322421171d862873b9fd67efece65",
          "blockNumber": "0x1eb2986",
          "blockTimestamp": "0x68d8d6d2",
          "transactionHash": "0x7c04e25018a5fd1de2b6242831a8d0bf7cc446fd8671233a9a56110f21746b16",
          "transactionIndex": "0x6",
          "logIndex": "0x5",
          "removed": false
        },
        {
          "address": "0x00b036b58a818b1bc34d502d3fe730db729e62ac",
          "topics": [
            "0xf208f4912782fd25c7f114ca3723a2d5dd6f3bcc3ac8db5af63baa85f711d5ec",
            "0x712198761b30fcadb2c01dcf968a1d56cd86f4cc7efb37ca2c2d9e074245f300",
            "0x000000000000000000000000f969aee60879c54baaed9f3ed26147db216fd664"
          ],
          "data": "0xfffffffffffffffffffffffffffffffffffffffffffffffffffffffffff2764c00000000000000000000000000000000000000000000000000000000000d89b4000000000000000000000000000000000000000000000002b5e3af16b188000000000000000000000000000000000000000000000000000000000000000015f5",
          "blockHash": "0x785581a0f236fc3c7795913abc95b3ae8df322421171d862873b9fd67efece65",
          "blockNumber": "0x1eb2986",
          "blockTimestamp": "0x68d8d6d2",
          "transactionHash": "0x7c04e25018a5fd1de2b6242831a8d0bf7cc446fd8671233a9a56110f21746b16",
          "transactionIndex": "0x6",
          "logIndex": "0x6",
          "removed": false
        },
        {
          "address": "0x4afd548ccb8f5e9df4c05faa437add0c6e315196",
          "topics": [
            "0xddf252ad1be2c89b69c2b068fc378daa952ba7f163c4a11628f55a4df523b3ef",
            "0x000000000000000000000000c4fe13e473e6ad2bb0ba8a365bf581080d92db18",
            "0x00000000000000000000000000b036b58a818b1bc34d502d3fe730db729e62ac"
          ],
          "data": "0x000000000000000000000000000000000000000000000002b5e3af16b187fffe",
          "blockHash": "0x785581a0f236fc3c7795913abc95b3ae8df322421171d862873b9fd67efece65",
          "blockNumber": "0x1eb2986",
          "blockTimestamp": "0x68d8d6d2",
          "transactionHash": "0x7c04e25018a5fd1de2b6242831a8d0bf7cc446fd8671233a9a56110f21746b16",
          "transactionIndex": "0x6",
          "logIndex": "0x7",
          "removed": false
        },
        {
          "address": "0xb1144ba09b8af62e2bdebe5db4ce98c58d287130",
          "topics": [
            "0xddf252ad1be2c89b69c2b068fc378daa952ba7f163c4a11628f55a4df523b3ef",
            "0x000000000000000000000000c4fe13e473e6ad2bb0ba8a365bf581080d92db18",
            "0x00000000000000000000000000b036b58a818b1bc34d502d3fe730db729e62ac"
          ],
          "data": "0x000000000000000000000000000000000000000000000002b5e3af16b187fffe",
          "blockHash": "0x785581a0f236fc3c7795913abc95b3ae8df322421171d862873b9fd67efece65",
          "blockNumber": "0x1eb2986",
          "blockTimestamp": "0x68d8d6d2",
          "transactionHash": "0x7c04e25018a5fd1de2b6242831a8d0bf7cc446fd8671233a9a56110f21746b16",
          "transactionIndex": "0x6",
          "logIndex": "0x8",
          "removed": false
        }
      ],
      "logsBloom": "0x00000000000000000000000000000000000000000000000000000010000000000000000000000000000000000000000000000000001000100040000000000000000000000200000000000008000000000000000000000000000000001000000040000000020000000000000000004800000000100040000000000010000000080000000001000000000000000008000000000000000000000000000000000000000004100200000000000000000000000800000000000020000000000040000000000402080000000000000000000000000000800000000000000001000020004000000000000800000000000000000004000200000002000000000000002010",
      "type": "0x2",
      "transactionHash": "0x7c04e25018a5fd1de2b6242831a8d0bf7cc446fd8671233a9a56110f21746b16",
      "transactionIndex": "0x6",
      "blockHash": "0x785581a0f236fc3c7795913abc95b3ae8df322421171d862873b9fd67efece65",
      "blockNumber": "0x1eb2986",
      "gasUsed": "0x69ee4",
      "effectiveGasPrice": "0xfe",
      "from": "0xc4fe13e473e6ad2bb0ba8a365bf581080d92db18",
      "to": "0xf969aee60879c54baaed9f3ed26147db216fd664",
      "contractAddress": null,
      "l1BaseFeeScalar": "0x7d0",
      "l1BlobBaseFee": "0x1",
      "l1BlobBaseFeeScalar": "0xdbba0",
      "l1Fee": "0x138",
      "l1GasPrice": "0x8",
      "l1GasUsed": "0x10e4"
    }
  ],
  "libraries": [],
  "pending": [],
  "returns": {},
  "timestamp": 1759041236,
  "chain": 1301,
  "commit": "caffa2d"
}