{
  "transactions": [
    {
      "hash": "0x2d1b11e82435ee8acf094d1b02aeb2f0fa0d90831c988481e2ddb35958d630cc",
      "transactionType": "CALL",
      "contractName": null,
      "contractAddress": "0xb08d5e594773c55b2520a646b4eb3aa5fa08af21",
      "function": "approve(address,uint256)",
      "arguments": [
        "0x000000000022D473030F116dDEE9F6B43aC78BA3",
        "115792089237316195423570985008687907853269984665640564039457584007913129639935"
      ],
      "transaction": {
        "from": "0xc4fe13e473e6ad2bb0ba8a365bf581080d92db18",
        "to": "0xb08d5e594773c55b2520a646b4eb3aa5fa08af21",
        "gas": "0x102cf",
        "value": "0x0",
        "input": "0x095ea7b3000000000000000000000000000000000022d473030f116ddee9f6b43ac78ba3ffffffffffffffffffffffffffffffffffffffffffffffffffffffffffffffff",
        "nonce": "0x8f",
        "chainId": "0x515"
      },
      "additionalContracts": [],
      "isFixedGasLimit": false
    },
    {
      "hash": "0x06efb092bda2ff694ad0eab57f94e4abf7b8e7ae538f8026ce5187d874b20adc",
      "transactionType": "CALL",
      "contractName": null,
      "contractAddress": "0xe3a426896ca307c3fa4a818f2889f44582460954",
      "function": "approve(address,uint256)",
      "arguments": [
        "0x000000000022D473030F116dDEE9F6B43aC78BA3",
        "115792089237316195423570985008687907853269984665640564039457584007913129639935"
      ],
      "transaction": {
        "from": "0xc4fe13e473e6ad2bb0ba8a365bf581080d92db18",
        "to": "0xe3a426896ca307c3fa4a818f2889f44582460954",
        "gas": "0x102cf",
        "value": "0x0",
        "input": "0x095ea7b3000000000000000000000000000000000022d473030f116ddee9f6b43ac78ba3ffffffffffffffffffffffffffffffffffffffffffffffffffffffffffffffff",
        "nonce": "0x90",
        "chainId": "0x515"
      },
      "additionalContracts": [],
      "isFixedGasLimit": false
    },
    {
      "hash": "0xb834303e5b6daed4968f7ea7b69237b6485fa92b6830ce819283ebba6c8d74af",
      "transactionType": "CALL",
      "contractName": null,
      "contractAddress": "0x000000000022d473030f116ddee9f6b43ac78ba3",
      "function": "approve(address,address,uint160,uint48)",
      "arguments": [
        "0xB08D5e594773C55b2520a646b4EB3AA5fA08aF21",
        "0xf969Aee60879C54bAAed9F3eD26147Db216Fd664",
        "1461501637330902918203684832716283019655932542975",
        "281474976710655"
      ],
      "transaction": {
        "from": "0xc4fe13e473e6ad2bb0ba8a365bf581080d92db18",
        "to": "0x000000000022d473030f116ddee9f6b43ac78ba3",
        "gas": "0x1112d",
        "value": "0x0",
        "input": "0x87517c45000000000000000000000000b08d5e594773c55b2520a646b4eb3aa5fa08af21000000000000000000000000f969aee60879c54baaed9f3ed26147db216fd664000000000000000000000000ffffffffffffffffffffffffffffffffffffffff0000000000000000000000000000000000000000000000000000ffffffffffff",
        "nonce": "0x91",
        "chainId": "0x515"
      },
      "additionalContracts": [],
      "isFixedGasLimit": false
    },
    {
      "hash": "0xbb3e855ef0bf70edd5816d2bcdb22e0c9e6f1892824421803fc65d5bd526c6cc",
      "transactionType": "CALL",
      "contractName": null,
      "contractAddress": "0x000000000022d473030f116ddee9f6b43ac78ba3",
      "function": "approve(address,address,uint160,uint48)",
      "arguments": [
        "0xe3A426896Ca307c3fa4A818f2889F44582460954",
        "0xf969Aee60879C54bAAed9F3eD26147Db216Fd664",
        "1461501637330902918203684832716283019655932542975",
        "281474976710655"
      ],
      "transaction": {
        "from": "0xc4fe13e473e6ad2bb0ba8a365bf581080d92db18",
        "to": "0x000000000022d473030f116ddee9f6b43ac78ba3",
        "gas": "0x1112d",
        "value": "0x0",
        "input": "0x87517c45000000000000000000000000e3a426896ca307c3fa4a818f2889f44582460954000000000000000000000000f969aee60879c54baaed9f3ed26147db216fd664000000000000000000000000ffffffffffffffffffffffffffffffffffffffff0000000000000000000000000000000000000000000000000000ffffffffffff",
        "nonce": "0x92",
        "chainId": "0x515"
      },
      "additionalContracts": [],
      "isFixedGasLimit": false
    },
    {
      "hash": "0xcebbce39b724f703b28124f3e4644982dd235ce7a210e8297bd46ab2618b9a7a",
      "transactionType": "CALL",
      "contractName": null,
      "contractAddress": "0xf969aee60879c54baaed9f3ed26147db216fd664",
      "function": "modifyLiquidities(bytes,uint256)",
      "arguments": [
        "0x0000000000000000000000000000000000000000000000000000000000000040000000000000000000000000000000000000000000000000000000000000008000000000000000000000000000000000000000000000000000000000000000030212120000000000000000000000000000000000000000000000000000000000000000000000000000000000000000000000000000000000000000000000000300000000000000000000000000000000000000000000000000000000000000600000000000000000000000000000000000000000000000000000000000000220000000000000000000000000000000000000000000000000000000000000026000000000000000000000000000000000000000000000000000000000000001a0000000000000000000000000b08d5e594773c55b2520a646b4eb3aa5fa08af21000000000000000000000000e3a426896ca307c3fa4a818f2889f445824609540000000000000000000000000000000000000000000000000000000000000bb8000000000000000000000000000000000000000000000000000000000000003c0000000000000000000000003143d8279c90ddfae5a034874c5d232af88b03c0fffffffffffffffffffffffffffffffffffffffffffffffffffffffffff2764c00000000000000000000000000000000000000000000000000000000000d89b4000000000000000000000000000000000000000000000002b5e3af16b188000000000000000000000000000000000000ffffffffffffffffffffffffffffffff00000000000000000000000000000000ffffffffffffffffffffffffffffffff000000000000000000000000c4fe13e473e6ad2bb0ba8a365bf581080d92db18000000000000000000000000000000000000000000000000000000000000018000000000000000000000000000000000000000000000000000000000000000000000000000000000000000000000000000000000000000000000000000000020000000000000000000000000b08d5e594773c55b2520a646b4eb3aa5fa08af210000000000000000000000000000000000000000000000000000000000000020000000000000000000000000e3a426896ca307c3fa4a818f2889f44582460954",
        "1759000383"
      ],
      "transaction": {
        "from": "0xc4fe13e473e6ad2bb0ba8a365bf581080d92db18",
        "to": "0xf969aee60879c54baaed9f3ed26147db216fd664",
        "gas": "0x98154",
        "value": "0x0",
        "input": "0xdd46508f00000000000000000000000000000000000000000000000000000000000000400000000000000000000000000000000000000000000000000000000068d8373f00000000000000000000000000000000000000000000000000000000000003400000000000000000000000000000000000000000000000000000000000000040000000000000000000000000000000000000000000000000000000000000008000000000000000000000000000000000000000000000000000000000000000030212120000000000000000000000000000000000000000000000000000000000000000000000000000000000000000000000000000000000000000000000000300000000000000000000000000000000000000000000000000000000000000600000000000000000000000000000000000000000000000000000000000000220000000000000000000000000000000000000000000000000000000000000026000000000000000000000000000000000000000000000000000000000000001a0000000000000000000000000b08d5e594773c55b2520a646b4eb3aa5fa08af21000000000000000000000000e3a426896ca307c3fa4a818f2889f445824609540000000000000000000000000000000000000000000000000000000000000bb8000000000000000000000000000000000000000000000000000000000000003c0000000000000000000000003143d8279c90ddfae5a034874c5d232af88b03c0fffffffffffffffffffffffffffffffffffffffffffffffffffffffffff2764c00000000000000000000000000000000000000000000000000000000000d89b4000000000000000000000000000000000000000000000002b5e3af16b188000000000000000000000000000000000000ffffffffffffffffffffffffffffffff00000000000000000000000000000000ffffffffffffffffffffffffffffffff000000000000000000000000c4fe13e473e6ad2bb0ba8a365bf581080d92db18000000000000000000000000000000000000000000000000000000000000018000000000000000000000000000000000000000000000000000000000000000000000000000000000000000000000000000000000000000000000000000000020000000000000000000000000b08d5e594773c55b2520a646b4eb3aa5fa08af210000000000000000000000000000000000000000000000000000000000000020000000000000000000000000e3a426896ca307c3fa4a818f2889f44582460954",
        "nonce": "0x93",
        "chainId": "0x515"
      },
      "additionalContracts": [],
      "isFixedGasLimit": false
    }
  ],
  "receipts": [
    {
      "status": "0x1",
      "cumulativeGasUsed": "0x1c4f4",
      "logs": [
        {
          "address": "0xb08d5e594773c55b2520a646b4eb3aa5fa08af21",
          "topics": [
            "0x8c5be1e5ebec7d5bd14f71427d1e84f3dd0314c0f7b2291e5b200ac8c7c3b925",
            "0x000000000000000000000000c4fe13e473e6ad2bb0ba8a365bf581080d92db18",
            "0x000000000000000000000000000000000022d473030f116ddee9f6b43ac78ba3"
          ],
          "data": "0xffffffffffffffffffffffffffffffffffffffffffffffffffffffffffffffff",
          "blockHash": "0x49eba561d3cbf3c10de5dddea92465d4f97fc5964eb37b460485f4f0cfd70c84",
          "blockNumber": "0x1ea7bfa",
          "blockTimestamp": "0x68d82946",
          "transactionHash": "0x2d1b11e82435ee8acf094d1b02aeb2f0fa0d90831c988481e2ddb35958d630cc",
          "transactionIndex": "0x2",
          "logIndex": "0x0",
          "removed": false
        }
      ],
      "logsBloom": "0x00000000000000000000000000000000000000000000000000000010000000000000000000000000000000000000000000000000800000000000000000200000000000000000000000204000000000000000000000000800000000000000000040000000000000000000000000000000000000000000000000000000000000000000000000008000000000000000000000000000000000000000000000000000020000000000000000000000000000000000000000000000000000000000000040000000000000000000000000000000000000000000000000000000000000000010000000000800000000000000000000000000000000000000000000000000",
      "type": "0x2",
      "transactionHash": "0x2d1b11e82435ee8acf094d1b02aeb2f0fa0d90831c988481e2ddb35958d630cc",
      "transactionIndex": "0x2",
      "blockHash": "0x49eba561d3cbf3c10de5dddea92465d4f97fc5964eb37b460485f4f0cfd70c84",
      "blockNumber": "0x1ea7bfa",
      "gasUsed": "0xbb60",
      "effectiveGasPrice": "0xfe",
      "from": "0xc4fe13e473e6ad2bb0ba8a365bf581080d92db18",
      "to": "0xb08d5e594773c55b2520a646b4eb3aa5fa08af21",
      "contractAddress": null,
      "l1BaseFeeScalar": "0x7d0",
      "l1BlobBaseFee": "0x1",
      "l1BlobBaseFeeScalar": "0xdbba0",
      "l1Fee": "0x76",
      "l1GasPrice": "0x9",
      "l1GasUsed": "0x640"
    },
    {
      "status": "0x1",
      "cumulativeGasUsed": "0x28054",
      "logs": [
        {
          "address": "0xe3a426896ca307c3fa4a818f2889f44582460954",
          "topics": [
            "0x8c5be1e5ebec7d5bd14f71427d1e84f3dd0314c0f7b2291e5b200ac8c7c3b925",
            "0x000000000000000000000000c4fe13e473e6ad2bb0ba8a365bf581080d92db18",
            "0x000000000000000000000000000000000022d473030f116ddee9f6b43ac78ba3"
          ],
          "data": "0xffffffffffffffffffffffffffffffffffffffffffffffffffffffffffffffff",
          "blockHash": "0x49eba561d3cbf3c10de5dddea92465d4f97fc5964eb37b460485f4f0cfd70c84",
          "blockNumber": "0x1ea7bfa",
          "blockTimestamp": "0x68d82946",
          "transactionHash": "0x06efb092bda2ff694ad0eab57f94e4abf7b8e7ae538f8026ce5187d874b20adc",
          "transactionIndex": "0x3",
          "logIndex": "0x1",
          "removed": false
        }
      ],
      "logsBloom": "0x00000000000000000000000000000000000000000000000000000010000000000000000000000000000000000000000000000000800000000000000000200000000000000000000000014000000000000000000000000800000000000000000040000000000000000000000000000000000000000000000000000100000000000000000000000000000000000000000000000000000000000000000000000000020000000000040000000000000000000000000000000000000000000000000000000000000000000000000000000000000000000000000000000000000000000010000000000800000000000000000000000000000000000000000000000000",
      "type": "0x2",
      "transactionHash": "0x06efb092bda2ff694ad0eab57f94e4abf7b8e7ae538f8026ce5187d874b20adc",
      "transactionIndex": "0x3",
      "blockHash": "0x49eba561d3cbf3c10de5dddea92465d4f97fc5964eb37b460485f4f0cfd70c84",
      "blockNumber": "0x1ea7bfa",
      "gasUsed": "0xbb60",
      "effectiveGasPrice": "0xfe",
      "from": "0xc4fe13e473e6ad2bb0ba8a365bf581080d92db18",
      "to": "0xe3a426896ca307c3fa4a818f2889f44582460954",
      "contractAddress": null,
      "l1BaseFeeScalar": "0x7d0",
      "l1BlobBaseFee": "0x1",
      "l1BlobBaseFeeScalar": "0xdbba0",
      "l1Fee": "0x76",
      "l1GasPrice": "0x9",
      "l1GasUsed": "0x640"
    },
    {
      "status": "0x1",
      "cumulativeGasUsed": "0x33b1e",
      "logs": [
        {
          "address": "0x000000000022d473030f116ddee9f6b43ac78ba3",
          "topics": [
            "0xda9fa7c1b00402c17d0161b249b1ab8bbec047c5a52207b9c112deffd817036b",
            "0x000000000000000000000000c4fe13e473e6ad2bb0ba8a365bf581080d92db18",
            "0x000000000000000000000000b08d5e594773c55b2520a646b4eb3aa5fa08af21",
            "0x000000000000000000000000f969aee60879c54baaed9f3ed26147db216fd664"
          ],
          "data": "0x000000000000000000000000ffffffffffffffffffffffffffffffffffffffff0000000000000000000000000000000000000000000000000000ffffffffffff",
          "blockHash": "0x49eba561d3cbf3c10de5dddea92465d4f97fc5964eb37b460485f4f0cfd70c84",
          "blockNumber": "0x1ea7bfa",
          "blockTimestamp": "0x68d82946",
          "transactionHash": "0xb834303e5b6daed4968f7ea7b69237b6485fa92b6830ce819283ebba6c8d74af",
          "transactionIndex": "0x4",
          "logIndex": "0x2",
          "removed": false
        }
      ],
      "logsBloom": "0x00010000000000000000000000000000000000000000000000000010000000000000000000000000000000000000000000000000000000000000000010080000000000000000000000000000000000000000000000000000000000001000000040000000000000000000000000000000000000000040000000000000000000000020000000000000000000000000000000000000000000000000000000000000000000000000000000000000000000020000000000000040000000080000000000000000000000000000000000000000000000000000000040000000000000000000000000000800000000000000000000000000000000000000000000002400",
      "type": "0x2",
      "transactionHash": "0xb834303e5b6daed4968f7ea7b69237b6485fa92b6830ce819283ebba6c8d74af",
      "transactionIndex": "0x4",
      "blockHash": "0x49eba561d3cbf3c10de5dddea92465d4f97fc5964eb37b460485f4f0cfd70c84",
      "blockNumber": "0x1ea7bfa",
      "gasUsed": "0xbaca",
      "effectiveGasPrice": "0xfe",
      "from": "0xc4fe13e473e6ad2bb0ba8a365bf581080d92db18",
      "to": "0x000000000022d473030f116ddee9f6b43ac78ba3",
      "contractAddress": null,
      "l1BaseFeeScalar": "0x7d0",
      "l1BlobBaseFee": "0x1",
      "l1BlobBaseFeeScalar": "0xdbba0",
      "l1Fee": "0x81",
      "l1GasPrice": "0x9",
      "l1GasUsed": "0x6cd"
    },
    {
      "status": "0x1",
      "cumulativeGasUsed": "0x3f5e8",
      "logs": [
        {
          "address": "0x000000000022d473030f116ddee9f6b43ac78ba3",
          "topics": [
            "0xda9fa7c1b00402c17d0161b249b1ab8bbec047c5a52207b9c112deffd817036b",
            "0x000000000000000000000000c4fe13e473e6ad2bb0ba8a365bf581080d92db18",
            "0x000000000000000000000000e3a426896ca307c3fa4a818f2889f44582460954",
            "0x000000000000000000000000f969aee60879c54baaed9f3ed26147db216fd664"
          ],
          "data": "0x000000000000000000000000ffffffffffffffffffffffffffffffffffffffff0000000000000000000000000000000000000000000000000000ffffffffffff",
          "blockHash": "0x49eba561d3cbf3c10de5dddea92465d4f97fc5964eb37b460485f4f0cfd70c84",
          "blockNumber": "0x1ea7bfa",
          "blockTimestamp": "0x68d82946",
          "transactionHash": "0xbb3e855ef0bf70edd5816d2bcdb22e0c9e6f1892824421803fc65d5bd526c6cc",
          "transactionIndex": "0x5",
          "logIndex": "0x3",
          "removed": false
        }
      ],
      "logsBloom": "0x00010000000000000000000000000000000000000000000000000010000800000000000000000000000000000000000000000000000000000000000000080000000000000000000000000000000000000000000000000000000000001000000040000000000000000000000000000000000000000040000000000000000000000020000000000000000000000000000000000000000000000000000000000000000000000000000000000000000000000000000000000000000000080000000000000000000000000000000000000000000000000000210040000000000000000000000000000800000000000000000000000000000000000000000000002400",
      "type": "0x2",
      "transactionHash": "0xbb3e855ef0bf70edd5816d2bcdb22e0c9e6f1892824421803fc65d5bd526c6cc",
      "transactionIndex": "0x5",
      "blockHash": "0x49eba561d3cbf3c10de5dddea92465d4f97fc5964eb37b460485f4f0cfd70c84",
      "blockNumber": "0x1ea7bfa",
      "gasUsed": "0xbaca",
      "effectiveGasPrice": "0xfe",
      "from": "0xc4fe13e473e6ad2bb0ba8a365bf581080d92db18",
      "to": "0x000000000022d473030f116ddee9f6b43ac78ba3",
      "contractAddress": null,
      "l1BaseFeeScalar": "0x7d0",
      "l1BlobBaseFee": "0x1",
      "l1BlobBaseFeeScalar": "0xdbba0",
      "l1Fee": "0x81",
      "l1GasPrice": "0x9",
      "l1GasUsed": "0x6cd"
    },
    {
      "status": "0x1",
      "cumulativeGasUsed": "0xad798",
      "logs": [
        {
          "address": "0xf969aee60879c54baaed9f3ed26147db216fd664",
          "topics": [
            "0xddf252ad1be2c89b69c2b068fc378daa952ba7f163c4a11628f55a4df523b3ef",
            "0x0000000000000000000000000000000000000000000000000000000000000000",
            "0x000000000000000000000000c4fe13e473e6ad2bb0ba8a365bf581080d92db18",
            "0x00000000000000000000000000000000000000000000000000000000000015de"
          ],
          "data": "0x",
          "blockHash": "0x49eba561d3cbf3c10de5dddea92465d4f97fc5964eb37b460485f4f0cfd70c84",
          "blockNumber": "0x1ea7bfa",
          "blockTimestamp": "0x68d82946",
          "transactionHash": "0xcebbce39b724f703b28124f3e4644982dd235ce7a210e8297bd46ab2618b9a7a",
          "transactionIndex": "0x6",
          "logIndex": "0x4",
          "removed": false
        },
        {
          "address": "0x00b036b58a818b1bc34d502d3fe730db729e62ac",
          "topics": [
            "0xf208f4912782fd25c7f114ca3723a2d5dd6f3bcc3ac8db5af63baa85f711d5ec",
            "0x1a6fc791704220ecb5405e5ab974132552b16309cb7afd01eeac5284034499ab",
            "0x000000000000000000000000f969aee60879c54baaed9f3ed26147db216fd664"
          ],
          "data": "0xfffffffffffffffffffffffffffffffffffffffffffffffffffffffffff2764c00000000000000000000000000000000000000000000000000000000000d89b4000000000000000000000000000000000000000000000002b5e3af16b188000000000000000000000000000000000000000000000000000000000000000015de",
          "blockHash": "0x49eba561d3cbf3c10de5dddea92465d4f97fc5964eb37b460485f4f0cfd70c84",
          "blockNumber": "0x1ea7bfa",
          "blockTimestamp": "0x68d82946",
          "transactionHash": "0xcebbce39b724f703b28124f3e4644982dd235ce7a210e8297bd46ab2618b9a7a",
          "transactionIndex": "0x6",
          "logIndex": "0x5",
          "removed": false
        },
        {
          "address": "0xb08d5e594773c55b2520a646b4eb3aa5fa08af21",
          "topics": [
            "0xddf252ad1be2c89b69c2b068fc378daa952ba7f163c4a11628f55a4df523b3ef",
            "0x000000000000000000000000c4fe13e473e6ad2bb0ba8a365bf581080d92db18",
            "0x00000000000000000000000000b036b58a818b1bc34d502d3fe730db729e62ac"
          ],
          "data": "0x000000000000000000000000000000000000000000000002b5e3af16b187fffe",
          "blockHash": "0x49eba561d3cbf3c10de5dddea92465d4f97fc5964eb37b460485f4f0cfd70c84",
          "blockNumber": "0x1ea7bfa",
          "blockTimestamp": "0x68d82946",
          "transactionHash": "0xcebbce39b724f703b28124f3e4644982dd235ce7a210e8297bd46ab2618b9a7a",
          "transactionIndex": "0x6",
          "logIndex": "0x6",
          "removed": false
        },
        {
          "address": "0xe3a426896ca307c3fa4a818f2889f44582460954",
          "topics": [
            "0xddf252ad1be2c89b69c2b068fc378daa952ba7f163c4a11628f55a4df523b3ef",
            "0x000000000000000000000000c4fe13e473e6ad2bb0ba8a365bf581080d92db18",
            "0x00000000000000000000000000b036b58a818b1bc34d502d3fe730db729e62ac"
          ],
          "data": "0x000000000000000000000000000000000000000000000002b5e3af16b187fffe",
          "blockHash": "0x49eba561d3cbf3c10de5dddea92465d4f97fc5964eb37b460485f4f0cfd70c84",
          "blockNumber": "0x1ea7bfa",
          "blockTimestamp": "0x68d82946",
          "transactionHash": "0xcebbce39b724f703b28124f3e4644982dd235ce7a210e8297bd46ab2618b9a7a",
          "transactionIndex": "0x6",
          "logIndex": "0x7",
          "removed": false
        }
      ],
      "logsBloom": "0x00000000000000000000000000000000000000000000200000000010000000000000008000000000000000000000000000000000001000000000000000000000000000000000000000210008000000000000020000000000000000001000000040000000020000000000000000004800000000000040000000000910000000000000000001008000000000000008000001000000000000000000000000000000000004000000040000000000000000000800000000000020000000000000000040000002080000000001000000000000000000000000000000000000000020004000000000000800000000000000000004000000000002000000000000002010",
      "type": "0x2",
      "transactionHash": "0xcebbce39b724f703b28124f3e4644982dd235ce7a210e8297bd46ab2618b9a7a",
      "transactionIndex": "0x6",
      "blockHash": "0x49eba561d3cbf3c10de5dddea92465d4f97fc5964eb37b460485f4f0cfd70c84",
      "blockNumber": "0x1ea7bfa",
      "gasUsed": "0x6e1b0",
      "effectiveGasPrice": "0xfe",
      "from": "0xc4fe13e473e6ad2bb0ba8a365bf581080d92db18",
      "to": "0xf969aee60879c54baaed9f3ed26147db216fd664",
      "contractAddress": null,
      "l1BaseFeeScalar": "0x7d0",
      "l1BlobBaseFee": "0x1",
      "l1BlobBaseFeeScalar": "0xdbba0",
      "l1Fee": "0x140",
      "l1GasPrice": "0x9",
      "l1GasUsed": "0x10d6"
    }
  ],
  "libraries": [],
  "pending": [],
  "returns": {},
  "timestamp": 1758996806,
  "chain": 1301,
  "commit": "7605bd8"
}