{
  "transactions": [
    {
      "hash": "0x0d1d44c12b309171c30d8607870d706378b16a3b95b1f4861fa39e99cedae610",
      "transactionType": "CALL",
      "contractName": null,
      "contractAddress": "0x663551545ed415e85645c49630bc81e10d3b9a54",
      "function": "approve(address,uint256)",
      "arguments": [
        "0x000000000022D473030F116dDEE9F6B43aC78BA3",
        "115792089237316195423570985008687907853269984665640564039457584007913129639935"
      ],
      "transaction": {
        "from": "0xc4fe13e473e6ad2bb0ba8a365bf581080d92db18",
        "to": "0x663551545ed415e85645c49630bc81e10d3b9a54",
        "gas": "0x9770",
        "value": "0x0",
        "input": "0x095ea7b3000000000000000000000000000000000022d473030f116ddee9f6b43ac78ba3ffffffffffffffffffffffffffffffffffffffffffffffffffffffffffffffff",
        "nonce": "0x101",
        "chainId": "0x515"
      },
      "additionalContracts": [],
      "isFixedGasLimit": false
    },
    {
      "hash": "0xe28be9f380e473a45c07b9e0f2f7f75e239b18f4ab95b803da03c9be7509bb0a",
      "transactionType": "CALL",
      "contractName": null,
      "contractAddress": "0x96bea0e29d5a261464e8e7260c1f833aae39dbaf",
      "function": "approve(address,uint256)",
      "arguments": [
        "0x000000000022D473030F116dDEE9F6B43aC78BA3",
        "115792089237316195423570985008687907853269984665640564039457584007913129639935"
      ],
      "transaction": {
        "from": "0xc4fe13e473e6ad2bb0ba8a365bf581080d92db18",
        "to": "0x96bea0e29d5a261464e8e7260c1f833aae39dbaf",
        "gas": "0x9770",
        "value": "0x0",
        "input": "0x095ea7b3000000000000000000000000000000000022d473030f116ddee9f6b43ac78ba3ffffffffffffffffffffffffffffffffffffffffffffffffffffffffffffffff",
        "nonce": "0x102",
        "chainId": "0x515"
      },
      "additionalContracts": [],
      "isFixedGasLimit": false
    },
    {
      "hash": "0xb4880b645992f233fadcadc02e138b1c3f536116ba2fdd130666002af363d0d5",
      "transactionType": "CALL",
      "contractName": null,
      "contractAddress": "0x000000000022d473030f116ddee9f6b43ac78ba3",
      "function": "approve(address,address,uint160,uint48)",
      "arguments": [
        "0x663551545Ed415e85645C49630bC81E10D3B9a54",
        "0xf969Aee60879C54bAAed9F3eD26147Db216Fd664",
        "1461501637330902918203684832716283019655932542975",
        "281474976710655"
      ],
      "transaction": {
        "from": "0xc4fe13e473e6ad2bb0ba8a365bf581080d92db18",
        "to": "0x000000000022d473030f116ddee9f6b43ac78ba3",
        "gas": "0x96a0",
        "value": "0x0",
        "input": "0x87517c45000000000000000000000000663551545ed415e85645c49630bc81e10d3b9a54000000000000000000000000f969aee60879c54baaed9f3ed26147db216fd664000000000000000000000000ffffffffffffffffffffffffffffffffffffffff0000000000000000000000000000000000000000000000000000ffffffffffff",
        "nonce": "0x103",
        "chainId": "0x515"
      },
      "additionalContracts": [],
      "isFixedGasLimit": false
    },
    {
      "hash": "0x868b524bb8b0abcbc42d799489ab3c8084ca378b6332e3353244ff3500498563",
      "transactionType": "CALL",
      "contractName": null,
      "contractAddress": "0x000000000022d473030f116ddee9f6b43ac78ba3",
      "function": "approve(address,address,uint160,uint48)",
      "arguments": [
        "0x96beA0E29D5a261464E8e7260c1F833aAe39dbaF",
        "0xf969Aee60879C54bAAed9F3eD26147Db216Fd664",
        "1461501637330902918203684832716283019655932542975",
        "281474976710655"
      ],
      "transaction": {
        "from": "0xc4fe13e473e6ad2bb0ba8a365bf581080d92db18",
        "to": "0x000000000022d473030f116ddee9f6b43ac78ba3",
        "gas": "0x96a0",
        "value": "0x0",
        "input": "0x87517c4500000000000000000000000096bea0e29d5a261464e8e7260c1f833aae39dbaf000000000000000000000000f969aee60879c54baaed9f3ed26147db216fd664000000000000000000000000ffffffffffffffffffffffffffffffffffffffff0000000000000000000000000000000000000000000000000000ffffffffffff",
        "nonce": "0x104",
        "chainId": "0x515"
      },
      "additionalContracts": [],
      "isFixedGasLimit": false
    },
    {
      "hash": "0xe1f8dcd484c34f6e926a50830318f5c66e7d7f04bf6ad66807847c000424fc93",
      "transactionType": "CALL",
      "contractName": null,
      "contractAddress": "0xf969aee60879c54baaed9f3ed26147db216fd664",
      "function": "modifyLiquidities(bytes,uint256)",
      "arguments": [
        "0x0000000000000000000000000000000000000000000000000000000000000040000000000000000000000000000000000000000000000000000000000000008000000000000000000000000000000000000000000000000000000000000000030212120000000000000000000000000000000000000000000000000000000000000000000000000000000000000000000000000000000000000000000000000300000000000000000000000000000000000000000000000000000000000000600000000000000000000000000000000000000000000000000000000000000220000000000000000000000000000000000000000000000000000000000000026000000000000000000000000000000000000000000000000000000000000001a0000000000000000000000000663551545ed415e85645c49630bc81e10d3b9a5400000000000000000000000096bea0e29d5a261464e8e7260c1f833aae39dbaf0000000000000000000000000000000000000000000000000000000000000bb8000000000000000000000000000000000000000000000000000000000000003c00000000000000000000000076a7436a1b3425b9065252f2212b738d0a0943c0fffffffffffffffffffffffffffffffffffffffffffffffffffffffffff2764c00000000000000000000000000000000000000000000000000000000000d89b4000000000000000000000000000000000000000000000002b5e3af16b188000000000000000000000000000000000000ffffffffffffffffffffffffffffffff00000000000000000000000000000000ffffffffffffffffffffffffffffffff000000000000000000000000c4fe13e473e6ad2bb0ba8a365bf581080d92db18000000000000000000000000000000000000000000000000000000000000018000000000000000000000000000000000000000000000000000000000000000000000000000000000000000000000000000000000000000000000000000000020000000000000000000000000663551545ed415e85645c49630bc81e10d3b9a54000000000000000000000000000000000000000000000000000000000000002000000000000000000000000096bea0e29d5a261464e8e7260c1f833aae39dbaf",
        "1759019715"
      ],
      "transaction": {
        "from": "0xc4fe13e473e6ad2bb0ba8a365bf581080d92db18",
        "to": "0xf969aee60879c54baaed9f3ed26147db216fd664",
        "gas": "0x86c89",
        "value": "0x0",
        "input": "0xdd46508f00000000000000000000000000000000000000000000000000000000000000400000000000000000000000000000000000000000000000000000000068d882c300000000000000000000000000000000000000000000000000000000000003400000000000000000000000000000000000000000000000000000000000000040000000000000000000000000000000000000000000000000000000000000008000000000000000000000000000000000000000000000000000000000000000030212120000000000000000000000000000000000000000000000000000000000000000000000000000000000000000000000000000000000000000000000000300000000000000000000000000000000000000000000000000000000000000600000000000000000000000000000000000000000000000000000000000000220000000000000000000000000000000000000000000000000000000000000026000000000000000000000000000000000000000000000000000000000000001a0000000000000000000000000663551545ed415e85645c49630bc81e10d3b9a5400000000000000000000000096bea0e29d5a261464e8e7260c1f833aae39dbaf0000000000000000000000000000000000000000000000000000000000000bb8000000000000000000000000000000000000000000000000000000000000003c00000000000000000000000076a7436a1b3425b9065252f2212b738d0a0943c0fffffffffffffffffffffffffffffffffffffffffffffffffffffffffff2764c00000000000000000000000000000000000000000000000000000000000d89b4000000000000000000000000000000000000000000000002b5e3af16b188000000000000000000000000000000000000ffffffffffffffffffffffffffffffff00000000000000000000000000000000ffffffffffffffffffffffffffffffff000000000000000000000000c4fe13e473e6ad2bb0ba8a365bf581080d92db18000000000000000000000000000000000000000000000000000000000000018000000000000000000000000000000000000000000000000000000000000000000000000000000000000000000000000000000000000000000000000000000020000000000000000000000000663551545ed415e85645c49630bc81e10d3b9a54000000000000000000000000000000000000000000000000000000000000002000000000000000000000000096bea0e29d5a261464e8e7260c1f833aae39dbaf",
        "nonce": "0x105",
        "chainId": "0x515"
      },
      "additionalContracts": [],
      "isFixedGasLimit": false
    }
  ],
  "receipts": [
    {
      "status": "0x1",
      "cumulativeGasUsed": "0x17738",
      "logs": [
        {
          "address": "0x663551545ed415e85645c49630bc81e10d3b9a54",
          "topics": [
            "0x8c5be1e5ebec7d5bd14f71427d1e84f3dd0314c0f7b2291e5b200ac8c7c3b925",
            "0x000000000000000000000000c4fe13e473e6ad2bb0ba8a365bf581080d92db18",
            "0x000000000000000000000000000000000022d473030f116ddee9f6b43ac78ba3"
          ],
          "data": "0xffffffffffffffffffffffffffffffffffffffffffffffffffffffffffffffff",
          "blockHash": "0x99043a7cee38711eea1b5f15abab2bae9f67eea4b7d0225eb2a75ea48eca701c",
          "blockNumber": "0x1eac77d",
          "blockTimestamp": "0x68d874c9",
          "transactionHash": "0x0d1d44c12b309171c30d8607870d706378b16a3b95b1f4861fa39e99cedae610",
          "transactionIndex": "0x2",
          "logIndex": "0x0",
          "removed": false
        }
      ],
      "logsBloom": "0x00000000000000000000000000000000000000000000000000000010000000000000000000000000000000000000000000000000800000000000000000200000000000000000000000004000000000000000000000000800000000000000000040000000000000000000000000000000000000010000000000000000000000000000000000000000000000000000000000000000000000000002000000000000020000000000000000000000000000000000000000000000000000000010000000000000000000000000000000000000000000000000000000000000000000000010000000000800000000000000000000000000000000000000000000000000",
      "type": "0x2",
      "transactionHash": "0x0d1d44c12b309171c30d8607870d706378b16a3b95b1f4861fa39e99cedae610",
      "transactionIndex": "0x2",
      "blockHash": "0x99043a7cee38711eea1b5f15abab2bae9f67eea4b7d0225eb2a75ea48eca701c",
      "blockNumber": "0x1eac77d",
      "gasUsed": "0x6da4",
      "effectiveGasPrice": "0xf433d",
      "from": "0xc4fe13e473e6ad2bb0ba8a365bf581080d92db18",
      "to": "0x663551545ed415e85645c49630bc81e10d3b9a54",
      "contractAddress": null,
      "l1BaseFeeScalar": "0x7d0",
      "l1BlobBaseFee": "0x1",
      "l1BlobBaseFeeScalar": "0xdbba0",
      "l1Fee": "0x7a",
      "l1GasPrice": "0xa",
      "l1GasUsed": "0x640"
    },
    {
      "status": "0x1",
      "cumulativeGasUsed": "0x1e4dc",
      "logs": [
        {
          "address": "0x96bea0e29d5a261464e8e7260c1f833aae39dbaf",
          "topics": [
            "0x8c5be1e5ebec7d5bd14f71427d1e84f3dd0314c0f7b2291e5b200ac8c7c3b925",
            "0x000000000000000000000000c4fe13e473e6ad2bb0ba8a365bf581080d92db18",
            "0x000000000000000000000000000000000022d473030f116ddee9f6b43ac78ba3"
          ],
          "data": "0xffffffffffffffffffffffffffffffffffffffffffffffffffffffffffffffff",
          "blockHash": "0x99043a7cee38711eea1b5f15abab2bae9f67eea4b7d0225eb2a75ea48eca701c",
          "blockNumber": "0x1eac77d",
          "blockTimestamp": "0x68d874c9",
          "transactionHash": "0xe28be9f380e473a45c07b9e0f2f7f75e239b18f4ab95b803da03c9be7509bb0a",
          "transactionIndex": "0x3",
          "logIndex": "0x1",
          "removed": false
        }
      ],
      "logsBloom": "0x00000000000000000000000000000000000000000000000000000010000000000000000000000000000000000000000000000000800000000000000000200000000000000000000000004000000000000000000000000800000000000000000040000000000000000000000000000000000000000000000000000000000000000000000000000000000000000000000000000000000000000000000000000000020000000000001000008000000000000000000000000000000000000000000000000000000000000000000000000000000000000000000000000000000000000010000000000800000000000000100000000000000000000000000000000000",
      "type": "0x2",
      "transactionHash": "0xe28be9f380e473a45c07b9e0f2f7f75e239b18f4ab95b803da03c9be7509bb0a",
      "transactionIndex": "0x3",
      "blockHash": "0x99043a7cee38711eea1b5f15abab2bae9f67eea4b7d0225eb2a75ea48eca701c",
      "blockNumber": "0x1eac77d",
      "gasUsed": "0x6da4",
      "effectiveGasPrice": "0xf433d",
      "from": "0xc4fe13e473e6ad2bb0ba8a365bf581080d92db18",
      "to": "0x96bea0e29d5a261464e8e7260c1f833aae39dbaf",
      "contractAddress": null,
      "l1BaseFeeScalar": "0x7d0",
      "l1BlobBaseFee": "0x1",
      "l1BlobBaseFeeScalar": "0xdbba0",
      "l1Fee": "0x7a",
      "l1GasPrice": "0xa",
      "l1GasUsed": "0x640"
    },
    {
      "status": "0x1",
      "cumulativeGasUsed": "0x251ea",
      "logs": [
        {
          "address": "0x000000000022d473030f116ddee9f6b43ac78ba3",
          "topics": [
            "0xda9fa7c1b00402c17d0161b249b1ab8bbec047c5a52207b9c112deffd817036b",
            "0x000000000000000000000000c4fe13e473e6ad2bb0ba8a365bf581080d92db18",
            "0x000000000000000000000000663551545ed415e85645c49630bc81e10d3b9a54",
            "0x000000000000000000000000f969aee60879c54baaed9f3ed26147db216fd664"
          ],
          "data": "0x000000000000000000000000ffffffffffffffffffffffffffffffffffffffff0000000000000000000000000000000000000000000000000000ffffffffffff",
          "blockHash": "0x99043a7cee38711eea1b5f15abab2bae9f67eea4b7d0225eb2a75ea48eca701c",
          "blockNumber": "0x1eac77d",
          "blockTimestamp": "0x68d874c9",
          "transactionHash": "0xb4880b645992f233fadcadc02e138b1c3f536116ba2fdd130666002af363d0d5",
          "transactionIndex": "0x4",
          "logIndex": "0x2",
          "removed": false
        }
      ],
      "logsBloom": "0x00010000000000000000000000000000000010000000000000000010000000000000000000000000000000000000000000000000000000000000000000080000000000000000000000000000000000000000000000000000000000001000000040004000000000000000000004000000000000000040000000000000000000000020000000000000000000000000000000000000000000000000000000000000000000000000000000000000000000000000000000000000000000080000000000000000000000000000000000000000000000000000000040000000000000000000000000000800000000000000000000000000000000000000000000002400",
      "type": "0x2",
      "transactionHash": "0xb4880b645992f233fadcadc02e138b1c3f536116ba2fdd130666002af363d0d5",
      "transactionIndex": "0x4",
      "blockHash": "0x99043a7cee38711eea1b5f15abab2bae9f67eea4b7d0225eb2a75ea48eca701c",
      "blockNumber": "0x1eac77d",
      "gasUsed": "0x6d0e",
      "effectiveGasPrice": "0xf433d",
      "from": "0xc4fe13e473e6ad2bb0ba8a365bf581080d92db18",
      "to": "0x000000000022d473030f116ddee9f6b43ac78ba3",
      "contractAddress": null,
      "l1BaseFeeScalar": "0x7d0",
      "l1BlobBaseFee": "0x1",
      "l1BlobBaseFeeScalar": "0xdbba0",
      "l1Fee": "0x88",
      "l1GasPrice": "0xa",
      "l1GasUsed": "0x702"
    },
    {
      "status": "0x1",
      "cumulativeGasUsed": "0x2bef8",
      "logs": [
        {
          "address": "0x000000000022d473030f116ddee9f6b43ac78ba3",
          "topics": [
            "0xda9fa7c1b00402c17d0161b249b1ab8bbec047c5a52207b9c112deffd817036b",
            "0x000000000000000000000000c4fe13e473e6ad2bb0ba8a365bf581080d92db18",
            "0x00000000000000000000000096bea0e29d5a261464e8e7260c1f833aae39dbaf",
            "0x000000000000000000000000f969aee60879c54baaed9f3ed26147db216fd664"
          ],
          "data": "0x000000000000000000000000ffffffffffffffffffffffffffffffffffffffff0000000000000000000000000000000000000000000000000000ffffffffffff",
          "blockHash": "0x99043a7cee38711eea1b5f15abab2bae9f67eea4b7d0225eb2a75ea48eca701c",
          "blockNumber": "0x1eac77d",
          "blockTimestamp": "0x68d874c9",
          "transactionHash": "0x868b524bb8b0abcbc42d799489ab3c8084ca378b6332e3353244ff3500498563",
          "transactionIndex": "0x5",
          "logIndex": "0x3",
          "removed": false
        }
      ],
      "logsBloom": "0x00010000000000000000000000000000000000000000000000000010000000000000000000000000000000000000000000000000000000000000000000080000000000000000000000000000000000000000000000000000000000001000000040000000000000000000000000000000000000000040000000000000000000000021000000000000000000000000000000000000000000000020000000000000000000000000000000000000001000000000000000000000000000080000000000000000000000000000000000000000000000000000000040000000000000000000000000000800000000000000000000000000000000000000000000002400",
      "type": "0x2",
      "transactionHash": "0x868b524bb8b0abcbc42d799489ab3c8084ca378b6332e3353244ff3500498563",
      "transactionIndex": "0x5",
      "blockHash": "0x99043a7cee38711eea1b5f15abab2bae9f67eea4b7d0225eb2a75ea48eca701c",
      "blockNumber": "0x1eac77d",
      "gasUsed": "0x6d0e",
      "effectiveGasPrice": "0xf433d",
      "from": "0xc4fe13e473e6ad2bb0ba8a365bf581080d92db18",
      "to": "0x000000000022d473030f116ddee9f6b43ac78ba3",
      "contractAddress": null,
      "l1BaseFeeScalar": "0x7d0",
      "l1BlobBaseFee": "0x1",
      "l1BlobBaseFeeScalar": "0xdbba0",
      "l1Fee": "0x88",
      "l1GasPrice": "0xa",
      "l1GasUsed": "0x702"
    },
    {
      "status": "0x1",
      "cumulativeGasUsed": "0x8d844",
      "logs": [
        {
          "address": "0xf969aee60879c54baaed9f3ed26147db216fd664",
          "topics": [
            "0xddf252ad1be2c89b69c2b068fc378daa952ba7f163c4a11628f55a4df523b3ef",
            "0x0000000000000000000000000000000000000000000000000000000000000000",
            "0x000000000000000000000000c4fe13e473e6ad2bb0ba8a365bf581080d92db18",
            "0x00000000000000000000000000000000000000000000000000000000000015e3"
          ],
          "data": "0x",
          "blockHash": "0x99043a7cee38711eea1b5f15abab2bae9f67eea4b7d0225eb2a75ea48eca701c",
          "blockNumber": "0x1eac77d",
          "blockTimestamp": "0x68d874c9",
          "transactionHash": "0xe1f8dcd484c34f6e926a50830318f5c66e7d7f04bf6ad66807847c000424fc93",
          "transactionIndex": "0x6",
          "logIndex": "0x4",
          "removed": false
        },
        {
          "address": "0x00b036b58a818b1bc34d502d3fe730db729e62ac",
          "topics": [
            "0xf208f4912782fd25c7f114ca3723a2d5dd6f3bcc3ac8db5af63baa85f711d5ec",
            "0x20edc987defefa30bdf31be4bc2ace8db9e814233fe17d122b2f94b0dce2a265",
            "0x000000000000000000000000f969aee60879c54baaed9f3ed26147db216fd664"
          ],
          "data": "0xfffffffffffffffffffffffffffffffffffffffffffffffffffffffffff2764c00000000000000000000000000000000000000000000000000000000000d89b4000000000000000000000000000000000000000000000002b5e3af16b188000000000000000000000000000000000000000000000000000000000000000015e3",
          "blockHash": "0x99043a7cee38711eea1b5f15abab2bae9f67eea4b7d0225eb2a75ea48eca701c",
          "blockNumber": "0x1eac77d",
          "blockTimestamp": "0x68d874c9",
          "transactionHash": "0xe1f8dcd484c34f6e926a50830318f5c66e7d7f04bf6ad66807847c000424fc93",
          "transactionIndex": "0x6",
          "logIndex": "0x5",
          "removed": false
        },
        {
          "address": "0x663551545ed415e85645c49630bc81e10d3b9a54",
          "topics": [
            "0xddf252ad1be2c89b69c2b068fc378daa952ba7f163c4a11628f55a4df523b3ef",
            "0x000000000000000000000000c4fe13e473e6ad2bb0ba8a365bf581080d92db18",
            "0x00000000000000000000000000b036b58a818b1bc34d502d3fe730db729e62ac"
          ],
          "data": "0x000000000000000000000000000000000000000000000002b5e3af16b187fffe",
          "blockHash": "0x99043a7cee38711eea1b5f15abab2bae9f67eea4b7d0225eb2a75ea48eca701c",
          "blockNumber": "0x1eac77d",
          "blockTimestamp": "0x68d874c9",
          "transactionHash": "0xe1f8dcd484c34f6e926a50830318f5c66e7d7f04bf6ad66807847c000424fc93",
          "transactionIndex": "0x6",
          "logIndex": "0x6",
          "removed": false
        },
        {
          "address": "0x96bea0e29d5a261464e8e7260c1f833aae39dbaf",
          "topics": [
            "0xddf252ad1be2c89b69c2b068fc378daa952ba7f163c4a11628f55a4df523b3ef",
            "0x000000000000000000000000c4fe13e473e6ad2bb0ba8a365bf581080d92db18",
            "0x00000000000000000000000000b036b58a818b1bc34d502d3fe730db729e62ac"
          ],
          "data": "0x000000000000000000000000000000000000000000000002b5e3af16b187fffe",
          "blockHash": "0x99043a7cee38711eea1b5f15abab2bae9f67eea4b7d0225eb2a75ea48eca701c",
          "blockNumber": "0x1eac77d",
          "blockTimestamp": "0x68d874c9",
          "transactionHash": "0xe1f8dcd484c34f6e926a50830318f5c66e7d7f04bf6ad66807847c000424fc93",
          "transactionIndex": "0x6",
          "logIndex": "0x7",
          "removed": false
        }
      ],
      "logsBloom": "0x00000000000000000000000000000000000000000000000000000010000000000000000048000000000000000000000000000000001000000000000000000000000000000000000000000008000000000000000000000000000000001000000040000000020000000000000000004800000000010040000000000010000000000000000001000000000000000008000000000000000000000002000000800000000024000000001000008010000000000800000000000020000000000010000000000002080000000000000004000000000000000000000000000000000020004000000000000800000000000000100004000000000002000000000000002010",
      "type": "0x2",
      "transactionHash": "0xe1f8dcd484c34f6e926a50830318f5c66e7d7f04bf6ad66807847c000424fc93",
      "transactionIndex": "0x6",
      "blockHash": "0x99043a7cee38711eea1b5f15abab2bae9f67eea4b7d0225eb2a75ea48eca701c",
      "blockNumber": "0x1eac77d",
      "gasUsed": "0x6194c",
      "effectiveGasPrice": "0xf433d",
      "from": "0xc4fe13e473e6ad2bb0ba8a365bf581080d92db18",
      "to": "0xf969aee60879c54baaed9f3ed26147db216fd664",
      "contractAddress": null,
      "l1BaseFeeScalar": "0x7d0",
      "l1BlobBaseFee": "0x1",
      "l1BlobBaseFeeScalar": "0xdbba0",
      "l1Fee": "0x14d",
      "l1GasPrice": "0xa",
      "l1GasUsed": "0x1119"
    }
  ],
  "libraries": [],
  "pending": [],
  "returns": {},
  "timestamp": 1759016137,
  "chain": 1301,
  "commit": "c6ee337"
}