{
  "transactions": [
    {
      "hash": "0x9038c886d309c9dd420df09e375bd47cf2ab6ce6bc00febaf95747b2b4557183",
      "transactionType": "CALL",
      "contractName": null,
      "contractAddress": "0x23c014235a6e957fe3735fe7c57be945b3013160",
      "function": "approve(address,uint256)",
      "arguments": [
        "0x000000000022D473030F116dDEE9F6B43aC78BA3",
        "115792089237316195423570985008687907853269984665640564039457584007913129639935"
      ],
      "transaction": {
        "from": "0xc4fe13e473e6ad2bb0ba8a365bf581080d92db18",
        "to": "0x23c014235a6e957fe3735fe7c57be945b3013160",
        "gas": "0x9770",
        "value": "0x0",
        "input": "0x095ea7b3000000000000000000000000000000000022d473030f116ddee9f6b43ac78ba3ffffffffffffffffffffffffffffffffffffffffffffffffffffffffffffffff",
        "nonce": "0x179",
        "chainId": "0x515"
      },
      "additionalContracts": [],
      "isFixedGasLimit": false
    },
    {
      "hash": "0x8e9a3bab0bdc38789a78673e4265de643a2e9bf2d17c4388820bccf17fc7d10e",
      "transactionType": "CALL",
      "contractName": null,
      "contractAddress": "0xdc495e78b6b9caf67e732aab83490d80b1befc83",
      "function": "approve(address,uint256)",
      "arguments": [
        "0x000000000022D473030F116dDEE9F6B43aC78BA3",
        "115792089237316195423570985008687907853269984665640564039457584007913129639935"
      ],
      "transaction": {
        "from": "0xc4fe13e473e6ad2bb0ba8a365bf581080d92db18",
        "to": "0xdc495e78b6b9caf67e732aab83490d80b1befc83",
        "gas": "0x9770",
        "value": "0x0",
        "input": "0x095ea7b3000000000000000000000000000000000022d473030f116ddee9f6b43ac78ba3ffffffffffffffffffffffffffffffffffffffffffffffffffffffffffffffff",
        "nonce": "0x17a",
        "chainId": "0x515"
      },
      "additionalContracts": [],
      "isFixedGasLimit": false
    },
    {
      "hash": "0x3e0591ef61afc7d81246cb3369442ed0e307c245d4267c3291378de099094e6d",
      "transactionType": "CALL",
      "contractName": null,
      "contractAddress": "0x000000000022d473030f116ddee9f6b43ac78ba3",
      "function": "approve(address,address,uint160,uint48)",
      "arguments": [
        "0x23C014235a6E957fE3735Fe7C57bE945b3013160",
        "0xf969Aee60879C54bAAed9F3eD26147Db216Fd664",
        "1461501637330902918203684832716283019655932542975",
        "281474976710655"
      ],
      "transaction": {
        "from": "0xc4fe13e473e6ad2bb0ba8a365bf581080d92db18",
        "to": "0x000000000022d473030f116ddee9f6b43ac78ba3",
        "gas": "0x96a0",
        "value": "0x0",
        "input": "0x87517c4500000000000000000000000023c014235a6e957fe3735fe7c57be945b3013160000000000000000000000000f969aee60879c54baaed9f3ed26147db216fd664000000000000000000000000ffffffffffffffffffffffffffffffffffffffff0000000000000000000000000000000000000000000000000000ffffffffffff",
        "nonce": "0x17b",
        "chainId": "0x515"
      },
      "additionalContracts": [],
      "isFixedGasLimit": false
    },
    {
      "hash": "0xf2122100ca89e43f6e616b98d75d351065d9c41b59433ea137bddba74f4ce777",
      "transactionType": "CALL",
      "contractName": null,
      "contractAddress": "0x000000000022d473030f116ddee9f6b43ac78ba3",
      "function": "approve(address,address,uint160,uint48)",
      "arguments": [
        "0xDC495E78B6b9cAf67E732AaB83490D80B1bEFc83",
        "0xf969Aee60879C54bAAed9F3eD26147Db216Fd664",
        "1461501637330902918203684832716283019655932542975",
        "281474976710655"
      ],
      "transaction": {
        "from": "0xc4fe13e473e6ad2bb0ba8a365bf581080d92db18",
        "to": "0x000000000022d473030f116ddee9f6b43ac78ba3",
        "gas": "0x96a0",
        "value": "0x0",
        "input": "0x87517c45000000000000000000000000dc495e78b6b9caf67e732aab83490d80b1befc83000000000000000000000000f969aee60879c54baaed9f3ed26147db216fd664000000000000000000000000ffffffffffffffffffffffffffffffffffffffff0000000000000000000000000000000000000000000000000000ffffffffffff",
        "nonce": "0x17c",
        "chainId": "0x515"
      },
      "additionalContracts": [],
      "isFixedGasLimit": false
    },
    {
      "hash": "0x6fc24bdde9adca7b364cbd65e782d5f961beb11f67e15fdced58365221bf0bc6",
      "transactionType": "CALL",
      "contractName": null,
      "contractAddress": "0xf969aee60879c54baaed9f3ed26147db216fd664",
      "function": "modifyLiquidities(bytes,uint256)",
      "arguments": [
        "0x0000000000000000000000000000000000000000000000000000000000000040000000000000000000000000000000000000000000000000000000000000008000000000000000000000000000000000000000000000000000000000000000030212120000000000000000000000000000000000000000000000000000000000000000000000000000000000000000000000000000000000000000000000000300000000000000000000000000000000000000000000000000000000000000600000000000000000000000000000000000000000000000000000000000000220000000000000000000000000000000000000000000000000000000000000026000000000000000000000000000000000000000000000000000000000000001a000000000000000000000000023c014235a6e957fe3735fe7c57be945b3013160000000000000000000000000dc495e78b6b9caf67e732aab83490d80b1befc830000000000000000000000000000000000000000000000000000000000000bb8000000000000000000000000000000000000000000000000000000000000003c000000000000000000000000736c1c1553c251b005b76707daef15c5df5b03c0fffffffffffffffffffffffffffffffffffffffffffffffffffffffffff2764c00000000000000000000000000000000000000000000000000000000000d89b4000000000000000000000000000000000000000000000002b5e3af16b188000000000000000000000000000000000000ffffffffffffffffffffffffffffffff00000000000000000000000000000000ffffffffffffffffffffffffffffffff000000000000000000000000c4fe13e473e6ad2bb0ba8a365bf581080d92db1800000000000000000000000000000000000000000000000000000000000001800000000000000000000000000000000000000000000000000000000000000000000000000000000000000000000000000000000000000000000000000000002000000000000000000000000023c014235a6e957fe3735fe7c57be945b30131600000000000000000000000000000000000000000000000000000000000000020000000000000000000000000dc495e78b6b9caf67e732aab83490d80b1befc83",
        "1759030227"
      ],
      "transaction": {
        "from": "0xc4fe13e473e6ad2bb0ba8a365bf581080d92db18",
        "to": "0xf969aee60879c54baaed9f3ed26147db216fd664",
        "gas": "0x50200",
        "value": "0x0",
        "input": "0xdd46508f00000000000000000000000000000000000000000000000000000000000000400000000000000000000000000000000000000000000000000000000068d8abd300000000000000000000000000000000000000000000000000000000000003400000000000000000000000000000000000000000000000000000000000000040000000000000000000000000000000000000000000000000000000000000008000000000000000000000000000000000000000000000000000000000000000030212120000000000000000000000000000000000000000000000000000000000000000000000000000000000000000000000000000000000000000000000000300000000000000000000000000000000000000000000000000000000000000600000000000000000000000000000000000000000000000000000000000000220000000000000000000000000000000000000000000000000000000000000026000000000000000000000000000000000000000000000000000000000000001a000000000000000000000000023c014235a6e957fe3735fe7c57be945b3013160000000000000000000000000dc495e78b6b9caf67e732aab83490d80b1befc830000000000000000000000000000000000000000000000000000000000000bb8000000000000000000000000000000000000000000000000000000000000003c000000000000000000000000736c1c1553c251b005b76707daef15c5df5b03c0fffffffffffffffffffffffffffffffffffffffffffffffffffffffffff2764c00000000000000000000000000000000000000000000000000000000000d89b4000000000000000000000000000000000000000000000002b5e3af16b188000000000000000000000000000000000000ffffffffffffffffffffffffffffffff00000000000000000000000000000000ffffffffffffffffffffffffffffffff000000000000000000000000c4fe13e473e6ad2bb0ba8a365bf581080d92db1800000000000000000000000000000000000000000000000000000000000001800000000000000000000000000000000000000000000000000000000000000000000000000000000000000000000000000000000000000000000000000000002000000000000000000000000023c014235a6e957fe3735fe7c57be945b30131600000000000000000000000000000000000000000000000000000000000000020000000000000000000000000dc495e78b6b9caf67e732aab83490d80b1befc83",
        "nonce": "0x17d",
        "chainId": "0x515"
      },
      "additionalContracts": [],
      "isFixedGasLimit": false
    }
  ],
  "receipts": [
    {
      "status": "0x1",
      "cumulativeGasUsed": "0x17738",
      "logs": [
        {
          "address": "0x23c014235a6e957fe3735fe7c57be945b3013160",
          "topics": [
            "0x8c5be1e5ebec7d5bd14f71427d1e84f3dd0314c0f7b2291e5b200ac8c7c3b925",
            "0x000000000000000000000000c4fe13e473e6ad2bb0ba8a365bf581080d92db18",
            "0x000000000000000000000000000000000022d473030f116ddee9f6b43ac78ba3"
          ],
          "data": "0xffffffffffffffffffffffffffffffffffffffffffffffffffffffffffffffff",
          "blockHash": "0xf1878555c3be69d0dabcc25aef967496fb3d04cba1aa7f60a44f702c3cf4651b",
          "blockNumber": "0x1eaf08b",
          "blockTimestamp": "0x68d89dd7",
          "transactionHash": "0x9038c886d309c9dd420df09e375bd47cf2ab6ce6bc00febaf95747b2b4557183",
          "transactionIndex": "0x2",
          "logIndex": "0x0",
          "removed": false
        }
      ],
      "logsBloom": "0x00000000000000000000000000000000000000000000000000000010000000000000000000000000000000000000000000000000800000000000000000200000000000000000000000004000000000000000000000000800000000000000000040000000000000000000000000000000000000000000000000000000000000000000000000000000000000000000000000000400000000000000000000000000020000000000000000000000000000000000000400000000000000000000000000000000000000000000000000000000000000000000000800000000000000000010000000000800000000000000000000000000000000000000000000000000",
      "type": "0x2",
      "transactionHash": "0x9038c886d309c9dd420df09e375bd47cf2ab6ce6bc00febaf95747b2b4557183",
      "transactionIndex": "0x2",
      "blockHash": "0xf1878555c3be69d0dabcc25aef967496fb3d04cba1aa7f60a44f702c3cf4651b",
      "blockNumber": "0x1eaf08b",
      "gasUsed": "0x6da4",
      "effectiveGasPrice": "0xfe",
      "from": "0xc4fe13e473e6ad2bb0ba8a365bf581080d92db18",
      "to": "0x23c014235a6e957fe3735fe7c57be945b3013160",
      "contractAddress": null,
      "l1BaseFeeScalar": "0x7d0",
      "l1BlobBaseFee": "0x1",
      "l1BlobBaseFeeScalar": "0xdbba0",
      "l1Fee": "0x7d",
      "l1GasPrice": "0xb",
      "l1GasUsed": "0x640"
    },
    {
      "status": "0x1",
      "cumulativeGasUsed": "0x1e4dc",
      "logs": [
        {
          "address": "0xdc495e78b6b9caf67e732aab83490d80b1befc83",
          "topics": [
            "0x8c5be1e5ebec7d5bd14f71427d1e84f3dd0314c0f7b2291e5b200ac8c7c3b925",
            "0x000000000000000000000000c4fe13e473e6ad2bb0ba8a365bf581080d92db18",
            "0x000000000000000000000000000000000022d473030f116ddee9f6b43ac78ba3"
          ],
          "data": "0xffffffffffffffffffffffffffffffffffffffffffffffffffffffffffffffff",
          "blockHash": "0xf1878555c3be69d0dabcc25aef967496fb3d04cba1aa7f60a44f702c3cf4651b",
          "blockNumber": "0x1eaf08b",
          "blockTimestamp": "0x68d89dd7",
          "transactionHash": "0x8e9a3bab0bdc38789a78673e4265de643a2e9bf2d17c4388820bccf17fc7d10e",
          "transactionIndex": "0x3",
          "logIndex": "0x1",
          "removed": false
        }
      ],
      "logsBloom": "0x00000000000000000000000000000000000000000000000000000010000000000000000000000000000000000000000000000000800000000000020000200000000000000000000000004000004000000000000000000800000000000000000040000000000000000000000000000000000000000000000000000000000000000000000000000000000000000000000000000000000000000000000000000000020000000000000000000000000000000000000000000000000000000000000000000000400000000000000000000000000000000000000000000000000000000010000000000800000000000000000000000000000000000000000000000000",
      "type": "0x2",
      "transactionHash": "0x8e9a3bab0bdc38789a78673e4265de643a2e9bf2d17c4388820bccf17fc7d10e",
      "transactionIndex": "0x3",
      "blockHash": "0xf1878555c3be69d0dabcc25aef967496fb3d04cba1aa7f60a44f702c3cf4651b",
      "blockNumber": "0x1eaf08b",
      "gasUsed": "0x6da4",
      "effectiveGasPrice": "0xfe",
      "from": "0xc4fe13e473e6ad2bb0ba8a365bf581080d92db18",
      "to": "0xdc495e78b6b9caf67e732aab83490d80b1befc83",
      "contractAddress": null,
      "l1BaseFeeScalar": "0x7d0",
      "l1BlobBaseFee": "0x1",
      "l1BlobBaseFeeScalar": "0xdbba0",
      "l1Fee": "0x7d",
      "l1GasPrice": "0xb",
      "l1GasUsed": "0x640"
    },
    {
      "status": "0x1",
      "cumulativeGasUsed": "0x251ea",
      "logs": [
        {
          "address": "0x000000000022d473030f116ddee9f6b43ac78ba3",
          "topics": [
            "0xda9fa7c1b00402c17d0161b249b1ab8bbec047c5a52207b9c112deffd817036b",
            "0x000000000000000000000000c4fe13e473e6ad2bb0ba8a365bf581080d92db18",
            "0x00000000000000000000000023c014235a6e957fe3735fe7c57be945b3013160",
            "0x000000000000000000000000f969aee60879c54baaed9f3ed26147db216fd664"
          ],
          "data": "0x000000000000000000000000ffffffffffffffffffffffffffffffffffffffff0000000000000000000000000000000000000000000000000000ffffffffffff",
          "blockHash": "0xf1878555c3be69d0dabcc25aef967496fb3d04cba1aa7f60a44f702c3cf4651b",
          "blockNumber": "0x1eaf08b",
          "blockTimestamp": "0x68d89dd7",
          "transactionHash": "0x3e0591ef61afc7d81246cb3369442ed0e307c245d4267c3291378de099094e6d",
          "transactionIndex": "0x4",
          "logIndex": "0x2",
          "removed": false
        }
      ],
      "logsBloom": "0x00010000000000000000000000000000000000000000000000000010000000000000000000000000000000000000000000000000000000000000000000080000000000000000000000000000000000000000000000000000000000001000000040000000000000000000000000000000000000000040000000000000000000000020000000002000000000000000000000000000000000000000000000000000000000000000000000000000000000000000000000000000000000080000000000000000000000000000000000000000200000000000000040000000000000000000000000000800000000000000000000000000000000000000000000002400",
      "type": "0x2",
      "transactionHash": "0x3e0591ef61afc7d81246cb3369442ed0e307c245d4267c3291378de099094e6d",
      "transactionIndex": "0x4",
      "blockHash": "0xf1878555c3be69d0dabcc25aef967496fb3d04cba1aa7f60a44f702c3cf4651b",
      "blockNumber": "0x1eaf08b",
      "gasUsed": "0x6d0e",
      "effectiveGasPrice": "0xfe",
      "from": "0xc4fe13e473e6ad2bb0ba8a365bf581080d92db18",
      "to": "0x000000000022d473030f116ddee9f6b43ac78ba3",
      "contractAddress": null,
      "l1BaseFeeScalar": "0x7d0",
      "l1BlobBaseFee": "0x1",
      "l1BlobBaseFeeScalar": "0xdbba0",
      "l1Fee": "0x88",
      "l1GasPrice": "0xb",
      "l1GasUsed": "0x6cd"
    },
    {
      "status": "0x1",
      "cumulativeGasUsed": "0x2bef8",
      "logs": [
        {
          "address": "0x000000000022d473030f116ddee9f6b43ac78ba3",
          "topics": [
            "0xda9fa7c1b00402c17d0161b249b1ab8bbec047c5a52207b9c112deffd817036b",
            "0x000000000000000000000000c4fe13e473e6ad2bb0ba8a365bf581080d92db18",
            "0x000000000000000000000000dc495e78b6b9caf67e732aab83490d80b1befc83",
            "0x000000000000000000000000f969aee60879c54baaed9f3ed26147db216fd664"
          ],
          "data": "0x000000000000000000000000ffffffffffffffffffffffffffffffffffffffff0000000000000000000000000000000000000000000000000000ffffffffffff",
          "blockHash": "0xf1878555c3be69d0dabcc25aef967496fb3d04cba1aa7f60a44f702c3cf4651b",
          "blockNumber": "0x1eaf08b",
          "blockTimestamp": "0x68d89dd7",
          "transactionHash": "0xf2122100ca89e43f6e616b98d75d351065d9c41b59433ea137bddba74f4ce777",
          "transactionIndex": "0x5",
          "logIndex": "0x3",
          "removed": false
        }
      ],
      "logsBloom": "0x00010000000000000000000000000000000000000000000000000010000000000000000000000000000000000000000000000000000000040000000000080000000000000000000000000000000000000000000000000000000000001000000040000000000004000000000000000000000000000040000000000000000000000020000000000000000000000000000000000000000000000000000000000000000000000000000000000000000000000000000000000000000000080000000000000000000000000000000000000000000000000000000440000000000000000000000000000800000000000000000000000000000000000000000000002400",
      "type": "0x2",
      "transactionHash": "0xf2122100ca89e43f6e616b98d75d351065d9c41b59433ea137bddba74f4ce777",
      "transactionIndex": "0x5",
      "blockHash": "0xf1878555c3be69d0dabcc25aef967496fb3d04cba1aa7f60a44f702c3cf4651b",
      "blockNumber": "0x1eaf08b",
      "gasUsed": "0x6d0e",
      "effectiveGasPrice": "0xfe",
      "from": "0xc4fe13e473e6ad2bb0ba8a365bf581080d92db18",
      "to": "0x000000000022d473030f116ddee9f6b43ac78ba3",
      "contractAddress": null,
      "l1BaseFeeScalar": "0x7d0",
      "l1BlobBaseFee": "0x1",
      "l1BlobBaseFeeScalar": "0xdbba0",
      "l1Fee": "0x88",
      "l1GasPrice": "0xb",
      "l1GasUsed": "0x6cd"
    },
    {
      "status": "0x1",
      "cumulativeGasUsed": "0x65f1e",
      "logs": [
        {
          "address": "0xf969aee60879c54baaed9f3ed26147db216fd664",
          "topics": [
            "0xddf252ad1be2c89b69c2b068fc378daa952ba7f163c4a11628f55a4df523b3ef",
            "0x0000000000000000000000000000000000000000000000000000000000000000",
            "0x000000000000000000000000c4fe13e473e6ad2bb0ba8a365bf581080d92db18",
            "0x00000000000000000000000000000000000000000000000000000000000015ed"
          ],
          "data": "0x",
          "blockHash": "0xf1878555c3be69d0dabcc25aef967496fb3d04cba1aa7f60a44f702c3cf4651b",
          "blockNumber": "0x1eaf08b",
          "blockTimestamp": "0x68d89dd7",
          "transactionHash": "0x6fc24bdde9adca7b364cbd65e782d5f961beb11f67e15fdced58365221bf0bc6",
          "transactionIndex": "0x6",
          "logIndex": "0x4",
          "removed": false
        },
        {
          "address": "0x00b036b58a818b1bc34d502d3fe730db729e62ac",
          "topics": [
            "0xf208f4912782fd25c7f114ca3723a2d5dd6f3bcc3ac8db5af63baa85f711d5ec",
            "0x9e7a7c4c4e5962319ed0940d59c416bcbcfcebd5da18ac8bd5376375615d4b80",
            "0x000000000000000000000000f969aee60879c54baaed9f3ed26147db216fd664"
          ],
          "data": "0xfffffffffffffffffffffffffffffffffffffffffffffffffffffffffff2764c00000000000000000000000000000000000000000000000000000000000d89b4000000000000000000000000000000000000000000000002b5e3af16b188000000000000000000000000000000000000000000000000000000000000000015ed",
          "blockHash": "0xf1878555c3be69d0dabcc25aef967496fb3d04cba1aa7f60a44f702c3cf4651b",
          "blockNumber": "0x1eaf08b",
          "blockTimestamp": "0x68d89dd7",
          "transactionHash": "0x6fc24bdde9adca7b364cbd65e782d5f961beb11f67e15fdced58365221bf0bc6",
          "transactionIndex": "0x6",
          "logIndex": "0x5",
          "removed": false
        },
        {
          "address": "0x23c014235a6e957fe3735fe7c57be945b3013160",
          "topics": [
            "0xddf252ad1be2c89b69c2b068fc378daa952ba7f163c4a11628f55a4df523b3ef",
            "0x000000000000000000000000c4fe13e473e6ad2bb0ba8a365bf581080d92db18",
            "0x00000000000000000000000000b036b58a818b1bc34d502d3fe730db729e62ac"
          ],
          "data": "0x000000000000000000000000000000000000000000000002b5e3af16b187fffe",
          "blockHash": "0xf1878555c3be69d0dabcc25aef967496fb3d04cba1aa7f60a44f702c3cf4651b",
          "blockNumber": "0x1eaf08b",
          "blockTimestamp": "0x68d89dd7",
          "transactionHash": "0x6fc24bdde9adca7b364cbd65e782d5f961beb11f67e15fdced58365221bf0bc6",
          "transactionIndex": "0x6",
          "logIndex": "0x6",
          "removed": false
        },
        {
          "address": "0xdc495e78b6b9caf67e732aab83490d80b1befc83",
          "topics": [
            "0xddf252ad1be2c89b69c2b068fc378daa952ba7f163c4a11628f55a4df523b3ef",
            "0x000000000000000000000000c4fe13e473e6ad2bb0ba8a365bf581080d92db18",
            "0x00000000000000000000000000b036b58a818b1bc34d502d3fe730db729e62ac"
          ],
          "data": "0x000000000000000000000000000000000000000000000002b5e3af16b187fffe",
          "blockHash": "0xf1878555c3be69d0dabcc25aef967496fb3d04cba1aa7f60a44f702c3cf4651b",
          "blockNumber": "0x1eaf08b",
          "blockTimestamp": "0x68d89dd7",
          "transactionHash": "0x6fc24bdde9adca7b364cbd65e782d5f961beb11f67e15fdced58365221bf0bc6",
          "transactionIndex": "0x6",
          "logIndex": "0x7",
          "removed": false
        }
      ],
      "logsBloom": "0x00000000000000000000000000000000000000000000000000000010000000000000000000008000000000000000000000000000001000000000020000000000000000000000200000000008004000000000000000000000000000001000000040000000020000000000000000004800000000000040000000008010000000000000000001000000000000000008000000000400000000000000000000000000000004000000000000000000000000000800000400000020000002000000000000000002480000000000000000000010000000000000000800000000000020004000000000000800000000000000000004000000000002000000000000002014",
      "type": "0x2",
      "transactionHash": "0x6fc24bdde9adca7b364cbd65e782d5f961beb11f67e15fdced58365221bf0bc6",
      "transactionIndex": "0x6",
      "blockHash": "0xf1878555c3be69d0dabcc25aef967496fb3d04cba1aa7f60a44f702c3cf4651b",
      "blockNumber": "0x1eaf08b",
      "gasUsed": "0x3a026",
      "effectiveGasPrice": "0xfe",
      "from": "0xc4fe13e473e6ad2bb0ba8a365bf581080d92db18",
      "to": "0xf969aee60879c54baaed9f3ed26147db216fd664",
      "contractAddress": null,
      "l1BaseFeeScalar": "0x7d0",
      "l1BlobBaseFee": "0x1",
      "l1BlobBaseFeeScalar": "0xdbba0",
      "l1Fee": "0x151",
      "l1GasPrice": "0xb",
      "l1GasUsed": "0x10d6"
    }
  ],
  "libraries": [],
  "pending": [],
  "returns": {},
  "timestamp": 1759026646,
  "chain": 1301,
  "commit": "b7c866c"
}