{
  "transactions": [
    {
      "hash": "0xeb45c0b9cc2af551ad938253229db64cb56b9e36363094cb68b6a5ba4f4aec7e",
      "transactionType": "CALL",
      "contractName": null,
      "contractAddress": "0xcaaf8695cbe8581bca496b9a8f077c3849807ee0",
      "function": "approve(address,uint256)",
      "arguments": [
        "0x000000000022D473030F116dDEE9F6B43aC78BA3",
        "115792089237316195423570985008687907853269984665640564039457584007913129639935"
      ],
      "transaction": {
        "from": "0xc4fe13e473e6ad2bb0ba8a365bf581080d92db18",
        "to": "0xcaaf8695cbe8581bca496b9a8f077c3849807ee0",
        "gas": "0x102cf",
        "value": "0x0",
        "input": "0x095ea7b3000000000000000000000000000000000022d473030f116ddee9f6b43ac78ba3ffffffffffffffffffffffffffffffffffffffffffffffffffffffffffffffff",
        "nonce": "0x1e0",
        "chainId": "0x515"
      },
      "additionalContracts": [],
      "isFixedGasLimit": false
    },
    {
      "hash": "0x564d52f9ce838442e81c597df698ac37eefa16eb0889939b53679b1aa04acd49",
      "transactionType": "CALL",
      "contractName": null,
      "contractAddress": "0xf4a05ee20aa9fcbb825aefbf0f21237e44d26a73",
      "function": "approve(address,uint256)",
      "arguments": [
        "0x000000000022D473030F116dDEE9F6B43aC78BA3",
        "115792089237316195423570985008687907853269984665640564039457584007913129639935"
      ],
      "transaction": {
        "from": "0xc4fe13e473e6ad2bb0ba8a365bf581080d92db18",
        "to": "0xf4a05ee20aa9fcbb825aefbf0f21237e44d26a73",
        "gas": "0x102cf",
        "value": "0x0",
        "input": "0x095ea7b3000000000000000000000000000000000022d473030f116ddee9f6b43ac78ba3ffffffffffffffffffffffffffffffffffffffffffffffffffffffffffffffff",
        "nonce": "0x1e1",
        "chainId": "0x515"
      },
      "additionalContracts": [],
      "isFixedGasLimit": false
    },
    {
      "hash": "0x947ea506333e8e976eb6803ee0acf749e2a5b45de300336bb8388ec75d4174ed",
      "transactionType": "CALL",
      "contractName": null,
      "contractAddress": "0x000000000022d473030f116ddee9f6b43ac78ba3",
      "function": "approve(address,address,uint160,uint48)",
      "arguments": [
        "0xcAaF8695cBE8581Bca496b9a8F077c3849807EE0",
        "0xf969Aee60879C54bAAed9F3eD26147Db216Fd664",
        "1461501637330902918203684832716283019655932542975",
        "281474976710655"
      ],
      "transaction": {
        "from": "0xc4fe13e473e6ad2bb0ba8a365bf581080d92db18",
        "to": "0x000000000022d473030f116ddee9f6b43ac78ba3",
        "gas": "0x1112d",
        "value": "0x0",
        "input": "0x87517c45000000000000000000000000caaf8695cbe8581bca496b9a8f077c3849807ee0000000000000000000000000f969aee60879c54baaed9f3ed26147db216fd664000000000000000000000000ffffffffffffffffffffffffffffffffffffffff0000000000000000000000000000000000000000000000000000ffffffffffff",
        "nonce": "0x1e2",
        "chainId": "0x515"
      },
      "additionalContracts": [],
      "isFixedGasLimit": false
    },
    {
      "hash": "0x4a978fe76780f64e1d2edea6532bcb1a3a06cc3926969a81d16c0780ab255c3a",
      "transactionType": "CALL",
      "contractName": null,
      "contractAddress": "0x000000000022d473030f116ddee9f6b43ac78ba3",
      "function": "approve(address,address,uint160,uint48)",
      "arguments": [
        "0xF4A05Ee20aA9FcbB825aefBF0f21237E44D26a73",
        "0xf969Aee60879C54bAAed9F3eD26147Db216Fd664",
        "1461501637330902918203684832716283019655932542975",
        "281474976710655"
      ],
      "transaction": {
        "from": "0xc4fe13e473e6ad2bb0ba8a365bf581080d92db18",
        "to": "0x000000000022d473030f116ddee9f6b43ac78ba3",
        "gas": "0x1112d",
        "value": "0x0",
        "input": "0x87517c45000000000000000000000000f4a05ee20aa9fcbb825aefbf0f21237e44d26a73000000000000000000000000f969aee60879c54baaed9f3ed26147db216fd664000000000000000000000000ffffffffffffffffffffffffffffffffffffffff0000000000000000000000000000000000000000000000000000ffffffffffff",
        "nonce": "0x1e3",
        "chainId": "0x515"
      },
      "additionalContracts": [],
      "isFixedGasLimit": false
    },
    {
      "hash": "0xa838ff9ae0c157cfc0bafe97179b746085fd38f0f094db30563e5e63862c1247",
      "transactionType": "CALL",
      "contractName": null,
      "contractAddress": "0xf969aee60879c54baaed9f3ed26147db216fd664",
      "function": "modifyLiquidities(bytes,uint256)",
      "arguments": [
        "0x0000000000000000000000000000000000000000000000000000000000000040000000000000000000000000000000000000000000000000000000000000008000000000000000000000000000000000000000000000000000000000000000030212120000000000000000000000000000000000000000000000000000000000000000000000000000000000000000000000000000000000000000000000000300000000000000000000000000000000000000000000000000000000000000600000000000000000000000000000000000000000000000000000000000000220000000000000000000000000000000000000000000000000000000000000026000000000000000000000000000000000000000000000000000000000000001a0000000000000000000000000caaf8695cbe8581bca496b9a8f077c3849807ee0000000000000000000000000f4a05ee20aa9fcbb825aefbf0f21237e44d26a730000000000000000000000000000000000000000000000000000000000000bb8000000000000000000000000000000000000000000000000000000000000003c0000000000000000000000000158131f09b599ca6859aadf3151e63f2941c3c0fffffffffffffffffffffffffffffffffffffffffffffffffffffffffff2764c00000000000000000000000000000000000000000000000000000000000d89b4000000000000000000000000000000000000000000000002b5e3af16b188000000000000000000000000000000000000ffffffffffffffffffffffffffffffff00000000000000000000000000000000ffffffffffffffffffffffffffffffff000000000000000000000000c4fe13e473e6ad2bb0ba8a365bf581080d92db18000000000000000000000000000000000000000000000000000000000000018000000000000000000000000000000000000000000000000000000000000000000000000000000000000000000000000000000000000000000000000000000020000000000000000000000000caaf8695cbe8581bca496b9a8f077c3849807ee00000000000000000000000000000000000000000000000000000000000000020000000000000000000000000f4a05ee20aa9fcbb825aefbf0f21237e44d26a73",
        "1759033057"
      ],
      "transaction": {
        "from": "0xc4fe13e473e6ad2bb0ba8a365bf581080d92db18",
        "to": "0xf969aee60879c54baaed9f3ed26147db216fd664",
        "gas": "0x92511",
        "value": "0x0",
        "input": "0xdd46508f00000000000000000000000000000000000000000000000000000000000000400000000000000000000000000000000000000000000000000000000068d8b6e100000000000000000000000000000000000000000000000000000000000003400000000000000000000000000000000000000000000000000000000000000040000000000000000000000000000000000000000000000000000000000000008000000000000000000000000000000000000000000000000000000000000000030212120000000000000000000000000000000000000000000000000000000000000000000000000000000000000000000000000000000000000000000000000300000000000000000000000000000000000000000000000000000000000000600000000000000000000000000000000000000000000000000000000000000220000000000000000000000000000000000000000000000000000000000000026000000000000000000000000000000000000000000000000000000000000001a0000000000000000000000000caaf8695cbe8581bca496b9a8f077c3849807ee0000000000000000000000000f4a05ee20aa9fcbb825aefbf0f21237e44d26a730000000000000000000000000000000000000000000000000000000000000bb8000000000000000000000000000000000000000000000000000000000000003c0000000000000000000000000158131f09b599ca6859aadf3151e63f2941c3c0fffffffffffffffffffffffffffffffffffffffffffffffffffffffffff2764c00000000000000000000000000000000000000000000000000000000000d89b4000000000000000000000000000000000000000000000002b5e3af16b188000000000000000000000000000000000000ffffffffffffffffffffffffffffffff00000000000000000000000000000000ffffffffffffffffffffffffffffffff000000000000000000000000c4fe13e473e6ad2bb0ba8a365bf581080d92db18000000000000000000000000000000000000000000000000000000000000018000000000000000000000000000000000000000000000000000000000000000000000000000000000000000000000000000000000000000000000000000000020000000000000000000000000caaf8695cbe8581bca496b9a8f077c3849807ee00000000000000000000000000000000000000000000000000000000000000020000000000000000000000000f4a05ee20aa9fcbb825aefbf0f21237e44d26a73",
        "nonce": "0x1e4",
        "chainId": "0x515"
      },
      "additionalContracts": [],
      "isFixedGasLimit": false
    }
  ],
  "receipts": [
    {
      "status": "0x1",
      "cumulativeGasUsed": "0x1c4e8",
      "logs": [
        {
          "address": "0xcaaf8695cbe8581bca496b9a8f077c3849807ee0",
          "topics": [
            "0x8c5be1e5ebec7d5bd14f71427d1e84f3dd0314c0f7b2291e5b200ac8c7c3b925",
            "0x000000000000000000000000c4fe13e473e6ad2bb0ba8a365bf581080d92db18",
            "0x000000000000000000000000000000000022d473030f116ddee9f6b43ac78ba3"
          ],
          "data": "0xffffffffffffffffffffffffffffffffffffffffffffffffffffffffffffffff",
          "blockHash": "0x958df74799b235a4b9ad772a59f1cbe721926bea182b735fb98ff2394eef947e",
          "blockNumber": "0x1eafbbb",
          "blockTimestamp": "0x68d8a907",
          "transactionHash": "0xeb45c0b9cc2af551ad938253229db64cb56b9e36363094cb68b6a5ba4f4aec7e",
          "transactionIndex": "0x2",
          "logIndex": "0x0",
          "removed": false
        }
      ],
      "logsBloom": "0x00000000000000000000000000000000000000000000000000000010000000000000000000000000000000000000000000000000800000080000000000200000000000000000400000004000000000000000000000000800000000000000000040000000000000000000000000000000000000000000000000000000000000000000000000000000000004000000000000000000000000000000000000000000020000000000000000000000000000000000000000000000000000000000000000000000000000000000000000000000000000000000000000000000000000000010000000000800000000000000000000000000000000000000000000000000",
      "type": "0x2",
      "transactionHash": "0xeb45c0b9cc2af551ad938253229db64cb56b9e36363094cb68b6a5ba4f4aec7e",
      "transactionIndex": "0x2",
      "blockHash": "0x958df74799b235a4b9ad772a59f1cbe721926bea182b735fb98ff2394eef947e",
      "blockNumber": "0x1eafbbb",
      "gasUsed": "0xbb60",
      "effectiveGasPrice": "0x61e74",
      "from": "0xc4fe13e473e6ad2bb0ba8a365bf581080d92db18",
      "to": "0xcaaf8695cbe8581bca496b9a8f077c3849807ee0",
      "contractAddress": null,
      "l1BaseFeeScalar": "0x7d0",
      "l1BlobBaseFee": "0x1",
      "l1BlobBaseFeeScalar": "0xdbba0",
      "l1Fee": "0x73",
      "l1GasPrice": "0x8",
      "l1GasUsed": "0x640"
    },
    {
      "status": "0x1",
      "cumulativeGasUsed": "0x28048",
      "logs": [
        {
          "address": "0xf4a05ee20aa9fcbb825aefbf0f21237e44d26a73",
          "topics": [
            "0x8c5be1e5ebec7d5bd14f71427d1e84f3dd0314c0f7b2291e5b200ac8c7c3b925",
            "0x000000000000000000000000c4fe13e473e6ad2bb0ba8a365bf581080d92db18",
            "0x000000000000000000000000000000000022d473030f116ddee9f6b43ac78ba3"
          ],
          "data": "0xffffffffffffffffffffffffffffffffffffffffffffffffffffffffffffffff",
          "blockHash": "0x958df74799b235a4b9ad772a59f1cbe721926bea182b735fb98ff2394eef947e",
          "blockNumber": "0x1eafbbb",
          "blockTimestamp": "0x68d8a907",
          "transactionHash": "0x564d52f9ce838442e81c597df698ac37eefa16eb0889939b53679b1aa04acd49",
          "transactionIndex": "0x3",
          "logIndex": "0x1",
          "removed": false
        }
      ],
      "logsBloom": "0x00000000000000000000000000000000000000000000000000000010000000000000000000000000000000000000000000000000800000000000000000200000000000000000000000004000000000000000000000000800000000000000000040004000000000000000000000000000000000000000000000000000000000000000000000000000000000000000000000000000000000000001000000000000020000000000000000000001000000000000000000000000000000000000000000000000000000000000000000000000000000000000000000000000000000000010000000000800000000000000000000000000000000000000000000000000",
      "type": "0x2",
      "transactionHash": "0x564d52f9ce838442e81c597df698ac37eefa16eb0889939b53679b1aa04acd49",
      "transactionIndex": "0x3",
      "blockHash": "0x958df74799b235a4b9ad772a59f1cbe721926bea182b735fb98ff2394eef947e",
      "blockNumber": "0x1eafbbb",
      "gasUsed": "0xbb60",
      "effectiveGasPrice": "0x61e74",
      "from": "0xc4fe13e473e6ad2bb0ba8a365bf581080d92db18",
      "to": "0xf4a05ee20aa9fcbb825aefbf0f21237e44d26a73",
      "contractAddress": null,
      "l1BaseFeeScalar": "0x7d0",
      "l1BlobBaseFee": "0x1",
      "l1BlobBaseFeeScalar": "0xdbba0",
      "l1Fee": "0x73",
      "l1GasPrice": "0x8",
      "l1GasUsed": "0x640"
    },
    {
      "status": "0x1",
      "cumulativeGasUsed": "0x33b12",
      "logs": [
        {
          "address": "0x000000000022d473030f116ddee9f6b43ac78ba3",
          "topics": [
            "0xda9fa7c1b00402c17d0161b249b1ab8bbec047c5a52207b9c112deffd817036b",
            "0x000000000000000000000000c4fe13e473e6ad2bb0ba8a365bf581080d92db18",
            "0x000000000000000000000000caaf8695cbe8581bca496b9a8f077c3849807ee0",
            "0x000000000000000000000000f969aee60879c54baaed9f3ed26147db216fd664"
          ],
          "data": "0x000000000000000000000000ffffffffffffffffffffffffffffffffffffffff0000000000000000000000000000000000000000000000000000ffffffffffff",
          "blockHash": "0x958df74799b235a4b9ad772a59f1cbe721926bea182b735fb98ff2394eef947e",
          "blockNumber": "0x1eafbbb",
          "blockTimestamp": "0x68d8a907",
          "transactionHash": "0x947ea506333e8e976eb6803ee0acf749e2a5b45de300336bb8388ec75d4174ed",
          "transactionIndex": "0x4",
          "logIndex": "0x2",
          "removed": false
        }
      ],
      "logsBloom": "0x00010000000000000000000000004000000000000000000000000010000000000000000000000040000000000000000000000000000000000000000000080000000000000000000000000000000000000000000000000000000000001000000040000000001000000000000000000000000000000040000000000000000000000020000000000000000000000000000000000000000000000000000000000000000000000000000000000000000000000000000000000000000000080000000000000000000000000000000000000000000000000000000040000000000000000000000000000800000000000000000000000000000000000000000000002400",
      "type": "0x2",
      "transactionHash": "0x947ea506333e8e976eb6803ee0acf749e2a5b45de300336bb8388ec75d4174ed",
      "transactionIndex": "0x4",
      "blockHash": "0x958df74799b235a4b9ad772a59f1cbe721926bea182b735fb98ff2394eef947e",
      "blockNumber": "0x1eafbbb",
      "gasUsed": "0xbaca",
      "effectiveGasPrice": "0x61e74",
      "from": "0xc4fe13e473e6ad2bb0ba8a365bf581080d92db18",
      "to": "0x000000000022d473030f116ddee9f6b43ac78ba3",
      "contractAddress": null,
      "l1BaseFeeScalar": "0x7d0",
      "l1BlobBaseFee": "0x1",
      "l1BlobBaseFeeScalar": "0xdbba0",
      "l1Fee": "0x82",
      "l1GasPrice": "0x8",
      "l1GasUsed": "0x710"
    },
    {
      "status": "0x1",
      "cumulativeGasUsed": "0x3f5dc",
      "logs": [
        {
          "address": "0x000000000022d473030f116ddee9f6b43ac78ba3",
          "topics": [
            "0xda9fa7c1b00402c17d0161b249b1ab8bbec047c5a52207b9c112deffd817036b",
            "0x000000000000000000000000c4fe13e473e6ad2bb0ba8a365bf581080d92db18",
            "0x000000000000000000000000f4a05ee20aa9fcbb825aefbf0f21237e44d26a73",
            "0x000000000000000000000000f969aee60879c54baaed9f3ed26147db216fd664"
          ],
          "data": "0x000000000000000000000000ffffffffffffffffffffffffffffffffffffffff0000000000000000000000000000000000000000000000000000ffffffffffff",
          "blockHash": "0x958df74799b235a4b9ad772a59f1cbe721926bea182b735fb98ff2394eef947e",
          "blockNumber": "0x1eafbbb",
          "blockTimestamp": "0x68d8a907",
          "transactionHash": "0x4a978fe76780f64e1d2edea6532bcb1a3a06cc3926969a81d16c0780ab255c3a",
          "transactionIndex": "0x5",
          "logIndex": "0x3",
          "removed": false
        }
      ],
      "logsBloom": "0x00010000000000000000000000000000000000000000000000000010000000000000000000000000000000000000000000000000000000000000000000080000000000000000000000000000000001000000000000010000000000001000000040000000000000000000000000000040000000000040000000000000000000000020000000000000000000000000000000000000000000000000000000000000000000000000000000000000000000000000000000000000000000080000000000000000000000000000000000000000000000000000000040000000000000000000000000000800000000000000000000000000000000000000000000002400",
      "type": "0x2",
      "transactionHash": "0x4a978fe76780f64e1d2edea6532bcb1a3a06cc3926969a81d16c0780ab255c3a",
      "transactionIndex": "0x5",
      "blockHash": "0x958df74799b235a4b9ad772a59f1cbe721926bea182b735fb98ff2394eef947e",
      "blockNumber": "0x1eafbbb",
      "gasUsed": "0xbaca",
      "effectiveGasPrice": "0x61e74",
      "from": "0xc4fe13e473e6ad2bb0ba8a365bf581080d92db18",
      "to": "0x000000000022d473030f116ddee9f6b43ac78ba3",
      "contractAddress": null,
      "l1BaseFeeScalar": "0x7d0",
      "l1BlobBaseFee": "0x1",
      "l1BlobBaseFeeScalar": "0xdbba0",
      "l1Fee": "0x82",
      "l1GasPrice": "0x8",
      "l1GasUsed": "0x710"
    },
    {
      "status": "0x1",
      "cumulativeGasUsed": "0xa94c0",
      "logs": [
        {
          "address": "0xf969aee60879c54baaed9f3ed26147db216fd664",
          "topics": [
            "0xddf252ad1be2c89b69c2b068fc378daa952ba7f163c4a11628f55a4df523b3ef",
            "0x0000000000000000000000000000000000000000000000000000000000000000",
            "0x000000000000000000000000c4fe13e473e6ad2bb0ba8a365bf581080d92db18",
            "0x00000000000000000000000000000000000000000000000000000000000015f3"
          ],
          "data": "0x",
          "blockHash": "0x958df74799b235a4b9ad772a59f1cbe721926bea182b735fb98ff2394eef947e",
          "blockNumber": "0x1eafbbb",
          "blockTimestamp": "0x68d8a907",
          "transactionHash": "0xa838ff9ae0c157cfc0bafe97179b746085fd38f0f094db30563e5e63862c1247",
          "transactionIndex": "0x6",
          "logIndex": "0x4",
          "removed": false
        },
        {
          "address": "0x00b036b58a818b1bc34d502d3fe730db729e62ac",
          "topics": [
            "0xf208f4912782fd25c7f114ca3723a2d5dd6f3bcc3ac8db5af63baa85f711d5ec",
            "0x49b0689da25e44647974eeba29988eeba0d82015a497c0d10b4d3a94ab5d7cd3",
            "0x000000000000000000000000f969aee60879c54baaed9f3ed26147db216fd664"
          ],
          "data": "0xfffffffffffffffffffffffffffffffffffffffffffffffffffffffffff2764c00000000000000000000000000000000000000000000000000000000000d89b4000000000000000000000000000000000000000000000002b5e3af16b188000000000000000000000000000000000000000000000000000000000000000015f3",
          "blockHash": "0x958df74799b235a4b9ad772a59f1cbe721926bea182b735fb98ff2394eef947e",
          "blockNumber": "0x1eafbbb",
          "blockTimestamp": "0x68d8a907",
          "transactionHash": "0xa838ff9ae0c157cfc0bafe97179b746085fd38f0f094db30563e5e63862c1247",
          "transactionIndex": "0x6",
          "logIndex": "0x5",
          "removed": false
        },
        {
          "address": "0xcaaf8695cbe8581bca496b9a8f077c3849807ee0",
          "topics": [
            "0xddf252ad1be2c89b69c2b068fc378daa952ba7f163c4a11628f55a4df523b3ef",
            "0x000000000000000000000000c4fe13e473e6ad2bb0ba8a365bf581080d92db18",
            "0x00000000000000000000000000b036b58a818b1bc34d502d3fe730db729e62ac"
          ],
          "data": "0x000000000000000000000000000000000000000000000002b5e3af16b187fffe",
          "blockHash": "0x958df74799b235a4b9ad772a59f1cbe721926bea182b735fb98ff2394eef947e",
          "blockNumber": "0x1eafbbb",
          "blockTimestamp": "0x68d8a907",
          "transactionHash": "0xa838ff9ae0c157cfc0bafe97179b746085fd38f0f094db30563e5e63862c1247",
          "transactionIndex": "0x6",
          "logIndex": "0x6",
          "removed": false
        },
        {
          "address": "0xf4a05ee20aa9fcbb825aefbf0f21237e44d26a73",
          "topics": [
            "0xddf252ad1be2c89b69c2b068fc378daa952ba7f163c4a11628f55a4df523b3ef",
            "0x000000000000000000000000c4fe13e473e6ad2bb0ba8a365bf581080d92db18",
            "0x00000000000000000000000000b036b58a818b1bc34d502d3fe730db729e62ac"
          ],
          "data": "0x000000000000000000000000000000000000000000000002b5e3af16b187fffe",
          "blockHash": "0x958df74799b235a4b9ad772a59f1cbe721926bea182b735fb98ff2394eef947e",
          "blockNumber": "0x1eafbbb",
          "blockTimestamp": "0x68d8a907",
          "transactionHash": "0xa838ff9ae0c157cfc0bafe97179b746085fd38f0f094db30563e5e63862c1247",
          "transactionIndex": "0x6",
          "logIndex": "0x7",
          "removed": false
        }
      ],
      "logsBloom": "0x00000000000000000000000000000000000000000000008000000010000000000000000000000000000000000000000000000000001000080000000000000000000000000000400000000008000000000000000000000000000000001000000040004000020000000000000000004840000000000040000000000010000000000000000001000000000004000008000000000000000000000001000000000000000004001000000000000001000000000800000000000020000000000000000000000002080000000000000000000000000000000000000000010000000020004000000000000800000000000000400004010000000002000000000000002010",
      "type": "0x2",
      "transactionHash": "0xa838ff9ae0c157cfc0bafe97179b746085fd38f0f094db30563e5e63862c1247",
      "transactionIndex": "0x6",
      "blockHash": "0x958df74799b235a4b9ad772a59f1cbe721926bea182b735fb98ff2394eef947e",
      "blockNumber": "0x1eafbbb",
      "gasUsed": "0x69ee4",
      "effectiveGasPrice": "0x61e74",
      "from": "0xc4fe13e473e6ad2bb0ba8a365bf581080d92db18",
      "to": "0xf969aee60879c54baaed9f3ed26147db216fd664",
      "contractAddress": null,
      "l1BaseFeeScalar": "0x7d0",
      "l1BlobBaseFee": "0x1",
      "l1BlobBaseFeeScalar": "0xdbba0",
      "l1Fee": "0x13c",
      "l1GasPrice": "0x8",
      "l1GasUsed": "0x1119"
    }
  ],
  "libraries": [],
  "pending": [],
  "returns": {},
  "timestamp": 1759029510,
  "chain": 1301,
  "commit": "b7c866c"
}