{
  "transactions": [
    {
      "hash": "0xd775b058313f4736f3b2247f3696162787c2fe7cdfd24cfa59dbacf6787d0502",
      "transactionType": "CALL",
      "contractName": null,
      "contractAddress": "0x85ada99695efa267f180ff441fedf8bb353b3e78",
      "function": "configurePool((address,address,uint24,int24,address),bool,uint256,uint256,uint256)",
      "arguments": [
        "(0x39C98B378C6C5ABa20270042A0D289f179A9D8C1, 0x1c0aE06F7FbB0732153e7F0855544cA23DfB60fB, 3000, 60, 0x620417d0E4d2977c07CEBb7ae260B414B7CF13C0)",
        "true",
        "5",
        "8000",
        "500"
      ],
      "transaction": {
        "from": "0xc4fe13e473e6ad2bb0ba8a365bf581080d92db18",
        "to": "0x85ada99695efa267f180ff441fedf8bb353b3e78",
        "gas": "0x28dd4",
        "value": "0x0",
        "input": "0xbe966d2700000000000000000000000039c98b378c6c5aba20270042a0d289f179a9d8c10000000000000000000000001c0ae06f7fbb0732153e7f0855544ca23dfb60fb0000000000000000000000000000000000000000000000000000000000000bb8000000000000000000000000000000000000000000000000000000000000003c000000000000000000000000620417d0e4d2977c07cebb7ae260b414b7cf13c0000000000000000000000000000000000000000000000000000000000000000100000000000000000000000000000000000000000000000000000000000000050000000000000000000000000000000000000000000000000000000000001f4000000000000000000000000000000000000000000000000000000000000001f4",
        "nonce": "0x54",
        "chainId": "0x515"
      },
      "additionalContracts": [],
      "isFixedGasLimit": false
    },
    {
      "hash": "0xc03e5c21c437bfadbec1d5b0f04cbe70069899c0bd838cc9f22b1d55718ecdce",
      "transactionType": "CALL",
      "contractName": null,
      "contractAddress": "0x85ada99695efa267f180ff441fedf8bb353b3e78",
      "function": "configurePool((address,address,uint24,int24,address),bool,uint256,uint256,uint256)",
      "arguments": [
        "(0x0000000000000000000000000000000000000000, 0x39C98B378C6C5ABa20270042A0D289f179A9D8C1, 3000, 60, 0x620417d0E4d2977c07CEBb7ae260B414B7CF13C0)",
        "true",
        "3",
        "7000",
        "300"
      ],
      "transaction": {
        "from": "0xc4fe13e473e6ad2bb0ba8a365bf581080d92db18",
        "to": "0x85ada99695efa267f180ff441fedf8bb353b3e78",
        "gas": "0x28c88",
        "value": "0x0",
        "input": "0xbe966d27000000000000000000000000000000000000000000000000000000000000000000000000000000000000000039c98b378c6c5aba20270042a0d289f179a9d8c10000000000000000000000000000000000000000000000000000000000000bb8000000000000000000000000000000000000000000000000000000000000003c000000000000000000000000620417d0e4d2977c07cebb7ae260b414b7cf13c0000000000000000000000000000000000000000000000000000000000000000100000000000000000000000000000000000000000000000000000000000000030000000000000000000000000000000000000000000000000000000000001b58000000000000000000000000000000000000000000000000000000000000012c",
        "nonce": "0x55",
        "chainId": "0x515"
      },
      "additionalContracts": [],
      "isFixedGasLimit": false
    },
    {
      "hash": "0xacfa3199569de65b6f45e42b640904144e5f786f439f8f41cd969e4a40957aa5",
      "transactionType": "CALL",
      "contractName": null,
      "contractAddress": "0x85ada99695efa267f180ff441fedf8bb353b3e78",
      "function": "setMaxLeverageGlobal(uint256)",
      "arguments": [
        "10"
      ],
      "transaction": {
        "from": "0xc4fe13e473e6ad2bb0ba8a365bf581080d92db18",
        "to": "0x85ada99695efa267f180ff441fedf8bb353b3e78",
        "gas": "0x9b94",
        "value": "0x0",
        "input": "0x554e3e6e000000000000000000000000000000000000000000000000000000000000000a",
        "nonce": "0x56",
        "chainId": "0x515"
      },
      "additionalContracts": [],
      "isFixedGasLimit": false
    }
  ],
  "receipts": [
    {
      "status": "0x1",
      "cumulativeGasUsed": "0x2e2f1",
      "logs": [
        {
          "address": "0x85ada99695efa267f180ff441fedf8bb353b3e78",
          "topics": [
            "0x9204ebb5c2515681b2b6d1e7b9106013e39ad3a034df83f601acff8cf5a84940",
            "0xb4131db3b7ac340c5ea948a883eb7f9d52ec13a75f5350eb6e7f6b2075b3ec6b"
          ],
          "data": "0x00000000000000000000000000000000000000000000000000000000000000010000000000000000000000000000000000000000000000000000000000000005",
          "blockHash": "0xf8f71622f59e71683d81f93032a280a2d10d682dee034bfef13914fc2d46f257",
          "blockNumber": "0x1ea5ab0",
          "blockTimestamp": "0x68d807fc",
          "transactionHash": "0xd775b058313f4736f3b2247f3696162787c2fe7cdfd24cfa59dbacf6787d0502",
          "transactionIndex": "0x2",
          "logIndex": "0x0",
          "removed": false
        }
      ],
      "logsBloom": "0x00000000000000000000000002000000000000000000000000000000000008000000000000000000000000000000000000000000080000000000002000002000000000000000000000000000000000000000000000000000000800000000000000000000000000000000000000000000000000000000000000000000000000000000000000000000000000000000000000000000000000000000000000000000000000000000000000000000000000000000020000000000000000000000000000000000000000000000000000000000000000000000000000000000000000400000000000080000000000000000000000000000000000000000000000000000",
      "type": "0x2",
      "transactionHash": "0xd775b058313f4736f3b2247f3696162787c2fe7cdfd24cfa59dbacf6787d0502",
      "transactionIndex": "0x2",
      "blockHash": "0xf8f71622f59e71683d81f93032a280a2d10d682dee034bfef13914fc2d46f257",
      "blockNumber": "0x1ea5ab0",
      "gasUsed": "0x1d95d",
      "effectiveGasPrice": "0xfe",
      "from": "0xc4fe13e473e6ad2bb0ba8a365bf581080d92db18",
      "to": "0x85ada99695efa267f180ff441fedf8bb353b3e78",
      "contractAddress": null,
      "l1BaseFeeScalar": "0x7d0",
      "l1BlobBaseFee": "0x1",
      "l1BlobBaseFeeScalar": "0xdbba0",
      "l1Fee": "0xc2",
      "l1GasPrice": "0xb",
      "l1GasUsed": "0x9ba"
    },
    {
      "status": "0x1",
      "cumulativeGasUsed": "0x4bb5e",
      "logs": [
        {
          "address": "0x85ada99695efa267f180ff441fedf8bb353b3e78",
          "topics": [
            "0x9204ebb5c2515681b2b6d1e7b9106013e39ad3a034df83f601acff8cf5a84940",
            "0x4b724f43411ba65b43bb16b64b84843d3480a196c8211155f879909bb50fb065"
          ],
          "data": "0x00000000000000000000000000000000000000000000000000000000000000010000000000000000000000000000000000000000000000000000000000000003",
          "blockHash": "0xf8f71622f59e71683d81f93032a280a2d10d682dee034bfef13914fc2d46f257",
          "blockNumber": "0x1ea5ab0",
          "blockTimestamp": "0x68d807fc",
          "transactionHash": "0xc03e5c21c437bfadbec1d5b0f04cbe70069899c0bd838cc9f22b1d55718ecdce",
          "transactionIndex": "0x3",
          "logIndex": "0x1",
          "removed": false
        }
      ],
      "logsBloom": "0x00000000000000000000000000000000000000000000000000000000000008000000000000000000000000000000000000000200080000000000000000002000000200000000000000000000000000000000000000000000000800000000000000000000000000000000000000000000000000000000000000000000000000000000000000000000000000000000000000000000000000000000000000000000000000000000000000000000000000000000020000000000000000000000000000000000000000000000000000000000000000000000000000000000000000400000001000000000000000000000000000000000000000000000000000000000",
      "type": "0x2",
      "transactionHash": "0xc03e5c21c437bfadbec1d5b0f04cbe70069899c0bd838cc9f22b1d55718ecdce",
      "transactionIndex": "0x3",
      "blockHash": "0xf8f71622f59e71683d81f93032a280a2d10d682dee034bfef13914fc2d46f257",
      "blockNumber": "0x1ea5ab0",
      "gasUsed": "0x1d86d",
      "effectiveGasPrice": "0xfe",
      "from": "0xc4fe13e473e6ad2bb0ba8a365bf581080d92db18",
      "to": "0x85ada99695efa267f180ff441fedf8bb353b3e78",
      "contractAddress": null,
      "l1BaseFeeScalar": "0x7d0",
      "l1BlobBaseFee": "0x1",
      "l1BlobBaseFeeScalar": "0xdbba0",
      "l1Fee": "0xaa",
      "l1GasPrice": "0xb",
      "l1GasUsed": "0x886"
    },
    {
      "status": "0x1",
      "cumulativeGasUsed": "0x525bf",
      "logs": [],
      "logsBloom": "0x00000000000000000000000000000000000000000000000000000000000000000000000000000000000000000000000000000000000000000000000000000000000000000000000000000000000000000000000000000000000000000000000000000000000000000000000000000000000000000000000000000000000000000000000000000000000000000000000000000000000000000000000000000000000000000000000000000000000000000000000000000000000000000000000000000000000000000000000000000000000000000000000000000000000000000000000000000000000000000000000000000000000000000000000000000000",
      "type": "0x2",
      "transactionHash": "0xacfa3199569de65b6f45e42b640904144e5f786f439f8f41cd969e4a40957aa5",
      "transactionIndex": "0x4",
      "blockHash": "0xf8f71622f59e71683d81f93032a280a2d10d682dee034bfef13914fc2d46f257",
      "blockNumber": "0x1ea5ab0",
      "gasUsed": "0x6a61",
      "effectiveGasPrice": "0xfe",
      "from": "0xc4fe13e473e6ad2bb0ba8a365bf581080d92db18",
      "to": "0x85ada99695efa267f180ff441fedf8bb353b3e78",
      "contractAddress": null,
      "l1BaseFeeScalar": "0x7d0",
      "l1BlobBaseFee": "0x1",
      "l1BlobBaseFeeScalar": "0xdbba0",
      "l1Fee": "0x7d",
      "l1GasPrice": "0xb",
      "l1GasUsed": "0x640"
    }
  ],
  "libraries": [],
  "pending": [],
  "returns": {},
  "timestamp": 1758988284,
  "chain": 1301,
  "commit": "7605bd8"
}