{
  "transactions": [
    {
      "hash": "0x247887fbb4abcc741f04b5b5611ea3a286c0ca75539a15b87bf2d11e8774758d",
      "transactionType": "CALL",
      "contractName": null,
      "contractAddress": "0xdd55a04adfd14122c92c0d92d37137fd414e9d1a",
      "function": "configurePool((address,address,uint24,int24,address),bool,uint256,uint256,uint256)",
      "arguments": [
        "(0x5c4B14CB096229226D6D464Cba948F780c02fbb7, 0x70bF7e3c25B46331239fD7427A8DD6E45B03CB4c, 3000, 60, 0x8fa16CaB5C983aaf4f721D301bd643aF121053c0)",
        "true",
        "5",
        "8000",
        "500"
      ],
      "transaction": {
        "from": "0xc4fe13e473e6ad2bb0ba8a365bf581080d92db18",
        "to": "0xdd55a04adfd14122c92c0d92d37137fd414e9d1a",
        "gas": "0x28da8",
        "value": "0x0",
        "input": "0xbe966d270000000000000000000000005c4b14cb096229226d6d464cba948f780c02fbb700000000000000000000000070bf7e3c25b46331239fd7427a8dd6e45b03cb4c0000000000000000000000000000000000000000000000000000000000000bb8000000000000000000000000000000000000000000000000000000000000003c0000000000000000000000008fa16cab5c983aaf4f721d301bd643af121053c0000000000000000000000000000000000000000000000000000000000000000100000000000000000000000000000000000000000000000000000000000000050000000000000000000000000000000000000000000000000000000000001f4000000000000000000000000000000000000000000000000000000000000001f4",
        "nonce": "0x36",
        "chainId": "0x515"
      },
      "additionalContracts": [],
      "isFixedGasLimit": false
    },
    {
      "hash": "0x62a0e015324b1d7f6e2357110886591a57057cf134ccc883002fadc61856bfe1",
      "transactionType": "CALL",
      "contractName": null,
      "contractAddress": "0xdd55a04adfd14122c92c0d92d37137fd414e9d1a",
      "function": "configurePool((address,address,uint24,int24,address),bool,uint256,uint256,uint256)",
      "arguments": [
        "(0x0000000000000000000000000000000000000000, 0x5c4B14CB096229226D6D464Cba948F780c02fbb7, 3000, 60, 0x8fa16CaB5C983aaf4f721D301bd643aF121053c0)",
        "true",
        "3",
        "7000",
        "300"
      ],
      "transaction": {
        "from": "0xc4fe13e473e6ad2bb0ba8a365bf581080d92db18",
        "to": "0xdd55a04adfd14122c92c0d92d37137fd414e9d1a",
        "gas": "0x28c5c",
        "value": "0x0",
        "input": "0xbe966d2700000000000000000000000000000000000000000000000000000000000000000000000000000000000000005c4b14cb096229226d6d464cba948f780c02fbb70000000000000000000000000000000000000000000000000000000000000bb8000000000000000000000000000000000000000000000000000000000000003c0000000000000000000000008fa16cab5c983aaf4f721d301bd643af121053c0000000000000000000000000000000000000000000000000000000000000000100000000000000000000000000000000000000000000000000000000000000030000000000000000000000000000000000000000000000000000000000001b58000000000000000000000000000000000000000000000000000000000000012c",
        "nonce": "0x37",
        "chainId": "0x515"
      },
      "additionalContracts": [],
      "isFixedGasLimit": false
    },
    {
      "hash": "0x77059940ab794377bbd522ccf2a5c46cd12c388f7517469dee631f343662f536",
      "transactionType": "CALL",
      "contractName": null,
      "contractAddress": "0xdd55a04adfd14122c92c0d92d37137fd414e9d1a",
      "function": "setMaxLeverageGlobal(uint256)",
      "arguments": [
        "10"
      ],
      "transaction": {
        "from": "0xc4fe13e473e6ad2bb0ba8a365bf581080d92db18",
        "to": "0xdd55a04adfd14122c92c0d92d37137fd414e9d1a",
        "gas": "0x9b73",
        "value": "0x0",
        "input": "0x554e3e6e000000000000000000000000000000000000000000000000000000000000000a",
        "nonce": "0x38",
        "chainId": "0x515"
      },
      "additionalContracts": [],
      "isFixedGasLimit": false
    }
  ],
  "receipts": [
    {
      "status": "0x1",
      "cumulativeGasUsed": "0x2e2b9",
      "logs": [
        {
          "address": "0xdd55a04adfd14122c92c0d92d37137fd414e9d1a",
          "topics": [
            "0x9204ebb5c2515681b2b6d1e7b9106013e39ad3a034df83f601acff8cf5a84940",
            "0x1d659c7fd36203f16ecceb083bc3194e08632c724ca793bd8f1ce4c3eaeaa31d"
          ],
          "data": "0x00000000000000000000000000000000000000000000000000000000000000010000000000000000000000000000000000000000000000000000000000000005",
          "blockHash": "0xbd6a28a966a626e2ea417c2f87586fb1cd5aabb95b4b617dd78808be2e2c5e73",
          "blockNumber": "0x1ea1ab1",
          "blockTimestamp": "0x68d7c7fd",
          "transactionHash": "0x247887fbb4abcc741f04b5b5611ea3a286c0ca75539a15b87bf2d11e8774758d",
          "transactionIndex": "0x2",
          "logIndex": "0x0",
          "removed": false
        }
      ],
      "logsBloom": "0x00000000000000000000000000000000000000000000000000000000000002000000000000000000000000000000000000000000000000000000000000000000000000000000000000000000000000000000000000000000000800000000000000000000000000040000000000000000000000000000000000000000000000000000000000000000000000000000001000000000000000000000000000000000000008000000000000000000000000000000020000000000000000000000000000000000000000000000000000000000000000000000000000000000000000400000000000000000000200000000000000000000020000000000000000000000",
      "type": "0x2",
      "transactionHash": "0x247887fbb4abcc741f04b5b5611ea3a286c0ca75539a15b87bf2d11e8774758d",
      "transactionIndex": "0x2",
      "blockHash": "0xbd6a28a966a626e2ea417c2f87586fb1cd5aabb95b4b617dd78808be2e2c5e73",
      "blockNumber": "0x1ea1ab1",
      "gasUsed": "0x1d93d",
      "effectiveGasPrice": "0xfe",
      "from": "0xc4fe13e473e6ad2bb0ba8a365bf581080d92db18",
      "to": "0xdd55a04adfd14122c92c0d92d37137fd414e9d1a",
      "contractAddress": null,
      "l1BaseFeeScalar": "0x7d0",
      "l1BlobBaseFee": "0x2",
      "l1BlobBaseFeeScalar": "0xdbba0",
      "l1Fee": "0x14a",
      "l1GasPrice": "0xa",
      "l1GasUsed": "0x9ba"
    },
    {
      "status": "0x1",
      "cumulativeGasUsed": "0x4bb06",
      "logs": [
        {
          "address": "0xdd55a04adfd14122c92c0d92d37137fd414e9d1a",
          "topics": [
            "0x9204ebb5c2515681b2b6d1e7b9106013e39ad3a034df83f601acff8cf5a84940",
            "0xb60267d978be38f443e0abbf45ad5450bef2df0b3c0f63ba84d32f2439e47e2e"
          ],
          "data": "0x00000000000000000000000000000000000000000000000000000000000000010000000000000000000000000000000000000000000000000000000000000003",
          "blockHash": "0xbd6a28a966a626e2ea417c2f87586fb1cd5aabb95b4b617dd78808be2e2c5e73",
          "blockNumber": "0x1ea1ab1",
          "blockTimestamp": "0x68d7c7fd",
          "transactionHash": "0x62a0e015324b1d7f6e2357110886591a57057cf134ccc883002fadc61856bfe1",
          "transactionIndex": "0x3",
          "logIndex": "0x1",
          "removed": false
        }
      ],
      "logsBloom": "0x00000000000000000000000000000000000000000000000000000000000002000000000000000000000000000000000000000000000000000000000000000000000000000000000000000000000000000000000000000000000800000000000000000000000000040000000000000000000000080000000000000000000000000000000000000000000000000000000000000000000000000000000000000000000000000000000000000000000000000000020000000000000000000000000000000000000000000000000000000100000000000000000000000000000200400000000000000000000000000000000000000000020000000000000000000000",
      "type": "0x2",
      "transactionHash": "0x62a0e015324b1d7f6e2357110886591a57057cf134ccc883002fadc61856bfe1",
      "transactionIndex": "0x3",
      "blockHash": "0xbd6a28a966a626e2ea417c2f87586fb1cd5aabb95b4b617dd78808be2e2c5e73",
      "blockNumber": "0x1ea1ab1",
      "gasUsed": "0x1d84d",
      "effectiveGasPrice": "0xfe",
      "from": "0xc4fe13e473e6ad2bb0ba8a365bf581080d92db18",
      "to": "0xdd55a04adfd14122c92c0d92d37137fd414e9d1a",
      "contractAddress": null,
      "l1BaseFeeScalar": "0x7d0",
      "l1BlobBaseFee": "0x2",
      "l1BlobBaseFeeScalar": "0xdbba0",
      "l1Fee": "0x121",
      "l1GasPrice": "0xa",
      "l1GasUsed": "0x886"
    },
    {
      "status": "0x1",
      "cumulativeGasUsed": "0x52551",
      "logs": [],
      "logsBloom": "0x00000000000000000000000000000000000000000000000000000000000000000000000000000000000000000000000000000000000000000000000000000000000000000000000000000000000000000000000000000000000000000000000000000000000000000000000000000000000000000000000000000000000000000000000000000000000000000000000000000000000000000000000000000000000000000000000000000000000000000000000000000000000000000000000000000000000000000000000000000000000000000000000000000000000000000000000000000000000000000000000000000000000000000000000000000000",
      "type": "0x2",
      "transactionHash": "0x77059940ab794377bbd522ccf2a5c46cd12c388f7517469dee631f343662f536",
      "transactionIndex": "0x4",
      "blockHash": "0xbd6a28a966a626e2ea417c2f87586fb1cd5aabb95b4b617dd78808be2e2c5e73",
      "blockNumber": "0x1ea1ab1",
      "gasUsed": "0x6a4b",
      "effectiveGasPrice": "0xfe",
      "from": "0xc4fe13e473e6ad2bb0ba8a365bf581080d92db18",
      "to": "0xdd55a04adfd14122c92c0d92d37137fd414e9d1a",
      "contractAddress": null,
      "l1BaseFeeScalar": "0x7d0",
      "l1BlobBaseFee": "0x2",
      "l1BlobBaseFeeScalar": "0xdbba0",
      "l1Fee": "0xd4",
      "l1GasPrice": "0xa",
      "l1GasUsed": "0x640"
    }
  ],
  "libraries": [],
  "pending": [],
  "returns": {},
  "timestamp": 1758971900,
  "chain": 1301,
  "commit": "842dfcc"
}