{
  "transactions": [
    {
      "hash": "0xb443ee99328d0dda0e8960b3a3ad8ad8ed1b436a3608957073c604c8e974eafc",
      "transactionType": "CALL",
      "contractName": null,
      "contractAddress": "0x00b036b58a818b1bc34d502d3fe730db729e62ac",
      "function": "initialize((address,address,uint24,int24,address),uint160)",
      "arguments": [
        "(0x4aFd548ccb8F5E9dF4c05FAA437ADd0C6E315196, 0xE7f015876dB6cDBE250a14a90a3f42C391fBB918, 3000, 60, 0x8dB0Bdb0B4bb528059d72e51E76e335cCB0843c0)",
        "79228162514264337593543950336"
      ],
      "transaction": {
        "from": "0xc4fe13e473e6ad2bb0ba8a365bf581080d92db18",
        "to": "0x00b036b58a818b1bc34d502d3fe730db729e62ac",
        "gas": "0x12762",
        "value": "0x0",
        "input": "0x6276cbbe0000000000000000000000004afd548ccb8f5e9df4c05faa437add0c6e315196000000000000000000000000e7f015876db6cdbe250a14a90a3f42c391fbb9180000000000000000000000000000000000000000000000000000000000000bb8000000000000000000000000000000000000000000000000000000000000003c0000000000000000000000008db0bdb0b4bb528059d72e51e76e335ccb0843c00000000000000000000000000000000000000001000000000000000000000000",
        "nonce": "0x23c",
        "chainId": "0x515"
      },
      "additionalContracts": [],
      "isFixedGasLimit": false
    }
  ],
  "receipts": [
    {
      "status": "0x1",
      "cumulativeGasUsed": "0x2e272",
      "logs": [
        {
          "address": "0x00b036b58a818b1bc34d502d3fe730db729e62ac",
          "topics": [
            "0xdd466e674ea557f56295e2d0218a125ea4b4f0f6f3307b95f85e6110838d6438",
            "0xbcfa5b0cec71e49536b951058491392db7c19ba00d88dabaf08b881ed617e7f8",
            "0x0000000000000000000000004afd548ccb8f5e9df4c05faa437add0c6e315196",
            "0x000000000000000000000000e7f015876db6cdbe250a14a90a3f42c391fbb918"
          ],
          "data": "0x0000000000000000000000000000000000000000000000000000000000000bb8000000000000000000000000000000000000000000000000000000000000003c0000000000000000000000008db0bdb0b4bb528059d72e51e76e335ccb0843c000000000000000000000000000000000000000010000000000000000000000000000000000000000000000000000000000000000000000000000000000000000",
          "blockHash": "0xe8e598e4a882ce6106e012421ed0a6718e1f53a5617effc3fa25edc8aca95580",
          "blockNumber": "0x1eb2956",
          "blockTimestamp": "0x68d8d6a2",
          "transactionHash": "0xb443ee99328d0dda0e8960b3a3ad8ad8ed1b436a3608957073c604c8e974eafc",
          "transactionIndex": "0x3",
          "logIndex": "0x1",
          "removed": false
        }
      ],
      "logsBloom": "0x00000000000000000000000000000000000000000000000400000000000000000000000000000000000000000000000000000000000000010000000000000000000000000000000000000000000000000000000000000000000000000000000000000000000000000000000000000000000000000000000000000000000800004004000000000008000000000008000000000001000000000000000000200000000000000000000000000000000000000000000000000000000000000000200000000000000000000000000000000000000000000000000000000000440000000000000000000000000000000000000000004000000002000000000000000010",
      "type": "0x2",
      "transactionHash": "0xb443ee99328d0dda0e8960b3a3ad8ad8ed1b436a3608957073c604c8e974eafc",
      "transactionIndex": "0x3",
      "blockHash": "0xe8e598e4a882ce6106e012421ed0a6718e1f53a5617effc3fa25edc8aca95580",
      "blockNumber": "0x1eb2956",
      "gasUsed": "0xc9f9",
      "effectiveGasPrice": "0xfe",
      "from": "0xc4fe13e473e6ad2bb0ba8a365bf581080d92db18",
      "to": "0x00b036b58a818b1bc34d502d3fe730db729e62ac",
      "contractAddress": null,
      "l1BaseFeeScalar": "0x7d0",
      "l1BlobBaseFee": "0x1",
      "l1BlobBaseFeeScalar": "0xdbba0",
      "l1Fee": "0xa3",
      "l1GasPrice": "0x8",
      "l1GasUsed": "0x8d7"
    }
  ],
  "libraries": [],
  "pending": [],
  "returns": {},
  "timestamp": 1759041188,
  "chain": 1301,
  "commit": "caffa2d"
}