{
  "transactions": [
    {
      "hash": "0x902ada0d60f3eadc448e138e6a4e9ab2075b3467e7ad4bf0e1c37f5d40625236",
      "transactionType": "CALL",
      "contractName": null,
      "contractAddress": "0x00b036b58a818b1bc34d502d3fe730db729e62ac",
      "function": "initialize((address,address,uint24,int24,address),uint160)",
      "arguments": [
        "(0x29578E9e7979ea991847c152022B7caa8F9dcBeb, 0xDC495E78B6b9cAf67E732AaB83490D80B1bEFc83, 3000, 60, 0x736c1C1553C251B005b76707dAEF15c5dF5B03C0)",
        "79228162514264337593543950336"
      ],
      "transaction": {
        "from": "0xc4fe13e473e6ad2bb0ba8a365bf581080d92db18",
        "to": "0x00b036b58a818b1bc34d502d3fe730db729e62ac",
        "gas": "0x12762",
        "value": "0x0",
        "input": "0x6276cbbe00000000000000000000000029578e9e7979ea991847c152022b7caa8f9dcbeb000000000000000000000000dc495e78b6b9caf67e732aab83490d80b1befc830000000000000000000000000000000000000000000000000000000000000bb8000000000000000000000000000000000000000000000000000000000000003c000000000000000000000000736c1c1553c251b005b76707daef15c5df5b03c00000000000000000000000000000000000000001000000000000000000000000",
        "nonce": "0x15d",
        "chainId": "0x515"
      },
      "additionalContracts": [],
      "isFixedGasLimit": false
    }
  ],
  "receipts": [
    {
      "status": "0x1",
      "cumulativeGasUsed": "0x1d38d",
      "logs": [
        {
          "address": "0x00b036b58a818b1bc34d502d3fe730db729e62ac",
          "topics": [
            "0xdd466e674ea557f56295e2d0218a125ea4b4f0f6f3307b95f85e6110838d6438",
            "0xcfe7201cfc67da41f97ed9710d0b35f8d969270c5fe3b9f0a20e841242633579",
            "0x00000000000000000000000029578e9e7979ea991847c152022b7caa8f9dcbeb",
            "0x000000000000000000000000dc495e78b6b9caf67e732aab83490d80b1befc83"
          ],
          "data": "0x0000000000000000000000000000000000000000000000000000000000000bb8000000000000000000000000000000000000000000000000000000000000003c000000000000000000000000736c1c1553c251b005b76707daef15c5df5b03c000000000000000000000000000000000000000010000000000000000000000000000000000000000000000000000000000000000000000000000000000000000",
          "blockHash": "0xb21dc90307cbe5185733a4f1b095db66245fb11c3bfd51031d41bb9076bd6138",
          "blockNumber": "0x1eae36b",
          "blockTimestamp": "0x68d890b7",
          "transactionHash": "0x902ada0d60f3eadc448e138e6a4e9ab2075b3467e7ad4bf0e1c37f5d40625236",
          "transactionIndex": "0x2",
          "logIndex": "0x0",
          "removed": false
        }
      ],
      "logsBloom": "0x00000000000000000000000000000000000000001000000000000000000000000000000000000000000000000000000000100000000000040000000000000000000000000000000000000000000008000000080000000000000000100000000000000000000004000000000000000000000000000000000000000000000000000000000000000008000000000008000000000001000000000000000000200000000000000000000000000000000000000000000000000000000000000000000000000000000000000000000000000000000000000000000400000000000000000000000000000000000000000000000000000000000002000000000000000810",
      "type": "0x2",
      "transactionHash": "0x902ada0d60f3eadc448e138e6a4e9ab2075b3467e7ad4bf0e1c37f5d40625236",
      "transactionIndex": "0x2",
      "blockHash": "0xb21dc90307cbe5185733a4f1b095db66245fb11c3bfd51031d41bb9076bd6138",
      "blockNumber": "0x1eae36b",
      "gasUsed": "0xc9f9",
      "effectiveGasPrice": "0xf433d",
      "from": "0xc4fe13e473e6ad2bb0ba8a365bf581080d92db18",
      "to": "0x00b036b58a818b1bc34d502d3fe730db729e62ac",
      "contractAddress": null,
      "l1BaseFeeScalar": "0x7d0",
      "l1BlobBaseFee": "0x1",
      "l1BlobBaseFeeScalar": "0xdbba0",
      "l1Fee": "0xb0",
      "l1GasPrice": "0xa",
      "l1GasUsed": "0x90c"
    }
  ],
  "libraries": [],
  "pending": [],
  "returns": {},
  "timestamp": 1759023287,
  "chain": 1301,
  "commit": "b7c866c"
}