{
  "transactions": [
    {
      "hash": "0x0527d527e4d3de8aaa3494851ee9bf690c8174dd72ff1faade6c0e2067473d44",
      "transactionType": "CALL",
      "contractName": null,
      "contractAddress": "0x00b036b58a818b1bc34d502d3fe730db729e62ac",
      "function": "initialize((address,address,uint24,int24,address),uint160)",
      "arguments": [
        "(0x96beA0E29D5a261464E8e7260c1F833aAe39dbaF, 0xdf955Cb2F354a0650b2bc8c3460B9eC65d61C714, 3000, 60, 0x7F27B06177c996A923b04428e07C5640f31B43C0)",
        "79228162514264337593543950336"
      ],
      "transaction": {
        "from": "0xc4fe13e473e6ad2bb0ba8a365bf581080d92db18",
        "to": "0x00b036b58a818b1bc34d502d3fe730db729e62ac",
        "gas": "0x12762",
        "value": "0x0",
        "input": "0x6276cbbe00000000000000000000000096bea0e29d5a261464e8e7260c1f833aae39dbaf000000000000000000000000df955cb2f354a0650b2bc8c3460b9ec65d61c7140000000000000000000000000000000000000000000000000000000000000bb8000000000000000000000000000000000000000000000000000000000000003c0000000000000000000000007f27b06177c996a923b04428e07c5640f31b43c00000000000000000000000000000000000000001000000000000000000000000",
        "nonce": "0xdb",
        "chainId": "0x515"
      },
      "additionalContracts": [],
      "isFixedGasLimit": false
    }
  ],
  "receipts": [
    {
      "status": "0x1",
      "cumulativeGasUsed": "0x1d38d",
      "logs": [
        {
          "address": "0x00b036b58a818b1bc34d502d3fe730db729e62ac",
          "topics": [
            "0xdd466e674ea557f56295e2d0218a125ea4b4f0f6f3307b95f85e6110838d6438",
            "0x26e67c7f68026e8cc3add1f258dbec0c2fe48039d2594ebdd9c7a2cbcb4b3245",
            "0x00000000000000000000000096bea0e29d5a261464e8e7260c1f833aae39dbaf",
            "0x000000000000000000000000df955cb2f354a0650b2bc8c3460b9ec65d61c714"
          ],
          "data": "0x0000000000000000000000000000000000000000000000000000000000000bb8000000000000000000000000000000000000000000000000000000000000003c0000000000000000000000007f27b06177c996a923b04428e07c5640f31b43c000000000000000000000000000000000000000010000000000000000000000000000000000000000000000000000000000000000000000000000000000000000",
          "blockHash": "0xd2e05fb2a53b2d7e301143ebe77a4e1e77f6d52a756b2ee12222bfc4f014c8c2",
          "blockNumber": "0x1eaa027",
          "blockTimestamp": "0x68d84d73",
          "transactionHash": "0x0527d527e4d3de8aaa3494851ee9bf690c8174dd72ff1faade6c0e2067473d44",
          "transactionIndex": "0x2",
          "logIndex": "0x0",
          "removed": false
        }
      ],
      "logsBloom": "0x00800000040000000000000000000000000000000000000000000000000000000000000000000000000000000000000000000000000000000000100000020000000000000000000000000000000000000000000000000000000000000000000000000000000002000000000000000000000000000000000000000000000000000001000000000008000002000008000000000001000000000020000000200000000000000000000000000000001000000000000000000000000000000000000000000000000000000000000000000000000000000000000000000000000000000000000000000000000000000000000000000000000002000000000000000010",
      "type": "0x2",
      "transactionHash": "0x0527d527e4d3de8aaa3494851ee9bf690c8174dd72ff1faade6c0e2067473d44",
      "transactionIndex": "0x2",
      "blockHash": "0xd2e05fb2a53b2d7e301143ebe77a4e1e77f6d52a756b2ee12222bfc4f014c8c2",
      "blockNumber": "0x1eaa027",
      "gasUsed": "0xc9f9",
      "effectiveGasPrice": "0x1879d",
      "from": "0xc4fe13e473e6ad2bb0ba8a365bf581080d92db18",
      "to": "0x00b036b58a818b1bc34d502d3fe730db729e62ac",
      "contractAddress": null,
      "l1BaseFeeScalar": "0x7d0",
      "l1BlobBaseFee": "0x1",
      "l1BlobBaseFeeScalar": "0xdbba0",
      "l1Fee": "0xaf",
      "l1GasPrice": "0xa",
      "l1GasUsed": "0x8ff"
    }
  ],
  "libraries": [],
  "pending": [],
  "returns": {},
  "timestamp": 1759006067,
  "chain": 1301,
  "commit": "c6ee337"
}