{
  "transactions": [
    {
      "hash": "0x21f8852b240ba4e0c24006f462be795d9d4ba5fb2f830525e6208f89cfd4b603",
      "transactionType": "CALL",
      "contractName": null,
      "contractAddress": "0x00b036b58a818b1bc34d502d3fe730db729e62ac",
      "function": "initialize((address,address,uint24,int24,address),uint160)",
      "arguments": [
        "(0x5F8CfACDA1f8A81f50200B80C2D63F61bC64630E, 0x7402b4542619128199383E64f0598028Ea9D50B7, 3000, 60, 0x6De61420d77d47Bd038C90fEF421458e5DFEC3c0)",
        "79228162514264337593543950336"
      ],
      "transaction": {
        "from": "0xc4fe13e473e6ad2bb0ba8a365bf581080d92db18",
        "to": "0x00b036b58a818b1bc34d502d3fe730db729e62ac",
        "gas": "0x12762",
        "value": "0x0",
        "input": "0x6276cbbe0000000000000000000000005f8cfacda1f8a81f50200b80c2d63f61bc64630e0000000000000000000000007402b4542619128199383e64f0598028ea9d50b70000000000000000000000000000000000000000000000000000000000000bb8000000000000000000000000000000000000000000000000000000000000003c0000000000000000000000006de61420d77d47bd038c90fef421458e5dfec3c00000000000000000000000000000000000000001000000000000000000000000",
        "nonce": "0x1b2",
        "chainId": "0x515"
      },
      "additionalContracts": [],
      "isFixedGasLimit": false
    }
  ],
  "receipts": [
    {
      "status": "0x1",
      "cumulativeGasUsed": "0x1d38d",
      "logs": [
        {
          "address": "0x00b036b58a818b1bc34d502d3fe730db729e62ac",
          "topics": [
            "0xdd466e674ea557f56295e2d0218a125ea4b4f0f6f3307b95f85e6110838d6438",
            "0x39b321a3b2eab089a9e8ce80ebf958ff565d521b2c51d638dc0d5636cb7168ce",
            "0x0000000000000000000000005f8cfacda1f8a81f50200b80c2d63f61bc64630e",
            "0x0000000000000000000000007402b4542619128199383e64f0598028ea9d50b7"
          ],
          "data": "0x0000000000000000000000000000000000000000000000000000000000000bb8000000000000000000000000000000000000000000000000000000000000003c0000000000000000000000006de61420d77d47bd038c90fef421458e5dfec3c000000000000000000000000000000000000000010000000000000000000000000000000000000000000000000000000000000000000000000000000000000000",
          "blockHash": "0x4f06d4025c6c2142fe263a50534b6d1b7a6cdd7d9acabd3c8e2c1231009189dc",
          "blockNumber": "0x1eaf34a",
          "blockTimestamp": "0x68d8a096",
          "transactionHash": "0x21f8852b240ba4e0c24006f462be795d9d4ba5fb2f830525e6208f89cfd4b603",
          "transactionIndex": "0x2",
          "logIndex": "0x0",
          "removed": false
        }
      ],
      "logsBloom": "0x00000000000000000040000000200000000000004000000000000000000010000000000000000000000000000000000004000000000000000000000000000000000001000000000000000000000000000000000000000000000000000000000000000000000000000000000000000000000000000000000000000000000000000000000000000008000000000008000000000001000000000000000000200000000000000000000400000001000000000000000000000000000000000000000000000000000000000000000000000000000000000000000000000000000000000000000000000000000000000000400000000000000002000000000000000010",
      "type": "0x2",
      "transactionHash": "0x21f8852b240ba4e0c24006f462be795d9d4ba5fb2f830525e6208f89cfd4b603",
      "transactionIndex": "0x2",
      "blockHash": "0x4f06d4025c6c2142fe263a50534b6d1b7a6cdd7d9acabd3c8e2c1231009189dc",
      "blockNumber": "0x1eaf34a",
      "gasUsed": "0xc9f9",
      "effectiveGasPrice": "0x16e4db",
      "from": "0xc4fe13e473e6ad2bb0ba8a365bf581080d92db18",
      "to": "0x00b036b58a818b1bc34d502d3fe730db729e62ac",
      "contractAddress": null,
      "l1BaseFeeScalar": "0x7d0",
      "l1BlobBaseFee": "0x1",
      "l1BlobBaseFeeScalar": "0xdbba0",
      "l1Fee": "0xb0",
      "l1GasPrice": "0xa",
      "l1GasUsed": "0x90c"
    }
  ],
  "libraries": [],
  "pending": [],
  "returns": {},
  "timestamp": 1759027349,
  "chain": 1301,
  "commit": "b7c866c"
}