{
  "transactions": [
    {
      "hash": "0xc0473e4d398e7c1fed89e1aeefb6dc8d982397c51e936a1857bf8aee88bc262c",
      "transactionType": "CALL",
      "contractName": null,
      "contractAddress": "0x00b036b58a818b1bc34d502d3fe730db729e62ac",
      "function": "initialize((address,address,uint24,int24,address),uint160)",
      "arguments": [
        "(0x96beA0E29D5a261464E8e7260c1F833aAe39dbaF, 0xdf955Cb2F354a0650b2bc8c3460B9eC65d61C714, 3000, 60, 0x9AC51A7cFC8994B04ae3CCa474f8095B24b3c3c0)",
        "79228162514264337593543950336"
      ],
      "transaction": {
        "from": "0xc4fe13e473e6ad2bb0ba8a365bf581080d92db18",
        "to": "0x00b036b58a818b1bc34d502d3fe730db729e62ac",
        "gas": "0x12762",
        "value": "0x0",
        "input": "0x6276cbbe00000000000000000000000096bea0e29d5a261464e8e7260c1f833aae39dbaf000000000000000000000000df955cb2f354a0650b2bc8c3460b9ec65d61c7140000000000000000000000000000000000000000000000000000000000000bb8000000000000000000000000000000000000000000000000000000000000003c0000000000000000000000009ac51a7cfc8994b04ae3cca474f8095b24b3c3c00000000000000000000000000000000000000001000000000000000000000000",
        "nonce": "0x12b",
        "chainId": "0x515"
      },
      "additionalContracts": [],
      "isFixedGasLimit": false
    }
  ],
  "receipts": [
    {
      "status": "0x1",
      "cumulativeGasUsed": "0x1d381",
      "logs": [
        {
          "address": "0x00b036b58a818b1bc34d502d3fe730db729e62ac",
          "topics": [
            "0xdd466e674ea557f56295e2d0218a125ea4b4f0f6f3307b95f85e6110838d6438",
            "0xe059558a465f444c8252fd9fb160c0d71d6f391c4c7739acfae31e8fb39cb40a",
            "0x00000000000000000000000096bea0e29d5a261464e8e7260c1f833aae39dbaf",
            "0x000000000000000000000000df955cb2f354a0650b2bc8c3460b9ec65d61c714"
          ],
          "data": "0x0000000000000000000000000000000000000000000000000000000000000bb8000000000000000000000000000000000000000000000000000000000000003c0000000000000000000000009ac51a7cfc8994b04ae3cca474f8095b24b3c3c000000000000000000000000000000000000000010000000000000000000000000000000000000000000000000000000000000000000000000000000000000000",
          "blockHash": "0x03d97eca45b602ffbef672072648dc205a93d96ef49a1264a00f5205fdd92558",
          "blockNumber": "0x1eacdef",
          "blockTimestamp": "0x68d87b3b",
          "transactionHash": "0xc0473e4d398e7c1fed89e1aeefb6dc8d982397c51e936a1857bf8aee88bc262c",
          "transactionIndex": "0x2",
          "logIndex": "0x0",
          "removed": false
        }
      ],
      "logsBloom": "0x00800000000000080000000000000000000000000000000000000000000000000000000000000000000000000000000000100000000000000000000000020000000000000000000000000000000000000000000000000000000000000000000000000000000002000000000000000000000000000000000000000000000000000001000000000008000000000008000000000001000000000020000000200000000000000000000000000000001000000000000000000000000000000000000000000000000000000000000000000000000001000000000000000000000000000000000000000000000000000000000000000000000002000000000000000010",
      "type": "0x2",
      "transactionHash": "0xc0473e4d398e7c1fed89e1aeefb6dc8d982397c51e936a1857bf8aee88bc262c",
      "transactionIndex": "0x2",
      "blockHash": "0x03d97eca45b602ffbef672072648dc205a93d96ef49a1264a00f5205fdd92558",
      "blockNumber": "0x1eacdef",
      "gasUsed": "0xc9f9",
      "effectiveGasPrice": "0xf433d",
      "from": "0xc4fe13e473e6ad2bb0ba8a365bf581080d92db18",
      "to": "0x00b036b58a818b1bc34d502d3fe730db729e62ac",
      "contractAddress": null,
      "l1BaseFeeScalar": "0x7d0",
      "l1BlobBaseFee": "0x1",
      "l1BlobBaseFeeScalar": "0xdbba0",
      "l1Fee": "0xa7",
      "l1GasPrice": "0x8",
      "l1GasUsed": "0x90c"
    }
  ],
  "libraries": [],
  "pending": [],
  "returns": {},
  "timestamp": 1759017787,
  "chain": 1301,
  "commit": "c6ee337"
}