{
  "transactions": [
    {
      "hash": "0x18a9b5cfc9a0a0935ddd0e660bd4df0c9d4c233240d373b91570822d584394c8",
      "transactionType": "CALL",
      "contractName": null,
      "contractAddress": "0x00b036b58a818b1bc34d502d3fe730db729e62ac",
      "function": "initialize((address,address,uint24,int24,address),uint160)",
      "arguments": [
        "(0x96beA0E29D5a261464E8e7260c1F833aAe39dbaF, 0xdf955Cb2F354a0650b2bc8c3460B9eC65d61C714, 3000, 60, 0x76A7436A1B3425B9065252f2212B738d0a0943c0)",
        "79228162514264337593543950336"
      ],
      "transaction": {
        "from": "0xc4fe13e473e6ad2bb0ba8a365bf581080d92db18",
        "to": "0x00b036b58a818b1bc34d502d3fe730db729e62ac",
        "gas": "0x12762",
        "value": "0x0",
        "input": "0x6276cbbe00000000000000000000000096bea0e29d5a261464e8e7260c1f833aae39dbaf000000000000000000000000df955cb2f354a0650b2bc8c3460b9ec65d61c7140000000000000000000000000000000000000000000000000000000000000bb8000000000000000000000000000000000000000000000000000000000000003c00000000000000000000000076a7436a1b3425b9065252f2212b738d0a0943c00000000000000000000000000000000000000001000000000000000000000000",
        "nonce": "0x106",
        "chainId": "0x515"
      },
      "additionalContracts": [],
      "isFixedGasLimit": false
    }
  ],
  "receipts": [
    {
      "status": "0x1",
      "cumulativeGasUsed": "0x1d38d",
      "logs": [
        {
          "address": "0x00b036b58a818b1bc34d502d3fe730db729e62ac",
          "topics": [
            "0xdd466e674ea557f56295e2d0218a125ea4b4f0f6f3307b95f85e6110838d6438",
            "0x11236ef3885ef91f8d48395dd80f0c978f754764a33bc8f5c02ba5cccb2e36a5",
            "0x00000000000000000000000096bea0e29d5a261464e8e7260c1f833aae39dbaf",
            "0x000000000000000000000000df955cb2f354a0650b2bc8c3460b9ec65d61c714"
          ],
          "data": "0x0000000000000000000000000000000000000000000000000000000000000bb8000000000000000000000000000000000000000000000000000000000000003c00000000000000000000000076a7436a1b3425b9065252f2212b738d0a0943c000000000000000000000000000000000000000010000000000000000000000000000000000000000000000000000000000000000000000000000000000000000",
          "blockHash": "0x647e01858e76b4bacde842ee0a158b1f6190ddb976a0875ed3711b70c2362fa1",
          "blockNumber": "0x1eac7b1",
          "blockTimestamp": "0x68d874fd",
          "transactionHash": "0x18a9b5cfc9a0a0935ddd0e660bd4df0c9d4c233240d373b91570822d584394c8",
          "transactionIndex": "0x2",
          "logIndex": "0x0",
          "removed": false
        }
      ],
      "logsBloom": "0x00800000000000000000000000000000000000000000000000000000000000000000000000000000000000000000000000000000000000000000000000020000000008000000000000000000000000000000000000000000000000000000000000000000000002000000000000000000000000000000000000000000000000000001000000000008000000000008000000000001000000000020000000200000000000000000000000000000001000000000080000000000000000000000000000000000000000000000000000000000000000000000000000000000000000000000000000000000000000000000000000000000000002200000000000000010",
      "type": "0x2",
      "transactionHash": "0x18a9b5cfc9a0a0935ddd0e660bd4df0c9d4c233240d373b91570822d584394c8",
      "transactionIndex": "0x2",
      "blockHash": "0x647e01858e76b4bacde842ee0a158b1f6190ddb976a0875ed3711b70c2362fa1",
      "blockNumber": "0x1eac7b1",
      "gasUsed": "0xc9f9",
      "effectiveGasPrice": "0xfe",
      "from": "0xc4fe13e473e6ad2bb0ba8a365bf581080d92db18",
      "to": "0x00b036b58a818b1bc34d502d3fe730db729e62ac",
      "contractAddress": null,
      "l1BaseFeeScalar": "0x7d0",
      "l1BlobBaseFee": "0x1",
      "l1BlobBaseFeeScalar": "0xdbba0",
      "l1Fee": "0xac",
      "l1GasPrice": "0xa",
      "l1GasUsed": "0x8d7"
    }
  ],
  "libraries": [],
  "pending": [],
  "returns": {},
  "timestamp": 1759016190,
  "chain": 1301,
  "commit": "c6ee337"
}