{
  "transactions": [
    {
      "hash": "0x1b5a7143dc8d92c4acb8a14776733781faf11edf43fda9655586cb2a8c45945b",
      "transactionType": "CALL",
      "contractName": null,
      "contractAddress": "0x00b036b58a818b1bc34d502d3fe730db729e62ac",
      "function": "initialize((address,address,uint24,int24,address),uint160)",
      "arguments": [
        "(0x6E1dBA6e02d559C1044D72C7697F74e19C132a43, 0x79DE49EbD73b749Ec19790132C3F8Cc2E6E90f1b, 3000, 60, 0x82BD7fEDDd9bA61737d05D91138b8247393f43c0)",
        "79228162514264337593543950336"
      ],
      "transaction": {
        "from": "0xc4fe13e473e6ad2bb0ba8a365bf581080d92db18",
        "to": "0x00b036b58a818b1bc34d502d3fe730db729e62ac",
        "gas": "0x12762",
        "value": "0x0",
        "input": "0x6276cbbe0000000000000000000000006e1dba6e02d559c1044d72c7697f74e19c132a4300000000000000000000000079de49ebd73b749ec19790132c3f8cc2e6e90f1b0000000000000000000000000000000000000000000000000000000000000bb8000000000000000000000000000000000000000000000000000000000000003c00000000000000000000000082bd7feddd9ba61737d05d91138b8247393f43c00000000000000000000000000000000000000001000000000000000000000000",
        "nonce": "0xb4",
        "chainId": "0x515"
      },
      "additionalContracts": [],
      "isFixedGasLimit": false
    }
  ],
  "receipts": [
    {
      "status": "0x1",
      "cumulativeGasUsed": "0x3ed5b",
      "logs": [
        {
          "address": "0x00b036b58a818b1bc34d502d3fe730db729e62ac",
          "topics": [
            "0xdd466e674ea557f56295e2d0218a125ea4b4f0f6f3307b95f85e6110838d6438",
            "0xd6b4f19ca751b6694089d688044a2ef29447db140b3a3b13b0da4c3f03d966cf",
            "0x0000000000000000000000006e1dba6e02d559c1044d72c7697f74e19c132a43",
            "0x00000000000000000000000079de49ebd73b749ec19790132c3f8cc2e6e90f1b"
          ],
          "data": "0x0000000000000000000000000000000000000000000000000000000000000bb8000000000000000000000000000000000000000000000000000000000000003c00000000000000000000000082bd7feddd9ba61737d05d91138b8247393f43c000000000000000000000000000000000000000010000000000000000000000000000000000000000000000000000000000000000000000000000000000000000",
          "blockHash": "0xf1fd2e5e4fe581cfeb29f668630730812d6ef04b5f2e366346921aebcf8df081",
          "blockNumber": "0x1ea884a",
          "blockTimestamp": "0x68d83596",
          "transactionHash": "0x1b5a7143dc8d92c4acb8a14776733781faf11edf43fda9655586cb2a8c45945b",
          "transactionIndex": "0x3",
          "logIndex": "0x2",
          "removed": false
        }
      ],
      "logsBloom": "0x00000000000000000000000000000000000000000000000000000000000000000000000000000000000000000000000000000000000000000000000000000000000000000001000000000000000000000000000000000040000000000000000000000000000000000000000000000000000000000000000000000000000000000000040000000008000000000008000000000001000000400800000000200000000000000000000000000000800000000002000000000000000000000000000000000000000000000000000000000000000000000000000000000000000000000100000000000000000000000000000000000000000002000000080000000010",
      "type": "0x2",
      "transactionHash": "0x1b5a7143dc8d92c4acb8a14776733781faf11edf43fda9655586cb2a8c45945b",
      "transactionIndex": "0x3",
      "blockHash": "0xf1fd2e5e4fe581cfeb29f668630730812d6ef04b5f2e366346921aebcf8df081",
      "blockNumber": "0x1ea884a",
      "gasUsed": "0xc9f9",
      "effectiveGasPrice": "0xfe",
      "from": "0xc4fe13e473e6ad2bb0ba8a365bf581080d92db18",
      "to": "0x00b036b58a818b1bc34d502d3fe730db729e62ac",
      "contractAddress": null,
      "l1BaseFeeScalar": "0x7d0",
      "l1BlobBaseFee": "0x1",
      "l1BlobBaseFeeScalar": "0xdbba0",
      "l1Fee": "0xa7",
      "l1GasPrice": "0x9",
      "l1GasUsed": "0x8c9"
    }
  ],
  "libraries": [],
  "pending": [],
  "returns": {},
  "timestamp": 1758999957,
  "chain": 1301,
  "commit": "b0742e6"
}