{
  "transactions": [
    {
      "hash": "0x2915bc457f8619c856adbfb1ce17d09c8a363d9d935989b8c69d47b50b4c3716",
      "transactionType": "CALL",
      "contractName": null,
      "contractAddress": "0x4afd548ccb8f5e9df4c05faa437add0c6e315196",
      "function": "approve(address,uint256)",
      "arguments": [
        "0x000000000022D473030F116dDEE9F6B43aC78BA3",
        "115792089237316195423570985008687907853269984665640564039457584007913129639935"
      ],
      "transaction": {
        "from": "0xc4fe13e473e6ad2bb0ba8a365bf581080d92db18",
        "to": "0x4afd548ccb8f5e9df4c05faa437add0c6e315196",
        "gas": "0x9770",
        "value": "0x0",
        "input": "0x095ea7b3000000000000000000000000000000000022d473030f116ddee9f6b43ac78ba3ffffffffffffffffffffffffffffffffffffffffffffffffffffffffffffffff",
        "nonce": "0x242",
        "chainId": "0x515"
      },
      "additionalContracts": [],
      "isFixedGasLimit": false
    },
    {
      "hash": "0xcf5e9c3974ef65f295f6ef5e0724fc88ab5ca6b364b5cab023175e8488fd0d88",
      "transactionType": "CALL",
      "contractName": null,
      "contractAddress": "0xe7f015876db6cdbe250a14a90a3f42c391fbb918",
      "function": "approve(address,uint256)",
      "arguments": [
        "0x000000000022D473030F116dDEE9F6B43aC78BA3",
        "115792089237316195423570985008687907853269984665640564039457584007913129639935"
      ],
      "transaction": {
        "from": "0xc4fe13e473e6ad2bb0ba8a365bf581080d92db18",
        "to": "0xe7f015876db6cdbe250a14a90a3f42c391fbb918",
        "gas": "0x102cf",
        "value": "0x0",
        "input": "0x095ea7b3000000000000000000000000000000000022d473030f116ddee9f6b43ac78ba3ffffffffffffffffffffffffffffffffffffffffffffffffffffffffffffffff",
        "nonce": "0x243",
        "chainId": "0x515"
      },
      "additionalContracts": [],
      "isFixedGasLimit": false
    },
    {
      "hash": "0xfaca88e9f1c7df96ed3bcd81e129912415eeb673985b51c81f5336ceba43a5eb",
      "transactionType": "CALL",
      "contractName": null,
      "contractAddress": "0x000000000022d473030f116ddee9f6b43ac78ba3",
      "function": "approve(address,address,uint160,uint48)",
      "arguments": [
        "0x4aFd548ccb8F5E9dF4c05FAA437ADd0C6E315196",
        "0xf969Aee60879C54bAAed9F3eD26147Db216Fd664",
        "1461501637330902918203684832716283019655932542975",
        "281474976710655"
      ],
      "transaction": {
        "from": "0xc4fe13e473e6ad2bb0ba8a365bf581080d92db18",
        "to": "0x000000000022d473030f116ddee9f6b43ac78ba3",
        "gas": "0x96a0",
        "value": "0x0",
        "input": "0x87517c450000000000000000000000004afd548ccb8f5e9df4c05faa437add0c6e315196000000000000000000000000f969aee60879c54baaed9f3ed26147db216fd664000000000000000000000000ffffffffffffffffffffffffffffffffffffffff0000000000000000000000000000000000000000000000000000ffffffffffff",
        "nonce": "0x244",
        "chainId": "0x515"
      },
      "additionalContracts": [],
      "isFixedGasLimit": false
    },
    {
      "hash": "0xea426097662356e95a4b0de815d2c899af5e46973d244f759502ce32fafbe2a3",
      "transactionType": "CALL",
      "contractName": null,
      "contractAddress": "0x000000000022d473030f116ddee9f6b43ac78ba3",
      "function": "approve(address,address,uint160,uint48)",
      "arguments": [
        "0xE7f015876dB6cDBE250a14a90a3f42C391fBB918",
        "0xf969Aee60879C54bAAed9F3eD26147Db216Fd664",
        "1461501637330902918203684832716283019655932542975",
        "281474976710655"
      ],
      "transaction": {
        "from": "0xc4fe13e473e6ad2bb0ba8a365bf581080d92db18",
        "to": "0x000000000022d473030f116ddee9f6b43ac78ba3",
        "gas": "0x1112d",
        "value": "0x0",
        "input": "0x87517c45000000000000000000000000e7f015876db6cdbe250a14a90a3f42c391fbb918000000000000000000000000f969aee60879c54baaed9f3ed26147db216fd664000000000000000000000000ffffffffffffffffffffffffffffffffffffffff0000000000000000000000000000000000000000000000000000ffffffffffff",
        "nonce": "0x245",
        "chainId": "0x515"
      },
      "additionalContracts": [],
      "isFixedGasLimit": false
    },
    {
      "hash": "0xe1bdf6150f1663c088bb172215a8964b00d3db9e0355cee23dd4a0c15379ed73",
      "transactionType": "CALL",
      "contractName": null,
      "contractAddress": "0xf969aee60879c54baaed9f3ed26147db216fd664",
      "function": "modifyLiquidities(bytes,uint256)",
      "arguments": [
        "0x0000000000000000000000000000000000000000000000000000000000000040000000000000000000000000000000000000000000000000000000000000008000000000000000000000000000000000000000000000000000000000000000030212120000000000000000000000000000000000000000000000000000000000000000000000000000000000000000000000000000000000000000000000000300000000000000000000000000000000000000000000000000000000000000600000000000000000000000000000000000000000000000000000000000000220000000000000000000000000000000000000000000000000000000000000026000000000000000000000000000000000000000000000000000000000000001a00000000000000000000000004afd548ccb8f5e9df4c05faa437add0c6e315196000000000000000000000000e7f015876db6cdbe250a14a90a3f42c391fbb9180000000000000000000000000000000000000000000000000000000000000bb8000000000000000000000000000000000000000000000000000000000000003c0000000000000000000000008db0bdb0b4bb528059d72e51e76e335ccb0843c0fffffffffffffffffffffffffffffffffffffffffffffffffffffffffff2764c00000000000000000000000000000000000000000000000000000000000d89b4000000000000000000000000000000000000000000000002b5e3af16b188000000000000000000000000000000000000ffffffffffffffffffffffffffffffff00000000000000000000000000000000ffffffffffffffffffffffffffffffff000000000000000000000000c4fe13e473e6ad2bb0ba8a365bf581080d92db180000000000000000000000000000000000000000000000000000000000000180000000000000000000000000000000000000000000000000000000000000000000000000000000000000000000000000000000000000000000000000000000200000000000000000000000004afd548ccb8f5e9df4c05faa437add0c6e3151960000000000000000000000000000000000000000000000000000000000000020000000000000000000000000e7f015876db6cdbe250a14a90a3f42c391fbb918",
        "1759045740"
      ],
      "transaction": {
        "from": "0xc4fe13e473e6ad2bb0ba8a365bf581080d92db18",
        "to": "0xf969aee60879c54baaed9f3ed26147db216fd664",
        "gas": "0x8c8cd",
        "value": "0x0",
        "input": "0xdd46508f00000000000000000000000000000000000000000000000000000000000000400000000000000000000000000000000000000000000000000000000068d8e86c00000000000000000000000000000000000000000000000000000000000003400000000000000000000000000000000000000000000000000000000000000040000000000000000000000000000000000000000000000000000000000000008000000000000000000000000000000000000000000000000000000000000000030212120000000000000000000000000000000000000000000000000000000000000000000000000000000000000000000000000000000000000000000000000300000000000000000000000000000000000000000000000000000000000000600000000000000000000000000000000000000000000000000000000000000220000000000000000000000000000000000000000000000000000000000000026000000000000000000000000000000000000000000000000000000000000001a00000000000000000000000004afd548ccb8f5e9df4c05faa437add0c6e315196000000000000000000000000e7f015876db6cdbe250a14a90a3f42c391fbb9180000000000000000000000000000000000000000000000000000000000000bb8000000000000000000000000000000000000000000000000000000000000003c0000000000000000000000008db0bdb0b4bb528059d72e51e76e335ccb0843c0fffffffffffffffffffffffffffffffffffffffffffffffffffffffffff2764c00000000000000000000000000000000000000000000000000000000000d89b4000000000000000000000000000000000000000000000002b5e3af16b188000000000000000000000000000000000000ffffffffffffffffffffffffffffffff00000000000000000000000000000000ffffffffffffffffffffffffffffffff000000000000000000000000c4fe13e473e6ad2bb0ba8a365bf581080d92db180000000000000000000000000000000000000000000000000000000000000180000000000000000000000000000000000000000000000000000000000000000000000000000000000000000000000000000000000000000000000000000000200000000000000000000000004afd548ccb8f5e9df4c05faa437add0c6e3151960000000000000000000000000000000000000000000000000000000000000020000000000000000000000000e7f015876db6cdbe250a14a90a3f42c391fbb918",
        "nonce": "0x246",
        "chainId": "0x515"
      },
      "additionalContracts": [],
      "isFixedGasLimit": false
    }
  ],
  "receipts": [
    {
      "status": "0x1",
      "cumulativeGasUsed": "0x17738",
      "logs": [
        {
          "address": "0x4afd548ccb8f5e9df4c05faa437add0c6e315196",
          "topics": [
            "0x8c5be1e5ebec7d5bd14f71427d1e84f3dd0314c0f7b2291e5b200ac8c7c3b925",
            "0x000000000000000000000000c4fe13e473e6ad2bb0ba8a365bf581080d92db18",
            "0x000000000000000000000000000000000022d473030f116ddee9f6b43ac78ba3"
          ],
          "data": "0xffffffffffffffffffffffffffffffffffffffffffffffffffffffffffffffff",
          "blockHash": "0xd25c30fb2a7b7840ec07423fd399c04fbf46a422c4258a4966666af5bb9bd33d",
          "blockNumber": "0x1eb2d26",
          "blockTimestamp": "0x68d8da72",
          "transactionHash": "0x2915bc457f8619c856adbfb1ce17d09c8a363d9d935989b8c69d47b50b4c3716",
          "transactionIndex": "0x2",
          "logIndex": "0x0",
          "removed": false
        }
      ],
      "logsBloom": "0x00000000000000000000000000000000000000000000000000000010000000000000000000000000000000000000000000000000800000000000000000200000000000000000000000004000000000000000000000000800000000000000000040000000000000000000000000000000000000000000000000000000000000000000000000000000000000000000000000000000000000000000000000000000020000000200000000000000000000000000000000000000000000000000000000000000000000000000000000000000000000800000000000000000000000000010000000000800000000000000000000000200000000000000000000000000",
      "type": "0x2",
      "transactionHash": "0x2915bc457f8619c856adbfb1ce17d09c8a363d9d935989b8c69d47b50b4c3716",
      "transactionIndex": "0x2",
      "blockHash": "0xd25c30fb2a7b7840ec07423fd399c04fbf46a422c4258a4966666af5bb9bd33d",
      "blockNumber": "0x1eb2d26",
      "gasUsed": "0x6da4",
      "effectiveGasPrice": "0xfe",
      "from": "0xc4fe13e473e6ad2bb0ba8a365bf581080d92db18",
      "to": "0x4afd548ccb8f5e9df4c05faa437add0c6e315196",
      "contractAddress": null,
      "l1BaseFeeScalar": "0x7d0",
      "l1BlobBaseFee": "0x1",
      "l1BlobBaseFeeScalar": "0xdbba0",
      "l1Fee": "0x83",
      "l1GasPrice": "0xd",
      "l1GasUsed": "0x640"
    },
    {
      "status": "0x1",
      "cumulativeGasUsed": "0x23298",
      "logs": [
        {
          "address": "0xe7f015876db6cdbe250a14a90a3f42c391fbb918",
          "topics": [
            "0x8c5be1e5ebec7d5bd14f71427d1e84f3dd0314c0f7b2291e5b200ac8c7c3b925",
            "0x000000000000000000000000c4fe13e473e6ad2bb0ba8a365bf581080d92db18",
            "0x000000000000000000000000000000000022d473030f116ddee9f6b43ac78ba3"
          ],
          "data": "0xffffffffffffffffffffffffffffffffffffffffffffffffffffffffffffffff",
          "blockHash": "0xd25c30fb2a7b7840ec07423fd399c04fbf46a422c4258a4966666af5bb9bd33d",
          "blockNumber": "0x1eb2d26",
          "blockTimestamp": "0x68d8da72",
          "transactionHash": "0xcf5e9c3974ef65f295f6ef5e0724fc88ab5ca6b364b5cab023175e8488fd0d88",
          "transactionIndex": "0x3",
          "logIndex": "0x1",
          "removed": false
        }
      ],
      "logsBloom": "0x00000000000000000000000000000000000000000000000000000010000000000000000000000000000000000000000000000000800000000000000000240000000000000000000000004000000000000000000000000800000000000000000040000000000000000000000000000000000000000000000000000000000000000000000000000000000000000000000000000000000000000000000000000000020000000000000000000000000000000000800000000000000000000000000000000000000000000000000000000000000000000000000000000000000004000010000000000800000000000000000000000000000000000000000000000000",
      "type": "0x2",
      "transactionHash": "0xcf5e9c3974ef65f295f6ef5e0724fc88ab5ca6b364b5cab023175e8488fd0d88",
      "transactionIndex": "0x3",
      "blockHash": "0xd25c30fb2a7b7840ec07423fd399c04fbf46a422c4258a4966666af5bb9bd33d",
      "blockNumber": "0x1eb2d26",
      "gasUsed": "0xbb60",
      "effectiveGasPrice": "0xfe",
      "from": "0xc4fe13e473e6ad2bb0ba8a365bf581080d92db18",
      "to": "0xe7f015876db6cdbe250a14a90a3f42c391fbb918",
      "contractAddress": null,
      "l1BaseFeeScalar": "0x7d0",
      "l1BlobBaseFee": "0x1",
      "l1BlobBaseFeeScalar": "0xdbba0",
      "l1Fee": "0x83",
      "l1GasPrice": "0xd",
      "l1GasUsed": "0x640"
    },
    {
      "status": "0x1",
      "cumulativeGasUsed": "0x29fa6",
      "logs": [
        {
          "address": "0x000000000022d473030f116ddee9f6b43ac78ba3",
          "topics": [
            "0xda9fa7c1b00402c17d0161b249b1ab8bbec047c5a52207b9c112deffd817036b",
            "0x000000000000000000000000c4fe13e473e6ad2bb0ba8a365bf581080d92db18",
            "0x0000000000000000000000004afd548ccb8f5e9df4c05faa437add0c6e315196",
            "0x000000000000000000000000f969aee60879c54baaed9f3ed26147db216fd664"
          ],
          "data": "0x000000000000000000000000ffffffffffffffffffffffffffffffffffffffff0000000000000000000000000000000000000000000000000000ffffffffffff",
          "blockHash": "0xd25c30fb2a7b7840ec07423fd399c04fbf46a422c4258a4966666af5bb9bd33d",
          "blockNumber": "0x1eb2d26",
          "blockTimestamp": "0x68d8da72",
          "transactionHash": "0xfaca88e9f1c7df96ed3bcd81e129912415eeb673985b51c81f5336ceba43a5eb",
          "transactionIndex": "0x4",
          "logIndex": "0x2",
          "removed": false
        }
      ],
      "logsBloom": "0x00010000000000000000000000000000000000000000000000000010000000000000000000000000000000000000000000000000000000010000000000080000000000000000000000000000000000000000000000000000000000001000000040000000000000000000000000000000000000000040000000000000000000004020000000000000000000000000000000000000000000000000000000000000000000000000000000000000000000000000000000000000000000080000200000000000000000000000000000000000000000000000000040000000000000000000000000000800000000000000000000000000000000000000000000002400",
      "type": "0x2",
      "transactionHash": "0xfaca88e9f1c7df96ed3bcd81e129912415eeb673985b51c81f5336ceba43a5eb",
      "transactionIndex": "0x4",
      "blockHash": "0xd25c30fb2a7b7840ec07423fd399c04fbf46a422c4258a4966666af5bb9bd33d",
      "blockNumber": "0x1eb2d26",
      "gasUsed": "0x6d0e",
      "effectiveGasPrice": "0xfe",
      "from": "0xc4fe13e473e6ad2bb0ba8a365bf581080d92db18",
      "to": "0x000000000022d473030f116ddee9f6b43ac78ba3",
      "contractAddress": null,
      "l1BaseFeeScalar": "0x7d0",
      "l1BlobBaseFee": "0x1",
      "l1BlobBaseFeeScalar": "0xdbba0",
      "l1Fee": "0x8f",
      "l1GasPrice": "0xd",
      "l1GasUsed": "0x6cd"
    },
    {
      "status": "0x1",
      "cumulativeGasUsed": "0x35a70",
      "logs": [
        {
          "address": "0x000000000022d473030f116ddee9f6b43ac78ba3",
          "topics": [
            "0xda9fa7c1b00402c17d0161b249b1ab8bbec047c5a52207b9c112deffd817036b",
            "0x000000000000000000000000c4fe13e473e6ad2bb0ba8a365bf581080d92db18",
            "0x000000000000000000000000e7f015876db6cdbe250a14a90a3f42c391fbb918",
            "0x000000000000000000000000f969aee60879c54baaed9f3ed26147db216fd664"
          ],
          "data": "0x000000000000000000000000ffffffffffffffffffffffffffffffffffffffff0000000000000000000000000000000000000000000000000000ffffffffffff",
          "blockHash": "0xd25c30fb2a7b7840ec07423fd399c04fbf46a422c4258a4966666af5bb9bd33d",
          "blockNumber": "0x1eb2d26",
          "blockTimestamp": "0x68d8da72",
          "transactionHash": "0xea426097662356e95a4b0de815d2c899af5e46973d244f759502ce32fafbe2a3",
          "transactionIndex": "0x5",
          "logIndex": "0x3",
          "removed": false
        }
      ],
      "logsBloom": "0x00010000000000000000000000000000000000000000000400000010000000000000000000000000000000000000000000000000000000000000000000080000000000000000000000000000000000000000000000000000000000001000000040000000000000000000000000000000000000000040000000000000000800000020000000000000000000000000000000000000000000000000000000000000000000000000000000000000000000000000000000000000000000080000000000000000000000000000000000000000000000000000000040000000040000000000000000000800000000000000000000000000000000000000000000002400",
      "type": "0x2",
      "transactionHash": "0xea426097662356e95a4b0de815d2c899af5e46973d244f759502ce32fafbe2a3",
      "transactionIndex": "0x5",
      "blockHash": "0xd25c30fb2a7b7840ec07423fd399c04fbf46a422c4258a4966666af5bb9bd33d",
      "blockNumber": "0x1eb2d26",
      "gasUsed": "0xbaca",
      "effectiveGasPrice": "0xfe",
      "from": "0xc4fe13e473e6ad2bb0ba8a365bf581080d92db18",
      "to": "0x000000000022d473030f116ddee9f6b43ac78ba3",
      "contractAddress": null,
      "l1BaseFeeScalar": "0x7d0",
      "l1BlobBaseFee": "0x1",
      "l1BlobBaseFeeScalar": "0xdbba0",
      "l1Fee": "0x90",
      "l1GasPrice": "0xd",
      "l1GasUsed": "0x6da"
    },
    {
      "status": "0x1",
      "cumulativeGasUsed": "0x9b688",
      "logs": [
        {
          "address": "0xf969aee60879c54baaed9f3ed26147db216fd664",
          "topics": [
            "0xddf252ad1be2c89b69c2b068fc378daa952ba7f163c4a11628f55a4df523b3ef",
            "0x0000000000000000000000000000000000000000000000000000000000000000",
            "0x000000000000000000000000c4fe13e473e6ad2bb0ba8a365bf581080d92db18",
            "0x00000000000000000000000000000000000000000000000000000000000015f6"
          ],
          "data": "0x",
          "blockHash": "0xd25c30fb2a7b7840ec07423fd399c04fbf46a422c4258a4966666af5bb9bd33d",
          "blockNumber": "0x1eb2d26",
          "blockTimestamp": "0x68d8da72",
          "transactionHash": "0xe1bdf6150f1663c088bb172215a8964b00d3db9e0355cee23dd4a0c15379ed73",
          "transactionIndex": "0x6",
          "logIndex": "0x4",
          "removed": false
        },
        {
          "address": "0x00b036b58a818b1bc34d502d3fe730db729e62ac",
          "topics": [
            "0xf208f4912782fd25c7f114ca3723a2d5dd6f3bcc3ac8db5af63baa85f711d5ec",
            "0xbcfa5b0cec71e49536b951058491392db7c19ba00d88dabaf08b881ed617e7f8",
            "0x000000000000000000000000f969aee60879c54baaed9f3ed26147db216fd664"
          ],
          "data": "0xfffffffffffffffffffffffffffffffffffffffffffffffffffffffffff2764c00000000000000000000000000000000000000000000000000000000000d89b4000000000000000000000000000000000000000000000002b5e3af16b188000000000000000000000000000000000000000000000000000000000000000015f6",
          "blockHash": "0xd25c30fb2a7b7840ec07423fd399c04fbf46a422c4258a4966666af5bb9bd33d",
          "blockNumber": "0x1eb2d26",
          "blockTimestamp": "0x68d8da72",
          "transactionHash": "0xe1bdf6150f1663c088bb172215a8964b00d3db9e0355cee23dd4a0c15379ed73",
          "transactionIndex": "0x6",
          "logIndex": "0x5",
          "removed": false
        },
        {
          "address": "0x4afd548ccb8f5e9df4c05faa437add0c6e315196",
          "topics": [
            "0xddf252ad1be2c89b69c2b068fc378daa952ba7f163c4a11628f55a4df523b3ef",
            "0x000000000000000000000000c4fe13e473e6ad2bb0ba8a365bf581080d92db18",
            "0x00000000000000000000000000b036b58a818b1bc34d502d3fe730db729e62ac"
          ],
          "data": "0x000000000000000000000000000000000000000000000002b5e3af16b187fffe",
          "blockHash": "0xd25c30fb2a7b7840ec07423fd399c04fbf46a422c4258a4966666af5bb9bd33d",
          "blockNumber": "0x1eb2d26",
          "blockTimestamp": "0x68d8da72",
          "transactionHash": "0xe1bdf6150f1663c088bb172215a8964b00d3db9e0355cee23dd4a0c15379ed73",
          "transactionIndex": "0x6",
          "logIndex": "0x6",
          "removed": false
        },
        {
          "address": "0xe7f015876db6cdbe250a14a90a3f42c391fbb918",
          "topics": [
            "0xddf252ad1be2c89b69c2b068fc378daa952ba7f163c4a11628f55a4df523b3ef",
            "0x000000000000000000000000c4fe13e473e6ad2bb0ba8a365bf581080d92db18",
            "0x00000000000000000000000000b036b58a818b1bc34d502d3fe730db729e62ac"
          ],
          "data": "0x000000000000000000000000000000000000000000000002b5e3af16b187fffe",
          "blockHash": "0xd25c30fb2a7b7840ec07423fd399c04fbf46a422c4258a4966666af5bb9bd33d",
          "blockNumber": "0x1eb2d26",
          "blockTimestamp": "0x68d8da72",
          "transactionHash": "0xe1bdf6150f1663c088bb172215a8964b00d3db9e0355cee23dd4a0c15379ed73",
          "transactionIndex": "0x6",
          "logIndex": "0x7",
          "removed": false
        }
      ],
      "logsBloom": "0x00000000000000000000000000000000000000000000000000000010000000000000000000000000000000000000000000000000001000000000000000040000000000000000000000000008000000000000000000000000000000001000000040000000020000400000000000004800000000000040000000000010000000000004000001000000000000000008000000000000000000000000010000000000000004000200000000000000000000000800800000000020000000000000000000000002080000000000000000000000000000800000000000000000400024004000000400000800000000000000000004004200000002000000000000002010",
      "type": "0x2",
      "transactionHash": "0xe1bdf6150f1663c088bb172215a8964b00d3db9e0355cee23dd4a0c15379ed73",
      "transactionIndex": "0x6",
      "blockHash": "0xd25c30fb2a7b7840ec07423fd399c04fbf46a422c4258a4966666af5bb9bd33d",
      "blockNumber": "0x1eb2d26",
      "gasUsed": "0x65c18",
      "effectiveGasPrice": "0xfe",
      "from": "0xc4fe13e473e6ad2bb0ba8a365bf581080d92db18",
      "to": "0xf969aee60879c54baaed9f3ed26147db216fd664",
      "contractAddress": null,
      "l1BaseFeeScalar": "0x7d0",
      "l1BlobBaseFee": "0x1",
      "l1BlobBaseFeeScalar": "0xdbba0",
      "l1Fee": "0x160",
      "l1GasPrice": "0xd",
      "l1GasUsed": "0x10bc"
    }
  ],
  "libraries": [],
  "pending": [],
  "returns": {},
  "timestamp": 1759042164,
  "chain": 1301,
  "commit": "caffa2d"
}