{
  "transactions": [
    {
      "hash": "0x6d6cdb15bb12662a003d70975d7c061f83eb61ea3b146a82c9a94624fe285767",
      "transactionType": "CALL",
      "contractName": null,
      "contractAddress": "0x29578e9e7979ea991847c152022b7caa8f9dcbeb",
      "function": "approve(address,uint256)",
      "arguments": [
        "0x000000000022D473030F116dDEE9F6B43aC78BA3",
        "115792089237316195423570985008687907853269984665640564039457584007913129639935"
      ],
      "transaction": {
        "from": "0xc4fe13e473e6ad2bb0ba8a365bf581080d92db18",
        "to": "0x29578e9e7979ea991847c152022b7caa8f9dcbeb",
        "gas": "0x102cf",
        "value": "0x0",
        "input": "0x095ea7b3000000000000000000000000000000000022d473030f116ddee9f6b43ac78ba3ffffffffffffffffffffffffffffffffffffffffffffffffffffffffffffffff",
        "nonce": "0x163",
        "chainId": "0x515"
      },
      "additionalContracts": [],
      "isFixedGasLimit": false
    },
    {
      "hash": "0x11eb10c07bf7ef3d644c1e691350abaffae27dcc198f358b284aa1c21e99d531",
      "transactionType": "CALL",
      "contractName": null,
      "contractAddress": "0xdc495e78b6b9caf67e732aab83490d80b1befc83",
      "function": "approve(address,uint256)",
      "arguments": [
        "0x000000000022D473030F116dDEE9F6B43aC78BA3",
        "115792089237316195423570985008687907853269984665640564039457584007913129639935"
      ],
      "transaction": {
        "from": "0xc4fe13e473e6ad2bb0ba8a365bf581080d92db18",
        "to": "0xdc495e78b6b9caf67e732aab83490d80b1befc83",
        "gas": "0x9770",
        "value": "0x0",
        "input": "0x095ea7b3000000000000000000000000000000000022d473030f116ddee9f6b43ac78ba3ffffffffffffffffffffffffffffffffffffffffffffffffffffffffffffffff",
        "nonce": "0x164",
        "chainId": "0x515"
      },
      "additionalContracts": [],
      "isFixedGasLimit": false
    },
    {
      "hash": "0x8563393d613aa46ee6cd8037ed14c52fadd59fa813f93d3304cfaa7cdd7056be",
      "transactionType": "CALL",
      "contractName": null,
      "contractAddress": "0x000000000022d473030f116ddee9f6b43ac78ba3",
      "function": "approve(address,address,uint160,uint48)",
      "arguments": [
        "0x29578E9e7979ea991847c152022B7caa8F9dcBeb",
        "0xf969Aee60879C54bAAed9F3eD26147Db216Fd664",
        "1461501637330902918203684832716283019655932542975",
        "281474976710655"
      ],
      "transaction": {
        "from": "0xc4fe13e473e6ad2bb0ba8a365bf581080d92db18",
        "to": "0x000000000022d473030f116ddee9f6b43ac78ba3",
        "gas": "0x1112d",
        "value": "0x0",
        "input": "0x87517c4500000000000000000000000029578e9e7979ea991847c152022b7caa8f9dcbeb000000000000000000000000f969aee60879c54baaed9f3ed26147db216fd664000000000000000000000000ffffffffffffffffffffffffffffffffffffffff0000000000000000000000000000000000000000000000000000ffffffffffff",
        "nonce": "0x165",
        "chainId": "0x515"
      },
      "additionalContracts": [],
      "isFixedGasLimit": false
    },
    {
      "hash": "0x00c78a3d530d255c37f644201de69106041e480f4a936daaa930cc0d7dd9b962",
      "transactionType": "CALL",
      "contractName": null,
      "contractAddress": "0x000000000022d473030f116ddee9f6b43ac78ba3",
      "function": "approve(address,address,uint160,uint48)",
      "arguments": [
        "0xDC495E78B6b9cAf67E732AaB83490D80B1bEFc83",
        "0xf969Aee60879C54bAAed9F3eD26147Db216Fd664",
        "1461501637330902918203684832716283019655932542975",
        "281474976710655"
      ],
      "transaction": {
        "from": "0xc4fe13e473e6ad2bb0ba8a365bf581080d92db18",
        "to": "0x000000000022d473030f116ddee9f6b43ac78ba3",
        "gas": "0x96a0",
        "value": "0x0",
        "input": "0x87517c45000000000000000000000000dc495e78b6b9caf67e732aab83490d80b1befc83000000000000000000000000f969aee60879c54baaed9f3ed26147db216fd664000000000000000000000000ffffffffffffffffffffffffffffffffffffffff0000000000000000000000000000000000000000000000000000ffffffffffff",
        "nonce": "0x166",
        "chainId": "0x515"
      },
      "additionalContracts": [],
      "isFixedGasLimit": false
    },
    {
      "hash": "0xdfc7c10f615d68e404e3003e25eed6722ee9b8ddfcf58541037ec7b5078d3ca0",
      "transactionType": "CALL",
      "contractName": null,
      "contractAddress": "0xf969aee60879c54baaed9f3ed26147db216fd664",
      "function": "modifyLiquidities(bytes,uint256)",
      "arguments": [
        "0x0000000000000000000000000000000000000000000000000000000000000040000000000000000000000000000000000000000000000000000000000000008000000000000000000000000000000000000000000000000000000000000000030212120000000000000000000000000000000000000000000000000000000000000000000000000000000000000000000000000000000000000000000000000300000000000000000000000000000000000000000000000000000000000000600000000000000000000000000000000000000000000000000000000000000220000000000000000000000000000000000000000000000000000000000000026000000000000000000000000000000000000000000000000000000000000001a000000000000000000000000029578e9e7979ea991847c152022b7caa8f9dcbeb000000000000000000000000dc495e78b6b9caf67e732aab83490d80b1befc830000000000000000000000000000000000000000000000000000000000000bb8000000000000000000000000000000000000000000000000000000000000003c000000000000000000000000736c1c1553c251b005b76707daef15c5df5b03c0fffffffffffffffffffffffffffffffffffffffffffffffffffffffffff2764c00000000000000000000000000000000000000000000000000000000000d89b4000000000000000000000000000000000000000000000002b5e3af16b188000000000000000000000000000000000000ffffffffffffffffffffffffffffffff00000000000000000000000000000000ffffffffffffffffffffffffffffffff000000000000000000000000c4fe13e473e6ad2bb0ba8a365bf581080d92db1800000000000000000000000000000000000000000000000000000000000001800000000000000000000000000000000000000000000000000000000000000000000000000000000000000000000000000000000000000000000000000000002000000000000000000000000029578e9e7979ea991847c152022b7caa8f9dcbeb0000000000000000000000000000000000000000000000000000000000000020000000000000000000000000dc495e78b6b9caf67e732aab83490d80b1befc83",
        "1759026929"
      ],
      "transaction": {
        "from": "0xc4fe13e473e6ad2bb0ba8a365bf581080d92db18",
        "to": "0xf969aee60879c54baaed9f3ed26147db216fd664",
        "gas": "0x8c8cd",
        "value": "0x0",
        "input": "0xdd46508f00000000000000000000000000000000000000000000000000000000000000400000000000000000000000000000000000000000000000000000000068d89ef100000000000000000000000000000000000000000000000000000000000003400000000000000000000000000000000000000000000000000000000000000040000000000000000000000000000000000000000000000000000000000000008000000000000000000000000000000000000000000000000000000000000000030212120000000000000000000000000000000000000000000000000000000000000000000000000000000000000000000000000000000000000000000000000300000000000000000000000000000000000000000000000000000000000000600000000000000000000000000000000000000000000000000000000000000220000000000000000000000000000000000000000000000000000000000000026000000000000000000000000000000000000000000000000000000000000001a000000000000000000000000029578e9e7979ea991847c152022b7caa8f9dcbeb000000000000000000000000dc495e78b6b9caf67e732aab83490d80b1befc830000000000000000000000000000000000000000000000000000000000000bb8000000000000000000000000000000000000000000000000000000000000003c000000000000000000000000736c1c1553c251b005b76707daef15c5df5b03c0fffffffffffffffffffffffffffffffffffffffffffffffffffffffffff2764c00000000000000000000000000000000000000000000000000000000000d89b4000000000000000000000000000000000000000000000002b5e3af16b188000000000000000000000000000000000000ffffffffffffffffffffffffffffffff00000000000000000000000000000000ffffffffffffffffffffffffffffffff000000000000000000000000c4fe13e473e6ad2bb0ba8a365bf581080d92db1800000000000000000000000000000000000000000000000000000000000001800000000000000000000000000000000000000000000000000000000000000000000000000000000000000000000000000000000000000000000000000000002000000000000000000000000029578e9e7979ea991847c152022b7caa8f9dcbeb0000000000000000000000000000000000000000000000000000000000000020000000000000000000000000dc495e78b6b9caf67e732aab83490d80b1befc83",
        "nonce": "0x167",
        "chainId": "0x515"
      },
      "additionalContracts": [],
      "isFixedGasLimit": false
    }
  ],
  "receipts": [
    {
      "status": "0x1",
      "cumulativeGasUsed": "0x1c4f4",
      "logs": [
        {
          "address": "0x29578e9e7979ea991847c152022b7caa8f9dcbeb",
          "topics": [
            "0x8c5be1e5ebec7d5bd14f71427d1e84f3dd0314c0f7b2291e5b200ac8c7c3b925",
            "0x000000000000000000000000c4fe13e473e6ad2bb0ba8a365bf581080d92db18",
            "0x000000000000000000000000000000000022d473030f116ddee9f6b43ac78ba3"
          ],
          "data": "0xffffffffffffffffffffffffffffffffffffffffffffffffffffffffffffffff",
          "blockHash": "0x95b525392b662a48a32b9d78493faa01c4802cda6af110591273429282f822e3",
          "blockNumber": "0x1eae3ab",
          "blockTimestamp": "0x68d890f7",
          "transactionHash": "0x6d6cdb15bb12662a003d70975d7c061f83eb61ea3b146a82c9a94624fe285767",
          "transactionIndex": "0x2",
          "logIndex": "0x0",
          "removed": false
        }
      ],
      "logsBloom": "0x00000000000000000000000000000000000000000000000000000010000000000000000000000000000000000000000000000000800000000000000000200000000000000000000000004000000000000000000000000800000000000000000040000000000000000000000000000000000000000000000000000000000000000000000000000000000000000000000000000000000080000000000000000000020000000000000008000000000000000000000000000000000000000000000000000000000000000000000000000000000000000000000000000020000000000010000000000800000000000000000000000000000000000000000000000000",
      "type": "0x2",
      "transactionHash": "0x6d6cdb15bb12662a003d70975d7c061f83eb61ea3b146a82c9a94624fe285767",
      "transactionIndex": "0x2",
      "blockHash": "0x95b525392b662a48a32b9d78493faa01c4802cda6af110591273429282f822e3",
      "blockNumber": "0x1eae3ab",
      "gasUsed": "0xbb60",
      "effectiveGasPrice": "0xfe",
      "from": "0xc4fe13e473e6ad2bb0ba8a365bf581080d92db18",
      "to": "0x29578e9e7979ea991847c152022b7caa8f9dcbeb",
      "contractAddress": null,
      "l1BaseFeeScalar": "0x7d0",
      "l1BlobBaseFee": "0x1",
      "l1BlobBaseFeeScalar": "0xdbba0",
      "l1Fee": "0x7d",
      "l1GasPrice": "0xb",
      "l1GasUsed": "0x640"
    },
    {
      "status": "0x1",
      "cumulativeGasUsed": "0x23298",
      "logs": [
        {
          "address": "0xdc495e78b6b9caf67e732aab83490d80b1befc83",
          "topics": [
            "0x8c5be1e5ebec7d5bd14f71427d1e84f3dd0314c0f7b2291e5b200ac8c7c3b925",
            "0x000000000000000000000000c4fe13e473e6ad2bb0ba8a365bf581080d92db18",
            "0x000000000000000000000000000000000022d473030f116ddee9f6b43ac78ba3"
          ],
          "data": "0xffffffffffffffffffffffffffffffffffffffffffffffffffffffffffffffff",
          "blockHash": "0x95b525392b662a48a32b9d78493faa01c4802cda6af110591273429282f822e3",
          "blockNumber": "0x1eae3ab",
          "blockTimestamp": "0x68d890f7",
          "transactionHash": "0x11eb10c07bf7ef3d644c1e691350abaffae27dcc198f358b284aa1c21e99d531",
          "transactionIndex": "0x3",
          "logIndex": "0x1",
          "removed": false
        }
      ],
      "logsBloom": "0x00000000000000000000000000000000000000000000000000000010000000000000000000000000000000000000000000000000800000000000020000200000000000000000000000004000004000000000000000000800000000000000000040000000000000000000000000000000000000000000000000000000000000000000000000000000000000000000000000000000000000000000000000000000020000000000000000000000000000000000000000000000000000000000000000000000400000000000000000000000000000000000000000000000000000000010000000000800000000000000000000000000000000000000000000000000",
      "type": "0x2",
      "transactionHash": "0x11eb10c07bf7ef3d644c1e691350abaffae27dcc198f358b284aa1c21e99d531",
      "transactionIndex": "0x3",
      "blockHash": "0x95b525392b662a48a32b9d78493faa01c4802cda6af110591273429282f822e3",
      "blockNumber": "0x1eae3ab",
      "gasUsed": "0x6da4",
      "effectiveGasPrice": "0xfe",
      "from": "0xc4fe13e473e6ad2bb0ba8a365bf581080d92db18",
      "to": "0xdc495e78b6b9caf67e732aab83490d80b1befc83",
      "contractAddress": null,
      "l1BaseFeeScalar": "0x7d0",
      "l1BlobBaseFee": "0x1",
      "l1BlobBaseFeeScalar": "0xdbba0",
      "l1Fee": "0x7d",
      "l1GasPrice": "0xb",
      "l1GasUsed": "0x640"
    },
    {
      "status": "0x1",
      "cumulativeGasUsed": "0x2ed62",
      "logs": [
        {
          "address": "0x000000000022d473030f116ddee9f6b43ac78ba3",
          "topics": [
            "0xda9fa7c1b00402c17d0161b249b1ab8bbec047c5a52207b9c112deffd817036b",
            "0x000000000000000000000000c4fe13e473e6ad2bb0ba8a365bf581080d92db18",
            "0x00000000000000000000000029578e9e7979ea991847c152022b7caa8f9dcbeb",
            "0x000000000000000000000000f969aee60879c54baaed9f3ed26147db216fd664"
          ],
          "data": "0x000000000000000000000000ffffffffffffffffffffffffffffffffffffffff0000000000000000000000000000000000000000000000000000ffffffffffff",
          "blockHash": "0x95b525392b662a48a32b9d78493faa01c4802cda6af110591273429282f822e3",
          "blockNumber": "0x1eae3ab",
          "blockTimestamp": "0x68d890f7",
          "transactionHash": "0x8563393d613aa46ee6cd8037ed14c52fadd59fa813f93d3304cfaa7cdd7056be",
          "transactionIndex": "0x4",
          "logIndex": "0x2",
          "removed": false
        }
      ],
      "logsBloom": "0x00010000000000000000000000000000000000001000000000000010000000000000000000000000000000000000000000000000000000000000000000080000000000000000000000000000000008000000000000000000000000001000000040000000000000000000000000000000000000000040000000000000000000000020000000000000000000000000000000000000000000000000000000000000000000000000000000000000000000000000000000000000000000080000000000000000000000000000000000000000000000000000000040000000000000000000000000000800000000000000000000000000000000000000000000002c00",
      "type": "0x2",
      "transactionHash": "0x8563393d613aa46ee6cd8037ed14c52fadd59fa813f93d3304cfaa7cdd7056be",
      "transactionIndex": "0x4",
      "blockHash": "0x95b525392b662a48a32b9d78493faa01c4802cda6af110591273429282f822e3",
      "blockNumber": "0x1eae3ab",
      "gasUsed": "0xbaca",
      "effectiveGasPrice": "0xfe",
      "from": "0xc4fe13e473e6ad2bb0ba8a365bf581080d92db18",
      "to": "0x000000000022d473030f116ddee9f6b43ac78ba3",
      "contractAddress": null,
      "l1BaseFeeScalar": "0x7d0",
      "l1BlobBaseFee": "0x1",
      "l1BlobBaseFeeScalar": "0xdbba0",
      "l1Fee": "0x89",
      "l1GasPrice": "0xb",
      "l1GasUsed": "0x6da"
    },
    {
      "status": "0x1",
      "cumulativeGasUsed": "0x35a70",
      "logs": [
        {
          "address": "0x000000000022d473030f116ddee9f6b43ac78ba3",
          "topics": [
            "0xda9fa7c1b00402c17d0161b249b1ab8bbec047c5a52207b9c112deffd817036b",
            "0x000000000000000000000000c4fe13e473e6ad2bb0ba8a365bf581080d92db18",
            "0x000000000000000000000000dc495e78b6b9caf67e732aab83490d80b1befc83",
            "0x000000000000000000000000f969aee60879c54baaed9f3ed26147db216fd664"
          ],
          "data": "0x000000000000000000000000ffffffffffffffffffffffffffffffffffffffff0000000000000000000000000000000000000000000000000000ffffffffffff",
          "blockHash": "0x95b525392b662a48a32b9d78493faa01c4802cda6af110591273429282f822e3",
          "blockNumber": "0x1eae3ab",
          "blockTimestamp": "0x68d890f7",
          "transactionHash": "0x00c78a3d530d255c37f644201de69106041e480f4a936daaa930cc0d7dd9b962",
          "transactionIndex": "0x5",
          "logIndex": "0x3",
          "removed": false
        }
      ],
      "logsBloom": "0x00010000000000000000000000000000000000000000000000000010000000000000000000000000000000000000000000000000000000040000000000080000000000000000000000000000000000000000000000000000000000001000000040000000000004000000000000000000000000000040000000000000000000000020000000000000000000000000000000000000000000000000000000000000000000000000000000000000000000000000000000000000000000080000000000000000000000000000000000000000000000000000000440000000000000000000000000000800000000000000000000000000000000000000000000002400",
      "type": "0x2",
      "transactionHash": "0x00c78a3d530d255c37f644201de69106041e480f4a936daaa930cc0d7dd9b962",
      "transactionIndex": "0x5",
      "blockHash": "0x95b525392b662a48a32b9d78493faa01c4802cda6af110591273429282f822e3",
      "blockNumber": "0x1eae3ab",
      "gasUsed": "0x6d0e",
      "effectiveGasPrice": "0xfe",
      "from": "0xc4fe13e473e6ad2bb0ba8a365bf581080d92db18",
      "to": "0x000000000022d473030f116ddee9f6b43ac78ba3",
      "contractAddress": null,
      "l1BaseFeeScalar": "0x7d0",
      "l1BlobBaseFee": "0x1",
      "l1BlobBaseFeeScalar": "0xdbba0",
      "l1Fee": "0x88",
      "l1GasPrice": "0xb",
      "l1GasUsed": "0x6cd"
    },
    {
      "status": "0x1",
      "cumulativeGasUsed": "0x9b688",
      "logs": [
        {
          "address": "0xf969aee60879c54baaed9f3ed26147db216fd664",
          "topics": [
            "0xddf252ad1be2c89b69c2b068fc378daa952ba7f163c4a11628f55a4df523b3ef",
            "0x0000000000000000000000000000000000000000000000000000000000000000",
            "0x000000000000000000000000c4fe13e473e6ad2bb0ba8a365bf581080d92db18",
            "0x00000000000000000000000000000000000000000000000000000000000015eb"
          ],
          "data": "0x",
          "blockHash": "0x95b525392b662a48a32b9d78493faa01c4802cda6af110591273429282f822e3",
          "blockNumber": "0x1eae3ab",
          "blockTimestamp": "0x68d890f7",
          "transactionHash": "0xdfc7c10f615d68e404e3003e25eed6722ee9b8ddfcf58541037ec7b5078d3ca0",
          "transactionIndex": "0x6",
          "logIndex": "0x4",
          "removed": false
        },
        {
          "address": "0x00b036b58a818b1bc34d502d3fe730db729e62ac",
          "topics": [
            "0xf208f4912782fd25c7f114ca3723a2d5dd6f3bcc3ac8db5af63baa85f711d5ec",
            "0xcfe7201cfc67da41f97ed9710d0b35f8d969270c5fe3b9f0a20e841242633579",
            "0x000000000000000000000000f969aee60879c54baaed9f3ed26147db216fd664"
          ],
          "data": "0xfffffffffffffffffffffffffffffffffffffffffffffffffffffffffff2764c00000000000000000000000000000000000000000000000000000000000d89b4000000000000000000000000000000000000000000000002b5e3af16b188000000000000000000000000000000000000000000000000000000000000000015eb",
          "blockHash": "0x95b525392b662a48a32b9d78493faa01c4802cda6af110591273429282f822e3",
          "blockNumber": "0x1eae3ab",
          "blockTimestamp": "0x68d890f7",
          "transactionHash": "0xdfc7c10f615d68e404e3003e25eed6722ee9b8ddfcf58541037ec7b5078d3ca0",
          "transactionIndex": "0x6",
          "logIndex": "0x5",
          "removed": false
        },
        {
          "address": "0x29578e9e7979ea991847c152022b7caa8f9dcbeb",
          "topics": [
            "0xddf252ad1be2c89b69c2b068fc378daa952ba7f163c4a11628f55a4df523b3ef",
            "0x000000000000000000000000c4fe13e473e6ad2bb0ba8a365bf581080d92db18",
            "0x00000000000000000000000000b036b58a818b1bc34d502d3fe730db729e62ac"
          ],
          "data": "0x000000000000000000000000000000000000000000000002b5e3af16b187fffe",
          "blockHash": "0x95b525392b662a48a32b9d78493faa01c4802cda6af110591273429282f822e3",
          "blockNumber": "0x1eae3ab",
          "blockTimestamp": "0x68d890f7",
          "transactionHash": "0xdfc7c10f615d68e404e3003e25eed6722ee9b8ddfcf58541037ec7b5078d3ca0",
          "transactionIndex": "0x6",
          "logIndex": "0x6",
          "removed": false
        },
        {
          "address": "0xdc495e78b6b9caf67e732aab83490d80b1befc83",
          "topics": [
            "0xddf252ad1be2c89b69c2b068fc378daa952ba7f163c4a11628f55a4df523b3ef",
            "0x000000000000000000000000c4fe13e473e6ad2bb0ba8a365bf581080d92db18",
            "0x00000000000000000000000000b036b58a818b1bc34d502d3fe730db729e62ac"
          ],
          "data": "0x000000000000000000000000000000000000000000000002b5e3af16b187fffe",
          "blockHash": "0x95b525392b662a48a32b9d78493faa01c4802cda6af110591273429282f822e3",
          "blockNumber": "0x1eae3ab",
          "blockTimestamp": "0x68d890f7",
          "transactionHash": "0xdfc7c10f615d68e404e3003e25eed6722ee9b8ddfcf58541037ec7b5078d3ca0",
          "transactionIndex": "0x6",
          "logIndex": "0x7",
          "removed": false
        }
      ],
      "logsBloom": "0x00000000000000000000000000000000000000000000000000000010000000000000000000000000000000000000000000100000001000000000020000000000080000000000000000000008004000000000080000000000000000101000000040000000020000000000000000004800000000000040000000000010000020000000000001000000000000000008000000000000000080000000000000000000000004000000000008000000000000000800000000000020000000000000000000000002480000000000000000000000000000000000000000000020000020004000000001000800000000000000000004000000000002000000000000002010",
      "type": "0x2",
      "transactionHash": "0xdfc7c10f615d68e404e3003e25eed6722ee9b8ddfcf58541037ec7b5078d3ca0",
      "transactionIndex": "0x6",
      "blockHash": "0x95b525392b662a48a32b9d78493faa01c4802cda6af110591273429282f822e3",
      "blockNumber": "0x1eae3ab",
      "gasUsed": "0x65c18",
      "effectiveGasPrice": "0xfe",
      "from": "0xc4fe13e473e6ad2bb0ba8a365bf581080d92db18",
      "to": "0xf969aee60879c54baaed9f3ed26147db216fd664",
      "contractAddress": null,
      "l1BaseFeeScalar": "0x7d0",
      "l1BlobBaseFee": "0x1",
      "l1BlobBaseFeeScalar": "0xdbba0",
      "l1Fee": "0x152",
      "l1GasPrice": "0xb",
      "l1GasUsed": "0x10e4"
    }
  ],
  "libraries": [],
  "pending": [],
  "returns": {},
  "timestamp": 1759023350,
  "chain": 1301,
  "commit": "b7c866c"
}