{
  "transactions": [
    {
      "hash": "0xb504abd57d23e895070b93ffc598dc549bebfc2f63044d90052b95513c8bdef4",
      "transactionType": "CALL",
      "contractName": null,
      "contractAddress": "0x96bea0e29d5a261464e8e7260c1f833aae39dbaf",
      "function": "approve(address,uint256)",
      "arguments": [
        "0x000000000022D473030F116dDEE9F6B43aC78BA3",
        "115792089237316195423570985008687907853269984665640564039457584007913129639935"
      ],
      "transaction": {
        "from": "0xc4fe13e473e6ad2bb0ba8a365bf581080d92db18",
        "to": "0x96bea0e29d5a261464e8e7260c1f833aae39dbaf",
        "gas": "0x9770",
        "value": "0x0",
        "input": "0x095ea7b3000000000000000000000000000000000022d473030f116ddee9f6b43ac78ba3ffffffffffffffffffffffffffffffffffffffffffffffffffffffffffffffff",
        "nonce": "0x131",
        "chainId": "0x515"
      },
      "additionalContracts": [],
      "isFixedGasLimit": false
    },
    {
      "hash": "0xb03217b13e95a327f1e920436a00115ec839415a8dbcd74d22707b6622243a66",
      "transactionType": "CALL",
      "contractName": null,
      "contractAddress": "0xdf955cb2f354a0650b2bc8c3460b9ec65d61c714",
      "function": "approve(address,uint256)",
      "arguments": [
        "0x000000000022D473030F116dDEE9F6B43aC78BA3",
        "115792089237316195423570985008687907853269984665640564039457584007913129639935"
      ],
      "transaction": {
        "from": "0xc4fe13e473e6ad2bb0ba8a365bf581080d92db18",
        "to": "0xdf955cb2f354a0650b2bc8c3460b9ec65d61c714",
        "gas": "0x9770",
        "value": "0x0",
        "input": "0x095ea7b3000000000000000000000000000000000022d473030f116ddee9f6b43ac78ba3ffffffffffffffffffffffffffffffffffffffffffffffffffffffffffffffff",
        "nonce": "0x132",
        "chainId": "0x515"
      },
      "additionalContracts": [],
      "isFixedGasLimit": false
    },
    {
      "hash": "0xb256637aa80b4f2b4a4bb98e172e4fbe14fb23223e6496da3fb20ec4edd6269c",
      "transactionType": "CALL",
      "contractName": null,
      "contractAddress": "0x000000000022d473030f116ddee9f6b43ac78ba3",
      "function": "approve(address,address,uint160,uint48)",
      "arguments": [
        "0x96beA0E29D5a261464E8e7260c1F833aAe39dbaF",
        "0xf969Aee60879C54bAAed9F3eD26147Db216Fd664",
        "1461501637330902918203684832716283019655932542975",
        "281474976710655"
      ],
      "transaction": {
        "from": "0xc4fe13e473e6ad2bb0ba8a365bf581080d92db18",
        "to": "0x000000000022d473030f116ddee9f6b43ac78ba3",
        "gas": "0x96a0",
        "value": "0x0",
        "input": "0x87517c4500000000000000000000000096bea0e29d5a261464e8e7260c1f833aae39dbaf000000000000000000000000f969aee60879c54baaed9f3ed26147db216fd664000000000000000000000000ffffffffffffffffffffffffffffffffffffffff0000000000000000000000000000000000000000000000000000ffffffffffff",
        "nonce": "0x133",
        "chainId": "0x515"
      },
      "additionalContracts": [],
      "isFixedGasLimit": false
    },
    {
      "hash": "0x5ae846f419b896ef759b4cbde14e67c35e92fc1884095062171025f34735481b",
      "transactionType": "CALL",
      "contractName": null,
      "contractAddress": "0x000000000022d473030f116ddee9f6b43ac78ba3",
      "function": "approve(address,address,uint160,uint48)",
      "arguments": [
        "0xdf955Cb2F354a0650b2bc8c3460B9eC65d61C714",
        "0xf969Aee60879C54bAAed9F3eD26147Db216Fd664",
        "1461501637330902918203684832716283019655932542975",
        "281474976710655"
      ],
      "transaction": {
        "from": "0xc4fe13e473e6ad2bb0ba8a365bf581080d92db18",
        "to": "0x000000000022d473030f116ddee9f6b43ac78ba3",
        "gas": "0x96a0",
        "value": "0x0",
        "input": "0x87517c45000000000000000000000000df955cb2f354a0650b2bc8c3460b9ec65d61c714000000000000000000000000f969aee60879c54baaed9f3ed26147db216fd664000000000000000000000000ffffffffffffffffffffffffffffffffffffffff0000000000000000000000000000000000000000000000000000ffffffffffff",
        "nonce": "0x134",
        "chainId": "0x515"
      },
      "additionalContracts": [],
      "isFixedGasLimit": false
    },
    {
      "hash": "0x52617ffdff55b910b0aa05c18c18abab2bd53aa4ee793a873e595d30809f0dc4",
      "transactionType": "CALL",
      "contractName": null,
      "contractAddress": "0xf969aee60879c54baaed9f3ed26147db216fd664",
      "function": "modifyLiquidities(bytes,uint256)",
      "arguments": [
        "0x0000000000000000000000000000000000000000000000000000000000000040000000000000000000000000000000000000000000000000000000000000008000000000000000000000000000000000000000000000000000000000000000030212120000000000000000000000000000000000000000000000000000000000000000000000000000000000000000000000000000000000000000000000000300000000000000000000000000000000000000000000000000000000000000600000000000000000000000000000000000000000000000000000000000000220000000000000000000000000000000000000000000000000000000000000026000000000000000000000000000000000000000000000000000000000000001a000000000000000000000000096bea0e29d5a261464e8e7260c1f833aae39dbaf000000000000000000000000df955cb2f354a0650b2bc8c3460b9ec65d61c7140000000000000000000000000000000000000000000000000000000000000bb8000000000000000000000000000000000000000000000000000000000000003c0000000000000000000000009ac51a7cfc8994b04ae3cca474f8095b24b3c3c0fffffffffffffffffffffffffffffffffffffffffffffffffffffffffff2764c00000000000000000000000000000000000000000000000000000000000d89b4000000000000000000000000000000000000000000000002b5e3af16b188000000000000000000000000000000000000ffffffffffffffffffffffffffffffff00000000000000000000000000000000ffffffffffffffffffffffffffffffff000000000000000000000000c4fe13e473e6ad2bb0ba8a365bf581080d92db1800000000000000000000000000000000000000000000000000000000000001800000000000000000000000000000000000000000000000000000000000000000000000000000000000000000000000000000000000000000000000000000002000000000000000000000000096bea0e29d5a261464e8e7260c1f833aae39dbaf0000000000000000000000000000000000000000000000000000000000000020000000000000000000000000df955cb2f354a0650b2bc8c3460b9ec65d61c714",
        "1759021550"
      ],
      "transaction": {
        "from": "0xc4fe13e473e6ad2bb0ba8a365bf581080d92db18",
        "to": "0xf969aee60879c54baaed9f3ed26147db216fd664",
        "gas": "0x86c89",
        "value": "0x0",
        "input": "0xdd46508f00000000000000000000000000000000000000000000000000000000000000400000000000000000000000000000000000000000000000000000000068d889ee00000000000000000000000000000000000000000000000000000000000003400000000000000000000000000000000000000000000000000000000000000040000000000000000000000000000000000000000000000000000000000000008000000000000000000000000000000000000000000000000000000000000000030212120000000000000000000000000000000000000000000000000000000000000000000000000000000000000000000000000000000000000000000000000300000000000000000000000000000000000000000000000000000000000000600000000000000000000000000000000000000000000000000000000000000220000000000000000000000000000000000000000000000000000000000000026000000000000000000000000000000000000000000000000000000000000001a000000000000000000000000096bea0e29d5a261464e8e7260c1f833aae39dbaf000000000000000000000000df955cb2f354a0650b2bc8c3460b9ec65d61c7140000000000000000000000000000000000000000000000000000000000000bb8000000000000000000000000000000000000000000000000000000000000003c0000000000000000000000009ac51a7cfc8994b04ae3cca474f8095b24b3c3c0fffffffffffffffffffffffffffffffffffffffffffffffffffffffffff2764c00000000000000000000000000000000000000000000000000000000000d89b4000000000000000000000000000000000000000000000002b5e3af16b188000000000000000000000000000000000000ffffffffffffffffffffffffffffffff00000000000000000000000000000000ffffffffffffffffffffffffffffffff000000000000000000000000c4fe13e473e6ad2bb0ba8a365bf581080d92db1800000000000000000000000000000000000000000000000000000000000001800000000000000000000000000000000000000000000000000000000000000000000000000000000000000000000000000000000000000000000000000000002000000000000000000000000096bea0e29d5a261464e8e7260c1f833aae39dbaf0000000000000000000000000000000000000000000000000000000000000020000000000000000000000000df955cb2f354a0650b2bc8c3460b9ec65d61c714",
        "nonce": "0x135",
        "chainId": "0x515"
      },
      "additionalContracts": [],
      "isFixedGasLimit": false
    }
  ],
  "receipts": [
    {
      "status": "0x1",
      "cumulativeGasUsed": "0xa2e42",
      "logs": [
        {
          "address": "0x96bea0e29d5a261464e8e7260c1f833aae39dbaf",
          "topics": [
            "0x8c5be1e5ebec7d5bd14f71427d1e84f3dd0314c0f7b2291e5b200ac8c7c3b925",
            "0x000000000000000000000000c4fe13e473e6ad2bb0ba8a365bf581080d92db18",
            "0x000000000000000000000000000000000022d473030f116ddee9f6b43ac78ba3"
          ],
          "data": "0xffffffffffffffffffffffffffffffffffffffffffffffffffffffffffffffff",
          "blockHash": "0x8627469fb4ea8eaa50e9b20f6a813e26945fb2c9a28b3cb940659dea97bce4ea",
          "blockNumber": "0x1eacea5",
          "blockTimestamp": "0x68d87bf1",
          "transactionHash": "0xb504abd57d23e895070b93ffc598dc549bebfc2f63044d90052b95513c8bdef4",
          "transactionIndex": "0x3",
          "logIndex": "0x8",
          "removed": false
        }
      ],
      "logsBloom": "0x00000000000000000000000000000000000000000000000000000010000000000000000000000000000000000000000000000000800000000000000000200000000000000000000000004000000000000000000000000800000000000000000040000000000000000000000000000000000000000000000000000000000000000000000000000000000000000000000000000000000000000000000000000000020000000000001000008000000000000000000000000000000000000000000000000000000000000000000000000000000000000000000000000000000000000010000000000800000000000000100000000000000000000000000000000000",
      "type": "0x2",
      "transactionHash": "0xb504abd57d23e895070b93ffc598dc549bebfc2f63044d90052b95513c8bdef4",
      "transactionIndex": "0x3",
      "blockHash": "0x8627469fb4ea8eaa50e9b20f6a813e26945fb2c9a28b3cb940659dea97bce4ea",
      "blockNumber": "0x1eacea5",
      "gasUsed": "0x6da4",
      "effectiveGasPrice": "0xfe",
      "from": "0xc4fe13e473e6ad2bb0ba8a365bf581080d92db18",
      "to": "0x96bea0e29d5a261464e8e7260c1f833aae39dbaf",
      "contractAddress": null,
      "l1BaseFeeScalar": "0x7d0",
      "l1BlobBaseFee": "0x1",
      "l1BlobBaseFeeScalar": "0xdbba0",
      "l1Fee": "0x73",
      "l1GasPrice": "0x8",
      "l1GasUsed": "0x640"
    },
    {
      "status": "0x1",
      "cumulativeGasUsed": "0xa9be6",
      "logs": [
        {
          "address": "0xdf955cb2f354a0650b2bc8c3460b9ec65d61c714",
          "topics": [
            "0x8c5be1e5ebec7d5bd14f71427d1e84f3dd0314c0f7b2291e5b200ac8c7c3b925",
            "0x000000000000000000000000c4fe13e473e6ad2bb0ba8a365bf581080d92db18",
            "0x000000000000000000000000000000000022d473030f116ddee9f6b43ac78ba3"
          ],
          "data": "0xffffffffffffffffffffffffffffffffffffffffffffffffffffffffffffffff",
          "blockHash": "0x8627469fb4ea8eaa50e9b20f6a813e26945fb2c9a28b3cb940659dea97bce4ea",
          "blockNumber": "0x1eacea5",
          "blockTimestamp": "0x68d87bf1",
          "transactionHash": "0xb03217b13e95a327f1e920436a00115ec839415a8dbcd74d22707b6622243a66",
          "transactionIndex": "0x4",
          "logIndex": "0x9",
          "removed": false
        }
      ],
      "logsBloom": "0x00000000000000000000000000800000000000000000000000000010000000000000000000000000000000000001000000000000800000000000000000200000000000000000000000004000000000000000000000000800000000000000000040000000000000000000000000000000000000000001000000000000000000000000000000000000000000000000000000000000000000000000000000000000020000000000000000000000000000000000000000000000000000000000000000000000000000000000000000000000000000000000000000000000000000000010000000000800000000000000000000000000000000000000000000000000",
      "type": "0x2",
      "transactionHash": "0xb03217b13e95a327f1e920436a00115ec839415a8dbcd74d22707b6622243a66",
      "transactionIndex": "0x4",
      "blockHash": "0x8627469fb4ea8eaa50e9b20f6a813e26945fb2c9a28b3cb940659dea97bce4ea",
      "blockNumber": "0x1eacea5",
      "gasUsed": "0x6da4",
      "effectiveGasPrice": "0xfe",
      "from": "0xc4fe13e473e6ad2bb0ba8a365bf581080d92db18",
      "to": "0xdf955cb2f354a0650b2bc8c3460b9ec65d61c714",
      "contractAddress": null,
      "l1BaseFeeScalar": "0x7d0",
      "l1BlobBaseFee": "0x1",
      "l1BlobBaseFeeScalar": "0xdbba0",
      "l1Fee": "0x73",
      "l1GasPrice": "0x8",
      "l1GasUsed": "0x640"
    },
    {
      "status": "0x1",
      "cumulativeGasUsed": "0x176a2",
      "logs": [
        {
          "address": "0x000000000022d473030f116ddee9f6b43ac78ba3",
          "topics": [
            "0xda9fa7c1b00402c17d0161b249b1ab8bbec047c5a52207b9c112deffd817036b",
            "0x000000000000000000000000c4fe13e473e6ad2bb0ba8a365bf581080d92db18",
            "0x00000000000000000000000096bea0e29d5a261464e8e7260c1f833aae39dbaf",
            "0x000000000000000000000000f969aee60879c54baaed9f3ed26147db216fd664"
          ],
          "data": "0x000000000000000000000000ffffffffffffffffffffffffffffffffffffffff0000000000000000000000000000000000000000000000000000ffffffffffff",
          "blockHash": "0x626c1bd9c7c60d2c941d3d586c18c4db5f36628e4c3575b2b0a7a7442daa657f",
          "blockNumber": "0x1eacea6",
          "blockTimestamp": "0x68d87bf2",
          "transactionHash": "0xb256637aa80b4f2b4a4bb98e172e4fbe14fb23223e6496da3fb20ec4edd6269c",
          "transactionIndex": "0x2",
          "logIndex": "0x0",
          "removed": false
        }
      ],
      "logsBloom": "0x00010000000000000000000000000000000000000000000000000010000000000000000000000000000000000000000000000000000000000000000000080000000000000000000000000000000000000000000000000000000000001000000040000000000000000000000000000000000000000040000000000000000000000021000000000000000000000000000000000000000000000020000000000000000000000000000000000000001000000000000000000000000000080000000000000000000000000000000000000000000000000000000040000000000000000000000000000800000000000000000000000000000000000000000000002400",
      "type": "0x2",
      "transactionHash": "0xb256637aa80b4f2b4a4bb98e172e4fbe14fb23223e6496da3fb20ec4edd6269c",
      "transactionIndex": "0x2",
      "blockHash": "0x626c1bd9c7c60d2c941d3d586c18c4db5f36628e4c3575b2b0a7a7442daa657f",
      "blockNumber": "0x1eacea6",
      "gasUsed": "0x6d0e",
      "effectiveGasPrice": "0xfe",
      "from": "0xc4fe13e473e6ad2bb0ba8a365bf581080d92db18",
      "to": "0x000000000022d473030f116ddee9f6b43ac78ba3",
      "contractAddress": null,
      "l1BaseFeeScalar": "0x7d0",
      "l1BlobBaseFee": "0x1",
      "l1BlobBaseFeeScalar": "0xdbba0",
      "l1Fee": "0x7d",
      "l1GasPrice": "0x8",
      "l1GasUsed": "0x6cd"
    },
    {
      "status": "0x1",
      "cumulativeGasUsed": "0x1e3b0",
      "logs": [
        {
          "address": "0x000000000022d473030f116ddee9f6b43ac78ba3",
          "topics": [
            "0xda9fa7c1b00402c17d0161b249b1ab8bbec047c5a52207b9c112deffd817036b",
            "0x000000000000000000000000c4fe13e473e6ad2bb0ba8a365bf581080d92db18",
            "0x000000000000000000000000df955cb2f354a0650b2bc8c3460b9ec65d61c714",
            "0x000000000000000000000000f969aee60879c54baaed9f3ed26147db216fd664"
          ],
          "data": "0x000000000000000000000000ffffffffffffffffffffffffffffffffffffffff0000000000000000000000000000000000000000000000000000ffffffffffff",
          "blockHash": "0x626c1bd9c7c60d2c941d3d586c18c4db5f36628e4c3575b2b0a7a7442daa657f",
          "blockNumber": "0x1eacea6",
          "blockTimestamp": "0x68d87bf2",
          "transactionHash": "0x5ae846f419b896ef759b4cbde14e67c35e92fc1884095062171025f34735481b",
          "transactionIndex": "0x3",
          "logIndex": "0x1",
          "removed": false
        }
      ],
      "logsBloom": "0x008100000000000000000000000000000000000000000000000000100000000000000000000000000000000000000000000000000000000000000000000a0000000000000000000000000000000000000000000000000000000000001000000040000000000002000000000000000000000000000040000000000000000000000020000000000000000000000000000000000000000000000000000000000000000000000000000000000000000000000000000000000000000000080000000000000000000000000000000000000000000000000000000040000000000000000000000000000800000000000000000000000000000000000000000000002400",
      "type": "0x2",
      "transactionHash": "0x5ae846f419b896ef759b4cbde14e67c35e92fc1884095062171025f34735481b",
      "transactionIndex": "0x3",
      "blockHash": "0x626c1bd9c7c60d2c941d3d586c18c4db5f36628e4c3575b2b0a7a7442daa657f",
      "blockNumber": "0x1eacea6",
      "gasUsed": "0x6d0e",
      "effectiveGasPrice": "0xfe",
      "from": "0xc4fe13e473e6ad2bb0ba8a365bf581080d92db18",
      "to": "0x000000000022d473030f116ddee9f6b43ac78ba3",
      "contractAddress": null,
      "l1BaseFeeScalar": "0x7d0",
      "l1BlobBaseFee": "0x1",
      "l1BlobBaseFeeScalar": "0xdbba0",
      "l1Fee": "0x7d",
      "l1GasPrice": "0x8",
      "l1GasUsed": "0x6cd"
    },
    {
      "status": "0x1",
      "cumulativeGasUsed": "0x7fcfc",
      "logs": [
        {
          "address": "0xf969aee60879c54baaed9f3ed26147db216fd664",
          "topics": [
            "0xddf252ad1be2c89b69c2b068fc378daa952ba7f163c4a11628f55a4df523b3ef",
            "0x0000000000000000000000000000000000000000000000000000000000000000",
            "0x000000000000000000000000c4fe13e473e6ad2bb0ba8a365bf581080d92db18",
            "0x00000000000000000000000000000000000000000000000000000000000015e7"
          ],
          "data": "0x",
          "blockHash": "0x626c1bd9c7c60d2c941d3d586c18c4db5f36628e4c3575b2b0a7a7442daa657f",
          "blockNumber": "0x1eacea6",
          "blockTimestamp": "0x68d87bf2",
          "transactionHash": "0x52617ffdff55b910b0aa05c18c18abab2bd53aa4ee793a873e595d30809f0dc4",
          "transactionIndex": "0x4",
          "logIndex": "0x2",
          "removed": false
        },
        {
          "address": "0x00b036b58a818b1bc34d502d3fe730db729e62ac",
          "topics": [
            "0xf208f4912782fd25c7f114ca3723a2d5dd6f3bcc3ac8db5af63baa85f711d5ec",
            "0xe059558a465f444c8252fd9fb160c0d71d6f391c4c7739acfae31e8fb39cb40a",
            "0x000000000000000000000000f969aee60879c54baaed9f3ed26147db216fd664"
          ],
          "data": "0xfffffffffffffffffffffffffffffffffffffffffffffffffffffffffff2764c00000000000000000000000000000000000000000000000000000000000d89b4000000000000000000000000000000000000000000000002b5e3af16b188000000000000000000000000000000000000000000000000000000000000000015e7",
          "blockHash": "0x626c1bd9c7c60d2c941d3d586c18c4db5f36628e4c3575b2b0a7a7442daa657f",
          "blockNumber": "0x1eacea6",
          "blockTimestamp": "0x68d87bf2",
          "transactionHash": "0x52617ffdff55b910b0aa05c18c18abab2bd53aa4ee793a873e595d30809f0dc4",
          "transactionIndex": "0x4",
          "logIndex": "0x3",
          "removed": false
        },
        {
          "address": "0x96bea0e29d5a261464e8e7260c1f833aae39dbaf",
          "topics": [
            "0xddf252ad1be2c89b69c2b068fc378daa952ba7f163c4a11628f55a4df523b3ef",
            "0x000000000000000000000000c4fe13e473e6ad2bb0ba8a365bf581080d92db18",
            "0x00000000000000000000000000b036b58a818b1bc34d502d3fe730db729e62ac"
          ],
          "data": "0x000000000000000000000000000000000000000000000002b5e3af16b187fffe",
          "blockHash": "0x626c1bd9c7c60d2c941d3d586c18c4db5f36628e4c3575b2b0a7a7442daa657f",
          "blockNumber": "0x1eacea6",
          "blockTimestamp": "0x68d87bf2",
          "transactionHash": "0x52617ffdff55b910b0aa05c18c18abab2bd53aa4ee793a873e595d30809f0dc4",
          "transactionIndex": "0x4",
          "logIndex": "0x4",
          "removed": false
        },
        {
          "address": "0xdf955cb2f354a0650b2bc8c3460b9ec65d61c714",
          "topics": [
            "0xddf252ad1be2c89b69c2b068fc378daa952ba7f163c4a11628f55a4df523b3ef",
            "0x000000000000000000000000c4fe13e473e6ad2bb0ba8a365bf581080d92db18",
            "0x00000000000000000000000000b036b58a818b1bc34d502d3fe730db729e62ac"
          ],
          "data": "0x000000000000000000000000000000000000000000000002b5e3af16b187fffe",
          "blockHash": "0x626c1bd9c7c60d2c941d3d586c18c4db5f36628e4c3575b2b0a7a7442daa657f",
          "blockNumber": "0x1eacea6",
          "blockTimestamp": "0x68d87bf2",
          "transactionHash": "0x52617ffdff55b910b0aa05c18c18abab2bd53aa4ee793a873e595d30809f0dc4",
          "transactionIndex": "0x4",
          "logIndex": "0x5",
          "removed": false
        }
      ],
      "logsBloom": "0x00000000000000080000000000800000000000000000000000000010000000000000000000000000000000000001000000100000001000000000000000000000000000000000000000000008000000000000000000000000000000001000000040000000020000000000000000004800000000000041000000000010000000000000000001000000000000000008000000000100000000000000000000000000000004000000001000008000000000000800000000000020000000000000000080040002080000000000000000000000000001000000000000000000000020004000000000000800000000000000100004000000000002000000000000002010",
      "type": "0x2",
      "transactionHash": "0x52617ffdff55b910b0aa05c18c18abab2bd53aa4ee793a873e595d30809f0dc4",
      "transactionIndex": "0x4",
      "blockHash": "0x626c1bd9c7c60d2c941d3d586c18c4db5f36628e4c3575b2b0a7a7442daa657f",
      "blockNumber": "0x1eacea6",
      "gasUsed": "0x6194c",
      "effectiveGasPrice": "0xfe",
      "from": "0xc4fe13e473e6ad2bb0ba8a365bf581080d92db18",
      "to": "0xf969aee60879c54baaed9f3ed26147db216fd664",
      "contractAddress": null,
      "l1BaseFeeScalar": "0x7d0",
      "l1BlobBaseFee": "0x1",
      "l1BlobBaseFeeScalar": "0xdbba0",
      "l1Fee": "0x138",
      "l1GasPrice": "0x8",
      "l1GasUsed": "0x10e4"
    }
  ],
  "libraries": [],
  "pending": [],
  "returns": {},
  "timestamp": 1759017969,
  "chain": 1301,
  "commit": "c6ee337"
}