{
  "transactions": [
    {
      "hash": "0x0f081379d0f62639e88d702b28a3ff673117a55f50dfe76e43fa0c7e7851ddfe",
      "transactionType": "CALL",
      "contractName": null,
      "contractAddress": "0x5f8cfacda1f8a81f50200b80c2d63f61bc64630e",
      "function": "approve(address,uint256)",
      "arguments": [
        "0x000000000022D473030F116dDEE9F6B43aC78BA3",
        "115792089237316195423570985008687907853269984665640564039457584007913129639935"
      ],
      "transaction": {
        "from": "0xc4fe13e473e6ad2bb0ba8a365bf581080d92db18",
        "to": "0x5f8cfacda1f8a81f50200b80c2d63f61bc64630e",
        "gas": "0x9770",
        "value": "0x0",
        "input": "0x095ea7b3000000000000000000000000000000000022d473030f116ddee9f6b43ac78ba3ffffffffffffffffffffffffffffffffffffffffffffffffffffffffffffffff",
        "nonce": "0x1b8",
        "chainId": "0x515"
      },
      "additionalContracts": [],
      "isFixedGasLimit": false
    },
    {
      "hash": "0xa1bae65ccd5b728b9bc58ffd80b7809232667ab2eae81a451c9355879da6d5ee",
      "transactionType": "CALL",
      "contractName": null,
      "contractAddress": "0x7402b4542619128199383e64f0598028ea9d50b7",
      "function": "approve(address,uint256)",
      "arguments": [
        "0x000000000022D473030F116dDEE9F6B43aC78BA3",
        "115792089237316195423570985008687907853269984665640564039457584007913129639935"
      ],
      "transaction": {
        "from": "0xc4fe13e473e6ad2bb0ba8a365bf581080d92db18",
        "to": "0x7402b4542619128199383e64f0598028ea9d50b7",
        "gas": "0x102cf",
        "value": "0x0",
        "input": "0x095ea7b3000000000000000000000000000000000022d473030f116ddee9f6b43ac78ba3ffffffffffffffffffffffffffffffffffffffffffffffffffffffffffffffff",
        "nonce": "0x1b9",
        "chainId": "0x515"
      },
      "additionalContracts": [],
      "isFixedGasLimit": false
    },
    {
      "hash": "0xeb1d0382c970d2b1b4073759ab305615bf81e3b6f507cf83c9212c5ab383580a",
      "transactionType": "CALL",
      "contractName": null,
      "contractAddress": "0x000000000022d473030f116ddee9f6b43ac78ba3",
      "function": "approve(address,address,uint160,uint48)",
      "arguments": [
        "0x5F8CfACDA1f8A81f50200B80C2D63F61bC64630E",
        "0xf969Aee60879C54bAAed9F3eD26147Db216Fd664",
        "1461501637330902918203684832716283019655932542975",
        "281474976710655"
      ],
      "transaction": {
        "from": "0xc4fe13e473e6ad2bb0ba8a365bf581080d92db18",
        "to": "0x000000000022d473030f116ddee9f6b43ac78ba3",
        "gas": "0x96a0",
        "value": "0x0",
        "input": "0x87517c450000000000000000000000005f8cfacda1f8a81f50200b80c2d63f61bc64630e000000000000000000000000f969aee60879c54baaed9f3ed26147db216fd664000000000000000000000000ffffffffffffffffffffffffffffffffffffffff0000000000000000000000000000000000000000000000000000ffffffffffff",
        "nonce": "0x1ba",
        "chainId": "0x515"
      },
      "additionalContracts": [],
      "isFixedGasLimit": false
    },
    {
      "hash": "0x61bd67264c1a1fae5093e0abcd419aa69aa05106a24084f0a99437bbefb7b03f",
      "transactionType": "CALL",
      "contractName": null,
      "contractAddress": "0x000000000022d473030f116ddee9f6b43ac78ba3",
      "function": "approve(address,address,uint160,uint48)",
      "arguments": [
        "0x7402b4542619128199383E64f0598028Ea9D50B7",
        "0xf969Aee60879C54bAAed9F3eD26147Db216Fd664",
        "1461501637330902918203684832716283019655932542975",
        "281474976710655"
      ],
      "transaction": {
        "from": "0xc4fe13e473e6ad2bb0ba8a365bf581080d92db18",
        "to": "0x000000000022d473030f116ddee9f6b43ac78ba3",
        "gas": "0x1112d",
        "value": "0x0",
        "input": "0x87517c450000000000000000000000007402b4542619128199383e64f0598028ea9d50b7000000000000000000000000f969aee60879c54baaed9f3ed26147db216fd664000000000000000000000000ffffffffffffffffffffffffffffffffffffffff0000000000000000000000000000000000000000000000000000ffffffffffff",
        "nonce": "0x1bb",
        "chainId": "0x515"
      },
      "additionalContracts": [],
      "isFixedGasLimit": false
    },
    {
      "hash": "0x1a0dc87b95232121676dcf8d37d4cbe20c26656b0c5032f06dfd5c1c58dad8db",
      "transactionType": "CALL",
      "contractName": null,
      "contractAddress": "0xf969aee60879c54baaed9f3ed26147db216fd664",
      "function": "modifyLiquidities(bytes,uint256)",
      "arguments": [
        "0x0000000000000000000000000000000000000000000000000000000000000040000000000000000000000000000000000000000000000000000000000000008000000000000000000000000000000000000000000000000000000000000000030212120000000000000000000000000000000000000000000000000000000000000000000000000000000000000000000000000000000000000000000000000300000000000000000000000000000000000000000000000000000000000000600000000000000000000000000000000000000000000000000000000000000220000000000000000000000000000000000000000000000000000000000000026000000000000000000000000000000000000000000000000000000000000001a00000000000000000000000005f8cfacda1f8a81f50200b80c2d63f61bc64630e0000000000000000000000007402b4542619128199383e64f0598028ea9d50b70000000000000000000000000000000000000000000000000000000000000bb8000000000000000000000000000000000000000000000000000000000000003c0000000000000000000000006de61420d77d47bd038c90fef421458e5dfec3c0fffffffffffffffffffffffffffffffffffffffffffffffffffffffffff2764c00000000000000000000000000000000000000000000000000000000000d89b4000000000000000000000000000000000000000000000002b5e3af16b188000000000000000000000000000000000000ffffffffffffffffffffffffffffffff00000000000000000000000000000000ffffffffffffffffffffffffffffffff000000000000000000000000c4fe13e473e6ad2bb0ba8a365bf581080d92db180000000000000000000000000000000000000000000000000000000000000180000000000000000000000000000000000000000000000000000000000000000000000000000000000000000000000000000000000000000000000000000000200000000000000000000000005f8cfacda1f8a81f50200b80c2d63f61bc64630e00000000000000000000000000000000000000000000000000000000000000200000000000000000000000007402b4542619128199383e64f0598028ea9d50b7",
        "1759030992"
      ],
      "transaction": {
        "from": "0xc4fe13e473e6ad2bb0ba8a365bf581080d92db18",
        "to": "0xf969aee60879c54baaed9f3ed26147db216fd664",
        "gas": "0x8c8cd",
        "value": "0x0",
        "input": "0xdd46508f00000000000000000000000000000000000000000000000000000000000000400000000000000000000000000000000000000000000000000000000068d8aed000000000000000000000000000000000000000000000000000000000000003400000000000000000000000000000000000000000000000000000000000000040000000000000000000000000000000000000000000000000000000000000008000000000000000000000000000000000000000000000000000000000000000030212120000000000000000000000000000000000000000000000000000000000000000000000000000000000000000000000000000000000000000000000000300000000000000000000000000000000000000000000000000000000000000600000000000000000000000000000000000000000000000000000000000000220000000000000000000000000000000000000000000000000000000000000026000000000000000000000000000000000000000000000000000000000000001a00000000000000000000000005f8cfacda1f8a81f50200b80c2d63f61bc64630e0000000000000000000000007402b4542619128199383e64f0598028ea9d50b70000000000000000000000000000000000000000000000000000000000000bb8000000000000000000000000000000000000000000000000000000000000003c0000000000000000000000006de61420d77d47bd038c90fef421458e5dfec3c0fffffffffffffffffffffffffffffffffffffffffffffffffffffffffff2764c00000000000000000000000000000000000000000000000000000000000d89b4000000000000000000000000000000000000000000000002b5e3af16b188000000000000000000000000000000000000ffffffffffffffffffffffffffffffff00000000000000000000000000000000ffffffffffffffffffffffffffffffff000000000000000000000000c4fe13e473e6ad2bb0ba8a365bf581080d92db180000000000000000000000000000000000000000000000000000000000000180000000000000000000000000000000000000000000000000000000000000000000000000000000000000000000000000000000000000000000000000000000200000000000000000000000005f8cfacda1f8a81f50200b80c2d63f61bc64630e00000000000000000000000000000000000000000000000000000000000000200000000000000000000000007402b4542619128199383e64f0598028ea9d50b7",
        "nonce": "0x1bc",
        "chainId": "0x515"
      },
      "additionalContracts": [],
      "isFixedGasLimit": false
    }
  ],
  "receipts": [
    {
      "status": "0x1",
      "cumulativeGasUsed": "0x17738",
      "logs": [
        {
          "address": "0x5f8cfacda1f8a81f50200b80c2d63f61bc64630e",
          "topics": [
            "0x8c5be1e5ebec7d5bd14f71427d1e84f3dd0314c0f7b2291e5b200ac8c7c3b925",
            "0x000000000000000000000000c4fe13e473e6ad2bb0ba8a365bf581080d92db18",
            "0x000000000000000000000000000000000022d473030f116ddee9f6b43ac78ba3"
          ],
          "data": "0xffffffffffffffffffffffffffffffffffffffffffffffffffffffffffffffff",
          "blockHash": "0x6969598d588e4b2be40f7ba3e7ce67d81b1071f4df0b82fb9d8cb3ce05708ba3",
          "blockNumber": "0x1eaf38d",
          "blockTimestamp": "0x68d8a0d9",
          "transactionHash": "0x0f081379d0f62639e88d702b28a3ff673117a55f50dfe76e43fa0c7e7851ddfe",
          "transactionIndex": "0x2",
          "logIndex": "0x0",
          "removed": false
        }
      ],
      "logsBloom": "0x00000000000000000000000000000000000000000000000000000010000000000000000000000000000000000000000000000000800000000000000000200004000000000000000000004000000000000000000000000800000000000000000040000000000000000000000000000000000000000000000000000000000000000000000000000000000000000000000000000000000000000000000000000400020000000000000000000000000000000000000000000000000000000000000000000000000000000000000000000000000000000000000000000000000000000010000000000800000000000000000000000000000000000000000000000000",
      "type": "0x2",
      "transactionHash": "0x0f081379d0f62639e88d702b28a3ff673117a55f50dfe76e43fa0c7e7851ddfe",
      "transactionIndex": "0x2",
      "blockHash": "0x6969598d588e4b2be40f7ba3e7ce67d81b1071f4df0b82fb9d8cb3ce05708ba3",
      "blockNumber": "0x1eaf38d",
      "gasUsed": "0x6da4",
      "effectiveGasPrice": "0xff",
      "from": "0xc4fe13e473e6ad2bb0ba8a365bf581080d92db18",
      "to": "0x5f8cfacda1f8a81f50200b80c2d63f61bc64630e",
      "contractAddress": null,
      "l1BaseFeeScalar": "0x7d0",
      "l1BlobBaseFee": "0x1",
      "l1BlobBaseFeeScalar": "0xdbba0",
      "l1Fee": "0x7a",
      "l1GasPrice": "0xa",
      "l1GasUsed": "0x640"
    },
    {
      "status": "0x1",
      "cumulativeGasUsed": "0x23298",
      "logs": [
        {
          "address": "0x7402b4542619128199383e64f0598028ea9d50b7",
          "topics": [
            "0x8c5be1e5ebec7d5bd14f71427d1e84f3dd0314c0f7b2291e5b200ac8c7c3b925",
            "0x000000000000000000000000c4fe13e473e6ad2bb0ba8a365bf581080d92db18",
            "0x000000000000000000000000000000000022d473030f116ddee9f6b43ac78ba3"
          ],
          "data": "0xffffffffffffffffffffffffffffffffffffffffffffffffffffffffffffffff",
          "blockHash": "0x6969598d588e4b2be40f7ba3e7ce67d81b1071f4df0b82fb9d8cb3ce05708ba3",
          "blockNumber": "0x1eaf38d",
          "blockTimestamp": "0x68d8a0d9",
          "transactionHash": "0xa1bae65ccd5b728b9bc58ffd80b7809232667ab2eae81a451c9355879da6d5ee",
          "transactionIndex": "0x3",
          "logIndex": "0x1",
          "removed": false
        }
      ],
      "logsBloom": "0x00000000000040000000000000000000000000000000000000000010000000000000000000000000000000000000000000000000800000000000000000200000000000000000000040004000000000000000000000000800000000000000000040000000000000000000000000020000000000000000000000000000000000000000000000000000000000000000000000000000000000000000000000000000020000000000000000000000000000000000000000000000000000000000000000000000000000000000000000000000000000000000000000000000000000000010000000000800000000000000000000000000000000000000000000000000",
      "type": "0x2",
      "transactionHash": "0xa1bae65ccd5b728b9bc58ffd80b7809232667ab2eae81a451c9355879da6d5ee",
      "transactionIndex": "0x3",
      "blockHash": "0x6969598d588e4b2be40f7ba3e7ce67d81b1071f4df0b82fb9d8cb3ce05708ba3",
      "blockNumber": "0x1eaf38d",
      "gasUsed": "0xbb60",
      "effectiveGasPrice": "0xff",
      "from": "0xc4fe13e473e6ad2bb0ba8a365bf581080d92db18",
      "to": "0x7402b4542619128199383e64f0598028ea9d50b7",
      "contractAddress": null,
      "l1BaseFeeScalar": "0x7d0",
      "l1BlobBaseFee": "0x1",
      "l1BlobBaseFeeScalar": "0xdbba0",
      "l1Fee": "0x7a",
      "l1GasPrice": "0xa",
      "l1GasUsed": "0x640"
    },
    {
      "status": "0x1",
      "cumulativeGasUsed": "0x29fa6",
      "logs": [
        {
          "address": "0x000000000022d473030f116ddee9f6b43ac78ba3",
          "topics": [
            "0xda9fa7c1b00402c17d0161b249b1ab8bbec047c5a52207b9c112deffd817036b",
            "0x000000000000000000000000c4fe13e473e6ad2bb0ba8a365bf581080d92db18",
            "0x0000000000000000000000005f8cfacda1f8a81f50200b80c2d63f61bc64630e",
            "0x000000000000000000000000f969aee60879c54baaed9f3ed26147db216fd664"
          ],
          "data": "0x000000000000000000000000ffffffffffffffffffffffffffffffffffffffff0000000000000000000000000000000000000000000000000000ffffffffffff",
          "blockHash": "0x6969598d588e4b2be40f7ba3e7ce67d81b1071f4df0b82fb9d8cb3ce05708ba3",
          "blockNumber": "0x1eaf38d",
          "blockTimestamp": "0x68d8a0d9",
          "transactionHash": "0xeb1d0382c970d2b1b4073759ab305615bf81e3b6f507cf83c9212c5ab383580a",
          "transactionIndex": "0x4",
          "logIndex": "0x2",
          "removed": false
        }
      ],
      "logsBloom": "0x00010000000000000000000000000000000000000000000000000010000000000000000000000000000000000000000000000000000000000000000000080000000000000000000000000000000000000000000000000000000000001000000040000000000000000000000000000000000000000040000000000000000000000020000000000000000000000000000000000000000000000000000000000000000000000000000400000001000000000000000000000000000000080000000000000000000000000000000000000000000000000000000040000000000000000000000000000800000000000000400000000000000000000000000000002400",
      "type": "0x2",
      "transactionHash": "0xeb1d0382c970d2b1b4073759ab305615bf81e3b6f507cf83c9212c5ab383580a",
      "transactionIndex": "0x4",
      "blockHash": "0x6969598d588e4b2be40f7ba3e7ce67d81b1071f4df0b82fb9d8cb3ce05708ba3",
      "blockNumber": "0x1eaf38d",
      "gasUsed": "0x6d0e",
      "effectiveGasPrice": "0xff",
      "from": "0xc4fe13e473e6ad2bb0ba8a365bf581080d92db18",
      "to": "0x000000000022d473030f116ddee9f6b43ac78ba3",
      "contractAddress": null,
      "l1BaseFeeScalar": "0x7d0",
      "l1BlobBaseFee": "0x1",
      "l1BlobBaseFeeScalar": "0xdbba0",
      "l1Fee": "0x84",
      "l1GasPrice": "0xa",
      "l1GasUsed": "0x6cd"
    },
    {
      "status": "0x1",
      "cumulativeGasUsed": "0x35a70",
      "logs": [
        {
          "address": "0x000000000022d473030f116ddee9f6b43ac78ba3",
          "topics": [
            "0xda9fa7c1b00402c17d0161b249b1ab8bbec047c5a52207b9c112deffd817036b",
            "0x000000000000000000000000c4fe13e473e6ad2bb0ba8a365bf581080d92db18",
            "0x0000000000000000000000007402b4542619128199383e64f0598028ea9d50b7",
            "0x000000000000000000000000f969aee60879c54baaed9f3ed26147db216fd664"
          ],
          "data": "0x000000000000000000000000ffffffffffffffffffffffffffffffffffffffff0000000000000000000000000000000000000000000000000000ffffffffffff",
          "blockHash": "0x6969598d588e4b2be40f7ba3e7ce67d81b1071f4df0b82fb9d8cb3ce05708ba3",
          "blockNumber": "0x1eaf38d",
          "blockTimestamp": "0x68d8a0d9",
          "transactionHash": "0x61bd67264c1a1fae5093e0abcd419aa69aa05106a24084f0a99437bbefb7b03f",
          "transactionIndex": "0x5",
          "logIndex": "0x3",
          "removed": false
        }
      ],
      "logsBloom": "0x00010000000000000000000000200000000000000000000000000010000010000000000000000000000000000000000000000000000000000000000000080000000001000000000000000000000000000000000000000000000000001000000040000000000000000000000000000000000000000040000000000000000000000020000000000000000000000000000000000000000000000000000000000000000000000000000000000000000000000000000000000000000000080000000000000000000000000000000000000000000000000000000040000000000000000000000000000800000000000000000000000000000000000000000000002400",
      "type": "0x2",
      "transactionHash": "0x61bd67264c1a1fae5093e0abcd419aa69aa05106a24084f0a99437bbefb7b03f",
      "transactionIndex": "0x5",
      "blockHash": "0x6969598d588e4b2be40f7ba3e7ce67d81b1071f4df0b82fb9d8cb3ce05708ba3",
      "blockNumber": "0x1eaf38d",
      "gasUsed": "0xbaca",
      "effectiveGasPrice": "0xff",
      "from": "0xc4fe13e473e6ad2bb0ba8a365bf581080d92db18",
      "to": "0x000000000022d473030f116ddee9f6b43ac78ba3",
      "contractAddress": null,
      "l1BaseFeeScalar": "0x7d0",
      "l1BlobBaseFee": "0x1",
      "l1BlobBaseFeeScalar": "0xdbba0",
      "l1Fee": "0x85",
      "l1GasPrice": "0xa",
      "l1GasUsed": "0x6da"
    },
    {
      "status": "0x1",
      "cumulativeGasUsed": "0x9b688",
      "logs": [
        {
          "address": "0xf969aee60879c54baaed9f3ed26147db216fd664",
          "topics": [
            "0xddf252ad1be2c89b69c2b068fc378daa952ba7f163c4a11628f55a4df523b3ef",
            "0x0000000000000000000000000000000000000000000000000000000000000000",
            "0x000000000000000000000000c4fe13e473e6ad2bb0ba8a365bf581080d92db18",
            "0x00000000000000000000000000000000000000000000000000000000000015f2"
          ],
          "data": "0x",
          "blockHash": "0x6969598d588e4b2be40f7ba3e7ce67d81b1071f4df0b82fb9d8cb3ce05708ba3",
          "blockNumber": "0x1eaf38d",
          "blockTimestamp": "0x68d8a0d9",
          "transactionHash": "0x1a0dc87b95232121676dcf8d37d4cbe20c26656b0c5032f06dfd5c1c58dad8db",
          "transactionIndex": "0x6",
          "logIndex": "0x4",
          "removed": false
        },
        {
          "address": "0x00b036b58a818b1bc34d502d3fe730db729e62ac",
          "topics": [
            "0xf208f4912782fd25c7f114ca3723a2d5dd6f3bcc3ac8db5af63baa85f711d5ec",
            "0x39b321a3b2eab089a9e8ce80ebf958ff565d521b2c51d638dc0d5636cb7168ce",
            "0x000000000000000000000000f969aee60879c54baaed9f3ed26147db216fd664"
          ],
          "data": "0xfffffffffffffffffffffffffffffffffffffffffffffffffffffffffff2764c00000000000000000000000000000000000000000000000000000000000d89b4000000000000000000000000000000000000000000000002b5e3af16b188000000000000000000000000000000000000000000000000000000000000000015f2",
          "blockHash": "0x6969598d588e4b2be40f7ba3e7ce67d81b1071f4df0b82fb9d8cb3ce05708ba3",
          "blockNumber": "0x1eaf38d",
          "blockTimestamp": "0x68d8a0d9",
          "transactionHash": "0x1a0dc87b95232121676dcf8d37d4cbe20c26656b0c5032f06dfd5c1c58dad8db",
          "transactionIndex": "0x6",
          "logIndex": "0x5",
          "removed": false
        },
        {
          "address": "0x5f8cfacda1f8a81f50200b80c2d63f61bc64630e",
          "topics": [
            "0xddf252ad1be2c89b69c2b068fc378daa952ba7f163c4a11628f55a4df523b3ef",
            "0x000000000000000000000000c4fe13e473e6ad2bb0ba8a365bf581080d92db18",
            "0x00000000000000000000000000b036b58a818b1bc34d502d3fe730db729e62ac"
          ],
          "data": "0x000000000000000000000000000000000000000000000002b5e3af16b187fffe",
          "blockHash": "0x6969598d588e4b2be40f7ba3e7ce67d81b1071f4df0b82fb9d8cb3ce05708ba3",
          "blockNumber": "0x1eaf38d",
          "blockTimestamp": "0x68d8a0d9",
          "transactionHash": "0x1a0dc87b95232121676dcf8d37d4cbe20c26656b0c5032f06dfd5c1c58dad8db",
          "transactionIndex": "0x6",
          "logIndex": "0x6",
          "removed": false
        },
        {
          "address": "0x7402b4542619128199383e64f0598028ea9d50b7",
          "topics": [
            "0xddf252ad1be2c89b69c2b068fc378daa952ba7f163c4a11628f55a4df523b3ef",
            "0x000000000000000000000000c4fe13e473e6ad2bb0ba8a365bf581080d92db18",
            "0x00000000000000000000000000b036b58a818b1bc34d502d3fe730db729e62ac"
          ],
          "data": "0x000000000000000000000000000000000000000000000002b5e3af16b187fffe",
          "blockHash": "0x6969598d588e4b2be40f7ba3e7ce67d81b1071f4df0b82fb9d8cb3ce05708ba3",
          "blockNumber": "0x1eaf38d",
          "blockTimestamp": "0x68d8a0d9",
          "transactionHash": "0x1a0dc87b95232121676dcf8d37d4cbe20c26656b0c5032f06dfd5c1c58dad8db",
          "transactionIndex": "0x6",
          "logIndex": "0x7",
          "removed": false
        }
      ],
      "logsBloom": "0x00000000000040000040200000000000000000004000000000000010000000000000000000000000000000000000000004000000001000000000000000000004000000000000000040000008000000000000000000000800000000001000000040000000020000000000000000024800000000000040000000000010000000000000004001000000000000000008000000000008000000000000000000000400000004000000000000000000000000000800000000000020000000000000000000000002080000000000000000000000000000000000000000000000000020004000000000000800000000000000000004000000000002000000000000002010",
      "type": "0x2",
      "transactionHash": "0x1a0dc87b95232121676dcf8d37d4cbe20c26656b0c5032f06dfd5c1c58dad8db",
      "transactionIndex": "0x6",
      "blockHash": "0x6969598d588e4b2be40f7ba3e7ce67d81b1071f4df0b82fb9d8cb3ce05708ba3",
      "blockNumber": "0x1eaf38d",
      "gasUsed": "0x65c18",
      "effectiveGasPrice": "0xff",
      "from": "0xc4fe13e473e6ad2bb0ba8a365bf581080d92db18",
      "to": "0xf969aee60879c54baaed9f3ed26147db216fd664",
      "contractAddress": null,
      "l1BaseFeeScalar": "0x7d0",
      "l1BlobBaseFee": "0x1",
      "l1BlobBaseFeeScalar": "0xdbba0",
      "l1Fee": "0x149",
      "l1GasPrice": "0xa",
      "l1GasUsed": "0x10e4"
    }
  ],
  "libraries": [],
  "pending": [],
  "returns": {},
  "timestamp": 1759027416,
  "chain": 1301,
  "commit": "b7c866c"
}