{
  "transactions": [
    {
      "hash": "0x19d0689f6e57b5a45a370d4d2bfa37248958b93fa505eef4ad9517c1242bbab5",
      "transactionType": "CALL",
      "contractName": null,
      "contractAddress": "0x6e1dba6e02d559c1044d72c7697f74e19c132a43",
      "function": "approve(address,uint256)",
      "arguments": [
        "0x000000000022D473030F116dDEE9F6B43aC78BA3",
        "115792089237316195423570985008687907853269984665640564039457584007913129639935"
      ],
      "transaction": {
        "from": "0xc4fe13e473e6ad2bb0ba8a365bf581080d92db18",
        "to": "0x6e1dba6e02d559c1044d72c7697f74e19c132a43",
        "gas": "0x102cf",
        "value": "0x0",
        "input": "0x095ea7b3000000000000000000000000000000000022d473030f116ddee9f6b43ac78ba3ffffffffffffffffffffffffffffffffffffffffffffffffffffffffffffffff",
        "nonce": "0xb5",
        "chainId": "0x515"
      },
      "additionalContracts": [],
      "isFixedGasLimit": false
    },
    {
      "hash": "0x3fdb658bb042626e0c73570643f2c66b61f3f13a2941445e1abf9e4cf6b860ff",
      "transactionType": "CALL",
      "contractName": null,
      "contractAddress": "0x79de49ebd73b749ec19790132c3f8cc2e6e90f1b",
      "function": "approve(address,uint256)",
      "arguments": [
        "0x000000000022D473030F116dDEE9F6B43aC78BA3",
        "115792089237316195423570985008687907853269984665640564039457584007913129639935"
      ],
      "transaction": {
        "from": "0xc4fe13e473e6ad2bb0ba8a365bf581080d92db18",
        "to": "0x79de49ebd73b749ec19790132c3f8cc2e6e90f1b",
        "gas": "0x102cf",
        "value": "0x0",
        "input": "0x095ea7b3000000000000000000000000000000000022d473030f116ddee9f6b43ac78ba3ffffffffffffffffffffffffffffffffffffffffffffffffffffffffffffffff",
        "nonce": "0xb6",
        "chainId": "0x515"
      },
      "additionalContracts": [],
      "isFixedGasLimit": false
    },
    {
      "hash": "0xfac3431925762a341a1b65379568c447ac5f2a9de3ae33368f198a995592d85c",
      "transactionType": "CALL",
      "contractName": null,
      "contractAddress": "0x000000000022d473030f116ddee9f6b43ac78ba3",
      "function": "approve(address,address,uint160,uint48)",
      "arguments": [
        "0x6E1dBA6e02d559C1044D72C7697F74e19C132a43",
        "0xf969Aee60879C54bAAed9F3eD26147Db216Fd664",
        "1461501637330902918203684832716283019655932542975",
        "281474976710655"
      ],
      "transaction": {
        "from": "0xc4fe13e473e6ad2bb0ba8a365bf581080d92db18",
        "to": "0x000000000022d473030f116ddee9f6b43ac78ba3",
        "gas": "0x1112d",
        "value": "0x0",
        "input": "0x87517c450000000000000000000000006e1dba6e02d559c1044d72c7697f74e19c132a43000000000000000000000000f969aee60879c54baaed9f3ed26147db216fd664000000000000000000000000ffffffffffffffffffffffffffffffffffffffff0000000000000000000000000000000000000000000000000000ffffffffffff",
        "nonce": "0xb7",
        "chainId": "0x515"
      },
      "additionalContracts": [],
      "isFixedGasLimit": false
    },
    {
      "hash": "0xd62b9581eb0076b97083cfb9077edce10abf886754115754bfae10437ca063d2",
      "transactionType": "CALL",
      "contractName": null,
      "contractAddress": "0x000000000022d473030f116ddee9f6b43ac78ba3",
      "function": "approve(address,address,uint160,uint48)",
      "arguments": [
        "0x79DE49EbD73b749Ec19790132C3F8Cc2E6E90f1b",
        "0xf969Aee60879C54bAAed9F3eD26147Db216Fd664",
        "1461501637330902918203684832716283019655932542975",
        "281474976710655"
      ],
      "transaction": {
        "from": "0xc4fe13e473e6ad2bb0ba8a365bf581080d92db18",
        "to": "0x000000000022d473030f116ddee9f6b43ac78ba3",
        "gas": "0x1112d",
        "value": "0x0",
        "input": "0x87517c4500000000000000000000000079de49ebd73b749ec19790132c3f8cc2e6e90f1b000000000000000000000000f969aee60879c54baaed9f3ed26147db216fd664000000000000000000000000ffffffffffffffffffffffffffffffffffffffff0000000000000000000000000000000000000000000000000000ffffffffffff",
        "nonce": "0xb8",
        "chainId": "0x515"
      },
      "additionalContracts": [],
      "isFixedGasLimit": false
    },
    {
      "hash": "0x9ca35953944de27429cda5ca522660c467102143337f02f7d2b846fbf382d4e5",
      "transactionType": "CALL",
      "contractName": null,
      "contractAddress": "0xf969aee60879c54baaed9f3ed26147db216fd664",
      "function": "modifyLiquidities(bytes,uint256)",
      "arguments": [
        "0x0000000000000000000000000000000000000000000000000000000000000040000000000000000000000000000000000000000000000000000000000000008000000000000000000000000000000000000000000000000000000000000000030212120000000000000000000000000000000000000000000000000000000000000000000000000000000000000000000000000000000000000000000000000300000000000000000000000000000000000000000000000000000000000000600000000000000000000000000000000000000000000000000000000000000220000000000000000000000000000000000000000000000000000000000000026000000000000000000000000000000000000000000000000000000000000001a00000000000000000000000006e1dba6e02d559c1044d72c7697f74e19c132a4300000000000000000000000079de49ebd73b749ec19790132c3f8cc2e6e90f1b0000000000000000000000000000000000000000000000000000000000000bb8000000000000000000000000000000000000000000000000000000000000003c00000000000000000000000082bd7feddd9ba61737d05d91138b8247393f43c0fffffffffffffffffffffffffffffffffffffffffffffffffffffffffff2764c00000000000000000000000000000000000000000000000000000000000d89b4000000000000000000000000000000000000000000000002b5e3af16b188000000000000000000000000000000000000ffffffffffffffffffffffffffffffff00000000000000000000000000000000ffffffffffffffffffffffffffffffff000000000000000000000000c4fe13e473e6ad2bb0ba8a365bf581080d92db180000000000000000000000000000000000000000000000000000000000000180000000000000000000000000000000000000000000000000000000000000000000000000000000000000000000000000000000000000000000000000000000200000000000000000000000006e1dba6e02d559c1044d72c7697f74e19c132a43000000000000000000000000000000000000000000000000000000000000002000000000000000000000000079de49ebd73b749ec19790132c3f8cc2e6e90f1b",
        "1759003685"
      ],
      "transaction": {
        "from": "0xc4fe13e473e6ad2bb0ba8a365bf581080d92db18",
        "to": "0xf969aee60879c54baaed9f3ed26147db216fd664",
        "gas": "0x92511",
        "value": "0x0",
        "input": "0xdd46508f00000000000000000000000000000000000000000000000000000000000000400000000000000000000000000000000000000000000000000000000068d8442500000000000000000000000000000000000000000000000000000000000003400000000000000000000000000000000000000000000000000000000000000040000000000000000000000000000000000000000000000000000000000000008000000000000000000000000000000000000000000000000000000000000000030212120000000000000000000000000000000000000000000000000000000000000000000000000000000000000000000000000000000000000000000000000300000000000000000000000000000000000000000000000000000000000000600000000000000000000000000000000000000000000000000000000000000220000000000000000000000000000000000000000000000000000000000000026000000000000000000000000000000000000000000000000000000000000001a00000000000000000000000006e1dba6e02d559c1044d72c7697f74e19c132a4300000000000000000000000079de49ebd73b749ec19790132c3f8cc2e6e90f1b0000000000000000000000000000000000000000000000000000000000000bb8000000000000000000000000000000000000000000000000000000000000003c00000000000000000000000082bd7feddd9ba61737d05d91138b8247393f43c0fffffffffffffffffffffffffffffffffffffffffffffffffffffffffff2764c00000000000000000000000000000000000000000000000000000000000d89b4000000000000000000000000000000000000000000000002b5e3af16b188000000000000000000000000000000000000ffffffffffffffffffffffffffffffff00000000000000000000000000000000ffffffffffffffffffffffffffffffff000000000000000000000000c4fe13e473e6ad2bb0ba8a365bf581080d92db180000000000000000000000000000000000000000000000000000000000000180000000000000000000000000000000000000000000000000000000000000000000000000000000000000000000000000000000000000000000000000000000200000000000000000000000006e1dba6e02d559c1044d72c7697f74e19c132a43000000000000000000000000000000000000000000000000000000000000002000000000000000000000000079de49ebd73b749ec19790132c3f8cc2e6e90f1b",
        "nonce": "0xb9",
        "chainId": "0x515"
      },
      "additionalContracts": [],
      "isFixedGasLimit": false
    }
  ],
  "receipts": [
    {
      "status": "0x1",
      "cumulativeGasUsed": "0x3e16c",
      "logs": [
        {
          "address": "0x6e1dba6e02d559c1044d72c7697f74e19c132a43",
          "topics": [
            "0x8c5be1e5ebec7d5bd14f71427d1e84f3dd0314c0f7b2291e5b200ac8c7c3b925",
            "0x000000000000000000000000c4fe13e473e6ad2bb0ba8a365bf581080d92db18",
            "0x000000000000000000000000000000000022d473030f116ddee9f6b43ac78ba3"
          ],
          "data": "0xffffffffffffffffffffffffffffffffffffffffffffffffffffffffffffffff",
          "blockHash": "0x535d37243a08a25b742c4b8d1ff4fc6c7a7036323b4369ae62caf5176521e609",
          "blockNumber": "0x1ea88dc",
          "blockTimestamp": "0x68d83628",
          "transactionHash": "0x19d0689f6e57b5a45a370d4d2bfa37248958b93fa505eef4ad9517c1242bbab5",
          "transactionIndex": "0x3",
          "logIndex": "0x2",
          "removed": false
        }
      ],
      "logsBloom": "0x00000000000000000000000000000000000000000000000000000010000000000000800000000000000000000100000000000000800000000000000000200000000000000000000000004000000000000000000000000800000000000000000040000000000000000000000000000000000000000000000000000000000000000000000000000000000000000000000000000002000000000000000000000000020000000000000000000000000000000000000000000000000000000000000000000000000000000000000000000000000000000000000000000000000000000010000000000800000000000000000000000000000000000000000000000000",
      "type": "0x2",
      "transactionHash": "0x19d0689f6e57b5a45a370d4d2bfa37248958b93fa505eef4ad9517c1242bbab5",
      "transactionIndex": "0x3",
      "blockHash": "0x535d37243a08a25b742c4b8d1ff4fc6c7a7036323b4369ae62caf5176521e609",
      "blockNumber": "0x1ea88dc",
      "gasUsed": "0xbb60",
      "effectiveGasPrice": "0xfe",
      "from": "0xc4fe13e473e6ad2bb0ba8a365bf581080d92db18",
      "to": "0x6e1dba6e02d559c1044d72c7697f74e19c132a43",
      "contractAddress": null,
      "l1BaseFeeScalar": "0x7d0",
      "l1BlobBaseFee": "0x1",
      "l1BlobBaseFeeScalar": "0xdbba0",
      "l1Fee": "0x80",
      "l1GasPrice": "0xc",
      "l1GasUsed": "0x640"
    },
    {
      "status": "0x1",
      "cumulativeGasUsed": "0x49ccc",
      "logs": [
        {
          "address": "0x79de49ebd73b749ec19790132c3f8cc2e6e90f1b",
          "topics": [
            "0x8c5be1e5ebec7d5bd14f71427d1e84f3dd0314c0f7b2291e5b200ac8c7c3b925",
            "0x000000000000000000000000c4fe13e473e6ad2bb0ba8a365bf581080d92db18",
            "0x000000000000000000000000000000000022d473030f116ddee9f6b43ac78ba3"
          ],
          "data": "0xffffffffffffffffffffffffffffffffffffffffffffffffffffffffffffffff",
          "blockHash": "0x535d37243a08a25b742c4b8d1ff4fc6c7a7036323b4369ae62caf5176521e609",
          "blockNumber": "0x1ea88dc",
          "blockTimestamp": "0x68d83628",
          "transactionHash": "0x3fdb658bb042626e0c73570643f2c66b61f3f13a2941445e1abf9e4cf6b860ff",
          "transactionIndex": "0x4",
          "logIndex": "0x3",
          "removed": false
        }
      ],
      "logsBloom": "0x00000000000000000000000000000000000000000000000000000010000000000000000000000000000000000000000000000000800000000000000000200000000000000000000000004000000000000000000000000800000000000000000040000000000000000000000000000000000000000000000000000000000000000000000000000000000000000000000000000000000000000000000000000000020000000000000000020000000000000000000000000000000000000000000000000080000000000000000000000000010000000000000000000000000000000010000000000800000000000000000000000000000000000000000000000000",
      "type": "0x2",
      "transactionHash": "0x3fdb658bb042626e0c73570643f2c66b61f3f13a2941445e1abf9e4cf6b860ff",
      "transactionIndex": "0x4",
      "blockHash": "0x535d37243a08a25b742c4b8d1ff4fc6c7a7036323b4369ae62caf5176521e609",
      "blockNumber": "0x1ea88dc",
      "gasUsed": "0xbb60",
      "effectiveGasPrice": "0xfe",
      "from": "0xc4fe13e473e6ad2bb0ba8a365bf581080d92db18",
      "to": "0x79de49ebd73b749ec19790132c3f8cc2e6e90f1b",
      "contractAddress": null,
      "l1BaseFeeScalar": "0x7d0",
      "l1BlobBaseFee": "0x1",
      "l1BlobBaseFeeScalar": "0xdbba0",
      "l1Fee": "0x80",
      "l1GasPrice": "0xc",
      "l1GasUsed": "0x640"
    },
    {
      "status": "0x1",
      "cumulativeGasUsed": "0x55796",
      "logs": [
        {
          "address": "0x000000000022d473030f116ddee9f6b43ac78ba3",
          "topics": [
            "0xda9fa7c1b00402c17d0161b249b1ab8bbec047c5a52207b9c112deffd817036b",
            "0x000000000000000000000000c4fe13e473e6ad2bb0ba8a365bf581080d92db18",
            "0x0000000000000000000000006e1dba6e02d559c1044d72c7697f74e19c132a43",
            "0x000000000000000000000000f969aee60879c54baaed9f3ed26147db216fd664"
          ],
          "data": "0x000000000000000000000000ffffffffffffffffffffffffffffffffffffffff0000000000000000000000000000000000000000000000000000ffffffffffff",
          "blockHash": "0x535d37243a08a25b742c4b8d1ff4fc6c7a7036323b4369ae62caf5176521e609",
          "blockNumber": "0x1ea88dc",
          "blockTimestamp": "0x68d83628",
          "transactionHash": "0xfac3431925762a341a1b65379568c447ac5f2a9de3ae33368f198a995592d85c",
          "transactionIndex": "0x5",
          "logIndex": "0x4",
          "removed": false
        }
      ],
      "logsBloom": "0x00010000000000000000000000000000000000000000000000000010000000000000000000000000000000000000000000000000000000000000000000080000000000000000000000000000000000000000000000000040000000001000000040000000000000000000000000000000000000000040000000000000000000000020000000000000000000000000000000000000000000000000000000000000000000000000000000000000000000000002000000000000000000080000000000000000000000000000000000000000000000000000000040000000000000000100000000000800000000000000000000000000000000000000000000002400",
      "type": "0x2",
      "transactionHash": "0xfac3431925762a341a1b65379568c447ac5f2a9de3ae33368f198a995592d85c",
      "transactionIndex": "0x5",
      "blockHash": "0x535d37243a08a25b742c4b8d1ff4fc6c7a7036323b4369ae62caf5176521e609",
      "blockNumber": "0x1ea88dc",
      "gasUsed": "0xbaca",
      "effectiveGasPrice": "0xfe",
      "from": "0xc4fe13e473e6ad2bb0ba8a365bf581080d92db18",
      "to": "0x000000000022d473030f116ddee9f6b43ac78ba3",
      "contractAddress": null,
      "l1BaseFeeScalar": "0x7d0",
      "l1BlobBaseFee": "0x1",
      "l1BlobBaseFeeScalar": "0xdbba0",
      "l1Fee": "0x8b",
      "l1GasPrice": "0xc",
      "l1GasUsed": "0x6cd"
    },
    {
      "status": "0x1",
      "cumulativeGasUsed": "0x61260",
      "logs": [
        {
          "address": "0x000000000022d473030f116ddee9f6b43ac78ba3",
          "topics": [
            "0xda9fa7c1b00402c17d0161b249b1ab8bbec047c5a52207b9c112deffd817036b",
            "0x000000000000000000000000c4fe13e473e6ad2bb0ba8a365bf581080d92db18",
            "0x00000000000000000000000079de49ebd73b749ec19790132c3f8cc2e6e90f1b",
            "0x000000000000000000000000f969aee60879c54baaed9f3ed26147db216fd664"
          ],
          "data": "0x000000000000000000000000ffffffffffffffffffffffffffffffffffffffff0000000000000000000000000000000000000000000000000000ffffffffffff",
          "blockHash": "0x535d37243a08a25b742c4b8d1ff4fc6c7a7036323b4369ae62caf5176521e609",
          "blockNumber": "0x1ea88dc",
          "blockTimestamp": "0x68d83628",
          "transactionHash": "0xd62b9581eb0076b97083cfb9077edce10abf886754115754bfae10437ca063d2",
          "transactionIndex": "0x6",
          "logIndex": "0x5",
          "removed": false
        }
      ],
      "logsBloom": "0x00010000000000000000000000000000000000000000000000000010000000000000000000000000000000000000000000000000000000000000000000080000000000000000000000000000000000000000000000000000000000001000000040000000000000000000000000000000000000000040000000000000000000000020040000000000000000000000000000000000000000400800000000000000000000000000000000000000000000000000000000000000000000080000000000000000000000000000000000000000000000000000000040000000000000000000000000000800000000000000000000000000000000000000000000002400",
      "type": "0x2",
      "transactionHash": "0xd62b9581eb0076b97083cfb9077edce10abf886754115754bfae10437ca063d2",
      "transactionIndex": "0x6",
      "blockHash": "0x535d37243a08a25b742c4b8d1ff4fc6c7a7036323b4369ae62caf5176521e609",
      "blockNumber": "0x1ea88dc",
      "gasUsed": "0xbaca",
      "effectiveGasPrice": "0xfe",
      "from": "0xc4fe13e473e6ad2bb0ba8a365bf581080d92db18",
      "to": "0x000000000022d473030f116ddee9f6b43ac78ba3",
      "contractAddress": null,
      "l1BaseFeeScalar": "0x7d0",
      "l1BlobBaseFee": "0x1",
      "l1BlobBaseFeeScalar": "0xdbba0",
      "l1Fee": "0x8b",
      "l1GasPrice": "0xc",
      "l1GasUsed": "0x6cd"
    },
    {
      "status": "0x1",
      "cumulativeGasUsed": "0xcb144",
      "logs": [
        {
          "address": "0xf969aee60879c54baaed9f3ed26147db216fd664",
          "topics": [
            "0xddf252ad1be2c89b69c2b068fc378daa952ba7f163c4a11628f55a4df523b3ef",
            "0x0000000000000000000000000000000000000000000000000000000000000000",
            "0x000000000000000000000000c4fe13e473e6ad2bb0ba8a365bf581080d92db18",
            "0x00000000000000000000000000000000000000000000000000000000000015df"
          ],
          "data": "0x",
          "blockHash": "0x535d37243a08a25b742c4b8d1ff4fc6c7a7036323b4369ae62caf5176521e609",
          "blockNumber": "0x1ea88dc",
          "blockTimestamp": "0x68d83628",
          "transactionHash": "0x9ca35953944de27429cda5ca522660c467102143337f02f7d2b846fbf382d4e5",
          "transactionIndex": "0x7",
          "logIndex": "0x6",
          "removed": false
        },
        {
          "address": "0x00b036b58a818b1bc34d502d3fe730db729e62ac",
          "topics": [
            "0xf208f4912782fd25c7f114ca3723a2d5dd6f3bcc3ac8db5af63baa85f711d5ec",
            "0xd6b4f19ca751b6694089d688044a2ef29447db140b3a3b13b0da4c3f03d966cf",
            "0x000000000000000000000000f969aee60879c54baaed9f3ed26147db216fd664"
          ],
          "data": "0xfffffffffffffffffffffffffffffffffffffffffffffffffffffffffff2764c00000000000000000000000000000000000000000000000000000000000d89b4000000000000000000000000000000000000000000000002b5e3af16b188000000000000000000000000000000000000000000000000000000000000000015df",
          "blockHash": "0x535d37243a08a25b742c4b8d1ff4fc6c7a7036323b4369ae62caf5176521e609",
          "blockNumber": "0x1ea88dc",
          "blockTimestamp": "0x68d83628",
          "transactionHash": "0x9ca35953944de27429cda5ca522660c467102143337f02f7d2b846fbf382d4e5",
          "transactionIndex": "0x7",
          "logIndex": "0x7",
          "removed": false
        },
        {
          "address": "0x6e1dba6e02d559c1044d72c7697f74e19c132a43",
          "topics": [
            "0xddf252ad1be2c89b69c2b068fc378daa952ba7f163c4a11628f55a4df523b3ef",
            "0x000000000000000000000000c4fe13e473e6ad2bb0ba8a365bf581080d92db18",
            "0x00000000000000000000000000b036b58a818b1bc34d502d3fe730db729e62ac"
          ],
          "data": "0x000000000000000000000000000000000000000000000002b5e3af16b187fffe",
          "blockHash": "0x535d37243a08a25b742c4b8d1ff4fc6c7a7036323b4369ae62caf5176521e609",
          "blockNumber": "0x1ea88dc",
          "blockTimestamp": "0x68d83628",
          "transactionHash": "0x9ca35953944de27429cda5ca522660c467102143337f02f7d2b846fbf382d4e5",
          "transactionIndex": "0x7",
          "logIndex": "0x8",
          "removed": false
        },
        {
          "address": "0x79de49ebd73b749ec19790132c3f8cc2e6e90f1b",
          "topics": [
            "0xddf252ad1be2c89b69c2b068fc378daa952ba7f163c4a11628f55a4df523b3ef",
            "0x000000000000000000000000c4fe13e473e6ad2bb0ba8a365bf581080d92db18",
            "0x00000000000000000000000000b036b58a818b1bc34d502d3fe730db729e62ac"
          ],
          "data": "0x000000000000000000000000000000000000000000000002b5e3af16b187fffe",
          "blockHash": "0x535d37243a08a25b742c4b8d1ff4fc6c7a7036323b4369ae62caf5176521e609",
          "blockNumber": "0x1ea88dc",
          "blockTimestamp": "0x68d83628",
          "transactionHash": "0x9ca35953944de27429cda5ca522660c467102143337f02f7d2b846fbf382d4e5",
          "transactionIndex": "0x7",
          "logIndex": "0x9",
          "removed": false
        }
      ],
      "logsBloom": "0x00000000000000000000000000000000000000000000000000000010000000000000800000000000000000000100000000000000001000000000000000000000000000000001000000000008000000000000000000000000000000001000000040000000420000000000000000004800000000000040000000000010000000000000000001000000000000000008000000000002000000000000000000000000000004000000000000020000800000000800000000000020000000000000000000000082080000000000000000000000010001000000000000000000000020004000000000004800000000000000000004000000000002000000080000002010",
      "type": "0x2",
      "transactionHash": "0x9ca35953944de27429cda5ca522660c467102143337f02f7d2b846fbf382d4e5",
      "transactionIndex": "0x7",
      "blockHash": "0x535d37243a08a25b742c4b8d1ff4fc6c7a7036323b4369ae62caf5176521e609",
      "blockNumber": "0x1ea88dc",
      "gasUsed": "0x69ee4",
      "effectiveGasPrice": "0xfe",
      "from": "0xc4fe13e473e6ad2bb0ba8a365bf581080d92db18",
      "to": "0xf969aee60879c54baaed9f3ed26147db216fd664",
      "contractAddress": null,
      "l1BaseFeeScalar": "0x7d0",
      "l1BlobBaseFee": "0x1",
      "l1BlobBaseFeeScalar": "0xdbba0",
      "l1Fee": "0x159",
      "l1GasPrice": "0xc",
      "l1GasUsed": "0x10d6"
    }
  ],
  "libraries": [],
  "pending": [],
  "returns": {},
  "timestamp": 1759000104,
  "chain": 1301,
  "commit": "b0742e6"
}