{
  "transactions": [
    {
      "hash": "0x48076968718d69d2a29ae80951aa2139507977bbaec22187ca85a383071bf8e2",
      "transactionType": "CALL",
      "contractName": null,
      "contractAddress": "0x00b036b58a818b1bc34d502d3fe730db729e62ac",
      "function": "initialize((address,address,uint24,int24,address),uint160)",
      "arguments": [
        "(0x663551545Ed415e85645C49630bC81E10D3B9a54, 0x96beA0E29D5a261464E8e7260c1F833aAe39dbaF, 3000, 60, 0x9AC51A7cFC8994B04ae3CCa474f8095B24b3c3c0)",
        "79228162514264337593543950336"
      ],
      "transaction": {
        "from": "0xc4fe13e473e6ad2bb0ba8a365bf581080d92db18",
        "to": "0x00b036b58a818b1bc34d502d3fe730db729e62ac",
        "gas": "0x12762",
        "value": "0x0",
        "input": "0x6276cbbe000000000000000000000000663551545ed415e85645c49630bc81e10d3b9a5400000000000000000000000096bea0e29d5a261464e8e7260c1f833aae39dbaf0000000000000000000000000000000000000000000000000000000000000bb8000000000000000000000000000000000000000000000000000000000000003c0000000000000000000000009ac51a7cfc8994b04ae3cca474f8095b24b3c3c00000000000000000000000000000000000000001000000000000000000000000",
        "nonce": "0x12a",
        "chainId": "0x515"
      },
      "additionalContracts": [],
      "isFixedGasLimit": false
    }
  ],
  "receipts": [
    {
      "status": "0x1",
      "cumulativeGasUsed": "0x3ef31",
      "logs": [
        {
          "address": "0x00b036b58a818b1bc34d502d3fe730db729e62ac",
          "topics": [
            "0xdd466e674ea557f56295e2d0218a125ea4b4f0f6f3307b95f85e6110838d6438",
            "0x08d929845dd30b48ee62b27f5ef0ca86241710d9be5cd6b624420745db1982af",
            "0x000000000000000000000000663551545ed415e85645c49630bc81e10d3b9a54",
            "0x00000000000000000000000096bea0e29d5a261464e8e7260c1f833aae39dbaf"
          ],
          "data": "0x0000000000000000000000000000000000000000000000000000000000000bb8000000000000000000000000000000000000000000000000000000000000003c0000000000000000000000009ac51a7cfc8994b04ae3cca474f8095b24b3c3c000000000000000000000000000000000000000010000000000000000000000000000000000000000000000000000000000000000000000000000000000000000",
          "blockHash": "0x35ed9a6f0e1157d29cd754cf49e4f4ede07d3b93f7ef418ee50bacebf21fdd65",
          "blockNumber": "0x1eacd9a",
          "blockTimestamp": "0x68d87ae6",
          "transactionHash": "0x48076968718d69d2a29ae80951aa2139507977bbaec22187ca85a383071bf8e2",
          "transactionIndex": "0x3",
          "logIndex": "0x2",
          "removed": false
        }
      ],
      "logsBloom": "0x00000000000000000000000000000000000010000000000000000000000000000000000000000000000000000000000000000000000000000000000000000000000000000000000000000000000000000000000004000000000000000000000000004000000000000000000004000000100000000000000000000000000000000001000000000008000000000008000000000001000000000020000000200000000000000000000000000000001000000000000000000000000000000000000000000000000000000000000000000000000000000000000000000000000000000000000000000000000000000000000000000400000002000000000000000010",
      "type": "0x2",
      "transactionHash": "0x48076968718d69d2a29ae80951aa2139507977bbaec22187ca85a383071bf8e2",
      "transactionIndex": "0x3",
      "blockHash": "0x35ed9a6f0e1157d29cd754cf49e4f4ede07d3b93f7ef418ee50bacebf21fdd65",
      "blockNumber": "0x1eacd9a",
      "gasUsed": "0xc9f9",
      "effectiveGasPrice": "0xf433d",
      "from": "0xc4fe13e473e6ad2bb0ba8a365bf581080d92db18",
      "to": "0x00b036b58a818b1bc34d502d3fe730db729e62ac",
      "contractAddress": null,
      "l1BaseFeeScalar": "0x7d0",
      "l1BlobBaseFee": "0x1",
      "l1BlobBaseFeeScalar": "0xdbba0",
      "l1Fee": "0xa7",
      "l1GasPrice": "0x8",
      "l1GasUsed": "0x90c"
    }
  ],
  "libraries": [],
  "pending": [],
  "returns": {},
  "timestamp": 1759017704,
  "chain": 1301,
  "commit": "c6ee337"
}