{
  "transactions": [
    {
      "hash": "0x99ae26fa7b33d23a31fac93993a995dae595c17bc0be3b29f0ce3a26d98a254c",
      "transactionType": "CALL",
      "contractName": null,
      "contractAddress": "0x00b036b58a818b1bc34d502d3fe730db729e62ac",
      "function": "initialize((address,address,uint24,int24,address),uint160)",
      "arguments": [
        "(0x79DE49EbD73b749Ec19790132C3F8Cc2E6E90f1b, 0x9EA6399B9795faBDDF0f3c535168088fbF8C80F0, 3000, 60, 0x82BD7fEDDd9bA61737d05D91138b8247393f43c0)",
        "79228162514264337593543950336"
      ],
      "transaction": {
        "from": "0xc4fe13e473e6ad2bb0ba8a365bf581080d92db18",
        "to": "0x00b036b58a818b1bc34d502d3fe730db729e62ac",
        "gas": "0x12762",
        "value": "0x0",
        "input": "0x6276cbbe00000000000000000000000079de49ebd73b749ec19790132c3f8cc2e6e90f1b0000000000000000000000009ea6399b9795fabddf0f3c535168088fbf8c80f00000000000000000000000000000000000000000000000000000000000000bb8000000000000000000000000000000000000000000000000000000000000003c00000000000000000000000082bd7feddd9ba61737d05d91138b8247393f43c00000000000000000000000000000000000000001000000000000000000000000",
        "nonce": "0xb2",
        "chainId": "0x515"
      },
      "additionalContracts": [],
      "isFixedGasLimit": false
    }
  ],
  "receipts": [
    {
      "status": "0x1",
      "cumulativeGasUsed": "0x1d38d",
      "logs": [
        {
          "address": "0x00b036b58a818b1bc34d502d3fe730db729e62ac",
          "topics": [
            "0xdd466e674ea557f56295e2d0218a125ea4b4f0f6f3307b95f85e6110838d6438",
            "0x52d768e50ca81384bb5d1bfe33ed52bd1a8e4f9c5529ed4133ab1e4dfb83df7e",
            "0x00000000000000000000000079de49ebd73b749ec19790132c3f8cc2e6e90f1b",
            "0x0000000000000000000000009ea6399b9795fabddf0f3c535168088fbf8c80f0"
          ],
          "data": "0x0000000000000000000000000000000000000000000000000000000000000bb8000000000000000000000000000000000000000000000000000000000000003c00000000000000000000000082bd7feddd9ba61737d05d91138b8247393f43c000000000000000000000000000000000000000010000000000000000000000000000000000000000000000000000000000000000000000000000000000000000",
          "blockHash": "0x7612688dfa202644c93223d2b2eb81df6f1bbcfa692d75f53b0e4e8e3e00e8e3",
          "blockNumber": "0x1ea87d4",
          "blockTimestamp": "0x68d83520",
          "transactionHash": "0x99ae26fa7b33d23a31fac93993a995dae595c17bc0be3b29f0ce3a26d98a254c",
          "transactionIndex": "0x2",
          "logIndex": "0x0",
          "removed": false
        }
      ],
      "logsBloom": "0x00000000000000000000000000000000000000000000000000000000000000000000000000000000000000000000000000000000000000000000000000000000000000000000000000000000000000000000000000000000000000000000000000000000000000000000000000000000000000000000000000000000000000000000040000000008000000000008000600000001080004400800000000200000000000000002000000000000000000000000000000000000000000000000000000000000000000000400000000000000000000000000000000000000000000000000000000000000000000000000000000000000000002000000000000000010",
      "type": "0x2",
      "transactionHash": "0x99ae26fa7b33d23a31fac93993a995dae595c17bc0be3b29f0ce3a26d98a254c",
      "transactionIndex": "0x2",
      "blockHash": "0x7612688dfa202644c93223d2b2eb81df6f1bbcfa692d75f53b0e4e8e3e00e8e3",
      "blockNumber": "0x1ea87d4",
      "gasUsed": "0xc9f9",
      "effectiveGasPrice": "0xff",
      "from": "0xc4fe13e473e6ad2bb0ba8a365bf581080d92db18",
      "to": "0x00b036b58a818b1bc34d502d3fe730db729e62ac",
      "contractAddress": null,
      "l1BaseFeeScalar": "0x7d0",
      "l1BlobBaseFee": "0x1",
      "l1BlobBaseFeeScalar": "0xdbba0",
      "l1Fee": "0xab",
      "l1GasPrice": "0xa",
      "l1GasUsed": "0x8c9"
    }
  ],
  "libraries": [],
  "pending": [],
  "returns": {},
  "timestamp": 1758999840,
  "chain": 1301,
  "commit": "b0742e6"
}