{
  "transactions": [
    {
      "hash": "0x519c6a0a49da18dec740e4c1533574f30107b98db0f02b53b3c984780b5ab854",
      "transactionType": "CALL",
      "contractName": null,
      "contractAddress": "0x00b036b58a818b1bc34d502d3fe730db729e62ac",
      "function": "initialize((address,address,uint24,int24,address),uint160)",
      "arguments": [
        "(0x725212999a45ABCb651A84b96C70438C6c1d7c43, 0xB08D5e594773C55b2520a646b4EB3AA5fA08aF21, 3000, 60, 0x3143D8279c90DdFAe5A034874C5d232AF88b03c0)",
        "79228162514264337593543950336"
      ],
      "transaction": {
        "from": "0xc4fe13e473e6ad2bb0ba8a365bf581080d92db18",
        "to": "0x00b036b58a818b1bc34d502d3fe730db729e62ac",
        "gas": "0x12762",
        "value": "0x0",
        "input": "0x6276cbbe000000000000000000000000725212999a45abcb651a84b96c70438c6c1d7c43000000000000000000000000b08d5e594773c55b2520a646b4eb3aa5fa08af210000000000000000000000000000000000000000000000000000000000000bb8000000000000000000000000000000000000000000000000000000000000003c0000000000000000000000003143d8279c90ddfae5a034874c5d232af88b03c00000000000000000000000000000000000000001000000000000000000000000",
        "nonce": "0x9e",
        "chainId": "0x515"
      },
      "additionalContracts": [],
      "isFixedGasLimit": false
    }
  ],
  "receipts": [
    {
      "status": "0x1",
      "cumulativeGasUsed": "0x1d38d",
      "logs": [
        {
          "address": "0x00b036b58a818b1bc34d502d3fe730db729e62ac",
          "topics": [
            "0xdd466e674ea557f56295e2d0218a125ea4b4f0f6f3307b95f85e6110838d6438",
            "0x30cac0acce13c3aa8ab744c98374bed30d89e796129d08c853cf20640b011815",
            "0x000000000000000000000000725212999a45abcb651a84b96c70438c6c1d7c43",
            "0x000000000000000000000000b08d5e594773c55b2520a646b4eb3aa5fa08af21"
          ],
          "data": "0x0000000000000000000000000000000000000000000000000000000000000bb8000000000000000000000000000000000000000000000000000000000000003c0000000000000000000000003143d8279c90ddfae5a034874c5d232af88b03c000000000000000000000000000000000000000010000000000000000000000000000000000000000000000000000000000000000000000000000000000000000",
          "blockHash": "0x8899f861ff0c55732aba765be24545c84be21251b4f8eb56357d7ce3006ad625",
          "blockNumber": "0x1ea80ac",
          "blockTimestamp": "0x68d82df8",
          "transactionHash": "0x519c6a0a49da18dec740e4c1533574f30107b98db0f02b53b3c984780b5ab854",
          "transactionIndex": "0x2",
          "logIndex": "0x0",
          "removed": false
        }
      ],
      "logsBloom": "0x00000000000000000000000000000000000000000000000000000000000000000000000000000000000000000000000000000000000000000000000010000000000000000000000000000000000000000000000000000000000000000001000000000000000000000000000000000000000000000000000000000000000000000000000000000008000000000008000000000001400000200000000000200000000000000000000000000000000000020000001000000040000000000000000000000000000000000000000000000000000000100000000000000000000008000000000000000000000000000000000000000000000002000000000000000010",
      "type": "0x2",
      "transactionHash": "0x519c6a0a49da18dec740e4c1533574f30107b98db0f02b53b3c984780b5ab854",
      "transactionIndex": "0x2",
      "blockHash": "0x8899f861ff0c55732aba765be24545c84be21251b4f8eb56357d7ce3006ad625",
      "blockNumber": "0x1ea80ac",
      "gasUsed": "0xc9f9",
      "effectiveGasPrice": "0x61e75",
      "from": "0xc4fe13e473e6ad2bb0ba8a365bf581080d92db18",
      "to": "0x00b036b58a818b1bc34d502d3fe730db729e62ac",
      "contractAddress": null,
      "l1BaseFeeScalar": "0x7d0",
      "l1BlobBaseFee": "0x1",
      "l1BlobBaseFeeScalar": "0xdbba0",
      "l1Fee": "0xab",
      "l1GasPrice": "0x9",
      "l1GasUsed": "0x8ff"
    }
  ],
  "libraries": [],
  "pending": [],
  "returns": {},
  "timestamp": 1758998008,
  "chain": 1301,
  "commit": "7605bd8"
}