{
  "transactions": [
    {
      "hash": "0x87a6cf6430570dfe8e3364c8b3962fb0934754947e7fcbfb94267648d471bcca",
      "transactionType": "CALL",
      "contractName": null,
      "contractAddress": "0x00b036b58a818b1bc34d502d3fe730db729e62ac",
      "function": "initialize((address,address,uint24,int24,address),uint160)",
      "arguments": [
        "(0x23C014235a6E957fE3735Fe7C57bE945b3013160, 0xDC495E78B6b9cAf67E732AaB83490D80B1bEFc83, 3000, 60, 0x736c1C1553C251B005b76707dAEF15c5dF5B03C0)",
        "79228162514264337593543950336"
      ],
      "transaction": {
        "from": "0xc4fe13e473e6ad2bb0ba8a365bf581080d92db18",
        "to": "0x00b036b58a818b1bc34d502d3fe730db729e62ac",
        "gas": "0x12762",
        "value": "0x0",
        "input": "0x6276cbbe00000000000000000000000023c014235a6e957fe3735fe7c57be945b3013160000000000000000000000000dc495e78b6b9caf67e732aab83490d80b1befc830000000000000000000000000000000000000000000000000000000000000bb8000000000000000000000000000000000000000000000000000000000000003c000000000000000000000000736c1c1553c251b005b76707daef15c5df5b03c00000000000000000000000000000000000000001000000000000000000000000",
        "nonce": "0x15c",
        "chainId": "0x515"
      },
      "additionalContracts": [],
      "isFixedGasLimit": false
    }
  ],
  "receipts": [
    {
      "status": "0x1",
      "cumulativeGasUsed": "0x40fe9",
      "logs": [
        {
          "address": "0x00b036b58a818b1bc34d502d3fe730db729e62ac",
          "topics": [
            "0xdd466e674ea557f56295e2d0218a125ea4b4f0f6f3307b95f85e6110838d6438",
            "0x9e7a7c4c4e5962319ed0940d59c416bcbcfcebd5da18ac8bd5376375615d4b80",
            "0x00000000000000000000000023c014235a6e957fe3735fe7c57be945b3013160",
            "0x000000000000000000000000dc495e78b6b9caf67e732aab83490d80b1befc83"
          ],
          "data": "0x0000000000000000000000000000000000000000000000000000000000000bb8000000000000000000000000000000000000000000000000000000000000003c000000000000000000000000736c1c1553c251b005b76707daef15c5df5b03c000000000000000000000000000000000000000010000000000000000000000000000000000000000000000000000000000000000000000000000000000000000",
          "blockHash": "0x28b1d9ab5bb3ce40e12836dfa8fe6e6f68f50fc5d4e1aa036b485a65b88b21dd",
          "blockNumber": "0x1eae343",
          "blockTimestamp": "0x68d8908f",
          "transactionHash": "0x87a6cf6430570dfe8e3364c8b3962fb0934754947e7fcbfb94267648d471bcca",
          "transactionIndex": "0x3",
          "logIndex": "0x2",
          "removed": false
        }
      ],
      "logsBloom": "0x00000000000000000000000000000000000000000000000000000000000000000000000000000000000000000000000000000000000000040000000000000000000000000000000000000000000000000000000000000000000000000000000040000000000004000000000000000000000000000000000000008000000000000000000000002008000000000008000000000001000000000000000000200000000000000000000000000000000000000000000000000000000000000000000000000000000000000000000000000010200000000000000400000000000000000000000000000000000000000000000000000000000002000000000000000014",
      "type": "0x2",
      "transactionHash": "0x87a6cf6430570dfe8e3364c8b3962fb0934754947e7fcbfb94267648d471bcca",
      "transactionIndex": "0x3",
      "blockHash": "0x28b1d9ab5bb3ce40e12836dfa8fe6e6f68f50fc5d4e1aa036b485a65b88b21dd",
      "blockNumber": "0x1eae343",
      "gasUsed": "0xc9f9",
      "effectiveGasPrice": "0xff",
      "from": "0xc4fe13e473e6ad2bb0ba8a365bf581080d92db18",
      "to": "0x00b036b58a818b1bc34d502d3fe730db729e62ac",
      "contractAddress": null,
      "l1BaseFeeScalar": "0x7d0",
      "l1BlobBaseFee": "0x1",
      "l1BlobBaseFeeScalar": "0xdbba0",
      "l1Fee": "0xab",
      "l1GasPrice": "0xa",
      "l1GasUsed": "0x8c9"
    }
  ],
  "libraries": [],
  "pending": [],
  "returns": {},
  "timestamp": 1759023246,
  "chain": 1301,
  "commit": "b7c866c"
}