{
  "transactions": [
    {
      "hash": "0xc74cb1e4d5374b21577bd7e225600d6994c182e9b7d358d8554101b143f4b0b1",
      "transactionType": "CALL",
      "contractName": null,
      "contractAddress": "0x00b036b58a818b1bc34d502d3fe730db729e62ac",
      "function": "initialize((address,address,uint24,int24,address),uint160)",
      "arguments": [
        "(0xB08D5e594773C55b2520a646b4EB3AA5fA08aF21, 0xe3A426896Ca307c3fa4A818f2889F44582460954, 3000, 60, 0x3143D8279c90DdFAe5A034874C5d232AF88b03c0)",
        "79228162514264337593543950336"
      ],
      "transaction": {
        "from": "0xc4fe13e473e6ad2bb0ba8a365bf581080d92db18",
        "to": "0x00b036b58a818b1bc34d502d3fe730db729e62ac",
        "gas": "0x12762",
        "value": "0x0",
        "input": "0x6276cbbe000000000000000000000000b08d5e594773c55b2520a646b4eb3aa5fa08af21000000000000000000000000e3a426896ca307c3fa4a818f2889f445824609540000000000000000000000000000000000000000000000000000000000000bb8000000000000000000000000000000000000000000000000000000000000003c0000000000000000000000003143d8279c90ddfae5a034874c5d232af88b03c00000000000000000000000000000000000000001000000000000000000000000",
        "nonce": "0x8e",
        "chainId": "0x515"
      },
      "additionalContracts": [],
      "isFixedGasLimit": false
    }
  ],
  "receipts": [
    {
      "status": "0x1",
      "cumulativeGasUsed": "0x1e961",
      "logs": [
        {
          "address": "0x00b036b58a818b1bc34d502d3fe730db729e62ac",
          "topics": [
            "0xdd466e674ea557f56295e2d0218a125ea4b4f0f6f3307b95f85e6110838d6438",
            "0x1a6fc791704220ecb5405e5ab974132552b16309cb7afd01eeac5284034499ab",
            "0x000000000000000000000000b08d5e594773c55b2520a646b4eb3aa5fa08af21",
            "0x000000000000000000000000e3a426896ca307c3fa4a818f2889f44582460954"
          ],
          "data": "0x0000000000000000000000000000000000000000000000000000000000000bb8000000000000000000000000000000000000000000000000000000000000003c0000000000000000000000003143d8279c90ddfae5a034874c5d232af88b03c000000000000000000000000000000000000000010000000000000000000000000000000000000000000000000000000000000000000000000000000000000000",
          "blockHash": "0x8b20536280163a2f483809e87832fb869ed2cd7b20bfef9b5f81868d7644615f",
          "blockNumber": "0x1ea7932",
          "blockTimestamp": "0x68d8267e",
          "transactionHash": "0xc74cb1e4d5374b21577bd7e225600d6994c182e9b7d358d8554101b143f4b0b1",
          "transactionIndex": "0x2",
          "logIndex": "0x0",
          "removed": false
        }
      ],
      "logsBloom": "0x00000000000000000000000000000000000000000000200000000000000800000000000000000000000000000000000000000000000000000000000010000000000000000000000000000000000000000000000000000000000000000000000000000000000000000000000000000000000000000000000000000800000000000000000000000008000000000008000001000001000000000000000000200000000000000000000000000000000000020000000000000040000000000000000000000000000000000000000000000000000000000000210000000000000000000000000000000000000000000000000000000000000002000000000000000010",
      "type": "0x2",
      "transactionHash": "0xc74cb1e4d5374b21577bd7e225600d6994c182e9b7d358d8554101b143f4b0b1",
      "transactionIndex": "0x2",
      "blockHash": "0x8b20536280163a2f483809e87832fb869ed2cd7b20bfef9b5f81868d7644615f",
      "blockNumber": "0x1ea7932",
      "gasUsed": "0xc9f9",
      "effectiveGasPrice": "0xfe",
      "from": "0xc4fe13e473e6ad2bb0ba8a365bf581080d92db18",
      "to": "0x00b036b58a818b1bc34d502d3fe730db729e62ac",
      "contractAddress": null,
      "l1BaseFeeScalar": "0x7d0",
      "l1BlobBaseFee": "0x1",
      "l1BlobBaseFeeScalar": "0xdbba0",
      "l1Fee": "0xa7",
      "l1GasPrice": "0x9",
      "l1GasUsed": "0x8c9"
    }
  ],
  "libraries": [],
  "pending": [],
  "returns": {},
  "timestamp": 1758996094,
  "chain": 1301,
  "commit": "7605bd8"
}