{
  "transactions": [
    {
      "hash": "0xab3ba9d06f623d427838e9862c97e958b38648f79d24035c04a90dcd342c160d",
      "transactionType": "CALL",
      "contractName": null,
      "contractAddress": "0x00b036b58a818b1bc34d502d3fe730db729e62ac",
      "function": "initialize((address,address,uint24,int24,address),uint160)",
      "arguments": [
        "(0xcAaF8695cBE8581Bca496b9a8F077c3849807EE0, 0xF4A05Ee20aA9FcbB825aefBF0f21237E44D26a73, 3000, 60, 0x0158131f09b599ca6859aADf3151e63F2941C3C0)",
        "79228162514264337593543950336"
      ],
      "transaction": {
        "from": "0xc4fe13e473e6ad2bb0ba8a365bf581080d92db18",
        "to": "0x00b036b58a818b1bc34d502d3fe730db729e62ac",
        "gas": "0x12762",
        "value": "0x0",
        "input": "0x6276cbbe000000000000000000000000caaf8695cbe8581bca496b9a8f077c3849807ee0000000000000000000000000f4a05ee20aa9fcbb825aefbf0f21237e44d26a730000000000000000000000000000000000000000000000000000000000000bb8000000000000000000000000000000000000000000000000000000000000003c0000000000000000000000000158131f09b599ca6859aadf3151e63f2941c3c00000000000000000000000000000000000000001000000000000000000000000",
        "nonce": "0x1df",
        "chainId": "0x515"
      },
      "additionalContracts": [],
      "isFixedGasLimit": false
    }
  ],
  "receipts": [
    {
      "status": "0x1",
      "cumulativeGasUsed": "0x3efd5",
      "logs": [
        {
          "address": "0x00b036b58a818b1bc34d502d3fe730db729e62ac",
          "topics": [
            "0xdd466e674ea557f56295e2d0218a125ea4b4f0f6f3307b95f85e6110838d6438",
            "0x49b0689da25e44647974eeba29988eeba0d82015a497c0d10b4d3a94ab5d7cd3",
            "0x000000000000000000000000caaf8695cbe8581bca496b9a8f077c3849807ee0",
            "0x000000000000000000000000f4a05ee20aa9fcbb825aefbf0f21237e44d26a73"
          ],
          "data": "0x0000000000000000000000000000000000000000000000000000000000000bb8000000000000000000000000000000000000000000000000000000000000003c0000000000000000000000000158131f09b599ca6859aadf3151e63f2941c3c000000000000000000000000000000000000000010000000000000000000000000000000000000000000000000000000000000000000000000000000000000000",
          "blockHash": "0x13a7e8f4e722e0c62cb509f2a4debabc309c3d5f89cea443a4d035ccce34dd45",
          "blockNumber": "0x1eafb6b",
          "blockTimestamp": "0x68d8a8b7",
          "transactionHash": "0xab3ba9d06f623d427838e9862c97e958b38648f79d24035c04a90dcd342c160d",
          "transactionIndex": "0x3",
          "logIndex": "0x2",
          "removed": false
        }
      ],
      "logsBloom": "0x00000000000000000000000000004000000000000000008000000000000000000000000000000040000000000000000000000000000000000000000000000000000000000000000000000000000001000000000000010000000000000000000000000000001000000000000000000040000000000000000000000000000000000000000000000008000000000008000000000001000000000000000000200000000000000000000000000000000000000000000000000000000000000000000000000000000000000000000000000000000000000000000000010000000000000000000000000000000000000000000000010000000002000000000000000010",
      "type": "0x2",
      "transactionHash": "0xab3ba9d06f623d427838e9862c97e958b38648f79d24035c04a90dcd342c160d",
      "transactionIndex": "0x3",
      "blockHash": "0x13a7e8f4e722e0c62cb509f2a4debabc309c3d5f89cea443a4d035ccce34dd45",
      "blockNumber": "0x1eafb6b",
      "gasUsed": "0xc9f9",
      "effectiveGasPrice": "0xfe",
      "from": "0xc4fe13e473e6ad2bb0ba8a365bf581080d92db18",
      "to": "0x00b036b58a818b1bc34d502d3fe730db729e62ac",
      "contractAddress": null,
      "l1BaseFeeScalar": "0x7d0",
      "l1BlobBaseFee": "0x1",
      "l1BlobBaseFeeScalar": "0xdbba0",
      "l1Fee": "0xa3",
      "l1GasPrice": "0x8",
      "l1GasUsed": "0x8d7"
    }
  ],
  "libraries": [],
  "pending": [],
  "returns": {},
  "timestamp": 1759029432,
  "chain": 1301,
  "commit": "b7c866c"
}