{
  "transactions": [
    {
      "hash": "0x7985a4d59fde9b95cfdda423192caaf9fd95b7aee7d877a9f6372d935fa4090a",
      "transactionType": "CALL",
      "contractName": null,
      "contractAddress": "0x00b036b58a818b1bc34d502d3fe730db729e62ac",
      "function": "initialize((address,address,uint24,int24,address),uint160)",
      "arguments": [
        "(0xC5c820f9Ae89e1c047eb7d4F742da9aa90065Afc, 0xE0Fd2311F055Be81963401091eb19A6aA0538b72, 3000, 60, 0x355B4Fc3867513A84115291DA0558daAAB3683c0)",
        "79228162514264337593543950336"
      ],
      "transaction": {
        "from": "0xc4fe13e473e6ad2bb0ba8a365bf581080d92db18",
        "to": "0x00b036b58a818b1bc34d502d3fe730db729e62ac",
        "gas": "0x12762",
        "value": "0x0",
        "input": "0x6276cbbe000000000000000000000000c5c820f9ae89e1c047eb7d4f742da9aa90065afc000000000000000000000000e0fd2311f055be81963401091eb19a6aa0538b720000000000000000000000000000000000000000000000000000000000000bb8000000000000000000000000000000000000000000000000000000000000003c000000000000000000000000355b4fc3867513a84115291da0558daaab3683c00000000000000000000000000000000000000001000000000000000000000000",
        "nonce": "0x19d",
        "chainId": "0x515"
      },
      "additionalContracts": [],
      "isFixedGasLimit": false
    }
  ],
  "receipts": [
    {
      "status": "0x1",
      "cumulativeGasUsed": "0x1d38d",
      "logs": [
        {
          "address": "0x00b036b58a818b1bc34d502d3fe730db729e62ac",
          "topics": [
            "0xdd466e674ea557f56295e2d0218a125ea4b4f0f6f3307b95f85e6110838d6438",
            "0xa6c182128f3b5501fab9fdc09e01d5c21e0ea4dec82153d5ec47369e3c9fc06b",
            "0x000000000000000000000000c5c820f9ae89e1c047eb7d4f742da9aa90065afc",
            "0x000000000000000000000000e0fd2311f055be81963401091eb19a6aa0538b72"
          ],
          "data": "0x0000000000000000000000000000000000000000000000000000000000000bb8000000000000000000000000000000000000000000000000000000000000003c000000000000000000000000355b4fc3867513a84115291da0558daaab3683c000000000000000000000000000000000000000010000000000000000000000000000000000000000000000000000000000000000000000000000000000000000",
          "blockHash": "0x0b71524715068102562219c95b1d583b3040744f259e54171a509b61e0d247a2",
          "blockNumber": "0x1eaf212",
          "blockTimestamp": "0x68d89f5e",
          "transactionHash": "0x7985a4d59fde9b95cfdda423192caaf9fd95b7aee7d877a9f6372d935fa4090a",
          "transactionIndex": "0x2",
          "logIndex": "0x0",
          "removed": false
        }
      ],
      "logsBloom": "0x00000000000000000000000000000000000000000000000000000000000000000000000000000000000000000000000000000000000000000000000000000000000000000000000000000000000000000000000000000000000000000000000000000000000000000000000000000100000000000000000000000010000000000000001000000008000000400008000000000001000000000000000000200000000000000000000000000000000000000000000000000000000200000008000000000000040000000000000000000000000000000000000000000000000000000000000000000000000000000220000000000000000002000000000000000010",
      "type": "0x2",
      "transactionHash": "0x7985a4d59fde9b95cfdda423192caaf9fd95b7aee7d877a9f6372d935fa4090a",
      "transactionIndex": "0x2",
      "blockHash": "0x0b71524715068102562219c95b1d583b3040744f259e54171a509b61e0d247a2",
      "blockNumber": "0x1eaf212",
      "gasUsed": "0xc9f9",
      "effectiveGasPrice": "0xf433e",
      "from": "0xc4fe13e473e6ad2bb0ba8a365bf581080d92db18",
      "to": "0x00b036b58a818b1bc34d502d3fe730db729e62ac",
      "contractAddress": null,
      "l1BaseFeeScalar": "0x7d0",
      "l1BlobBaseFee": "0x1",
      "l1BlobBaseFeeScalar": "0xdbba0",
      "l1Fee": "0xb0",
      "l1GasPrice": "0xa",
      "l1GasUsed": "0x90c"
    }
  ],
  "libraries": [],
  "pending": [],
  "returns": {},
  "timestamp": 1759027038,
  "chain": 1301,
  "commit": "b7c866c"
}