{
  "transactions": [
    {
      "hash": "0x28dad6ccde74d4e7cf0934af692f5e745e81422348879a1edad36d6f104d8a26",
      "transactionType": "CALL",
      "contractName": null,
      "contractAddress": "0x00b036b58a818b1bc34d502d3fe730db729e62ac",
      "function": "initialize((address,address,uint24,int24,address),uint160)",
      "arguments": [
        "(0x663551545Ed415e85645C49630bC81E10D3B9a54, 0x96beA0E29D5a261464E8e7260c1F833aAe39dbaF, 3000, 60, 0x7F27B06177c996A923b04428e07C5640f31B43C0)",
        "79228162514264337593543950336"
      ],
      "transaction": {
        "from": "0xc4fe13e473e6ad2bb0ba8a365bf581080d92db18",
        "to": "0x00b036b58a818b1bc34d502d3fe730db729e62ac",
        "gas": "0x12762",
        "value": "0x0",
        "input": "0x6276cbbe000000000000000000000000663551545ed415e85645c49630bc81e10d3b9a5400000000000000000000000096bea0e29d5a261464e8e7260c1f833aae39dbaf0000000000000000000000000000000000000000000000000000000000000bb8000000000000000000000000000000000000000000000000000000000000003c0000000000000000000000007f27b06177c996a923b04428e07c5640f31b43c00000000000000000000000000000000000000001000000000000000000000000",
        "nonce": "0xda",
        "chainId": "0x515"
      },
      "additionalContracts": [],
      "isFixedGasLimit": false
    }
  ],
  "receipts": [
    {
      "status": "0x1",
      "cumulativeGasUsed": "0x1d38d",
      "logs": [
        {
          "address": "0x00b036b58a818b1bc34d502d3fe730db729e62ac",
          "topics": [
            "0xdd466e674ea557f56295e2d0218a125ea4b4f0f6f3307b95f85e6110838d6438",
            "0x1cc588f92e439e88ef8710b36d81d287cd539fd0903947eb7c8103d8fc9c9542",
            "0x000000000000000000000000663551545ed415e85645c49630bc81e10d3b9a54",
            "0x00000000000000000000000096bea0e29d5a261464e8e7260c1f833aae39dbaf"
          ],
          "data": "0x0000000000000000000000000000000000000000000000000000000000000bb8000000000000000000000000000000000000000000000000000000000000003c0000000000000000000000007f27b06177c996a923b04428e07c5640f31b43c000000000000000000000000000000000000000010000000000000000000000000000000000000000000000000000000000000000000000000000000000000000",
          "blockHash": "0x2cb45cc37e8c611221280f583facd4096e709aab219b1c34c3370e128b82fc13",
          "blockNumber": "0x1eaa010",
          "blockTimestamp": "0x68d84d5c",
          "transactionHash": "0x28dad6ccde74d4e7cf0934af692f5e745e81422348879a1edad36d6f104d8a26",
          "transactionIndex": "0x2",
          "logIndex": "0x0",
          "removed": false
        }
      ],
      "logsBloom": "0x00080000000000000000000000000000000010000000000000000000000000000001000000000000000000000000000000000000000000000000000000000000000000000000000000000000000000000000000000000000000000000000000000004000000000000000000004000000000000000000000000000000000000000001000000000008000000000008000000000001000000000020000000200000000000000000000000000000001000400000000000000000000000000000000000000000000000000000000000000000000000000000000000000000000000000000000000000000000000000000000000000000000002000000000000000010",
      "type": "0x2",
      "transactionHash": "0x28dad6ccde74d4e7cf0934af692f5e745e81422348879a1edad36d6f104d8a26",
      "transactionIndex": "0x2",
      "blockHash": "0x2cb45cc37e8c611221280f583facd4096e709aab219b1c34c3370e128b82fc13",
      "blockNumber": "0x1eaa010",
      "gasUsed": "0xc9f9",
      "effectiveGasPrice": "0xfe",
      "from": "0xc4fe13e473e6ad2bb0ba8a365bf581080d92db18",
      "to": "0x00b036b58a818b1bc34d502d3fe730db729e62ac",
      "contractAddress": null,
      "l1BaseFeeScalar": "0x7d0",
      "l1BlobBaseFee": "0x1",
      "l1BlobBaseFeeScalar": "0xdbba0",
      "l1Fee": "0xab",
      "l1GasPrice": "0xa",
      "l1GasUsed": "0x8c9"
    }
  ],
  "libraries": [],
  "pending": [],
  "returns": {},
  "timestamp": 1759006043,
  "chain": 1301,
  "commit": "c6ee337"
}