{
  "transactions": [
    {
      "hash": "0xe2ae2f81ab9ded2f646f5d1cf4e667fa059408e08f40f95719ec307231cc09c3",
      "transactionType": "CALL",
      "contractName": null,
      "contractAddress": "0x00b036b58a818b1bc34d502d3fe730db729e62ac",
      "function": "initialize((address,address,uint24,int24,address),uint160)",
      "arguments": [
        "(0xb9c6b71B84FD94b1e677BDC07ff825f110bCD61f, 0xe3A426896Ca307c3fa4A818f2889F44582460954, 3000, 60, 0xCCC76dee7e3161447b28A8661Ad9164114A103C0)",
        "79228162514264337593543950336"
      ],
      "transaction": {
        "from": "0xc4fe13e473e6ad2bb0ba8a365bf581080d92db18",
        "to": "0x00b036b58a818b1bc34d502d3fe730db729e62ac",
        "gas": "0x12762",
        "value": "0x0",
        "input": "0x6276cbbe000000000000000000000000b9c6b71b84fd94b1e677bdc07ff825f110bcd61f000000000000000000000000e3a426896ca307c3fa4a818f2889f445824609540000000000000000000000000000000000000000000000000000000000000bb8000000000000000000000000000000000000000000000000000000000000003c000000000000000000000000ccc76dee7e3161447b28a8661ad9164114a103c00000000000000000000000000000000000000001000000000000000000000000",
        "nonce": "0x6c",
        "chainId": "0x515"
      },
      "additionalContracts": [],
      "isFixedGasLimit": false
    },
    {
      "hash": "0x496eb9ac1b06ef39484cb047bb2a58deb2d32942063b4ed2f8641d232c340b4c",
      "transactionType": "CALL",
      "contractName": null,
      "contractAddress": "0x00b036b58a818b1bc34d502d3fe730db729e62ac",
      "function": "initialize((address,address,uint24,int24,address),uint160)",
      "arguments": [
        "(0x0000000000000000000000000000000000000000, 0xb9c6b71B84FD94b1e677BDC07ff825f110bCD61f, 3000, 60, 0xCCC76dee7e3161447b28A8661Ad9164114A103C0)",
        "79228162514264337593543950336"
      ],
      "transaction": {
        "from": "0xc4fe13e473e6ad2bb0ba8a365bf581080d92db18",
        "to": "0x00b036b58a818b1bc34d502d3fe730db729e62ac",
        "gas": "0x12603",
        "value": "0x0",
        "input": "0x6276cbbe0000000000000000000000000000000000000000000000000000000000000000000000000000000000000000b9c6b71b84fd94b1e677bdc07ff825f110bcd61f0000000000000000000000000000000000000000000000000000000000000bb8000000000000000000000000000000000000000000000000000000000000003c000000000000000000000000ccc76dee7e3161447b28a8661ad9164114a103c00000000000000000000000000000000000000001000000000000000000000000",
        "nonce": "0x6d",
        "chainId": "0x515"
      },
      "additionalContracts": [],
      "isFixedGasLimit": false
    }
  ],
  "receipts": [
    {
      "status": "0x1",
      "cumulativeGasUsed": "0x1d38d",
      "logs": [
        {
          "address": "0x00b036b58a818b1bc34d502d3fe730db729e62ac",
          "topics": [
            "0xdd466e674ea557f56295e2d0218a125ea4b4f0f6f3307b95f85e6110838d6438",
            "0x3583c549538ba683f15732b7218e4ee882e93485c58a528e00ed55d351ae6a26",
            "0x000000000000000000000000b9c6b71b84fd94b1e677bdc07ff825f110bcd61f",
            "0x000000000000000000000000e3a426896ca307c3fa4a818f2889f44582460954"
          ],
          "data": "0x0000000000000000000000000000000000000000000000000000000000000bb8000000000000000000000000000000000000000000000000000000000000003c000000000000000000000000ccc76dee7e3161447b28a8661ad9164114a103c000000000000000000000000000000000000000010000000000000000000000000000000000000000000000000000000000000000000000000000000000000000",
          "blockHash": "0x54a376c9b24f18eea3e32a7f292ed197d4d0d626dabb8d9ff318fd17578420c2",
          "blockNumber": "0x1ea65c4",
          "blockTimestamp": "0x68d81310",
          "transactionHash": "0xe2ae2f81ab9ded2f646f5d1cf4e667fa059408e08f40f95719ec307231cc09c3",
          "transactionIndex": "0x2",
          "logIndex": "0x0",
          "removed": false
        }
      ],
      "logsBloom": "0x80000000000000000000000000000000000000000000000000000000000800000000000000000000000000000000000000000000000000000000000000000000000000000000000000000000000000000000000000200000000000100000000000000000000000000000000000000000000000004000000000000000000000000000000000000008000000000008000000000001000008000000000000200000000000000000000000000000000000000000000000000000000000000000000000000000000000000000000000000000000000040000210000000000000000000000000000000000000000000000000000000000000002000000000000000010",
      "type": "0x2",
      "transactionHash": "0xe2ae2f81ab9ded2f646f5d1cf4e667fa059408e08f40f95719ec307231cc09c3",
      "transactionIndex": "0x2",
      "blockHash": "0x54a376c9b24f18eea3e32a7f292ed197d4d0d626dabb8d9ff318fd17578420c2",
      "blockNumber": "0x1ea65c4",
      "gasUsed": "0xc9f9",
      "effectiveGasPrice": "0xfe",
      "from": "0xc4fe13e473e6ad2bb0ba8a365bf581080d92db18",
      "to": "0x00b036b58a818b1bc34d502d3fe730db729e62ac",
      "contractAddress": null,
      "l1BaseFeeScalar": "0x7d0",
      "l1BlobBaseFee": "0x1",
      "l1BlobBaseFeeScalar": "0xdbba0",
      "l1Fee": "0xb7",
      "l1GasPrice": "0xd",
      "l1GasUsed": "0x8bc"
    },
    {
      "status": "0x1",
      "cumulativeGasUsed": "0x29c96",
      "logs": [
        {
          "address": "0x00b036b58a818b1bc34d502d3fe730db729e62ac",
          "topics": [
            "0xdd466e674ea557f56295e2d0218a125ea4b4f0f6f3307b95f85e6110838d6438",
            "0x019c851140eb1d364c882289cb8dd1b1ab7a0bda318fa9d408db2e9dd6cab359",
            "0x0000000000000000000000000000000000000000000000000000000000000000",
            "0x000000000000000000000000b9c6b71b84fd94b1e677bdc07ff825f110bcd61f"
          ],
          "data": "0x0000000000000000000000000000000000000000000000000000000000000bb8000000000000000000000000000000000000000000000000000000000000003c000000000000000000000000ccc76dee7e3161447b28a8661ad9164114a103c000000000000000000000000000000000000000010000000000000000000000000000000000000000000000000000000000000000000000000000000000000000",
          "blockHash": "0x54a376c9b24f18eea3e32a7f292ed197d4d0d626dabb8d9ff318fd17578420c2",
          "blockNumber": "0x1ea65c4",
          "blockTimestamp": "0x68d81310",
          "transactionHash": "0x496eb9ac1b06ef39484cb047bb2a58deb2d32942063b4ed2f8641d232c340b4c",
          "transactionIndex": "0x3",
          "logIndex": "0x1",
          "removed": false
        }
      ],
      "logsBloom": "0x80000000000000000000000000000000000000000000000000000000000000000000000000000000000000000000000020000000000000000000000000000000000000000000000000000000000000000000000000000000000000100000000000000000020000000000000000000800010000000000000800000000000000000000000000000008000000000008000000000001000008000000000000200000000000000000000000000000000000000000000000000000000000000000000000000000000000000000000000000000000000000000000000000000000020000000000000000000000000000000000000000000000002000000000000000010",
      "type": "0x2",
      "transactionHash": "0x496eb9ac1b06ef39484cb047bb2a58deb2d32942063b4ed2f8641d232c340b4c",
      "transactionIndex": "0x3",
      "blockHash": "0x54a376c9b24f18eea3e32a7f292ed197d4d0d626dabb8d9ff318fd17578420c2",
      "blockNumber": "0x1ea65c4",
      "gasUsed": "0xc909",
      "effectiveGasPrice": "0xfe",
      "from": "0xc4fe13e473e6ad2bb0ba8a365bf581080d92db18",
      "to": "0x00b036b58a818b1bc34d502d3fe730db729e62ac",
      "contractAddress": null,
      "l1BaseFeeScalar": "0x7d0",
      "l1BlobBaseFee": "0x1",
      "l1BlobBaseFeeScalar": "0xdbba0",
      "l1Fee": "0x9c",
      "l1GasPrice": "0xd",
      "l1GasUsed": "0x76d"
    }
  ],
  "libraries": [],
  "pending": [],
  "returns": {},
  "timestamp": 1758991120,
  "chain": 1301,
  "commit": "7605bd8"
}