{
  "transactions": [
    {
      "hash": "0xba9a4e63caa3a2b66cc4350eac4e7793739f53661bf0c9046127da71a45e9057",
      "transactionType": "CALL",
      "contractName": null,
      "contractAddress": "0x00b036b58a818b1bc34d502d3fe730db729e62ac",
      "function": "initialize((address,address,uint24,int24,address),uint160)",
      "arguments": [
        "(0x4aFd548ccb8F5E9dF4c05FAA437ADd0C6E315196, 0xb1144bA09b8Af62e2BdEBe5Db4cE98C58d287130, 3000, 60, 0x8dB0Bdb0B4bb528059d72e51E76e335cCB0843c0)",
        "79228162514264337593543950336"
      ],
      "transaction": {
        "from": "0xc4fe13e473e6ad2bb0ba8a365bf581080d92db18",
        "to": "0x00b036b58a818b1bc34d502d3fe730db729e62ac",
        "gas": "0x12762",
        "value": "0x0",
        "input": "0x6276cbbe0000000000000000000000004afd548ccb8f5e9df4c05faa437add0c6e315196000000000000000000000000b1144ba09b8af62e2bdebe5db4ce98c58d2871300000000000000000000000000000000000000000000000000000000000000bb8000000000000000000000000000000000000000000000000000000000000003c0000000000000000000000008db0bdb0b4bb528059d72e51e76e335ccb0843c00000000000000000000000000000000000000001000000000000000000000000",
        "nonce": "0x23b",
        "chainId": "0x515"
      },
      "additionalContracts": [],
      "isFixedGasLimit": false
    }
  ],
  "receipts": [
    {
      "status": "0x1",
      "cumulativeGasUsed": "0x3ed5b",
      "logs": [
        {
          "address": "0x00b036b58a818b1bc34d502d3fe730db729e62ac",
          "topics": [
            "0xdd466e674ea557f56295e2d0218a125ea4b4f0f6f3307b95f85e6110838d6438",
            "0x712198761b30fcadb2c01dcf968a1d56cd86f4cc7efb37ca2c2d9e074245f300",
            "0x0000000000000000000000004afd548ccb8f5e9df4c05faa437add0c6e315196",
            "0x000000000000000000000000b1144ba09b8af62e2bdebe5db4ce98c58d287130"
          ],
          "data": "0x0000000000000000000000000000000000000000000000000000000000000bb8000000000000000000000000000000000000000000000000000000000000003c0000000000000000000000008db0bdb0b4bb528059d72e51e76e335ccb0843c000000000000000000000000000000000000000010000000000000000000000000000000000000000000000000000000000000000000000000000000000000000",
          "blockHash": "0xbc4aad7ab02e67db1a443645c3433f0bb7350f0b2ae0d5242e48047787a5b906",
          "blockNumber": "0x1eb2920",
          "blockTimestamp": "0x68d8d66c",
          "transactionHash": "0xba9a4e63caa3a2b66cc4350eac4e7793739f53661bf0c9046127da71a45e9057",
          "transactionIndex": "0x3",
          "logIndex": "0x2",
          "removed": false
        }
      ],
      "logsBloom": "0x00000000000000000000000000000000000000000000000000000000000000000000000000004000000000000800000000000000000000010000000000100000000000000200000000000000000000000000000000000000000000000000000000000000000000000000000000000000000000100000000000000000000000004000000000000008000000000008000000000001000000000000000000200000000000000000000000000000000000000000000000000000000000000000200000000000000000000000000000000000000000000000000000000001000000000000000000000000000000000000000000000000000002000000000000000010",
      "type": "0x2",
      "transactionHash": "0xba9a4e63caa3a2b66cc4350eac4e7793739f53661bf0c9046127da71a45e9057",
      "transactionIndex": "0x3",
      "blockHash": "0xbc4aad7ab02e67db1a443645c3433f0bb7350f0b2ae0d5242e48047787a5b906",
      "blockNumber": "0x1eb2920",
      "gasUsed": "0xc9f9",
      "effectiveGasPrice": "0xff",
      "from": "0xc4fe13e473e6ad2bb0ba8a365bf581080d92db18",
      "to": "0x00b036b58a818b1bc34d502d3fe730db729e62ac",
      "contractAddress": null,
      "l1BaseFeeScalar": "0x7d0",
      "l1BlobBaseFee": "0x1",
      "l1BlobBaseFeeScalar": "0xdbba0",
      "l1Fee": "0xa3",
      "l1GasPrice": "0x8",
      "l1GasUsed": "0x8d7"
    }
  ],
  "libraries": [],
  "pending": [],
  "returns": {},
  "timestamp": 1759041134,
  "chain": 1301,
  "commit": "caffa2d"
}