{
  "transactions": [
    {
      "hash": "0xb567e660a4888d90bfcc618e3e07e7031342c1d21b2e9d2b554a2e9afaf235f6",
      "transactionType": "CALL",
      "contractName": null,
      "contractAddress": "0x00b036b58a818b1bc34d502d3fe730db729e62ac",
      "function": "initialize((address,address,uint24,int24,address),uint160)",
      "arguments": [
        "(0x1f176479e5d3D62cf1245C7be36Ae2e634988705, 0x5F8CfACDA1f8A81f50200B80C2D63F61bC64630E, 3000, 60, 0x6De61420d77d47Bd038C90fEF421458e5DFEC3c0)",
        "79228162514264337593543950336"
      ],
      "transaction": {
        "from": "0xc4fe13e473e6ad2bb0ba8a365bf581080d92db18",
        "to": "0x00b036b58a818b1bc34d502d3fe730db729e62ac",
        "gas": "0x12762",
        "value": "0x0",
        "input": "0x6276cbbe0000000000000000000000001f176479e5d3d62cf1245c7be36ae2e6349887050000000000000000000000005f8cfacda1f8a81f50200b80c2d63f61bc64630e0000000000000000000000000000000000000000000000000000000000000bb8000000000000000000000000000000000000000000000000000000000000003c0000000000000000000000006de61420d77d47bd038c90fef421458e5dfec3c00000000000000000000000000000000000000001000000000000000000000000",
        "nonce": "0x1b1",
        "chainId": "0x515"
      },
      "additionalContracts": [],
      "isFixedGasLimit": false
    }
  ],
  "receipts": [
    {
      "status": "0x1",
      "cumulativeGasUsed": "0x1d38d",
      "logs": [
        {
          "address": "0x00b036b58a818b1bc34d502d3fe730db729e62ac",
          "topics": [
            "0xdd466e674ea557f56295e2d0218a125ea4b4f0f6f3307b95f85e6110838d6438",
            "0xaa09d4c6b851230f2566ee725e377337c8a777f759f82e02e4fa1d7dbc570867",
            "0x0000000000000000000000001f176479e5d3d62cf1245c7be36ae2e634988705",
            "0x0000000000000000000000005f8cfacda1f8a81f50200b80c2d63f61bc64630e"
          ],
          "data": "0x0000000000000000000000000000000000000000000000000000000000000bb8000000000000000000000000000000000000000000000000000000000000003c0000000000000000000000006de61420d77d47bd038c90fef421458e5dfec3c000000000000000000000000000000000000000010000000000000000000000000000000000000000000000000000000000000000000000000000000000000000",
          "blockHash": "0xea3f9d344d0f3f9ce71bfa24c693cb155fb5c86afafeb6621759042b8712f806",
          "blockNumber": "0x1eaf334",
          "blockTimestamp": "0x68d8a080",
          "transactionHash": "0xb567e660a4888d90bfcc618e3e07e7031342c1d21b2e9d2b554a2e9afaf235f6",
          "transactionIndex": "0x2",
          "logIndex": "0x0",
          "removed": false
        }
      ],
      "logsBloom": "0x00000000800000000000000000000000000400000000000080000000000000000000000000000000000000000000000000000000000004000000000000000000000200000000000000000000000000000000000000000000000000000000040000000000000000000000000000000000000000000000000000000000000000000000000000000008000000000008000000000001000000000000000000200000000000000000000400000001000000000000000000000000000000000000000000000000000000000000000000000000000000000000000000000000000000000000000000000000000000000000400000000000000002000000000000000010",
      "type": "0x2",
      "transactionHash": "0xb567e660a4888d90bfcc618e3e07e7031342c1d21b2e9d2b554a2e9afaf235f6",
      "transactionIndex": "0x2",
      "blockHash": "0xea3f9d344d0f3f9ce71bfa24c693cb155fb5c86afafeb6621759042b8712f806",
      "blockNumber": "0x1eaf334",
      "gasUsed": "0xc9f9",
      "effectiveGasPrice": "0xfe",
      "from": "0xc4fe13e473e6ad2bb0ba8a365bf581080d92db18",
      "to": "0x00b036b58a818b1bc34d502d3fe730db729e62ac",
      "contractAddress": null,
      "l1BaseFeeScalar": "0x7d0",
      "l1BlobBaseFee": "0x1",
      "l1BlobBaseFeeScalar": "0xdbba0",
      "l1Fee": "0xac",
      "l1GasPrice": "0xa",
      "l1GasUsed": "0x8d7"
    }
  ],
  "libraries": [],
  "pending": [],
  "returns": {},
  "timestamp": 1759027328,
  "chain": 1301,
  "commit": "b7c866c"
}