{
  "transactions": [
    {
      "hash": "0xa37ab08d079e9b1ba08b1f452fb8bc15ae7a72b528574f653a196f23d90024d5",
      "transactionType": "CALL",
      "contractName": null,
      "contractAddress": "0x00b036b58a818b1bc34d502d3fe730db729e62ac",
      "function": "initialize((address,address,uint24,int24,address),uint160)",
      "arguments": [
        "(0x7c2059119C9ecdC609D0F869E2fB369f971272b4, 0xeb8fb6AaFd16D4C0EC7d9a6647a59bAd69aB97d8, 3000, 60, 0xAC8cb40C0b21B698dB648c4c540Ec58B784203C0)",
        "79228162514264337593543950336"
      ],
      "transaction": {
        "from": "0xc4fe13e473e6ad2bb0ba8a365bf581080d92db18",
        "to": "0x00b036b58a818b1bc34d502d3fe730db729e62ac",
        "gas": "0x12762",
        "value": "0x0",
        "input": "0x6276cbbe0000000000000000000000007c2059119c9ecdc609d0f869e2fb369f971272b4000000000000000000000000eb8fb6aafd16d4c0ec7d9a6647a59bad69ab97d80000000000000000000000000000000000000000000000000000000000000bb8000000000000000000000000000000000000000000000000000000000000003c000000000000000000000000ac8cb40c0b21b698db648c4c540ec58b784203c00000000000000000000000000000000000000001000000000000000000000000",
        "nonce": "0x81",
        "chainId": "0x515"
      },
      "additionalContracts": [],
      "isFixedGasLimit": false
    },
    {
      "hash": "0xbac2968a5cfe93aa1d9bf9ad1ab80980129e9aa72835dda798c1ebd3931f1dd5",
      "transactionType": "CALL",
      "contractName": null,
      "contractAddress": "0x00b036b58a818b1bc34d502d3fe730db729e62ac",
      "function": "initialize((address,address,uint24,int24,address),uint160)",
      "arguments": [
        "(0x0000000000000000000000000000000000000000, 0xeb8fb6AaFd16D4C0EC7d9a6647a59bAd69aB97d8, 3000, 60, 0xAC8cb40C0b21B698dB648c4c540Ec58B784203C0)",
        "79228162514264337593543950336"
      ],
      "transaction": {
        "from": "0xc4fe13e473e6ad2bb0ba8a365bf581080d92db18",
        "to": "0x00b036b58a818b1bc34d502d3fe730db729e62ac",
        "gas": "0x12603",
        "value": "0x0",
        "input": "0x6276cbbe0000000000000000000000000000000000000000000000000000000000000000000000000000000000000000eb8fb6aafd16d4c0ec7d9a6647a59bad69ab97d80000000000000000000000000000000000000000000000000000000000000bb8000000000000000000000000000000000000000000000000000000000000003c000000000000000000000000ac8cb40c0b21b698db648c4c540ec58b784203c00000000000000000000000000000000000000001000000000000000000000000",
        "nonce": "0x82",
        "chainId": "0x515"
      },
      "additionalContracts": [],
      "isFixedGasLimit": false
    }
  ],
  "receipts": [
    {
      "status": "0x1",
      "cumulativeGasUsed": "0x66f51",
      "logs": [
        {
          "address": "0x00b036b58a818b1bc34d502d3fe730db729e62ac",
          "topics": [
            "0xdd466e674ea557f56295e2d0218a125ea4b4f0f6f3307b95f85e6110838d6438",
            "0xe8050949469334294ebcaa9344258e7d936444194202667386bfe9e9c1a1a5eb",
            "0x0000000000000000000000007c2059119c9ecdc609d0f869e2fb369f971272b4",
            "0x000000000000000000000000eb8fb6aafd16d4c0ec7d9a6647a59bad69ab97d8"
          ],
          "data": "0x0000000000000000000000000000000000000000000000000000000000000bb8000000000000000000000000000000000000000000000000000000000000003c000000000000000000000000ac8cb40c0b21b698db648c4c540ec58b784203c000000000000000000000000000000000000000010000000000000000000000000000000000000000000000000000000000000000000000000000000000000000",
          "blockHash": "0x92066e711a28fba0b455c7b3c9bfa6d1f757f343192c5ab11eb648361d82ac77",
          "blockNumber": "0x1ea74b1",
          "blockTimestamp": "0x68d821fd",
          "transactionHash": "0xa37ab08d079e9b1ba08b1f452fb8bc15ae7a72b528574f653a196f23d90024d5",
          "transactionIndex": "0x3",
          "logIndex": "0x8",
          "removed": false
        }
      ],
      "logsBloom": "0x00000000000000000000000000000000000000000000000000000000000000000000000000000000000000000000000000000000000000000000000000000002000000000000000000000000010000080000000000000000000000000000000000000000000000000000000000000000000000000000000000000000000000000000000000000008000000002008000000000005020000000000000000200000010000000000000000000000004000000000000000000000000000000000000000000000000040000000000000000000000000000000000000000000000000000000000000000000000000000000000000000000000002000000000000000010",
      "type": "0x2",
      "transactionHash": "0xa37ab08d079e9b1ba08b1f452fb8bc15ae7a72b528574f653a196f23d90024d5",
      "transactionIndex": "0x3",
      "blockHash": "0x92066e711a28fba0b455c7b3c9bfa6d1f757f343192c5ab11eb648361d82ac77",
      "blockNumber": "0x1ea74b1",
      "gasUsed": "0xc9f9",
      "effectiveGasPrice": "0xab0d8",
      "from": "0xc4fe13e473e6ad2bb0ba8a365bf581080d92db18",
      "to": "0x00b036b58a818b1bc34d502d3fe730db729e62ac",
      "contractAddress": null,
      "l1BaseFeeScalar": "0x7d0",
      "l1BlobBaseFee": "0x1",
      "l1BlobBaseFeeScalar": "0xdbba0",
      "l1Fee": "0xb4",
      "l1GasPrice": "0xb",
      "l1GasUsed": "0x8ff"
    },
    {
      "status": "0x1",
      "cumulativeGasUsed": "0x7385a",
      "logs": [
        {
          "address": "0x00b036b58a818b1bc34d502d3fe730db729e62ac",
          "topics": [
            "0xdd466e674ea557f56295e2d0218a125ea4b4f0f6f3307b95f85e6110838d6438",
            "0xe25315999076485f1616918e7f01d690b5c7ac604393ecc66bf32d7a9b295896",
            "0x0000000000000000000000000000000000000000000000000000000000000000",
            "0x000000000000000000000000eb8fb6aafd16d4c0ec7d9a6647a59bad69ab97d8"
          ],
          "data": "0x0000000000000000000000000000000000000000000000000000000000000bb8000000000000000000000000000000000000000000000000000000000000003c000000000000000000000000ac8cb40c0b21b698db648c4c540ec58b784203c000000000000000000000000000000000000000010000000000000000000000000000000000000000000000000000000000000000000000000000000000000000",
          "blockHash": "0x92066e711a28fba0b455c7b3c9bfa6d1f757f343192c5ab11eb648361d82ac77",
          "blockNumber": "0x1ea74b1",
          "blockTimestamp": "0x68d821fd",
          "transactionHash": "0xbac2968a5cfe93aa1d9bf9ad1ab80980129e9aa72835dda798c1ebd3931f1dd5",
          "transactionIndex": "0x4",
          "logIndex": "0x9",
          "removed": false
        }
      ],
      "logsBloom": "0x00000000000000000000000000000000000000000000000000000000000000000000000000000000000000000000000000000000000000000000000000080000000000000000000000000000200000080000000000000000000000000000000000000000020000000000000000000800000000000000000000000000000000000000000000000008000000002008000000000001000000000000000000200000000000000000000000000000004000000000000000000000000000000000000000000000000000000000000000000000000000000000000000000000000820000000000000000000000000000000000000000000000002000000000000000010",
      "type": "0x2",
      "transactionHash": "0xbac2968a5cfe93aa1d9bf9ad1ab80980129e9aa72835dda798c1ebd3931f1dd5",
      "transactionIndex": "0x4",
      "blockHash": "0x92066e711a28fba0b455c7b3c9bfa6d1f757f343192c5ab11eb648361d82ac77",
      "blockNumber": "0x1ea74b1",
      "gasUsed": "0xc909",
      "effectiveGasPrice": "0xab0d8",
      "from": "0xc4fe13e473e6ad2bb0ba8a365bf581080d92db18",
      "to": "0x00b036b58a818b1bc34d502d3fe730db729e62ac",
      "contractAddress": null,
      "l1BaseFeeScalar": "0x7d0",
      "l1BlobBaseFee": "0x1",
      "l1BlobBaseFeeScalar": "0xdbba0",
      "l1Fee": "0x9a",
      "l1GasPrice": "0xb",
      "l1GasUsed": "0x7b0"
    }
  ],
  "libraries": [],
  "pending": [],
  "returns": {},
  "timestamp": 1758994941,
  "chain": 1301,
  "commit": "7605bd8"
}