{
  "transactions": [
    {
      "hash": "0xf9622c047497117f571a484bba3d565f5a3551ccbcf45773d5116c5a5bfbb40b",
      "transactionType": "CALL",
      "contractName": null,
      "contractAddress": "0x00b036b58a818b1bc34d502d3fe730db729e62ac",
      "function": "initialize((address,address,uint24,int24,address),uint160)",
      "arguments": [
        "(0x663551545Ed415e85645C49630bC81E10D3B9a54, 0x96beA0E29D5a261464E8e7260c1F833aAe39dbaF, 3000, 60, 0x76A7436A1B3425B9065252f2212B738d0a0943c0)",
        "79228162514264337593543950336"
      ],
      "transaction": {
        "from": "0xc4fe13e473e6ad2bb0ba8a365bf581080d92db18",
        "to": "0x00b036b58a818b1bc34d502d3fe730db729e62ac",
        "gas": "0x12762",
        "value": "0x0",
        "input": "0x6276cbbe000000000000000000000000663551545ed415e85645c49630bc81e10d3b9a5400000000000000000000000096bea0e29d5a261464e8e7260c1f833aae39dbaf0000000000000000000000000000000000000000000000000000000000000bb8000000000000000000000000000000000000000000000000000000000000003c00000000000000000000000076a7436a1b3425b9065252f2212b738d0a0943c00000000000000000000000000000000000000001000000000000000000000000",
        "nonce": "0x100",
        "chainId": "0x515"
      },
      "additionalContracts": [],
      "isFixedGasLimit": false
    }
  ],
  "receipts": [
    {
      "status": "0x1",
      "cumulativeGasUsed": "0xa9f27",
      "logs": [
        {
          "address": "0x00b036b58a818b1bc34d502d3fe730db729e62ac",
          "topics": [
            "0xdd466e674ea557f56295e2d0218a125ea4b4f0f6f3307b95f85e6110838d6438",
            "0x20edc987defefa30bdf31be4bc2ace8db9e814233fe17d122b2f94b0dce2a265",
            "0x000000000000000000000000663551545ed415e85645c49630bc81e10d3b9a54",
            "0x00000000000000000000000096bea0e29d5a261464e8e7260c1f833aae39dbaf"
          ],
          "data": "0x0000000000000000000000000000000000000000000000000000000000000bb8000000000000000000000000000000000000000000000000000000000000003c00000000000000000000000076a7436a1b3425b9065252f2212b738d0a0943c000000000000000000000000000000000000000010000000000000000000000000000000000000000000000000000000000000000000000000000000000000000",
          "blockHash": "0xe9f8550b19b77e408feb594b32f2ebdd5bcdff2265fba67afeb9433408c34047",
          "blockNumber": "0x1eac73e",
          "blockTimestamp": "0x68d8748a",
          "transactionHash": "0xf9622c047497117f571a484bba3d565f5a3551ccbcf45773d5116c5a5bfbb40b",
          "transactionIndex": "0x3",
          "logIndex": "0x8",
          "removed": false
        }
      ],
      "logsBloom": "0x00000000000000000000000000000000000010000000000000000000000000000000000040000000000000000000000000000000000000000000000000000000000000000000000000000000000000000000000000000000000000000000000000004000000000000000000004000000000000000000000000000000000000000001000000000008000000000008000000000001000000000020000000a00000000000000000000000000010001000000000000000000000000000000000000000000000000000000000000000000000000000000000000000000000000000000000000000000000000000000000000000000000000002000000000000000010",
      "type": "0x2",
      "transactionHash": "0xf9622c047497117f571a484bba3d565f5a3551ccbcf45773d5116c5a5bfbb40b",
      "transactionIndex": "0x3",
      "blockHash": "0xe9f8550b19b77e408feb594b32f2ebdd5bcdff2265fba67afeb9433408c34047",
      "blockNumber": "0x1eac73e",
      "gasUsed": "0xc9f9",
      "effectiveGasPrice": "0xfe",
      "from": "0xc4fe13e473e6ad2bb0ba8a365bf581080d92db18",
      "to": "0x00b036b58a818b1bc34d502d3fe730db729e62ac",
      "contractAddress": null,
      "l1BaseFeeScalar": "0x7d0",
      "l1BlobBaseFee": "0x1",
      "l1BlobBaseFeeScalar": "0xdbba0",
      "l1Fee": "0xa8",
      "l1GasPrice": "0x9",
      "l1GasUsed": "0x8d7"
    }
  ],
  "libraries": [],
  "pending": [],
  "returns": {},
  "timestamp": 1759016073,
  "chain": 1301,
  "commit": "c6ee337"
}